{
  "address": "0xAbAd450fAfE0379D3D2a24394Fe36123693d23cB",
  "abi": [
    {
      "inputs": [
        {
          "internalType": "address",
          "name": "pool",
          "type": "address"
        }
      ],
      "name": "exitPool",
      "outputs": [],
      "stateMutability": "nonpayable",
      "type": "function"
    }
  ],
  "transactionHash": "0x7afcf5880e8b334673157f3d636fba078bfe040fdb52fdd41a1421c9db4ef546",
  "args": [],
  "numDeployments": 1,
  "solcInputHash": "5beb06b613e968a99d04f390bf3d5756",
  "bytecode": "0x608060405234801561001057600080fd5b506106bc806100206000396000f3fe608060405234801561001057600080fd5b506004361061002b5760003560e01c8063ba5a2d3314610030575b600080fd5b61004361003e36600461031c565b610045565b005b60008190506000816001600160a01b0316638d928af86040518163ffffffff1660e01b8152600401602060405180830381865afa15801561008a573d6000803e3d6000fd5b505050506040513d601f19601f820116820180604052508101906100ae9190610340565b90506000826001600160a01b03166338fff2d06040518163ffffffff1660e01b8152600401602060405180830381865afa1580156100f0573d6000803e3d6000fd5b505050506040513d601f19601f82011682018060405250810190610114919061035d565b604051631f29a8cd60e31b8152600481018290529091506000906001600160a01b0384169063f94d466890602401600060405180830381865afa15801561015f573d6000803e3d6000fd5b505050506040513d6000823e601f3d908101601f19168201604052610187919081019061044c565b505090506000815167ffffffffffffffff8111156101a7576101a7610376565b6040519080825280602002602001820160405280156101d0578160200160208202803683370190505b50604080516080810182528481526020810183905281516370a0823160e01b8152306004820152929350600092909182019060019081906001600160a01b038b16906370a0823190602401602060405180830381865afa158015610238573d6000803e3d6000fd5b505050506040513d601f19601f8201168201806040525081019061025c919061035d565b610266919061051a565b6040805160ff90931660208401528201526060016040516020818303038152906040528152602001600015158152509050846001600160a01b0316638bdb3913853030856040518563ffffffff1660e01b81526004016102c994939291906105c7565b600060405180830381600087803b1580156102e357600080fd5b505af11580156102f7573d6000803e3d6000fd5b5050505050505050505050565b6001600160a01b038116811461031957600080fd5b50565b60006020828403121561032e57600080fd5b813561033981610304565b9392505050565b60006020828403121561035257600080fd5b815161033981610304565b60006020828403121561036f57600080fd5b5051919050565b634e487b7160e01b600052604160045260246000fd5b604051601f8201601f1916810167ffffffffffffffff811182821017156103b5576103b5610376565b604052919050565b600067ffffffffffffffff8211156103d7576103d7610376565b5060051b60200190565b600082601f8301126103f257600080fd5b81516020610407610402836103bd565b61038c565b82815260059290921b8401810191818101908684111561042657600080fd5b8286015b84811015610441578051835291830191830161042a565b509695505050505050565b60008060006060848603121561046157600080fd5b835167ffffffffffffffff8082111561047957600080fd5b818601915086601f83011261048d57600080fd5b8151602061049d610402836103bd565b82815260059290921b8401810191818101908a8411156104bc57600080fd5b948201945b838610156104e35785516104d481610304565b825294820194908201906104c1565b918901519197509093505050808211156104fc57600080fd5b50610509868287016103e1565b925050604084015190509250925092565b60008282101561053a57634e487b7160e01b600052601160045260246000fd5b500390565b600081518084526020808501945080840160005b8381101561056f57815187529582019590820190600101610553565b509495945050505050565b6000815180845260005b818110156105a057602081850181015186830182015201610584565b818111156105b2576000602083870101525b50601f01601f19169290920160200192915050565b8481526000602060018060a01b038087168285015280861660408501526080606085015261010084018551608080870152818151808452610120880191508583019350600092505b808310156106315783518516825292850192600192909201919085019061060f565b50848801519450607f199350838782030160a0880152610651818661053f565b94505050506040850151818584030160c086015261066f838261057a565b92505050606084015161044160e08501821515905256fea26469706673582212208a27b15fd0188bc5f66bba8093c18f2145bfcd4c12ccaf8fefd5b2aaf36a0ed564736f6c634300080f0033",
  "devdoc": {
    "kind": "dev",
    "methods": {},
    "version": 1
  },
  "userdoc": {
    "kind": "user",
    "methods": {},
    "version": 1
  },
  "storageLayout": {
    "storage": [],
    "types": null
  }
}