{
  "address": "0x10115Ef77bcFD57649b1ECB8A574b56BCca8b843",
  "abi": [
    {
      "inputs": [
        {
          "internalType": "address",
          "name": "pool",
          "type": "address"
        },
        {
          "internalType": "uint256[]",
          "name": "minAmountsOut",
          "type": "uint256[]"
        }
      ],
      "name": "exitPool",
      "outputs": [],
      "stateMutability": "nonpayable",
      "type": "function"
    }
  ],
  "transactionHash": "0x1373930067bb337f21128eba97a1543565993585e12a081a9cdfc32672ef7d7d",
  "args": [],
  "numDeployments": 1,
  "solcInputHash": "b4f250c0906b156e615edae771e04e96",
  "bytecode": "0x608060405234801561001057600080fd5b506106cc806100206000396000f3fe608060405234801561001057600080fd5b506004361061002b5760003560e01c806337a31fb614610030575b600080fd5b61004361003e366004610333565b610045565b005b60008290506000816001600160a01b0316638d928af86040518163ffffffff1660e01b8152600401602060405180830381865afa15801561008a573d6000803e3d6000fd5b505050506040513d601f19601f820116820180604052508101906100ae91906103de565b90506000826001600160a01b03166338fff2d06040518163ffffffff1660e01b8152600401602060405180830381865afa1580156100f0573d6000803e3d6000fd5b505050506040513d601f19601f820116820180604052508101906101149190610402565b604051631f29a8cd60e31b8152600481018290529091506000906001600160a01b0384169063f94d466890602401600060405180830381865afa15801561015f573d6000803e3d6000fd5b505050506040513d6000823e601f3d908101601f191682016040526101879190810190610481565b5050604080516080810182528281526020810188905281516370a0823160e01b815230600482015292935060009290918201906001906001600160a01b038916906370a0823190602401602060405180830381865afa1580156101ee573d6000803e3d6000fd5b505050506040513d601f19601f820116820180604052508101906102129190610402565b6040805160ff90931660208401528201526060016040516020818303038152906040528152602001600015158152509050836001600160a01b0316638bdb3913843030856040518563ffffffff1660e01b815260040161027594939291906105d7565b600060405180830381600087803b15801561028f57600080fd5b505af11580156102a3573d6000803e3d6000fd5b5050505050505050505050565b6001600160a01b03811681146102c557600080fd5b50565b634e487b7160e01b600052604160045260246000fd5b604051601f8201601f1916810167ffffffffffffffff81118282101715610307576103076102c8565b604052919050565b600067ffffffffffffffff821115610329576103296102c8565b5060051b60200190565b6000806040838503121561034657600080fd5b8235610351816102b0565b915060208381013567ffffffffffffffff81111561036e57600080fd5b8401601f8101861361037f57600080fd5b803561039261038d8261030f565b6102de565b81815260059190911b820183019083810190888311156103b157600080fd5b928401925b828410156103cf578335825292840192908401906103b6565b80955050505050509250929050565b6000602082840312156103f057600080fd5b81516103fb816102b0565b9392505050565b60006020828403121561041457600080fd5b5051919050565b600082601f83011261042c57600080fd5b8151602061043c61038d8361030f565b82815260059290921b8401810191818101908684111561045b57600080fd5b8286015b84811015610476578051835291830191830161045f565b509695505050505050565b60008060006060848603121561049657600080fd5b835167ffffffffffffffff808211156104ae57600080fd5b818601915086601f8301126104c257600080fd5b815160206104d261038d8361030f565b82815260059290921b8401810191818101908a8411156104f157600080fd5b948201945b83861015610518578551610509816102b0565b825294820194908201906104f6565b9189015191975090935050508082111561053157600080fd5b5061053e8682870161041b565b925050604084015190509250925092565b600081518084526020808501945080840160005b8381101561057f57815187529582019590820190600101610563565b509495945050505050565b6000815180845260005b818110156105b057602081850181015186830182015201610594565b818111156105c2576000602083870101525b50601f01601f19169290920160200192915050565b8481526000602060018060a01b038087168285015280861660408501526080606085015261010084018551608080870152818151808452610120880191508583019350600092505b808310156106415783518516825292850192600192909201919085019061061f565b50848801519450607f199350838782030160a0880152610661818661054f565b94505050506040850151818584030160c086015261067f838261058a565b92505050606084015161047660e08501821515905256fea264697066735822122065f77374d63c6b6b69484ae3fdcaf97c21454fea73bf6a920f24fdde77c9ac6d64736f6c634300080f0033",
  "devdoc": {
    "kind": "dev",
    "methods": {},
    "version": 1
  },
  "userdoc": {
    "kind": "user",
    "methods": {},
    "version": 1
  },
  "storageLayout": {
    "storage": [],
    "types": null
  }
}