{
  "address": "0x3A32dFe680f5177d1b88061A566dA858a847C78A",
  "abi": [
    {
      "inputs": [
        {
          "internalType": "address",
          "name": "pool",
          "type": "address"
        },
        {
          "internalType": "uint256[]",
          "name": "minAmountsOut",
          "type": "uint256[]"
        }
      ],
      "name": "exitPool",
      "outputs": [],
      "stateMutability": "nonpayable",
      "type": "function"
    }
  ],
  "transactionHash": "0x3a7da37390e77c24ec7cab3a4c074bd9129935118f3ae5bb33a6c8a541f1e05d",
  "args": [],
  "numDeployments": 3,
  "solcInputHash": "35b9eb676158b94ffdcd48958ce56f5e",
  "bytecode": "0x608060405234801561001057600080fd5b506106fd806100206000396000f3fe608060405234801561001057600080fd5b506004361061002b5760003560e01c806337a31fb614610030575b600080fd5b61004361003e36600461033f565b610045565b005b60008290506000816001600160a01b0316638d928af86040518163ffffffff1660e01b8152600401602060405180830381865afa15801561008a573d6000803e3d6000fd5b505050506040513d601f19601f820116820180604052508101906100ae91906103ea565b90506000826001600160a01b03166338fff2d06040518163ffffffff1660e01b8152600401602060405180830381865afa1580156100f0573d6000803e3d6000fd5b505050506040513d601f19601f82011682018060405250810190610114919061040e565b604051631f29a8cd60e31b8152600481018290529091506000906001600160a01b0384169063f94d466890602401600060405180830381865afa15801561015f573d6000803e3d6000fd5b505050506040513d6000823e601f3d908101601f19168201604052610187919081019061048d565b5050604080516080810182528281526020810188905281516370a0823160e01b8152306004820152929350600092909182019060019081906001600160a01b038a16906370a0823190602401602060405180830381865afa1580156101f0573d6000803e3d6000fd5b505050506040513d601f19601f82011682018060405250810190610214919061040e565b61021e919061055b565b6040805160ff90931660208401528201526060016040516020818303038152906040528152602001600015158152509050836001600160a01b0316638bdb3913843030856040518563ffffffff1660e01b81526004016102819493929190610608565b600060405180830381600087803b15801561029b57600080fd5b505af11580156102af573d6000803e3d6000fd5b5050505050505050505050565b6001600160a01b03811681146102d157600080fd5b50565b634e487b7160e01b600052604160045260246000fd5b604051601f8201601f1916810167ffffffffffffffff81118282101715610313576103136102d4565b604052919050565b600067ffffffffffffffff821115610335576103356102d4565b5060051b60200190565b6000806040838503121561035257600080fd5b823561035d816102bc565b915060208381013567ffffffffffffffff81111561037a57600080fd5b8401601f8101861361038b57600080fd5b803561039e6103998261031b565b6102ea565b81815260059190911b820183019083810190888311156103bd57600080fd5b928401925b828410156103db578335825292840192908401906103c2565b80955050505050509250929050565b6000602082840312156103fc57600080fd5b8151610407816102bc565b9392505050565b60006020828403121561042057600080fd5b5051919050565b600082601f83011261043857600080fd5b815160206104486103998361031b565b82815260059290921b8401810191818101908684111561046757600080fd5b8286015b84811015610482578051835291830191830161046b565b509695505050505050565b6000806000606084860312156104a257600080fd5b835167ffffffffffffffff808211156104ba57600080fd5b818601915086601f8301126104ce57600080fd5b815160206104de6103998361031b565b82815260059290921b8401810191818101908a8411156104fd57600080fd5b948201945b83861015610524578551610515816102bc565b82529482019490820190610502565b9189015191975090935050508082111561053d57600080fd5b5061054a86828701610427565b925050604084015190509250925092565b60008282101561057b57634e487b7160e01b600052601160045260246000fd5b500390565b600081518084526020808501945080840160005b838110156105b057815187529582019590820190600101610594565b509495945050505050565b6000815180845260005b818110156105e1576020818501810151868301820152016105c5565b818111156105f3576000602083870101525b50601f01601f19169290920160200192915050565b8481526000602060018060a01b038087168285015280861660408501526080606085015261010084018551608080870152818151808452610120880191508583019350600092505b8083101561067257835185168252928501926001929092019190850190610650565b50848801519450607f199350838782030160a08801526106928186610580565b94505050506040850151818584030160c08601526106b083826105bb565b92505050606084015161048260e08501821515905256fea26469706673582212206bb61dce98b6330f14c0eeb23f06fc3e83825f80a58a0eaad205b683d9ff7b2664736f6c634300080f0033",
  "devdoc": {
    "kind": "dev",
    "methods": {},
    "version": 1
  },
  "userdoc": {
    "kind": "user",
    "methods": {},
    "version": 1
  },
  "storageLayout": {
    "storage": [],
    "types": null
  }
}