{
  "address": "0xe1801E06104Eda666B5d7e915B6ef47A5191222f",
  "abi": [
    {
      "inputs": [],
      "payable": false,
      "stateMutability": "nonpayable",
      "type": "constructor"
    },
    {
      "anonymous": false,
      "inputs": [
        {
          "indexed": false,
          "internalType": "uint256",
          "name": "cashPrior",
          "type": "uint256"
        },
        {
          "indexed": false,
          "internalType": "uint256",
          "name": "interestAccumulated",
          "type": "uint256"
        },
        {
          "indexed": false,
          "internalType": "uint256",
          "name": "borrowIndex",
          "type": "uint256"
        },
        {
          "indexed": false,
          "internalType": "uint256",
          "name": "totalBorrows",
          "type": "uint256"
        }
      ],
      "name": "AccrueInterest",
      "type": "event"
    },
    {
      "anonymous": false,
      "inputs": [
        {
          "indexed": true,
          "internalType": "address",
          "name": "owner",
          "type": "address"
        },
        {
          "indexed": true,
          "internalType": "address",
          "name": "spender",
          "type": "address"
        },
        {
          "indexed": false,
          "internalType": "uint256",
          "name": "amount",
          "type": "uint256"
        }
      ],
      "name": "Approval",
      "type": "event"
    },
    {
      "anonymous": false,
      "inputs": [
        {
          "indexed": false,
          "internalType": "address",
          "name": "borrower",
          "type": "address"
        },
        {
          "indexed": false,
          "internalType": "uint256",
          "name": "borrowAmount",
          "type": "uint256"
        },
        {
          "indexed": false,
          "internalType": "uint256",
          "name": "accountBorrows",
          "type": "uint256"
        },
        {
          "indexed": false,
          "internalType": "uint256",
          "name": "totalBorrows",
          "type": "uint256"
        }
      ],
      "name": "Borrow",
      "type": "event"
    },
    {
      "anonymous": false,
      "inputs": [
        {
          "indexed": false,
          "internalType": "uint256",
          "name": "error",
          "type": "uint256"
        },
        {
          "indexed": false,
          "internalType": "uint256",
          "name": "info",
          "type": "uint256"
        },
        {
          "indexed": false,
          "internalType": "uint256",
          "name": "detail",
          "type": "uint256"
        }
      ],
      "name": "Failure",
      "type": "event"
    },
    {
      "anonymous": false,
      "inputs": [
        {
          "indexed": false,
          "internalType": "address",
          "name": "liquidator",
          "type": "address"
        },
        {
          "indexed": false,
          "internalType": "address",
          "name": "borrower",
          "type": "address"
        },
        {
          "indexed": false,
          "internalType": "uint256",
          "name": "repayAmount",
          "type": "uint256"
        },
        {
          "indexed": false,
          "internalType": "address",
          "name": "cTokenCollateral",
          "type": "address"
        },
        {
          "indexed": false,
          "internalType": "uint256",
          "name": "seizeTokens",
          "type": "uint256"
        }
      ],
      "name": "LiquidateBorrow",
      "type": "event"
    },
    {
      "anonymous": false,
      "inputs": [
        {
          "indexed": false,
          "internalType": "address",
          "name": "minter",
          "type": "address"
        },
        {
          "indexed": false,
          "internalType": "uint256",
          "name": "mintAmount",
          "type": "uint256"
        },
        {
          "indexed": false,
          "internalType": "uint256",
          "name": "mintTokens",
          "type": "uint256"
        }
      ],
      "name": "Mint",
      "type": "event"
    },
    {
      "anonymous": false,
      "inputs": [
        {
          "indexed": false,
          "internalType": "uint256",
          "name": "oldAdminFeeMantissa",
          "type": "uint256"
        },
        {
          "indexed": false,
          "internalType": "uint256",
          "name": "newAdminFeeMantissa",
          "type": "uint256"
        }
      ],
      "name": "NewAdminFee",
      "type": "event"
    },
    {
      "anonymous": false,
      "inputs": [
        {
          "indexed": false,
          "internalType": "contract ComptrollerInterface",
          "name": "oldComptroller",
          "type": "address"
        },
        {
          "indexed": false,
          "internalType": "contract ComptrollerInterface",
          "name": "newComptroller",
          "type": "address"
        }
      ],
      "name": "NewComptroller",
      "type": "event"
    },
    {
      "anonymous": false,
      "inputs": [
        {
          "indexed": false,
          "internalType": "uint256",
          "name": "oldFuseFeeMantissa",
          "type": "uint256"
        },
        {
          "indexed": false,
          "internalType": "uint256",
          "name": "newFuseFeeMantissa",
          "type": "uint256"
        }
      ],
      "name": "NewFuseFee",
      "type": "event"
    },
    {
      "anonymous": false,
      "inputs": [
        {
          "indexed": false,
          "internalType": "address",
          "name": "oldImplementation",
          "type": "address"
        },
        {
          "indexed": false,
          "internalType": "address",
          "name": "newImplementation",
          "type": "address"
        }
      ],
      "name": "NewImplementation",
      "type": "event"
    },
    {
      "anonymous": false,
      "inputs": [
        {
          "indexed": false,
          "internalType": "contract InterestRateModel",
          "name": "oldInterestRateModel",
          "type": "address"
        },
        {
          "indexed": false,
          "internalType": "contract InterestRateModel",
          "name": "newInterestRateModel",
          "type": "address"
        }
      ],
      "name": "NewMarketInterestRateModel",
      "type": "event"
    },
    {
      "anonymous": false,
      "inputs": [
        {
          "indexed": false,
          "internalType": "uint256",
          "name": "oldReserveFactorMantissa",
          "type": "uint256"
        },
        {
          "indexed": false,
          "internalType": "uint256",
          "name": "newReserveFactorMantissa",
          "type": "uint256"
        }
      ],
      "name": "NewReserveFactor",
      "type": "event"
    },
    {
      "anonymous": false,
      "inputs": [
        {
          "indexed": false,
          "internalType": "address",
          "name": "redeemer",
          "type": "address"
        },
        {
          "indexed": false,
          "internalType": "uint256",
          "name": "redeemAmount",
          "type": "uint256"
        },
        {
          "indexed": false,
          "internalType": "uint256",
          "name": "redeemTokens",
          "type": "uint256"
        }
      ],
      "name": "Redeem",
      "type": "event"
    },
    {
      "anonymous": false,
      "inputs": [
        {
          "indexed": false,
          "internalType": "address",
          "name": "payer",
          "type": "address"
        },
        {
          "indexed": false,
          "internalType": "address",
          "name": "borrower",
          "type": "address"
        },
        {
          "indexed": false,
          "internalType": "uint256",
          "name": "repayAmount",
          "type": "uint256"
        },
        {
          "indexed": false,
          "internalType": "uint256",
          "name": "accountBorrows",
          "type": "uint256"
        },
        {
          "indexed": false,
          "internalType": "uint256",
          "name": "totalBorrows",
          "type": "uint256"
        }
      ],
      "name": "RepayBorrow",
      "type": "event"
    },
    {
      "anonymous": false,
      "inputs": [
        {
          "indexed": false,
          "internalType": "address",
          "name": "benefactor",
          "type": "address"
        },
        {
          "indexed": false,
          "internalType": "uint256",
          "name": "addAmount",
          "type": "uint256"
        },
        {
          "indexed": false,
          "internalType": "uint256",
          "name": "newTotalReserves",
          "type": "uint256"
        }
      ],
      "name": "ReservesAdded",
      "type": "event"
    },
    {
      "anonymous": false,
      "inputs": [
        {
          "indexed": false,
          "internalType": "address",
          "name": "admin",
          "type": "address"
        },
        {
          "indexed": false,
          "internalType": "uint256",
          "name": "reduceAmount",
          "type": "uint256"
        },
        {
          "indexed": false,
          "internalType": "uint256",
          "name": "newTotalReserves",
          "type": "uint256"
        }
      ],
      "name": "ReservesReduced",
      "type": "event"
    },
    {
      "anonymous": false,
      "inputs": [
        {
          "indexed": true,
          "internalType": "address",
          "name": "from",
          "type": "address"
        },
        {
          "indexed": true,
          "internalType": "address",
          "name": "to",
          "type": "address"
        },
        {
          "indexed": false,
          "internalType": "uint256",
          "name": "amount",
          "type": "uint256"
        }
      ],
      "name": "Transfer",
      "type": "event"
    },
    {
      "constant": false,
      "inputs": [
        {
          "internalType": "bytes",
          "name": "data",
          "type": "bytes"
        }
      ],
      "name": "_becomeImplementation",
      "outputs": [],
      "payable": false,
      "stateMutability": "nonpayable",
      "type": "function"
    },
    {
      "constant": false,
      "inputs": [
        {
          "internalType": "address",
          "name": "compLikeDelegatee",
          "type": "address"
        }
      ],
      "name": "_delegateCompLikeTo",
      "outputs": [],
      "payable": false,
      "stateMutability": "nonpayable",
      "type": "function"
    },
    {
      "constant": false,
      "inputs": [],
      "name": "_prepare",
      "outputs": [],
      "payable": true,
      "stateMutability": "payable",
      "type": "function"
    },
    {
      "constant": false,
      "inputs": [
        {
          "internalType": "uint256",
          "name": "reduceAmount",
          "type": "uint256"
        }
      ],
      "name": "_reduceReserves",
      "outputs": [
        {
          "internalType": "uint256",
          "name": "",
          "type": "uint256"
        }
      ],
      "payable": false,
      "stateMutability": "nonpayable",
      "type": "function"
    },
    {
      "constant": false,
      "inputs": [
        {
          "internalType": "uint256",
          "name": "newAdminFeeMantissa",
          "type": "uint256"
        }
      ],
      "name": "_setAdminFee",
      "outputs": [
        {
          "internalType": "uint256",
          "name": "",
          "type": "uint256"
        }
      ],
      "payable": false,
      "stateMutability": "nonpayable",
      "type": "function"
    },
    {
      "constant": false,
      "inputs": [
        {
          "internalType": "address",
          "name": "implementation_",
          "type": "address"
        },
        {
          "internalType": "bool",
          "name": "allowResign",
          "type": "bool"
        },
        {
          "internalType": "bytes",
          "name": "becomeImplementationData",
          "type": "bytes"
        }
      ],
      "name": "_setImplementationSafe",
      "outputs": [],
      "payable": false,
      "stateMutability": "nonpayable",
      "type": "function"
    },
    {
      "constant": false,
      "inputs": [
        {
          "internalType": "contract InterestRateModel",
          "name": "newInterestRateModel",
          "type": "address"
        }
      ],
      "name": "_setInterestRateModel",
      "outputs": [
        {
          "internalType": "uint256",
          "name": "",
          "type": "uint256"
        }
      ],
      "payable": false,
      "stateMutability": "nonpayable",
      "type": "function"
    },
    {
      "constant": false,
      "inputs": [
        {
          "internalType": "string",
          "name": "_name",
          "type": "string"
        },
        {
          "internalType": "string",
          "name": "_symbol",
          "type": "string"
        }
      ],
      "name": "_setNameAndSymbol",
      "outputs": [],
      "payable": false,
      "stateMutability": "nonpayable",
      "type": "function"
    },
    {
      "constant": false,
      "inputs": [
        {
          "internalType": "uint256",
          "name": "newReserveFactorMantissa",
          "type": "uint256"
        }
      ],
      "name": "_setReserveFactor",
      "outputs": [
        {
          "internalType": "uint256",
          "name": "",
          "type": "uint256"
        }
      ],
      "payable": false,
      "stateMutability": "nonpayable",
      "type": "function"
    },
    {
      "constant": false,
      "inputs": [
        {
          "internalType": "uint256",
          "name": "withdrawAmount",
          "type": "uint256"
        }
      ],
      "name": "_withdrawAdminFees",
      "outputs": [
        {
          "internalType": "uint256",
          "name": "",
          "type": "uint256"
        }
      ],
      "payable": false,
      "stateMutability": "nonpayable",
      "type": "function"
    },
    {
      "constant": false,
      "inputs": [
        {
          "internalType": "uint256",
          "name": "withdrawAmount",
          "type": "uint256"
        }
      ],
      "name": "_withdrawFuseFees",
      "outputs": [
        {
          "internalType": "uint256",
          "name": "",
          "type": "uint256"
        }
      ],
      "payable": false,
      "stateMutability": "nonpayable",
      "type": "function"
    },
    {
      "constant": true,
      "inputs": [],
      "name": "accrualBlockNumber",
      "outputs": [
        {
          "internalType": "uint256",
          "name": "",
          "type": "uint256"
        }
      ],
      "payable": false,
      "stateMutability": "view",
      "type": "function"
    },
    {
      "constant": false,
      "inputs": [],
      "name": "accrueInterest",
      "outputs": [
        {
          "internalType": "uint256",
          "name": "",
          "type": "uint256"
        }
      ],
      "payable": false,
      "stateMutability": "nonpayable",
      "type": "function"
    },
    {
      "constant": true,
      "inputs": [],
      "name": "adminFeeMantissa",
      "outputs": [
        {
          "internalType": "uint256",
          "name": "",
          "type": "uint256"
        }
      ],
      "payable": false,
      "stateMutability": "view",
      "type": "function"
    },
    {
      "constant": true,
      "inputs": [
        {
          "internalType": "address",
          "name": "owner",
          "type": "address"
        },
        {
          "internalType": "address",
          "name": "spender",
          "type": "address"
        }
      ],
      "name": "allowance",
      "outputs": [
        {
          "internalType": "uint256",
          "name": "",
          "type": "uint256"
        }
      ],
      "payable": false,
      "stateMutability": "view",
      "type": "function"
    },
    {
      "constant": false,
      "inputs": [
        {
          "internalType": "address",
          "name": "spender",
          "type": "address"
        },
        {
          "internalType": "uint256",
          "name": "amount",
          "type": "uint256"
        }
      ],
      "name": "approve",
      "outputs": [
        {
          "internalType": "bool",
          "name": "",
          "type": "bool"
        }
      ],
      "payable": false,
      "stateMutability": "nonpayable",
      "type": "function"
    },
    {
      "constant": true,
      "inputs": [
        {
          "internalType": "address",
          "name": "owner",
          "type": "address"
        }
      ],
      "name": "balanceOf",
      "outputs": [
        {
          "internalType": "uint256",
          "name": "",
          "type": "uint256"
        }
      ],
      "payable": false,
      "stateMutability": "view",
      "type": "function"
    },
    {
      "constant": false,
      "inputs": [
        {
          "internalType": "address",
          "name": "owner",
          "type": "address"
        }
      ],
      "name": "balanceOfUnderlying",
      "outputs": [
        {
          "internalType": "uint256",
          "name": "",
          "type": "uint256"
        }
      ],
      "payable": false,
      "stateMutability": "nonpayable",
      "type": "function"
    },
    {
      "constant": false,
      "inputs": [
        {
          "internalType": "uint256",
          "name": "borrowAmount",
          "type": "uint256"
        }
      ],
      "name": "borrow",
      "outputs": [
        {
          "internalType": "uint256",
          "name": "",
          "type": "uint256"
        }
      ],
      "payable": false,
      "stateMutability": "nonpayable",
      "type": "function"
    },
    {
      "constant": false,
      "inputs": [
        {
          "internalType": "address",
          "name": "account",
          "type": "address"
        }
      ],
      "name": "borrowBalanceCurrent",
      "outputs": [
        {
          "internalType": "uint256",
          "name": "",
          "type": "uint256"
        }
      ],
      "payable": false,
      "stateMutability": "nonpayable",
      "type": "function"
    },
    {
      "constant": true,
      "inputs": [
        {
          "internalType": "address",
          "name": "account",
          "type": "address"
        }
      ],
      "name": "borrowBalanceStored",
      "outputs": [
        {
          "internalType": "uint256",
          "name": "",
          "type": "uint256"
        }
      ],
      "payable": false,
      "stateMutability": "view",
      "type": "function"
    },
    {
      "constant": true,
      "inputs": [],
      "name": "borrowIndex",
      "outputs": [
        {
          "internalType": "uint256",
          "name": "",
          "type": "uint256"
        }
      ],
      "payable": false,
      "stateMutability": "view",
      "type": "function"
    },
    {
      "constant": true,
      "inputs": [],
      "name": "borrowRatePerBlock",
      "outputs": [
        {
          "internalType": "uint256",
          "name": "",
          "type": "uint256"
        }
      ],
      "payable": false,
      "stateMutability": "view",
      "type": "function"
    },
    {
      "constant": true,
      "inputs": [],
      "name": "comptroller",
      "outputs": [
        {
          "internalType": "contract ComptrollerInterface",
          "name": "",
          "type": "address"
        }
      ],
      "payable": false,
      "stateMutability": "view",
      "type": "function"
    },
    {
      "constant": true,
      "inputs": [],
      "name": "decimals",
      "outputs": [
        {
          "internalType": "uint8",
          "name": "",
          "type": "uint8"
        }
      ],
      "payable": false,
      "stateMutability": "view",
      "type": "function"
    },
    {
      "constant": false,
      "inputs": [],
      "name": "exchangeRateCurrent",
      "outputs": [
        {
          "internalType": "uint256",
          "name": "",
          "type": "uint256"
        }
      ],
      "payable": false,
      "stateMutability": "nonpayable",
      "type": "function"
    },
    {
      "constant": true,
      "inputs": [],
      "name": "exchangeRateStored",
      "outputs": [
        {
          "internalType": "uint256",
          "name": "",
          "type": "uint256"
        }
      ],
      "payable": false,
      "stateMutability": "view",
      "type": "function"
    },
    {
      "constant": true,
      "inputs": [],
      "name": "fuseAdmin",
      "outputs": [
        {
          "internalType": "contract IFuseFeeDistributor",
          "name": "",
          "type": "address"
        }
      ],
      "payable": false,
      "stateMutability": "view",
      "type": "function"
    },
    {
      "constant": true,
      "inputs": [],
      "name": "fuseFeeMantissa",
      "outputs": [
        {
          "internalType": "uint256",
          "name": "",
          "type": "uint256"
        }
      ],
      "payable": false,
      "stateMutability": "view",
      "type": "function"
    },
    {
      "constant": true,
      "inputs": [
        {
          "internalType": "address",
          "name": "account",
          "type": "address"
        }
      ],
      "name": "getAccountSnapshot",
      "outputs": [
        {
          "internalType": "uint256",
          "name": "",
          "type": "uint256"
        },
        {
          "internalType": "uint256",
          "name": "",
          "type": "uint256"
        },
        {
          "internalType": "uint256",
          "name": "",
          "type": "uint256"
        },
        {
          "internalType": "uint256",
          "name": "",
          "type": "uint256"
        }
      ],
      "payable": false,
      "stateMutability": "view",
      "type": "function"
    },
    {
      "constant": true,
      "inputs": [],
      "name": "getCash",
      "outputs": [
        {
          "internalType": "uint256",
          "name": "",
          "type": "uint256"
        }
      ],
      "payable": false,
      "stateMutability": "view",
      "type": "function"
    },
    {
      "constant": true,
      "inputs": [],
      "name": "implementation",
      "outputs": [
        {
          "internalType": "address",
          "name": "",
          "type": "address"
        }
      ],
      "payable": false,
      "stateMutability": "view",
      "type": "function"
    },
    {
      "constant": false,
      "inputs": [
        {
          "internalType": "contract ComptrollerInterface",
          "name": "comptroller_",
          "type": "address"
        },
        {
          "internalType": "contract InterestRateModel",
          "name": "interestRateModel_",
          "type": "address"
        },
        {
          "internalType": "uint256",
          "name": "initialExchangeRateMantissa_",
          "type": "uint256"
        },
        {
          "internalType": "string",
          "name": "name_",
          "type": "string"
        },
        {
          "internalType": "string",
          "name": "symbol_",
          "type": "string"
        },
        {
          "internalType": "uint8",
          "name": "decimals_",
          "type": "uint8"
        },
        {
          "internalType": "uint256",
          "name": "reserveFactorMantissa_",
          "type": "uint256"
        },
        {
          "internalType": "uint256",
          "name": "adminFeeMantissa_",
          "type": "uint256"
        }
      ],
      "name": "initialize",
      "outputs": [],
      "payable": false,
      "stateMutability": "nonpayable",
      "type": "function"
    },
    {
      "constant": false,
      "inputs": [
        {
          "internalType": "address",
          "name": "underlying_",
          "type": "address"
        },
        {
          "internalType": "contract ComptrollerInterface",
          "name": "comptroller_",
          "type": "address"
        },
        {
          "internalType": "contract InterestRateModel",
          "name": "interestRateModel_",
          "type": "address"
        },
        {
          "internalType": "string",
          "name": "name_",
          "type": "string"
        },
        {
          "internalType": "string",
          "name": "symbol_",
          "type": "string"
        },
        {
          "internalType": "uint256",
          "name": "reserveFactorMantissa_",
          "type": "uint256"
        },
        {
          "internalType": "uint256",
          "name": "adminFeeMantissa_",
          "type": "uint256"
        }
      ],
      "name": "initialize",
      "outputs": [],
      "payable": false,
      "stateMutability": "nonpayable",
      "type": "function"
    },
    {
      "constant": true,
      "inputs": [],
      "name": "interestRateModel",
      "outputs": [
        {
          "internalType": "contract InterestRateModel",
          "name": "",
          "type": "address"
        }
      ],
      "payable": false,
      "stateMutability": "view",
      "type": "function"
    },
    {
      "constant": true,
      "inputs": [],
      "name": "isCEther",
      "outputs": [
        {
          "internalType": "bool",
          "name": "",
          "type": "bool"
        }
      ],
      "payable": false,
      "stateMutability": "view",
      "type": "function"
    },
    {
      "constant": true,
      "inputs": [],
      "name": "isCToken",
      "outputs": [
        {
          "internalType": "bool",
          "name": "",
          "type": "bool"
        }
      ],
      "payable": false,
      "stateMutability": "view",
      "type": "function"
    },
    {
      "constant": false,
      "inputs": [
        {
          "internalType": "address",
          "name": "borrower",
          "type": "address"
        },
        {
          "internalType": "uint256",
          "name": "repayAmount",
          "type": "uint256"
        },
        {
          "internalType": "contract CTokenInterface",
          "name": "cTokenCollateral",
          "type": "address"
        }
      ],
      "name": "liquidateBorrow",
      "outputs": [
        {
          "internalType": "uint256",
          "name": "",
          "type": "uint256"
        }
      ],
      "payable": false,
      "stateMutability": "nonpayable",
      "type": "function"
    },
    {
      "constant": false,
      "inputs": [
        {
          "internalType": "uint256",
          "name": "mintAmount",
          "type": "uint256"
        }
      ],
      "name": "mint",
      "outputs": [
        {
          "internalType": "uint256",
          "name": "",
          "type": "uint256"
        }
      ],
      "payable": false,
      "stateMutability": "nonpayable",
      "type": "function"
    },
    {
      "constant": true,
      "inputs": [],
      "name": "name",
      "outputs": [
        {
          "internalType": "string",
          "name": "",
          "type": "string"
        }
      ],
      "payable": false,
      "stateMutability": "view",
      "type": "function"
    },
    {
      "constant": true,
      "inputs": [],
      "name": "protocolSeizeShareMantissa",
      "outputs": [
        {
          "internalType": "uint256",
          "name": "",
          "type": "uint256"
        }
      ],
      "payable": false,
      "stateMutability": "view",
      "type": "function"
    },
    {
      "constant": false,
      "inputs": [
        {
          "internalType": "uint256",
          "name": "redeemTokens",
          "type": "uint256"
        }
      ],
      "name": "redeem",
      "outputs": [
        {
          "internalType": "uint256",
          "name": "",
          "type": "uint256"
        }
      ],
      "payable": false,
      "stateMutability": "nonpayable",
      "type": "function"
    },
    {
      "constant": false,
      "inputs": [
        {
          "internalType": "uint256",
          "name": "redeemAmount",
          "type": "uint256"
        }
      ],
      "name": "redeemUnderlying",
      "outputs": [
        {
          "internalType": "uint256",
          "name": "",
          "type": "uint256"
        }
      ],
      "payable": false,
      "stateMutability": "nonpayable",
      "type": "function"
    },
    {
      "constant": false,
      "inputs": [
        {
          "internalType": "uint256",
          "name": "repayAmount",
          "type": "uint256"
        }
      ],
      "name": "repayBorrow",
      "outputs": [
        {
          "internalType": "uint256",
          "name": "",
          "type": "uint256"
        }
      ],
      "payable": false,
      "stateMutability": "nonpayable",
      "type": "function"
    },
    {
      "constant": false,
      "inputs": [
        {
          "internalType": "address",
          "name": "borrower",
          "type": "address"
        },
        {
          "internalType": "uint256",
          "name": "repayAmount",
          "type": "uint256"
        }
      ],
      "name": "repayBorrowBehalf",
      "outputs": [
        {
          "internalType": "uint256",
          "name": "",
          "type": "uint256"
        }
      ],
      "payable": false,
      "stateMutability": "nonpayable",
      "type": "function"
    },
    {
      "constant": true,
      "inputs": [],
      "name": "reserveFactorMantissa",
      "outputs": [
        {
          "internalType": "uint256",
          "name": "",
          "type": "uint256"
        }
      ],
      "payable": false,
      "stateMutability": "view",
      "type": "function"
    },
    {
      "constant": false,
      "inputs": [
        {
          "internalType": "address",
          "name": "liquidator",
          "type": "address"
        },
        {
          "internalType": "address",
          "name": "borrower",
          "type": "address"
        },
        {
          "internalType": "uint256",
          "name": "seizeTokens",
          "type": "uint256"
        }
      ],
      "name": "seize",
      "outputs": [
        {
          "internalType": "uint256",
          "name": "",
          "type": "uint256"
        }
      ],
      "payable": false,
      "stateMutability": "nonpayable",
      "type": "function"
    },
    {
      "constant": true,
      "inputs": [],
      "name": "supplyRatePerBlock",
      "outputs": [
        {
          "internalType": "uint256",
          "name": "",
          "type": "uint256"
        }
      ],
      "payable": false,
      "stateMutability": "view",
      "type": "function"
    },
    {
      "constant": true,
      "inputs": [],
      "name": "symbol",
      "outputs": [
        {
          "internalType": "string",
          "name": "",
          "type": "string"
        }
      ],
      "payable": false,
      "stateMutability": "view",
      "type": "function"
    },
    {
      "constant": true,
      "inputs": [],
      "name": "totalAdminFees",
      "outputs": [
        {
          "internalType": "uint256",
          "name": "",
          "type": "uint256"
        }
      ],
      "payable": false,
      "stateMutability": "view",
      "type": "function"
    },
    {
      "constant": true,
      "inputs": [],
      "name": "totalBorrows",
      "outputs": [
        {
          "internalType": "uint256",
          "name": "",
          "type": "uint256"
        }
      ],
      "payable": false,
      "stateMutability": "view",
      "type": "function"
    },
    {
      "constant": false,
      "inputs": [],
      "name": "totalBorrowsCurrent",
      "outputs": [
        {
          "internalType": "uint256",
          "name": "",
          "type": "uint256"
        }
      ],
      "payable": false,
      "stateMutability": "nonpayable",
      "type": "function"
    },
    {
      "constant": true,
      "inputs": [],
      "name": "totalFuseFees",
      "outputs": [
        {
          "internalType": "uint256",
          "name": "",
          "type": "uint256"
        }
      ],
      "payable": false,
      "stateMutability": "view",
      "type": "function"
    },
    {
      "constant": true,
      "inputs": [],
      "name": "totalReserves",
      "outputs": [
        {
          "internalType": "uint256",
          "name": "",
          "type": "uint256"
        }
      ],
      "payable": false,
      "stateMutability": "view",
      "type": "function"
    },
    {
      "constant": true,
      "inputs": [],
      "name": "totalSupply",
      "outputs": [
        {
          "internalType": "uint256",
          "name": "",
          "type": "uint256"
        }
      ],
      "payable": false,
      "stateMutability": "view",
      "type": "function"
    },
    {
      "constant": false,
      "inputs": [
        {
          "internalType": "address",
          "name": "dst",
          "type": "address"
        },
        {
          "internalType": "uint256",
          "name": "amount",
          "type": "uint256"
        }
      ],
      "name": "transfer",
      "outputs": [
        {
          "internalType": "bool",
          "name": "",
          "type": "bool"
        }
      ],
      "payable": false,
      "stateMutability": "nonpayable",
      "type": "function"
    },
    {
      "constant": false,
      "inputs": [
        {
          "internalType": "address",
          "name": "src",
          "type": "address"
        },
        {
          "internalType": "address",
          "name": "dst",
          "type": "address"
        },
        {
          "internalType": "uint256",
          "name": "amount",
          "type": "uint256"
        }
      ],
      "name": "transferFrom",
      "outputs": [
        {
          "internalType": "bool",
          "name": "",
          "type": "bool"
        }
      ],
      "payable": false,
      "stateMutability": "nonpayable",
      "type": "function"
    },
    {
      "constant": true,
      "inputs": [],
      "name": "underlying",
      "outputs": [
        {
          "internalType": "address",
          "name": "",
          "type": "address"
        }
      ],
      "payable": false,
      "stateMutability": "view",
      "type": "function"
    }
  ],
  "transactionHash": "0x6bc5a970114d7583bc12fc138d78ca6cda6b82bcddf572d8949dc04e297b3149",
  "args": [],
  "numDeployments": 1,
  "solcInputHash": "d48a71d5c7fd1e4cef13e73df9d99658",
  "bytecode": "0x608060405234801561001057600080fd5b50615ff680620000216000396000f3fe6080604052600436106103215760003560e01c8063852a12e3116101a1578063ae9d70b0116100f2578063dc028ab1116100a0578063f5e3c4621161006f578063f5e3c46214610f29578063f8f9da2814610f6c578063fca7820b14610f81578063fe9c44ae14610fab57610321565b8063dc028ab114610e91578063dd62ed3e14610ea6578063f2b3abbd14610ee1578063f3fdb15a14610f1457610321565b8063ae9d70b014610d62578063b2a02ff114610d77578063bd6d894d14610dba578063c37f68e214610dcf578063c5ebeaec14610e28578063db006a7514610e52578063dbfe7c1914610e7c57610321565b8063a0712d681161014f578063a0712d6814610b3a578063a0b0d28914610b64578063a6afed9514610cc0578063a7b820df14610cd5578063a9059cbb14610cff578063aa5af0fd14610d38578063ac784ddc14610d4d57610321565b8063852a12e314610a4a5780638d02d9a114610a745780638f840ddd14610a8957806391dd36c614610a9e57806395d89b4114610ac857806395dd919314610add578063a03dce8d14610b1057610321565b80633af9e66911610276578063601a0bf1116102245780636f307dc3116101f35780636f307dc3146109ba57806370a08231146109cf57806373acee9814610a025780637f1e06be14610a1757610321565b8063601a0bf11461095157806361feacff1461097b5780636752e702146109905780636c540baf146109a557610321565b80633af9e669146107bd5780633b1d21a2146107f057806347bd37181461080557806350d85b731461081a57806356e67728146108ac5780635c60da1b146109275780635fe3b5671461093c57610321565b806318160ddd116102d357806318160ddd14610619578063182df0f51461062e5780631db789441461064357806323b872dd1461064b5780632608f8181461068e578063313ce567146106c757806334154d4c146106f257610321565b806306fdde0314610326578063095ea7b3146103b05780630e752702146103fd5780630f8855e81461043957806315761d51146105a0578063173b9904146105d157806317bfdfbc146105e6575b600080fd5b34801561033257600080fd5b5061033b610fc0565b6040805160208082528351818301528351919283929083019185019080838360005b8381101561037557818101518382015260200161035d565b50505050905090810190601f1680156103a25780820380516001836020036101000a031916815260200191505b509250505060405180910390f35b3480156103bc57600080fd5b506103e9600480360360408110156103d357600080fd5b506001600160a01b03813516906020013561104e565b604080519115158252519081900360200190f35b34801561040957600080fd5b506104276004803603602081101561042057600080fd5b50356110bb565b60408051918252519081900360200190f35b34801561044557600080fd5b5061059e600480360361010081101561045d57600080fd5b6001600160a01b03823581169260208101359091169160408201359190810190608081016060820135600160201b81111561049757600080fd5b8201836020820111156104a957600080fd5b803590602001918460018302840111600160201b831117156104ca57600080fd5b91908080601f0160208091040260200160405190810160405280939291908181526020018383808284376000920191909152509295949360208101935035915050600160201b81111561051c57600080fd5b82018360208201111561052e57600080fd5b803590602001918460018302840111600160201b8311171561054f57600080fd5b91908080601f0160208091040260200160405190810160405280939291908181526020018383808284376000920191909152509295505060ff83351693505050602081013590604001356110d1565b005b3480156105ac57600080fd5b506105b56113f0565b604080516001600160a01b039092168252519081900360200190f35b3480156105dd57600080fd5b506104276113ff565b3480156105f257600080fd5b506104276004803603602081101561060957600080fd5b50356001600160a01b0316611405565b34801561062557600080fd5b50610427611481565b34801561063a57600080fd5b50610427611487565b61059e6114ea565b34801561065757600080fd5b506103e96004803603606081101561066e57600080fd5b506001600160a01b038135811691602081013590911690604001356116ef565b34801561069a57600080fd5b50610427600480360360408110156106b157600080fd5b506001600160a01b03813516906020013561171d565b3480156106d357600080fd5b506106dc611733565b6040805160ff9092168252519081900360200190f35b3480156106fe57600080fd5b5061059e6004803603604081101561071557600080fd5b810190602081018135600160201b81111561072f57600080fd5b82018360208201111561074157600080fd5b803590602001918460018302840111600160201b8311171561076257600080fd5b919390929091602081019035600160201b81111561077f57600080fd5b82018360208201111561079157600080fd5b803590602001918460018302840111600160201b831117156107b257600080fd5b50909250905061173c565b3480156107c957600080fd5b50610427600480360360208110156107e057600080fd5b50356001600160a01b03166117a8565b3480156107fc57600080fd5b5061042761185e565b34801561081157600080fd5b5061042761186d565b34801561082657600080fd5b5061059e6004803603606081101561083d57600080fd5b6001600160a01b03823516916020810135151591810190606081016040820135600160201b81111561086e57600080fd5b82018360208201111561088057600080fd5b803590602001918460018302840111600160201b831117156108a157600080fd5b509092509050611873565b3480156108b857600080fd5b5061059e600480360360208110156108cf57600080fd5b810190602081018135600160201b8111156108e957600080fd5b8201836020820111156108fb57600080fd5b803590602001918460018302840111600160201b8311171561091c57600080fd5b5090925090506118fc565b34801561093357600080fd5b506105b561195a565b34801561094857600080fd5b506105b5611969565b34801561095d57600080fd5b506104276004803603602081101561097457600080fd5b5035611978565b34801561098757600080fd5b506104276119c9565b34801561099c57600080fd5b506104276119cf565b3480156109b157600080fd5b506104276119da565b3480156109c657600080fd5b506105b56119e0565b3480156109db57600080fd5b50610427600480360360208110156109f257600080fd5b50356001600160a01b03166119ef565b348015610a0e57600080fd5b50610427611a0a565b348015610a2357600080fd5b5061059e60048036036020811015610a3a57600080fd5b50356001600160a01b0316611a7d565b348015610a5657600080fd5b5061042760048036036020811015610a6d57600080fd5b5035611b22565b348015610a8057600080fd5b50610427611b2d565b348015610a9557600080fd5b50610427611b33565b348015610aaa57600080fd5b5061042760048036036020811015610ac157600080fd5b5035611b39565b348015610ad457600080fd5b5061033b611b76565b348015610ae957600080fd5b5061042760048036036020811015610b0057600080fd5b50356001600160a01b0316611bd1565b348015610b1c57600080fd5b5061042760048036036020811015610b3357600080fd5b5035611c35565b348015610b4657600080fd5b5061042760048036036020811015610b5d57600080fd5b5035611c72565b348015610b7057600080fd5b5061059e600480360360e0811015610b8757600080fd5b6001600160a01b0382358116926020810135821692604082013590921691810190608081016060820135600160201b811115610bc257600080fd5b820183602082011115610bd457600080fd5b803590602001918460018302840111600160201b83111715610bf557600080fd5b91908080601f0160208091040260200160405190810160405280939291908181526020018383808284376000920191909152509295949360208101935035915050600160201b811115610c4757600080fd5b820183602082011115610c5957600080fd5b803590602001918460018302840111600160201b83111715610c7a57600080fd5b91908080601f0160208091040260200160405190810160405280939291908181526020018383808284376000920191909152509295505082359350505060200135611c7e565b348015610ccc57600080fd5b50610427611d97565b348015610ce157600080fd5b5061042760048036036020811015610cf857600080fd5b5035611f5b565b348015610d0b57600080fd5b506103e960048036036040811015610d2257600080fd5b506001600160a01b038135169060200135611f98565b348015610d4457600080fd5b50610427611fc5565b348015610d5957600080fd5b506103e9611fcb565b348015610d6e57600080fd5b50610427611fd0565b348015610d8357600080fd5b5061042760048036036060811015610d9a57600080fd5b506001600160a01b03813581169160208101359091169060400135612088565b348015610dc657600080fd5b506104276120ac565b348015610ddb57600080fd5b50610e0260048036036020811015610df257600080fd5b50356001600160a01b0316612120565b604080519485526020850193909352838301919091526060830152519081900360800190f35b348015610e3457600080fd5b5061042760048036036020811015610e4b57600080fd5b50356121b5565b348015610e5e57600080fd5b5061042760048036036020811015610e7557600080fd5b50356121c0565b348015610e8857600080fd5b506104276121cb565b348015610e9d57600080fd5b506104276121d1565b348015610eb257600080fd5b5061042760048036036040811015610ec957600080fd5b506001600160a01b03813581169160200135166121d7565b348015610eed57600080fd5b5061042760048036036020811015610f0457600080fd5b50356001600160a01b0316612202565b348015610f2057600080fd5b506105b561223c565b348015610f3557600080fd5b5061042760048036036060811015610f4c57600080fd5b506001600160a01b0381358116916020810135916040909101351661224b565b348015610f7857600080fd5b50610427612263565b348015610f8d57600080fd5b5061042760048036036020811015610fa457600080fd5b50356122d8565b348015610fb757600080fd5b506103e9612315565b6018805460408051602060026001851615610100026000190190941693909304601f810184900484028201840190925281815292918301828280156110465780601f1061101b57610100808354040283529160200191611046565b820191906000526020600020905b81548152906001019060200180831161102957829003601f168201915b505050505081565b3360008181526029602090815260408083206001600160a01b03871680855290835281842086905581518681529151939493909284927f8c5be1e5ebec7d5bd14f71427d1e84f3dd0314c0f7b2291e5b200ac8c7c3b925929081900390910190a360019150505b92915050565b6000806110c78361231a565b509150505b919050565b6000886001600160a01b03166315761d516040518163ffffffff1660e01b8152600401602060405180830381600087803b15801561110e57600080fd5b505af1158015611122573d6000803e3d6000fd5b505050506040513d602081101561113857600080fd5b50519050336001600160a01b038216146111835760405162461bcd60e51b8152600401808060200182810382526029815260200180615eac6029913960400191505060405180910390fd5b600b80546001600160a01b0319166001600160a01b0383161790556021541580156111ae5750602254155b6111e95760405162461bcd60e51b8152600401808060200182810382526023815260200180615d996023913960400191505060405180910390fd5b601d8790558661122a5760405162461bcd60e51b8152600401808060200182810382526030815260200180615dbc6030913960400191505060405180910390fd5b60006112358a61237d565b9050801561128a576040805162461bcd60e51b815260206004820152601a60248201527f73657474696e6720636f6d7074726f6c6c6572206661696c6564000000000000604482015290519081900360640190fd5b6112926124b0565b602155670de0b6b3a76400006022556112aa896124b4565b905080156112e95760405162461bcd60e51b8152600401808060200182810382526022815260200180615e196022913960400191505060405180910390fd5b86516112fc9060189060208a0190615b89565b508551611310906019906020890190615b89565b50601a805460ff191660ff8716179055611329846127ba565b9050801561137e576040805162461bcd60e51b815260206004820152601d60248201527f73657474696e67207265736572766520666163746f72206661696c6564000000604482015290519081900360640190fd5b61138783612873565b905080156113d7576040805162461bcd60e51b81526020600482015260186024820152771cd95d1d1a5b99c818591b5a5b881999594819985a5b195960421b604482015290519081900360640190fd5b50506017805460ff191660011790555050505050505050565b600b546001600160a01b031681565b60205481565b60008061141181612998565b600061141b611d97565b14611466576040805162461bcd60e51b81526020600482015260166024820152751858d8dc9d59481a5b9d195c995cdd0819985a5b195960521b604482015290519081900360640190fd5b61146f83611bd1565b91505b61147b81612a57565b50919050565b60275481565b6000806000611494612abc565b909250905060008260038111156114a757fe5b146114e35760405162461bcd60e51b8152600401808060200182810382526035815260200180615f596035913960400191505060405180910390fd5b9150505b90565b3330148015906115705750601b60009054906101000a90046001600160a01b03166001600160a01b031663dd5cd22c6040518163ffffffff1660e01b815260040160206040518083038186803b15801561154357600080fd5b505afa158015611557573d6000803e3d6000fd5b505050506040513d602081101561156d57600080fd5b50515b156116ed57600b5460008054604080516345cc970560e01b81526001600160a01b039283166004820152905192938493606093909116916345cc97059160248083019287929190829003018186803b1580156115cb57600080fd5b505afa1580156115df573d6000803e3d6000fd5b505050506040513d6000823e601f3d908101601f19168201604052606081101561160857600080fd5b81516020830151604080850180519151939592948301929184600160201b82111561163257600080fd5b90830190602082018581111561164757600080fd5b8251600160201b81118282018810171561166057600080fd5b82525081516020918201929091019080838360005b8381101561168d578181015183820152602001611675565b50505050905090810190601f1680156116ba5780820380516001836020036101000a031916815260200191505b5060405250506000549396509194509250506001600160a01b038085169116146116e9576116e9838383612b7c565b5050505b565b6000806116fb81612998565b600061170933878787612d8b565b14915061171581612a57565b509392505050565b60008061172a8484613017565b50949350505050565b601a5460ff1681565b61174461307c565b611788576040805162461bcd60e51b815260206004820152601060248201526f31b0b63632b9103737ba1030b236b4b760811b604482015290519081900360640190fd5b61179460188585615c03565b506117a160198383615c03565b5050505050565b60006117b2615c71565b60405180602001604052806117c56120ac565b90526001600160a01b0384166000908152602860205260408120549192509081906117f19084906131ee565b9092509050600082600381111561180457fe5b14611856576040805162461bcd60e51b815260206004820152601f60248201527f62616c616e636520636f756c64206e6f742062652063616c63756c6174656400604482015290519081900360640190fd5b949350505050565b6000611868613242565b905090565b60235481565b61187b61307c565b6118b5576040805162461bcd60e51b815260206004820152600660248201526510b0b236b4b760d11b604482015290519081900360640190fd5b6118f6848484848080601f016020809104026020016040519081016040528093929190818152602001838380828437600092019190915250612b7c92505050565b50505050565b3330148061190d575061190d61307c565b611946576040805162461bcd60e51b815260206004820152600560248201526410b9b2b63360d91b604482015290519081900360640190fd5b5050600c80546001600160b01b0319169055565b6000546001600160a01b031681565b601b546001600160a01b031681565b60008061198481612998565b600061198e611d97565b905080156119b4576119ac8160118111156119a557fe5b603b613290565b925050611472565b6119bd846132f6565b92505061147b81612a57565b60255481565b666379da05b6000081565b60215481565b6035546001600160a01b031681565b6001600160a01b031660009081526028602052604090205490565b600080611a1681612998565b6000611a20611d97565b14611a6b576040805162461bcd60e51b81526020600482015260166024820152751858d8dc9d59481a5b9d195c995cdd0819985a5b195960521b604482015290519081900360640190fd5b6023549150611a7981612a57565b5090565b611a8561307c565b611ac05760405162461bcd60e51b815260040180806020018281038252602d815260200180615dec602d913960400191505060405180910390fd5b603554604080516317066a5760e21b81526001600160a01b03848116600483015291519190921691635c19a95c91602480830192600092919082900301818387803b158015611b0e57600080fd5b505af11580156117a1573d6000803e3d6000fd5b60006110b5826133c2565b601e5481565b60245481565b600080611b4581612998565b6000611b4f611d97565b90508015611b6d576119ac816011811115611b6657fe5b6052613290565b6119bd84612873565b6019805460408051602060026001851615610100026000190190941693909304601f810184900484028201840190925281815292918301828280156110465780601f1061101b57610100808354040283529160200191611046565b6000806000611bdf84613402565b90925090506000826003811115611bf257fe5b14611c2e5760405162461bcd60e51b8152600401808060200182810382526037815260200180615e3b6037913960400191505060405180910390fd5b9392505050565b600080611c4181612998565b6000611c4b611d97565b90508015611c69576119ac816011811115611c6257fe5b6033613290565b6119bd846134b6565b6000806110c783613530565b60006702c68af0bb14000090506000886001600160a01b031663313ce5676040518163ffffffff1660e01b815260040160206040518083038186803b158015611cc657600080fd5b505afa158015611cda573d6000803e3d6000fd5b505050506040513d6020811015611cf057600080fd5b50519050611d048888848989868a8a6110d1565b603580546001600160a01b0319166001600160a01b038b81169190911791829055604080516318160ddd60e01b8152905192909116916318160ddd91600480820192602092909190829003018186803b158015611d6057600080fd5b505afa158015611d74573d6000803e3d6000fd5b505050506040513d6020811015611d8a57600080fd5b5050505050505050505050565b600080611da26124b0565b9050806021541415611db85760009150506114e7565b6000611dc2613242565b90506000601c60009054906101000a90046001600160a01b03166001600160a01b03166315f2405383602354611e07602454611e02602554602654613570565b613570565b6040518463ffffffff1660e01b815260040180848152602001838152602001828152602001935050505060206040518083038186803b158015611e4957600080fd5b505afa158015611e5d573d6000803e3d6000fd5b505050506040513d6020811015611e7357600080fd5b5051905064e8d4a51000811115611ed1576040805162461bcd60e51b815260206004820152601c60248201527f626f72726f772072617465206973206162737572646c79206869676800000000604482015290519081900360640190fd5b600080611ee0856021546135a6565b90925090506000826003811115611ef357fe5b14611f45576040805162461bcd60e51b815260206004820152601f60248201527f636f756c64206e6f742063616c63756c61746520626c6f636b2064656c746100604482015290519081900360640190fd5b611f51858585846135c9565b9550505050505090565b600080611f6781612998565b6000611f71611d97565b90508015611f8f576119ac816011811115611f8857fe5b6037613290565b6119bd846137e1565b600080611fa481612998565b6000611fb233338787612d8b565b149150611fbe81612a57565b5092915050565b60225481565b600081565b601c546000906001600160a01b031663b8168816611fec613242565b602354612003602454611e02602554602654613570565b601e54601f5460205401016040518563ffffffff1660e01b81526004018085815260200184815260200183815260200182815260200194505050505060206040518083038186803b15801561205757600080fd5b505afa15801561206b573d6000803e3d6000fd5b505050506040513d602081101561208157600080fd5b5051905090565b6000600161209581612998565b6120a1338686866138c9565b915061171581612a57565b6000806120b881612998565b60006120c2611d97565b1461210d576040805162461bcd60e51b81526020600482015260166024820152751858d8dc9d59481a5b9d195c995cdd0819985a5b195960521b604482015290519081900360640190fd5b612115611487565b9150611a7981612a57565b6001600160a01b03811660009081526028602052604081205481908190819081808061214b89613402565b93509050600081600381111561215d57fe5b1461217b5760095b9750600096508695508594506121ae9350505050565b612183612abc565b92509050600081600381111561219557fe5b146121a1576009612165565b5060009650919450925090505b9193509193565b60006110b582613ca3565b60006110b582613ce1565b601f5481565b60265481565b6001600160a01b03918216600090815260296020908152604080832093909416825291909152205490565b60008061220d611d97565b905080156122335761222b81601181111561222457fe5b604b613290565b9150506110cc565b611c2e836124b4565b601c546001600160a01b031681565b600080612259858585613d1a565b5095945050505050565b601c546000906001600160a01b03166315f2405361227f613242565b602354612296602454611e02602554602654613570565b6040518463ffffffff1660e01b815260040180848152602001838152602001828152602001935050505060206040518083038186803b15801561205757600080fd5b6000806122e481612998565b60006122ee611d97565b9050801561230c576119ac81601181111561230557fe5b6059613290565b6119bd846127ba565b600181565b600080600061232881612998565b6000612332611d97565b9050801561235d5761235081601181111561234957fe5b6041613290565b93506000925061236e9050565b612368333387613e06565b93509350505b61237781612a57565b50915091565b600080601b60009054906101000a90046001600160a01b03169050826001600160a01b0316627e3dd26040518163ffffffff1660e01b815260040160206040518083038186803b1580156123d057600080fd5b505afa1580156123e4573d6000803e3d6000fd5b505050506040513d60208110156123fa57600080fd5b505161244d576040805162461bcd60e51b815260206004820152601c60248201527f6d61726b6572206d6574686f642072657475726e65642066616c736500000000604482015290519081900360640190fd5b601b80546001600160a01b0319166001600160a01b03858116918217909255604080519284168352602083019190915280517f7ac369dbd14fa5ea3f473ed67cc9d598964a77501540ba6751eb0b3decf5870d9281900390910190a16000611c2e565b4290565b6000806124bf61307c565b6124cf5761222b6001604d613290565b6124d76124b0565b602154146124eb5761222b600a604c613290565b601c60009054906101000a90046001600160a01b03169050826001600160a01b0316632191f92a6040518163ffffffff1660e01b815260040160206040518083038186803b15801561253c57600080fd5b505afa158015612550573d6000803e3d6000fd5b505050506040513d602081101561256657600080fd5b50516125b9576040805162461bcd60e51b815260206004820152601c60248201527f6d61726b6572206d6574686f642072657475726e65642066616c736500000000604482015290519081900360640190fd5b601c80546001600160a01b0319166001600160a01b03858116918217909255604080519284168352602083019190915280517fedffc32e068c7c95dfd4bdfd5c4d939a084d6b11c4199eac8436ed234d72f9269281900390910190a16001600160a01b038116156126eb5760408051600481526024810182526020810180516001600160e01b0316636cc1140b60e11b178152915181516001600160a01b0385169382918083835b602083106126805780518252601f199092019160209182019101612661565b6001836020036101000a0380198251168184511680821785525050505050509050019150506000604051808303816000865af19150503d80600081146126e2576040519150601f19603f3d011682016040523d82523d6000602084013e6126e7565b606091505b5050505b60408051600481526024810182526020810180516001600160e01b031663742a137b60e11b178152915181516001600160a01b0387169382918083835b602083106127475780518252601f199092019160209182019101612728565b6001836020036101000a0380198251168184511680821785525050505050509050019150506000604051808303816000865af19150503d80600081146127a9576040519150601f19603f3d011682016040523d82523d6000602084013e6127ae565b606091505b5060009150611c2e9050565b60006127c461307c565b6127db576127d46001605a613290565b90506110cc565b6127e36124b0565b602154146127f7576127d4600a605b613290565b670de0b6b3a764000061281761280f84601e54613570565b601f54613570565b1115612829576127d46002605c613290565b6020805483825560408051828152928301859052805191927faaa68312e2ea9d50e16af5068410ab56e1a1fd06037b1a35664812c30f821460929081900390910190a16000611c2e565b600061287d6124b0565b60215414612891576127d4600a6054613290565b6000198214156128a157601e5491505b60006128ab614156565b9050670de0b6b3a76400006128cb6128c560205486613570565b83613570565b11156128dd5761222b60026055613290565b82601e5414612943576128ee61307c565b6128fe5761222b60016053613290565b601e805490849055604080518281526020810186905281517fcdd0b588250e1398549f79cfdb8217c186688822905d6715b0834ea1c865594a929181900390910190a1505b80601f541461299157601f805490829055604080518281526020810184905281517f92eef861b6533b7d3417f39c2ad7b460eed4e88a32fa3604f30e718b7602e7dc929181900390910190a1505b6000611c2e565b60175460ff166129dc576040805162461bcd60e51b815260206004820152600a6024820152691c994b595b9d195c995960b21b604482015290519081900360640190fd5b80612a4a57601b60009054906101000a90046001600160a01b03166001600160a01b031663c90c20b16040518163ffffffff1660e01b8152600401600060405180830381600087803b158015612a3157600080fd5b505af1158015612a45573d6000803e3d6000fd5b505050505b506017805460ff19169055565b6017805460ff1916600117905580612ab957601b60009054906101000a90046001600160a01b03166001600160a01b031663632e51426040518163ffffffff1660e01b8152600401600060405180830381600087803b158015611b0e57600080fd5b50565b602754600090819080612ad7575050601d5460009150612b78565b6000612ae1613242565b90506000612aed615c71565b6000612b0f84602354612b0a602454611e02602554602654613570565b61419b565b935090506000816003811115612b2157fe5b14612b3657955060009450612b789350505050565b612b4083866141e7565b925090506000816003811115612b5257fe5b14612b6757955060009450612b789350505050565b5051600095509350612b7892505050565b9091565b600b54600054604080516338e6a07360e11b81526001600160a01b03928316600482015286831660248201528515156044820152905191909216916371cd40e6916064808301926020929190829003018186803b158015612bdc57600080fd5b505afa158015612bf0573d6000803e3d6000fd5b505050506040513d6020811015612c0657600080fd5b5051612c41576040805162461bcd60e51b8152602060048201526005602482015264085a5b5c1b60da1b604482015290519081900360640190fd5b8115612c4f57612c4f614297565b600080546001600160a01b038581166001600160a01b031983161783556040516020602482018181528651604484015286519390941694612d3c94309488949193849360649093019290860191908190849084905b83811015612cbc578181015183820152602001612ca4565b50505050905090810190601f168015612ce95780820380516001836020036101000a031916815260200191505b5060408051601f19818403018152918152602080830180516001600160e01b0316630adccee560e31b17905281518083019092526007825266216265636f6d6560c81b90820152909350915061429c9050565b50600054604080516001600160a01b038085168252909216602083015280517fd604de94d45953f9138079ec1b82d533cb2160c906d1076d1f7ed54befbca97a9281900390910190a150505050565b601b54604080516317b9b84b60e31b81523060048201526001600160a01b03868116602483015285811660448301526064820185905291516000938493169163bdcdc25891608480830192602092919082900301818787803b158015612df057600080fd5b505af1158015612e04573d6000803e3d6000fd5b505050506040513d6020811015612e1a57600080fd5b505190508015612e3957612e316003605d836143eb565b915050611856565b836001600160a01b0316856001600160a01b03161415612e5f57612e316002605e613290565b60006001600160a01b038781169087161415612e7e5750600019612ea6565b506001600160a01b038086166000908152602960209081526040808320938a16835292905220545b600080600080612eb685896135a6565b90945092506000846003811115612ec957fe5b14612ee757612eda6009605e613290565b9650505050505050611856565b6001600160a01b038a16600090815260286020526040902054612f0a90896135a6565b90945091506000846003811115612f1d57fe5b14612f2e57612eda6009605f613290565b6001600160a01b038916600090815260286020526040902054612f519089614474565b90945090506000846003811115612f6457fe5b14612f7557612eda60096060613290565b6001600160a01b03808b16600090815260286020526040808220859055918b168152208190556000198514612fcd576001600160a01b03808b166000908152602960209081526040808320938f168352929052208390555b886001600160a01b03168a6001600160a01b0316600080516020615ed58339815191528a6040518082815260200191505060405180910390a35060009a9950505050505050505050565b600080600061302581612998565b600061302f611d97565b9050801561305a5761304d81601181111561304657fe5b6040613290565b93506000925061306b9050565b613065338787613e06565b93509350505b61307481612a57565b509250929050565b601b54604080516303e1469160e61b815290516000926001600160a01b031691829163f851a44091600480820192602092909190829003018186803b1580156130c457600080fd5b505afa1580156130d8573d6000803e3d6000fd5b505050506040513d60208110156130ee57600080fd5b50516001600160a01b0316331480156131685750806001600160a01b0316630a755ec26040518163ffffffff1660e01b815260040160206040518083038186803b15801561313b57600080fd5b505afa15801561314f573d6000803e3d6000fd5b505050506040513d602081101561316557600080fd5b50515b806114e35750600b546001600160a01b0316331480156114e35750806001600160a01b0316632f1069ba6040518163ffffffff1660e01b815260040160206040518083038186803b1580156131bc57600080fd5b505afa1580156131d0573d6000803e3d6000fd5b505050506040513d60208110156131e657600080fd5b505191505090565b60008060006131fb615c71565b613205868661449a565b9092509050600082600381111561321857fe5b14613229575091506000905061323b565b600061323482614502565b9350935050505b9250929050565b603554604080516370a0823160e01b815230600482015290516000926001600160a01b03169182916370a0823191602480820192602092909190829003018186803b1580156131bc57600080fd5b60007f45b96fe442630264581b197e84bbada861235052c5a1aadfff9ea4e40a969aa08360118111156132bf57fe5b8360638111156132cb57fe5b604080519283526020830191909152600082820152519081900360600190a1826011811115611c2e57fe5b60008061330161307c565b6133115761222b6001603c613290565b6133196124b0565b6021541461332d5761222b600a603e613290565b82613336613242565b10156133485761222b600e603d613290565b60245483111561335e5761222b6002603f613290565b61336a60245484614511565b6024819055905061337b338461454b565b604080513381526020810185905280820183905290517f3bad0c59cf2f06e7314077049f48a93578cd16f5ef92329f1dab1420a99c177e9181900360600190a16000611c2e565b6000806133ce81612998565b60006133d8611d97565b905080156133f6576119ac8160118111156133ef57fe5b602a613290565b6119bd336000866145d0565b6001600160a01b0381166000908152602a60205260408120805482918291829182916134395750600094508493506134b192505050565b6134498160000154602254614aa0565b9094509250600084600381111561345c57fe5b146134715750919350600092506134b1915050565b61347f838260010154614adf565b9094509150600084600381111561349257fe5b146134a75750919350600092506134b1915050565b5060009450925050505b915091565b6000806134c16124b0565b602154146134d55761222b600a6035613290565b826134de613242565b10156134f05761222b600e6034613290565b6026548311156135065761222b60026036613290565b61351260265484614511565b6026819055600b54909150612991906001600160a01b03168461454b565b600080600061353e81612998565b6000613548611d97565b905080156135665761235081601181111561355f57fe5b6020613290565b6123683386614b0a565b6000611c2e8383604051806040016040528060118152602001706164646974696f6e206f766572666c6f7760781b815250614e86565b6000808383116135bd57506000905081830361323b565b5060039050600061323b565b60006135d3615c71565b6135eb60405180602001604052808681525084614edb565b905060006135fb82602354614f05565b9050600061360b82602354613570565b9050600061362c604051806020016040528060205481525084602454614f24565b9050600061364d6040518060200160405280601f5481525085602654614f24565b9050600061366e6040518060200160405280601e5481525086602554614f24565b9050600061368187602254602254614f24565b60218d905560228190556023869055602485905560268490556025839055604080518d8152602081018990528082018390526060810188905290519192507f4dec04e750ca11537cabcd8a9eab06494de08da3735bc8871cd41250e190bc04919081900360800190a1601c546040805160248082018e905282518083039091018152604490910182526020810180516001600160e01b0316635efd023360e11b178152915181516001600160a01b0390941693919290918291908083835b6020831061375e5780518252601f19909201916020918201910161373f565b6001836020036101000a0380198251168184511680821785525050505050509050019150506000604051808303816000865af19150503d80600081146137c0576040519150601f19603f3d011682016040523d82523d6000602084013e6137c5565b606091505b50600091506137d19050565b9c9b505050505050505050505050565b6000806137ec6124b0565b602154146138005761222b600a6039613290565b82613809613242565b101561381b5761222b600e6038613290565b6025548311156138315761222b6002603a613290565b61383d60255484614511565b905080602581905550612991601b60009054906101000a90046001600160a01b03166001600160a01b031663f851a4406040518163ffffffff1660e01b815260040160206040518083038186803b15801561389757600080fd5b505afa1580156138ab573d6000803e3d6000fd5b505050506040513d60208110156138c157600080fd5b50518461454b565b601b546040805163d02f735160e01b81523060048201526001600160a01b038781166024830152868116604483015285811660648301526084820185905291516000938493169163d02f73519160a480830192602092919082900301818787803b15801561393657600080fd5b505af115801561394a573d6000803e3d6000fd5b505050506040513d602081101561396057600080fd5b50519050801561397757612e316003601d836143eb565b846001600160a01b0316846001600160a01b0316141561399d57612e316006601e613290565b6139a5615c84565b6001600160a01b0385166000908152602860205260409020546139c890856135a6565b60208301819052828260038111156139dc57fe5b60038111156139e757fe5b90525060009050815160038111156139fb57fe5b14613a2557613a1c6009601c83600001516003811115613a1757fe5b6143eb565b92505050611856565b613a44846040518060200160405280666379da05b60000815250614f4c565b60808201819052613a56908590614511565b6060820152613a63612abc565b60c0830181905282826003811115613a7757fe5b6003811115613a8257fe5b9052506000905081516003811115613a9657fe5b14613ae3576040805162461bcd60e51b815260206004820152601860248201527732bc31b430b733b2903930ba329036b0ba341032b93937b960411b604482015290519081900360640190fd5b613b0360405180602001604052808360c001518152508260800151614f05565b60a08201819052602454613b1691613570565b60e08201526027546080820151613b2d9190614511565b6101008201526001600160a01b0386166000908152602860205260409020546060820151613b5b9190614474565b6040830181905282826003811115613b6f57fe5b6003811115613b7a57fe5b9052506000905081516003811115613b8e57fe5b14613baa57613a1c6009601b83600001516003811115613a1757fe5b60e08101516024556101008101516027556020808201516001600160a01b0380881660008181526028855260408082209490945583860151928b16808252908490209290925560608501518351908152925191939092600080516020615ed5833981519152929081900390910190a36080810151604080519182525130916001600160a01b03881691600080516020615ed58339815191529181900360200190a360a081015160e082015160408051308152602081019390935282810191909152517fa91e67c5ea634cd43a12c5a482724b03de01e85ca68702a53d0c2f45cb7c1dc59181900360600190a16000979650505050505050565b600080613caf81612998565b6000613cb9611d97565b90508015613cd7576119ac816011811115613cd057fe5b600a613290565b6119bd3385614f74565b600080613ced81612998565b6000613cf7611d97565b90508015613d0e576119ac8160118111156133ef57fe5b6119bd338560006145d0565b6000806000613d2881612998565b6000613d32611d97565b90508015613d5d57613d50816011811115613d4957fe5b6011613290565b935060009250613df49050565b846001600160a01b031663a6afed956040518163ffffffff1660e01b8152600401602060405180830381600087803b158015613d9857600080fd5b505af1158015613dac573d6000803e3d6000fd5b505050506040513d6020811015613dc257600080fd5b505190508015613de257613d50816011811115613ddb57fe5b6012613290565b613dee338888886152ba565b93509350505b613dfd81612a57565b50935093915050565b601b5460408051631200453160e11b81523060048201526001600160a01b0386811660248301528581166044830152606482018590529151600093849384939116916324008a629160848082019260209290919082900301818787803b158015613e6f57600080fd5b505af1158015613e83573d6000803e3d6000fd5b505050506040513d6020811015613e9957600080fd5b505190508015613ebd57613eb060036043836143eb565b92506000915061414e9050565b613ec56124b0565b60215414613ed957613eb0600a6044613290565b613ee1615cd1565b6001600160a01b0386166000908152602a60205260409020600101546060820152613f0b86613402565b6080830181905260208301826003811115613f2257fe5b6003811115613f2d57fe5b9052506000905081602001516003811115613f4457fe5b14613f6e57613f606009604283602001516003811115613a1757fe5b93506000925061414e915050565b600019851415613f875760808101516040820152613f8f565b604081018590525b613f9d8782604001516157a7565b60e082018190526080820151613fb2916135a6565b60a0830181905260208301826003811115613fc957fe5b6003811115613fd457fe5b9052506000905081602001516003811115613feb57fe5b146140275760405162461bcd60e51b815260040180806020018281038252603a815260200180615e72603a913960400191505060405180910390fd5b6140376023548260e001516135a6565b60c083018190526020830182600381111561404e57fe5b600381111561405957fe5b905250600090508160200151600381111561407057fe5b146140ac5760405162461bcd60e51b8152600401808060200182810382526031815260200180615ef56031913960400191505060405180910390fd5b60a080820180516001600160a01b03808a166000818152602a602090815260409182902094855560225460019095019490945560c0870151602381905560e088015195518251948f16855294840192909252828101949094526060820192909252608081019190915290517f1a2a22cb034d26d1854bdc6666a5b91fe25efbbb5dcad3b0355478d6f5c362a1929181900390910190a160e00151600093509150505b935093915050565b600b546040805163dd86fea160e01b815290516000926001600160a01b03169163dd86fea1916004808301926020929190829003018186803b15801561205757600080fd5b6000806000806141ab8787614474565b909250905060008260038111156141be57fe5b146141cf575091506000905061414e565b6141d981866135a6565b935093505050935093915050565b60006141f1615c71565b60008061420686670de0b6b3a7640000614aa0565b9092509050600082600381111561421957fe5b146142385750604080516020810190915260008152909250905061323b565b6000806142458388614adf565b9092509050600082600381111561425857fe5b1461427a5750604080516020810190915260008152909450925061323b915050565b604080516020810190915290815260009890975095505050505050565b6116ed565b606060006060856001600160a01b0316856040518082805190602001908083835b602083106142dc5780518252601f1990920191602091820191016142bd565b6001836020036101000a0380198251168184511680821785525050505050509050019150506000604051808303816000865af19150503d806000811461433e576040519150601f19603f3d011682016040523d82523d6000602084013e614343565b606091505b5091509150816143e25780511561435d5780518082602001fd5b8360405162461bcd60e51b81526004018080602001828103825283818151815260200191508051906020019080838360005b838110156143a757818101518382015260200161438f565b50505050905090810190601f1680156143d45780820380516001836020036101000a031916815260200191505b509250505060405180910390fd5b95945050505050565b60007f45b96fe442630264581b197e84bbada861235052c5a1aadfff9ea4e40a969aa084601181111561441a57fe5b84606381111561442657fe5b604080519283526020830191909152818101859052519081900360600190a1600384601181111561445357fe5b146144695783601181111561446457fe5b611856565b506103e80192915050565b60008083830184811061448c5760009250905061323b565b50600291506000905061323b565b60006144a4615c71565b6000806144b5866000015186614aa0565b909250905060008260038111156144c857fe5b146144e75750604080516020810190915260008152909250905061323b565b60408051602081019091529081526000969095509350505050565b51670de0b6b3a7640000900490565b6000611c2e8383604051806040016040528060158152602001747375627472616374696f6e20756e646572666c6f7760581b81525061597f565b604080516001600160a01b038416602482015260448082018490528251808303909101815260649091018252602081810180516001600160e01b031663a9059cbb60e01b1790528251808401909352601983527f544f4b454e5f5452414e534645525f4f55545f4641494c454400000000000000908301526145cc916159d9565b5050565b60008215806145dd575081155b6146185760405162461bcd60e51b8152600401808060200182810382526034815260200180615f8e6034913960400191505060405180910390fd5b614620615d17565b614628612abc565b604083018190526020830182600381111561463f57fe5b600381111561464a57fe5b905250600090508160200151600381111561466157fe5b146146855761467d6009602e83602001516003811115613a1757fe5b915050611c2e565b83156147065760608101849052604080516020810182529082015181526146ac90856131ee565b60808301819052602083018260038111156146c357fe5b60038111156146ce57fe5b90525060009050816020015160038111156146e557fe5b146147015761467d6009602c83602001516003811115613a1757fe5b61477f565b6147228360405180602001604052808460400151815250615a61565b606083018190526020830182600381111561473957fe5b600381111561474457fe5b905250600090508160200151600381111561475b57fe5b146147775761467d6009602d83602001516003811115613a1757fe5b608081018390525b601b5460608201516040805163eabe7d9160e01b81523060048201526001600160a01b03898116602483015260448201939093529051600093929092169163eabe7d919160648082019260209290919082900301818787803b1580156147e457600080fd5b505af11580156147f8573d6000803e3d6000fd5b505050506040513d602081101561480e57600080fd5b50519050801561482e576148256003602b836143eb565b92505050611c2e565b6148366124b0565b6021541461484a57614825600a602f613290565b61485a60275483606001516135a6565b60a084018190526020840182600381111561487157fe5b600381111561487c57fe5b905250600090508260200151600381111561489357fe5b146148af576148256009603184602001516003811115613a1757fe5b6001600160a01b03861660009081526028602052604090205460608301516148d791906135a6565b60c08401819052602084018260038111156148ee57fe5b60038111156148f957fe5b905250600090508260200151600381111561491057fe5b1461492c576148256009603084602001516003811115613a1757fe5b8160800151614939613242565b101561494b57614825600e6032613290565b60a082015160275560c08201516001600160a01b038716600090815260286020526040902055608082015161498190879061454b565b6060820151604080519182525130916001600160a01b03891691600080516020615ed58339815191529181900360200190a36080820151606080840151604080516001600160a01b038b168152602081019490945283810191909152517fe5b754fb1abb7f01b499791d0b820ae3b6af3424ac1c59768edb53f4ec31a9299281900390910190a1601b5460808301516060840151604080516351dff98960e01b81523060048201526001600160a01b038b81166024830152604482019490945260648101929092525191909216916351dff98991608480830192600092919082900301818387803b158015614a7557600080fd5b505af1158015614a89573d6000803e3d6000fd5b5060009250614a96915050565b9695505050505050565b60008083614ab35750600090508061323b565b83830283858281614ac057fe5b0414614ad45750600291506000905061323b565b60009250905061323b565b60008082614af3575060019050600061323b565b6000838581614afe57fe5b04915091509250929050565b601b5460408051634ef4c3e160e01b81523060048201526001600160a01b03858116602483015260448201859052915160009384938493911691634ef4c3e19160648082019260209290919082900301818787803b158015614b6b57600080fd5b505af1158015614b7f573d6000803e3d6000fd5b505050506040513d6020811015614b9557600080fd5b505190508015614bb957614bac60036021836143eb565b92506000915061323b9050565b614bc16124b0565b60215414614bd557614bac600a6024613290565b614bdd615d17565b614be5612abc565b6040830181905260208301826003811115614bfc57fe5b6003811115614c0757fe5b9052506000905081602001516003811115614c1e57fe5b14614c4857614c3a6009602383602001516003811115613a1757fe5b93506000925061323b915050565b614c5286866157a7565b60c0820181905260408051602081018252908301518152614c739190615a61565b6060830181905260208301826003811115614c8a57fe5b6003811115614c9557fe5b9052506000905081602001516003811115614cac57fe5b14614cfe576040805162461bcd60e51b815260206004820181905260248201527f4d494e545f45584348414e47455f43414c43554c4154494f4e5f4641494c4544604482015290519081900360640190fd5b614d0e6027548260600151613570565b60808201526001600160a01b0386166000908152602860205260409020546060820151614d3b9190613570565b60a0820181905260808201516027556001600160a01b0387166000818152602860209081526040918290209390935560c084015160608086015183519485529484019190915282820193909352517f4c209b5fc8ad50758f13e2e1088ba56a560dff690a1c6fef26394f4c03821c4f929181900390910190a1606081015160408051918252516001600160a01b038816913091600080516020615ed58339815191529181900360200190a3601b5460c08201516060830151604080516341c728b960e01b81523060048201526001600160a01b038b81166024830152604482019490945260648101929092525191909216916341c728b991608480830192600092919082900301818387803b158015614e5357600080fd5b505af1158015614e67573d6000803e3d6000fd5b5060009250614e74915050565b8160c001519350935050509250929050565b6000838301828582101561172a5760405162461bcd60e51b81526020600482018181528351602484015283519092839260449091019190850190808383600083156143a757818101518382015260200161438f565b614ee3615c71565b6040518060200160405280614efc856000015185615a78565b90529392505050565b6000614f0f615c71565b614f198484614edb565b905061185681614502565b6000614f2e615c71565b614f388585614edb565b90506143e2614f4682614502565b84613570565b6000670de0b6b3a7640000614f65848460000151615a78565b81614f6c57fe5b049392505050565b601b546040805163368f515360e21b81523060048201526001600160a01b0385811660248301526044820185905291516000938493169163da3d454c91606480830192602092919082900301818787803b158015614fd157600080fd5b505af1158015614fe5573d6000803e3d6000fd5b505050506040513d6020811015614ffb57600080fd5b50519050801561501a5761501260036010836143eb565b9150506110b5565b6150226124b0565b6021541461503657615012600a600c613290565b6000615040613242565b90508381101561505f57615056600e600b613290565b925050506110b5565b615067615d55565b61507086613402565b602083018190528282600381111561508457fe5b600381111561508f57fe5b90525060009050815160038111156150a357fe5b146150c8576150be60098083600001516003811115613a1757fe5b93505050506110b5565b6150d6816020015186614474565b60408301819052828260038111156150ea57fe5b60038111156150f557fe5b905250600090508151600381111561510957fe5b14615125576150be6009600e83600001516003811115613a1757fe5b601b546040808301518151631de6c8a560e21b8152306004820152602481019190915290516001600160a01b039092169163779b2294916044808201926020929091908290030181600087803b15801561517e57600080fd5b505af1158015615192573d6000803e3d6000fd5b505050506040513d60208110156151a857600080fd5b5051925082156151bf576150be60036010856143eb565b6151cb60235486614474565b60608301819052828260038111156151df57fe5b60038111156151ea57fe5b90525060009050815160038111156151fe57fe5b1461521a576150be6009600d83600001516003811115613a1757fe5b6040808201516001600160a01b0388166000908152602a602052919091209081556022546001909101556060810151602355615256868661454b565b60408082015160608084015183516001600160a01b038b168152602081018a9052808501939093529082015290517f13ed6866d4e1ee6da46f845c46d7e54120883d75c5ea9a2dacc1c4ca8984ab809181900360800190a160009695505050505050565b601b5460408051632fe3f38f60e11b81523060048201526001600160a01b0384811660248301528781166044830152868116606483015260848201869052915160009384938493911691635fc7e71e9160a48082019260209290919082900301818787803b15801561532b57600080fd5b505af115801561533f573d6000803e3d6000fd5b505050506040513d602081101561535557600080fd5b5051905080156153795761536c60036014836143eb565b92506000915061579e9050565b6153816124b0565b602154146153955761536c600a6018613290565b61539d6124b0565b846001600160a01b0316636c540baf6040518163ffffffff1660e01b815260040160206040518083038186803b1580156153d657600080fd5b505afa1580156153ea573d6000803e3d6000fd5b505050506040513d602081101561540057600080fd5b5051146154135761536c600a6013613290565b866001600160a01b0316866001600160a01b031614156154395761536c60066019613290565b8461544a5761536c60076017613290565b6000198514156154605761536c60076016613290565b60008061546e898989613e06565b9092509050811561549e5761548f82601181111561548857fe5b601a613290565b94506000935061579e92505050565b601b546040805163c488847b60e01b81523060048201526001600160a01b038981166024830152604482018590528251600094859492169263c488847b926064808301939192829003018186803b1580156154f857600080fd5b505afa15801561550c573d6000803e3d6000fd5b505050506040513d604081101561552257600080fd5b5080516020909101519092509050811561556d5760405162461bcd60e51b8152600401808060200182810382526033815260200180615f266033913960400191505060405180910390fd5b80886001600160a01b03166370a082318c6040518263ffffffff1660e01b815260040180826001600160a01b03166001600160a01b0316815260200191505060206040518083038186803b1580156155c457600080fd5b505afa1580156155d8573d6000803e3d6000fd5b505050506040513d60208110156155ee57600080fd5b5051101561563e576040805162461bcd60e51b815260206004820152601860248201527709892a2aa928882a88abea68a92b48abea89e9ebe9aaa86960431b604482015290519081900360640190fd5b60006001600160a01b0389163014156156645761565d308d8d856138c9565b90506156ee565b6040805163b2a02ff160e01b81526001600160a01b038e811660048301528d81166024830152604482018590529151918b169163b2a02ff1916064808201926020929091908290030181600087803b1580156156bf57600080fd5b505af11580156156d3573d6000803e3d6000fd5b505050506040513d60208110156156e957600080fd5b505190505b8015615738576040805162461bcd60e51b81526020600482015260146024820152731d1bdad95b881cd95a5e9d5c994819985a5b195960621b604482015290519081900360640190fd5b604080516001600160a01b03808f168252808e1660208301528183018790528b1660608201526080810184905290517f298637f684da70674f26509b10f07ec2fbc77a335ab1e7d6215a4b2484d8bb529181900360a00190a16000975092955050505050505b94509492505050565b603554604080516370a0823160e01b8152306004820152905160009283926001600160a01b03909116916370a0823191602480820192602092909190829003018186803b1580156157f757600080fd5b505afa15801561580b573d6000803e3d6000fd5b505050506040513d602081101561582157600080fd5b5051604080516001600160a01b038716602482015230604482015260648082018790528251808303909101815260849091018252602081810180516001600160e01b03166323b872dd60e01b179052825180840190935260188352771513d2d15397d514905394d1915497d25397d1905253115160421b908301529192506158a991906159d9565b603554604080516370a0823160e01b815230600482015290516000926001600160a01b0316916370a08231916024808301926020929190829003018186803b1580156158f457600080fd5b505afa158015615908573d6000803e3d6000fd5b505050506040513d602081101561591e57600080fd5b5051905081811015615977576040805162461bcd60e51b815260206004820152601a60248201527f544f4b454e5f5452414e534645525f494e5f4f564552464c4f57000000000000604482015290519081900360640190fd5b039392505050565b600081848411156159d15760405162461bcd60e51b81526020600482018181528351602484015283519092839260449091019190850190808383600083156143a757818101518382015260200161438f565b505050900390565b6035546060906159f3906001600160a01b0316848461429c565b8051909150156116e957808060200190516020811015615a1257600080fd5b505182906118f65760405162461bcd60e51b81526020600482018181528351602484015283519092839260449091019190850190808383600083156143a757818101518382015260200161438f565b6000806000615a6e615c71565b6132058686615ab4565b6000611c2e8383604051806040016040528060178152602001766d756c7469706c69636174696f6e206f766572666c6f7760481b815250615b13565b6000615abe615c71565b600080615ad3670de0b6b3a764000087614aa0565b90925090506000826003811115615ae657fe5b14615b055750604080516020810190915260008152909250905061323b565b6132348186600001516141e7565b6000831580615b20575082155b15615b2d57506000611c2e565b83830283858281615b3a57fe5b0414839061172a5760405162461bcd60e51b81526020600482018181528351602484015283519092839260449091019190850190808383600083156143a757818101518382015260200161438f565b828054600181600116156101000203166002900490600052602060002090601f016020900481019282601f10615bca57805160ff1916838001178555615bf7565b82800160010185558215615bf7579182015b82811115615bf7578251825591602001919060010190615bdc565b50611a79929150615d7e565b828054600181600116156101000203166002900490600052602060002090601f016020900481019282601f10615c445782800160ff19823516178555615bf7565b82800160010185558215615bf7579182015b82811115615bf7578235825591602001919060010190615c56565b6040518060200160405280600081525090565b604080516101208101909152806000815260200160008152602001600081526020016000815260200160008152602001600081526020016000815260200160008152602001600081525090565b6040805161010081019091528060008152602001600081526020016000815260200160008152602001600081526020016000815260200160008152602001600081525090565b6040805160e0810190915280600081526020016000815260200160008152602001600081526020016000815260200160008152602001600081525090565b604080516080810190915280600081526020016000815260200160008152602001600081525090565b6114e791905b80821115611a795760008155600101615d8456fe6d61726b6574206d6179206f6e6c7920626520696e697469616c697a6564206f6e6365696e697469616c2065786368616e67652072617465206d7573742062652067726561746572207468616e207a65726f2e6f6e6c79207468652061646d696e206d6179207365742074686520636f6d702d6c696b652064656c656761746573657474696e6720696e7465726573742072617465206d6f64656c206661696c6564626f72726f7742616c616e636553746f7265643a20626f72726f7742616c616e636553746f726564496e7465726e616c206661696c656452455041595f424f52524f575f4e45575f4143434f554e545f424f52524f575f42414c414e43455f43414c43554c4154494f4e5f4641494c45446f6e6c7920467573652061646d696e206d617920696e697469616c697a6520746865206d61726b6574ddf252ad1be2c89b69c2b068fc378daa952ba7f163c4a11628f55a4df523b3ef52455041595f424f52524f575f4e45575f544f54414c5f42414c414e43455f43414c43554c4154494f4e5f4641494c45444c49515549444154455f434f4d5054524f4c4c45525f43414c43554c4154455f414d4f554e545f5345495a455f4641494c454465786368616e67655261746553746f7265643a2065786368616e67655261746553746f726564496e7465726e616c206661696c65646f6e65206f662072656465656d546f6b656e73496e206f722072656465656d416d6f756e74496e206d757374206265207a65726fa265627a7a72315820cac8de289e2af3fb53d5de9fb0114624a221bf60d185900984428a17e0b5d59264736f6c63430005110032"
}