{
  "address": "0x4C17FBdDFab7f44054e606547E71554C9C55A21B",
  "abi": [
    {
      "inputs": [
        {
          "internalType": "contract ERC20",
          "name": "asset",
          "type": "address"
        },
        {
          "internalType": "string",
          "name": "name",
          "type": "string"
        },
        {
          "internalType": "string",
          "name": "symbol",
          "type": "string"
        },
        {
          "internalType": "contract ILendingPool",
          "name": "_lendingPool",
          "type": "address"
        },
        {
          "internalType": "contract IAaveIncentivesController",
          "name": "_incentivesController",
          "type": "address"
        }
      ],
      "stateMutability": "nonpayable",
      "type": "constructor"
    },
    {
      "anonymous": false,
      "inputs": [
        {
          "indexed": true,
          "internalType": "address",
          "name": "owner",
          "type": "address"
        },
        {
          "indexed": true,
          "internalType": "address",
          "name": "spender",
          "type": "address"
        },
        {
          "indexed": false,
          "internalType": "uint256",
          "name": "amount",
          "type": "uint256"
        }
      ],
      "name": "Approval",
      "type": "event"
    },
    {
      "anonymous": false,
      "inputs": [
        {
          "indexed": true,
          "internalType": "address",
          "name": "caller",
          "type": "address"
        },
        {
          "indexed": true,
          "internalType": "address",
          "name": "owner",
          "type": "address"
        },
        {
          "indexed": false,
          "internalType": "uint256",
          "name": "assets",
          "type": "uint256"
        },
        {
          "indexed": false,
          "internalType": "uint256",
          "name": "shares",
          "type": "uint256"
        }
      ],
      "name": "Deposit",
      "type": "event"
    },
    {
      "anonymous": false,
      "inputs": [
        {
          "indexed": false,
          "internalType": "uint256",
          "name": "assetsPerShare",
          "type": "uint256"
        },
        {
          "indexed": false,
          "internalType": "uint256",
          "name": "sharesToHarvester",
          "type": "uint256"
        }
      ],
      "name": "Harvest",
      "type": "event"
    },
    {
      "anonymous": false,
      "inputs": [
        {
          "indexed": false,
          "internalType": "uint256",
          "name": "oldMaxCollateralRatio",
          "type": "uint256"
        },
        {
          "indexed": false,
          "internalType": "uint256",
          "name": "newMaxCollateralRatio",
          "type": "uint256"
        }
      ],
      "name": "MaxCollateralRatioUpdated",
      "type": "event"
    },
    {
      "anonymous": false,
      "inputs": [
        {
          "indexed": true,
          "internalType": "address",
          "name": "previousOwner",
          "type": "address"
        },
        {
          "indexed": true,
          "internalType": "address",
          "name": "newOwner",
          "type": "address"
        }
      ],
      "name": "OwnershipTransferred",
      "type": "event"
    },
    {
      "anonymous": false,
      "inputs": [
        {
          "indexed": false,
          "internalType": "uint256",
          "name": "oldTargetCollateralRatio",
          "type": "uint256"
        },
        {
          "indexed": false,
          "internalType": "uint256",
          "name": "newTargetCollateralRatio",
          "type": "uint256"
        }
      ],
      "name": "TargetCollateralRatioUpdated",
      "type": "event"
    },
    {
      "anonymous": false,
      "inputs": [
        {
          "indexed": true,
          "internalType": "address",
          "name": "from",
          "type": "address"
        },
        {
          "indexed": true,
          "internalType": "address",
          "name": "to",
          "type": "address"
        },
        {
          "indexed": false,
          "internalType": "uint256",
          "name": "amount",
          "type": "uint256"
        }
      ],
      "name": "Transfer",
      "type": "event"
    },
    {
      "anonymous": false,
      "inputs": [
        {
          "indexed": false,
          "internalType": "address",
          "name": "target",
          "type": "address"
        },
        {
          "indexed": false,
          "internalType": "bool",
          "name": "allowed",
          "type": "bool"
        }
      ],
      "name": "UpdateAllowedHarvester",
      "type": "event"
    },
    {
      "anonymous": false,
      "inputs": [
        {
          "indexed": false,
          "internalType": "address",
          "name": "user",
          "type": "address"
        },
        {
          "indexed": false,
          "internalType": "bool",
          "name": "excluded",
          "type": "bool"
        }
      ],
      "name": "UpdateFeeExclusion",
      "type": "event"
    },
    {
      "anonymous": false,
      "inputs": [
        {
          "indexed": true,
          "internalType": "address",
          "name": "caller",
          "type": "address"
        },
        {
          "indexed": true,
          "internalType": "address",
          "name": "receiver",
          "type": "address"
        },
        {
          "indexed": true,
          "internalType": "address",
          "name": "owner",
          "type": "address"
        },
        {
          "indexed": false,
          "internalType": "uint256",
          "name": "assets",
          "type": "uint256"
        },
        {
          "indexed": false,
          "internalType": "uint256",
          "name": "shares",
          "type": "uint256"
        }
      ],
      "name": "Withdraw",
      "type": "event"
    },
    {
      "inputs": [],
      "name": "DOMAIN_SEPARATOR",
      "outputs": [
        {
          "internalType": "bytes32",
          "name": "",
          "type": "bytes32"
        }
      ],
      "stateMutability": "view",
      "type": "function"
    },
    {
      "inputs": [
        {
          "internalType": "uint256",
          "name": "",
          "type": "uint256"
        }
      ],
      "name": "_allHarvesters",
      "outputs": [
        {
          "internalType": "address",
          "name": "",
          "type": "address"
        }
      ],
      "stateMutability": "view",
      "type": "function"
    },
    {
      "inputs": [],
      "name": "allHarvesters",
      "outputs": [
        {
          "internalType": "address[]",
          "name": "",
          "type": "address[]"
        }
      ],
      "stateMutability": "view",
      "type": "function"
    },
    {
      "inputs": [
        {
          "internalType": "address",
          "name": "target",
          "type": "address"
        },
        {
          "internalType": "bool",
          "name": "allowed",
          "type": "bool"
        }
      ],
      "name": "allowHarvester",
      "outputs": [],
      "stateMutability": "nonpayable",
      "type": "function"
    },
    {
      "inputs": [
        {
          "internalType": "address",
          "name": "",
          "type": "address"
        },
        {
          "internalType": "address",
          "name": "",
          "type": "address"
        }
      ],
      "name": "allowance",
      "outputs": [
        {
          "internalType": "uint256",
          "name": "",
          "type": "uint256"
        }
      ],
      "stateMutability": "view",
      "type": "function"
    },
    {
      "inputs": [
        {
          "internalType": "address",
          "name": "",
          "type": "address"
        }
      ],
      "name": "allowedHarvesters",
      "outputs": [
        {
          "internalType": "bool",
          "name": "",
          "type": "bool"
        }
      ],
      "stateMutability": "view",
      "type": "function"
    },
    {
      "inputs": [
        {
          "internalType": "address",
          "name": "spender",
          "type": "address"
        },
        {
          "internalType": "uint256",
          "name": "amount",
          "type": "uint256"
        }
      ],
      "name": "approve",
      "outputs": [
        {
          "internalType": "bool",
          "name": "",
          "type": "bool"
        }
      ],
      "stateMutability": "nonpayable",
      "type": "function"
    },
    {
      "inputs": [],
      "name": "asset",
      "outputs": [
        {
          "internalType": "contract ERC20",
          "name": "",
          "type": "address"
        }
      ],
      "stateMutability": "view",
      "type": "function"
    },
    {
      "inputs": [
        {
          "internalType": "address",
          "name": "",
          "type": "address"
        }
      ],
      "name": "balanceOf",
      "outputs": [
        {
          "internalType": "uint256",
          "name": "",
          "type": "uint256"
        }
      ],
      "stateMutability": "view",
      "type": "function"
    },
    {
      "inputs": [],
      "name": "claimOwnership",
      "outputs": [],
      "stateMutability": "nonpayable",
      "type": "function"
    },
    {
      "inputs": [
        {
          "internalType": "uint256",
          "name": "shares",
          "type": "uint256"
        }
      ],
      "name": "convertToAssets",
      "outputs": [
        {
          "internalType": "uint256",
          "name": "",
          "type": "uint256"
        }
      ],
      "stateMutability": "view",
      "type": "function"
    },
    {
      "inputs": [
        {
          "internalType": "uint256",
          "name": "assets",
          "type": "uint256"
        }
      ],
      "name": "convertToShares",
      "outputs": [
        {
          "internalType": "uint256",
          "name": "",
          "type": "uint256"
        }
      ],
      "stateMutability": "view",
      "type": "function"
    },
    {
      "inputs": [],
      "name": "decimals",
      "outputs": [
        {
          "internalType": "uint8",
          "name": "",
          "type": "uint8"
        }
      ],
      "stateMutability": "view",
      "type": "function"
    },
    {
      "inputs": [
        {
          "internalType": "uint256",
          "name": "assets",
          "type": "uint256"
        },
        {
          "internalType": "address",
          "name": "receiver",
          "type": "address"
        }
      ],
      "name": "deposit",
      "outputs": [
        {
          "internalType": "uint256",
          "name": "shares",
          "type": "uint256"
        }
      ],
      "stateMutability": "nonpayable",
      "type": "function"
    },
    {
      "inputs": [
        {
          "internalType": "address",
          "name": "user",
          "type": "address"
        },
        {
          "internalType": "bool",
          "name": "exclude",
          "type": "bool"
        }
      ],
      "name": "excludeFromFees",
      "outputs": [],
      "stateMutability": "nonpayable",
      "type": "function"
    },
    {
      "inputs": [
        {
          "internalType": "address",
          "name": "",
          "type": "address"
        }
      ],
      "name": "excludedFromFees",
      "outputs": [
        {
          "internalType": "bool",
          "name": "",
          "type": "bool"
        }
      ],
      "stateMutability": "view",
      "type": "function"
    },
    {
      "inputs": [],
      "name": "feeTaker",
      "outputs": [
        {
          "internalType": "address",
          "name": "",
          "type": "address"
        }
      ],
      "stateMutability": "view",
      "type": "function"
    },
    {
      "inputs": [],
      "name": "getBorrowedFromProtocol",
      "outputs": [
        {
          "internalType": "uint256",
          "name": "",
          "type": "uint256"
        }
      ],
      "stateMutability": "view",
      "type": "function"
    },
    {
      "inputs": [],
      "name": "getProtocolLiquidity",
      "outputs": [
        {
          "internalType": "uint256",
          "name": "",
          "type": "uint256"
        }
      ],
      "stateMutability": "view",
      "type": "function"
    },
    {
      "inputs": [],
      "name": "getRemainingProtocolBorrowCap",
      "outputs": [
        {
          "internalType": "uint256",
          "name": "",
          "type": "uint256"
        }
      ],
      "stateMutability": "pure",
      "type": "function"
    },
    {
      "inputs": [],
      "name": "getRemainingProtocolSupplyCap",
      "outputs": [
        {
          "internalType": "uint256",
          "name": "",
          "type": "uint256"
        }
      ],
      "stateMutability": "pure",
      "type": "function"
    },
    {
      "inputs": [],
      "name": "getSuppliedToProtocol",
      "outputs": [
        {
          "internalType": "uint256",
          "name": "",
          "type": "uint256"
        }
      ],
      "stateMutability": "view",
      "type": "function"
    },
    {
      "inputs": [
        {
          "components": [
            {
              "internalType": "address",
              "name": "target",
              "type": "address"
            },
            {
              "internalType": "bytes",
              "name": "callData",
              "type": "bytes"
            }
          ],
          "internalType": "struct HarvestCall[]",
          "name": "calls",
          "type": "tuple[]"
        }
      ],
      "name": "harvest",
      "outputs": [
        {
          "internalType": "bytes[]",
          "name": "returnData",
          "type": "bytes[]"
        }
      ],
      "stateMutability": "nonpayable",
      "type": "function"
    },
    {
      "inputs": [
        {
          "internalType": "uint256",
          "name": "",
          "type": "uint256"
        }
      ],
      "name": "harvestCheckpoints",
      "outputs": [
        {
          "internalType": "uint32",
          "name": "blockTimestamp",
          "type": "uint32"
        },
        {
          "internalType": "uint224",
          "name": "assetsPerShare",
          "type": "uint224"
        }
      ],
      "stateMutability": "view",
      "type": "function"
    },
    {
      "inputs": [],
      "name": "harvestCheckpointsLength",
      "outputs": [
        {
          "internalType": "uint256",
          "name": "",
          "type": "uint256"
        }
      ],
      "stateMutability": "view",
      "type": "function"
    },
    {
      "inputs": [],
      "name": "harvestFee",
      "outputs": [
        {
          "internalType": "uint256",
          "name": "",
          "type": "uint256"
        }
      ],
      "stateMutability": "view",
      "type": "function"
    },
    {
      "inputs": [],
      "name": "harvestable",
      "outputs": [
        {
          "components": [
            {
              "internalType": "address",
              "name": "token",
              "type": "address"
            },
            {
              "internalType": "uint256",
              "name": "amount",
              "type": "uint256"
            }
          ],
          "internalType": "struct Harvestable[]",
          "name": "",
          "type": "tuple[]"
        }
      ],
      "stateMutability": "view",
      "type": "function"
    },
    {
      "inputs": [
        {
          "internalType": "uint256",
          "name": "index",
          "type": "uint256"
        }
      ],
      "name": "invertedHarvestCheckpoints",
      "outputs": [
        {
          "components": [
            {
              "internalType": "uint32",
              "name": "blockTimestamp",
              "type": "uint32"
            },
            {
              "internalType": "uint224",
              "name": "assetsPerShare",
              "type": "uint224"
            }
          ],
          "internalType": "struct HarvestCheckpoint",
          "name": "",
          "type": "tuple"
        }
      ],
      "stateMutability": "view",
      "type": "function"
    },
    {
      "inputs": [],
      "name": "manager",
      "outputs": [
        {
          "internalType": "address",
          "name": "",
          "type": "address"
        }
      ],
      "stateMutability": "view",
      "type": "function"
    },
    {
      "inputs": [],
      "name": "maxCollateralRatio",
      "outputs": [
        {
          "internalType": "uint256",
          "name": "",
          "type": "uint256"
        }
      ],
      "stateMutability": "view",
      "type": "function"
    },
    {
      "inputs": [
        {
          "internalType": "address",
          "name": "",
          "type": "address"
        }
      ],
      "name": "maxDeposit",
      "outputs": [
        {
          "internalType": "uint256",
          "name": "",
          "type": "uint256"
        }
      ],
      "stateMutability": "view",
      "type": "function"
    },
    {
      "inputs": [
        {
          "internalType": "address",
          "name": "",
          "type": "address"
        }
      ],
      "name": "maxMint",
      "outputs": [
        {
          "internalType": "uint256",
          "name": "",
          "type": "uint256"
        }
      ],
      "stateMutability": "view",
      "type": "function"
    },
    {
      "inputs": [
        {
          "internalType": "address",
          "name": "owner",
          "type": "address"
        }
      ],
      "name": "maxRedeem",
      "outputs": [
        {
          "internalType": "uint256",
          "name": "",
          "type": "uint256"
        }
      ],
      "stateMutability": "view",
      "type": "function"
    },
    {
      "inputs": [
        {
          "internalType": "address",
          "name": "owner",
          "type": "address"
        }
      ],
      "name": "maxWithdraw",
      "outputs": [
        {
          "internalType": "uint256",
          "name": "",
          "type": "uint256"
        }
      ],
      "stateMutability": "view",
      "type": "function"
    },
    {
      "inputs": [
        {
          "internalType": "uint256",
          "name": "shares",
          "type": "uint256"
        },
        {
          "internalType": "address",
          "name": "receiver",
          "type": "address"
        }
      ],
      "name": "mint",
      "outputs": [
        {
          "internalType": "uint256",
          "name": "assets",
          "type": "uint256"
        }
      ],
      "stateMutability": "nonpayable",
      "type": "function"
    },
    {
      "inputs": [],
      "name": "name",
      "outputs": [
        {
          "internalType": "string",
          "name": "",
          "type": "string"
        }
      ],
      "stateMutability": "view",
      "type": "function"
    },
    {
      "inputs": [
        {
          "internalType": "address",
          "name": "",
          "type": "address"
        }
      ],
      "name": "nonces",
      "outputs": [
        {
          "internalType": "uint256",
          "name": "",
          "type": "uint256"
        }
      ],
      "stateMutability": "view",
      "type": "function"
    },
    {
      "inputs": [],
      "name": "owner",
      "outputs": [
        {
          "internalType": "address",
          "name": "",
          "type": "address"
        }
      ],
      "stateMutability": "view",
      "type": "function"
    },
    {
      "inputs": [],
      "name": "pendingOwner",
      "outputs": [
        {
          "internalType": "address",
          "name": "",
          "type": "address"
        }
      ],
      "stateMutability": "view",
      "type": "function"
    },
    {
      "inputs": [
        {
          "internalType": "address",
          "name": "owner",
          "type": "address"
        },
        {
          "internalType": "address",
          "name": "spender",
          "type": "address"
        },
        {
          "internalType": "uint256",
          "name": "value",
          "type": "uint256"
        },
        {
          "internalType": "uint256",
          "name": "deadline",
          "type": "uint256"
        },
        {
          "internalType": "uint8",
          "name": "v",
          "type": "uint8"
        },
        {
          "internalType": "bytes32",
          "name": "r",
          "type": "bytes32"
        },
        {
          "internalType": "bytes32",
          "name": "s",
          "type": "bytes32"
        }
      ],
      "name": "permit",
      "outputs": [],
      "stateMutability": "nonpayable",
      "type": "function"
    },
    {
      "inputs": [
        {
          "internalType": "uint256",
          "name": "assets",
          "type": "uint256"
        }
      ],
      "name": "previewDeposit",
      "outputs": [
        {
          "internalType": "uint256",
          "name": "",
          "type": "uint256"
        }
      ],
      "stateMutability": "view",
      "type": "function"
    },
    {
      "inputs": [
        {
          "internalType": "uint256",
          "name": "shares",
          "type": "uint256"
        }
      ],
      "name": "previewMint",
      "outputs": [
        {
          "internalType": "uint256",
          "name": "",
          "type": "uint256"
        }
      ],
      "stateMutability": "view",
      "type": "function"
    },
    {
      "inputs": [
        {
          "internalType": "uint256",
          "name": "shares",
          "type": "uint256"
        }
      ],
      "name": "previewRedeem",
      "outputs": [
        {
          "internalType": "uint256",
          "name": "",
          "type": "uint256"
        }
      ],
      "stateMutability": "view",
      "type": "function"
    },
    {
      "inputs": [
        {
          "internalType": "uint256",
          "name": "assets",
          "type": "uint256"
        }
      ],
      "name": "previewWithdraw",
      "outputs": [
        {
          "internalType": "uint256",
          "name": "",
          "type": "uint256"
        }
      ],
      "stateMutability": "view",
      "type": "function"
    },
    {
      "inputs": [],
      "name": "rebalance",
      "outputs": [],
      "stateMutability": "nonpayable",
      "type": "function"
    },
    {
      "inputs": [
        {
          "internalType": "uint256",
          "name": "shares",
          "type": "uint256"
        },
        {
          "internalType": "address",
          "name": "receiver",
          "type": "address"
        },
        {
          "internalType": "address",
          "name": "owner",
          "type": "address"
        }
      ],
      "name": "redeem",
      "outputs": [
        {
          "internalType": "uint256",
          "name": "assets",
          "type": "uint256"
        }
      ],
      "stateMutability": "nonpayable",
      "type": "function"
    },
    {
      "inputs": [
        {
          "internalType": "uint256",
          "name": "start",
          "type": "uint256"
        },
        {
          "internalType": "uint256",
          "name": "end",
          "type": "uint256"
        }
      ],
      "name": "selectHarvestCheckpoints",
      "outputs": [
        {
          "components": [
            {
              "internalType": "uint32",
              "name": "blockTimestamp",
              "type": "uint32"
            },
            {
              "internalType": "uint224",
              "name": "assetsPerShare",
              "type": "uint224"
            }
          ],
          "internalType": "struct HarvestCheckpoint[]",
          "name": "",
          "type": "tuple[]"
        }
      ],
      "stateMutability": "view",
      "type": "function"
    },
    {
      "inputs": [
        {
          "internalType": "uint256",
          "name": "start",
          "type": "uint256"
        },
        {
          "internalType": "uint256",
          "name": "end",
          "type": "uint256"
        }
      ],
      "name": "selectInvertedHarvestCheckpoints",
      "outputs": [
        {
          "components": [
            {
              "internalType": "uint32",
              "name": "blockTimestamp",
              "type": "uint32"
            },
            {
              "internalType": "uint224",
              "name": "assetsPerShare",
              "type": "uint224"
            }
          ],
          "internalType": "struct HarvestCheckpoint[]",
          "name": "",
          "type": "tuple[]"
        }
      ],
      "stateMutability": "view",
      "type": "function"
    },
    {
      "inputs": [
        {
          "internalType": "address",
          "name": "_feeTaker",
          "type": "address"
        }
      ],
      "name": "setFeeTaker",
      "outputs": [],
      "stateMutability": "nonpayable",
      "type": "function"
    },
    {
      "inputs": [
        {
          "internalType": "uint256",
          "name": "_harvestFee",
          "type": "uint256"
        }
      ],
      "name": "setHarvestFee",
      "outputs": [],
      "stateMutability": "nonpayable",
      "type": "function"
    },
    {
      "inputs": [
        {
          "internalType": "address",
          "name": "_manager",
          "type": "address"
        }
      ],
      "name": "setManager",
      "outputs": [],
      "stateMutability": "nonpayable",
      "type": "function"
    },
    {
      "inputs": [
        {
          "internalType": "uint256",
          "name": "newMaxCollateralRatio",
          "type": "uint256"
        }
      ],
      "name": "setMaxCollateralRatio",
      "outputs": [],
      "stateMutability": "nonpayable",
      "type": "function"
    },
    {
      "inputs": [
        {
          "internalType": "uint256",
          "name": "newTargetCollateralRatio",
          "type": "uint256"
        }
      ],
      "name": "setTargetCollateralRatio",
      "outputs": [],
      "stateMutability": "nonpayable",
      "type": "function"
    },
    {
      "inputs": [
        {
          "internalType": "uint256",
          "name": "_withdrawalFee",
          "type": "uint256"
        }
      ],
      "name": "setWithdrawalFee",
      "outputs": [],
      "stateMutability": "nonpayable",
      "type": "function"
    },
    {
      "inputs": [],
      "name": "symbol",
      "outputs": [
        {
          "internalType": "string",
          "name": "",
          "type": "string"
        }
      ],
      "stateMutability": "view",
      "type": "function"
    },
    {
      "inputs": [],
      "name": "targetCollateralRatio",
      "outputs": [
        {
          "internalType": "uint256",
          "name": "",
          "type": "uint256"
        }
      ],
      "stateMutability": "view",
      "type": "function"
    },
    {
      "inputs": [],
      "name": "totalAssets",
      "outputs": [
        {
          "internalType": "uint256",
          "name": "",
          "type": "uint256"
        }
      ],
      "stateMutability": "view",
      "type": "function"
    },
    {
      "inputs": [],
      "name": "totalSupply",
      "outputs": [
        {
          "internalType": "uint256",
          "name": "",
          "type": "uint256"
        }
      ],
      "stateMutability": "view",
      "type": "function"
    },
    {
      "inputs": [
        {
          "internalType": "address",
          "name": "to",
          "type": "address"
        },
        {
          "internalType": "uint256",
          "name": "amount",
          "type": "uint256"
        }
      ],
      "name": "transfer",
      "outputs": [
        {
          "internalType": "bool",
          "name": "",
          "type": "bool"
        }
      ],
      "stateMutability": "nonpayable",
      "type": "function"
    },
    {
      "inputs": [
        {
          "internalType": "address",
          "name": "from",
          "type": "address"
        },
        {
          "internalType": "address",
          "name": "to",
          "type": "address"
        },
        {
          "internalType": "uint256",
          "name": "amount",
          "type": "uint256"
        }
      ],
      "name": "transferFrom",
      "outputs": [
        {
          "internalType": "bool",
          "name": "",
          "type": "bool"
        }
      ],
      "stateMutability": "nonpayable",
      "type": "function"
    },
    {
      "inputs": [
        {
          "internalType": "address",
          "name": "newOwner",
          "type": "address"
        },
        {
          "internalType": "bool",
          "name": "direct",
          "type": "bool"
        },
        {
          "internalType": "bool",
          "name": "renounce",
          "type": "bool"
        }
      ],
      "name": "transferOwnership",
      "outputs": [],
      "stateMutability": "nonpayable",
      "type": "function"
    },
    {
      "inputs": [
        {
          "internalType": "uint256",
          "name": "assets",
          "type": "uint256"
        },
        {
          "internalType": "address",
          "name": "receiver",
          "type": "address"
        },
        {
          "internalType": "address",
          "name": "owner",
          "type": "address"
        }
      ],
      "name": "withdraw",
      "outputs": [
        {
          "internalType": "uint256",
          "name": "shares",
          "type": "uint256"
        }
      ],
      "stateMutability": "nonpayable",
      "type": "function"
    },
    {
      "inputs": [],
      "name": "withdrawalFee",
      "outputs": [
        {
          "internalType": "uint256",
          "name": "",
          "type": "uint256"
        }
      ],
      "stateMutability": "view",
      "type": "function"
    },
    {
      "inputs": [],
      "name": "yield",
      "outputs": [
        {
          "internalType": "uint256",
          "name": "diffTimestamp",
          "type": "uint256"
        },
        {
          "internalType": "int256",
          "name": "diffAssetsPerShare",
          "type": "int256"
        }
      ],
      "stateMutability": "view",
      "type": "function"
    }
  ],
  "transactionHash": "0x529b6e54deb3132bf66bfae18208b3f912553de90fa77de356ae16862469ed1e",
  "args": [
    "0x6A023CCd1ff6F2045C3309768eAd9E68F978f6e1",
    "Citrus Agave Leveraged WETH Vault",
    "clvagWETH",
    "0x5E15d5E33d318dCEd84Bfe3F4EACe07909bE6d9c",
    "0xfa255f5104f129B78f477e9a6D050a02f31A5D86"
  ],
  "numDeployments": 4,
  "solcInputHash": "35b9eb676158b94ffdcd48958ce56f5e",
  "bytecode": "0x6101006040523480156200001257600080fd5b506040516200476b3803806200476b83398101604081905262000035916200066e565b8484848282828282828181846001600160a01b031663313ce5676040518163ffffffff1660e01b8152600401602060405180830381865afa1580156200007f573d6000803e3d6000fd5b505050506040513d601f19601f82011682018060405250810190620000a5919062000731565b6000620000b38482620007de565b506001620000c28382620007de565b5060ff81166080524660a052620000d862000309565b60c0525050506001600160a01b0390921660e0525050600680546001600160a01b031916339081179091556040516000907f8be0079c531659141344cd1fd0a4f28419497f9722a3daafe3b4186f6b6457e0908290a3600c60405180604001604052804263ffffffff16815260200162000162608051600a6200015c9190620009bf565b620003a5565b6001600160e01b03908116909152825460018101845560009384526020808520845191909401519092166401000000000263ffffffff90921691909117910155601280546001600160a01b03808c166001600160a01b0319928316811790935560138054918c16919092161790556040516335ea6a7560e01b815291975095506335ea6a7594506200020b93508b925060040190506001600160a01b0391909116815260200190565b61018060405180830381865afa1580156200022a573d6000803e3d6000fd5b505050506040513d601f19601f8201168201806040525081019062000250919062000a50565b60e0810151601480546001600160a01b03199081166001600160a01b03938416179091556101208301516015805490921690831617905560125460405163095ea7b360e01b81529082166004820152600019602482015291925087169063095ea7b3906044016020604051808303816000875af1158015620002d6573d6000803e3d6000fd5b505050506040513d601f19601f82011682018060405250810190620002fc919062000b58565b5050505050505062000c49565b60007f8b73c3c69bb8fe3d512ecc4cf759cc79239f7b179b0ffacaa9a75d522b39400f60006040516200033d919062000b7c565b6040805191829003822060208301939093528101919091527fc89efdaa54c0f20c7adf612882df0950f5a951637e0307cdcb4c672f298b8bc660608201524660808201523060a082015260c00160405160208183030381529060405280519060200120905090565b6002546000908015620003dd57620003d7620003c0620003e6565b82856200048860201b62002626179092919060201c565b620003df565b825b9392505050565b6000620003f2620004a8565b620003fc62000519565b60e0516040516370a0823160e01b81523060048201526001600160a01b03909116906370a0823190602401602060405180830381865afa15801562000445573d6000803e3d6000fd5b505050506040513d601f19601f820116820180604052508101906200046b919062000bfa565b62000477919062000c14565b62000483919062000c2f565b905090565b828202811515841585830485141716620004a157600080fd5b0492915050565b6015546040516370a0823160e01b81523060048201526000916001600160a01b0316906370a08231906024015b602060405180830381865afa158015620004f3573d6000803e3d6000fd5b505050506040513d601f19601f8201168201806040525081019062000483919062000bfa565b6014546040516370a0823160e01b81523060048201526000916001600160a01b0316906370a0823190602401620004d5565b6001600160a01b03811681146200056157600080fd5b50565b634e487b7160e01b600052604160045260246000fd5b60405161018081016001600160401b0381118282101715620005a057620005a062000564565b60405290565b604051601f8201601f191681016001600160401b0381118282101715620005d157620005d162000564565b604052919050565b600082601f830112620005eb57600080fd5b81516001600160401b0381111562000607576200060762000564565b60206200061d601f8301601f19168201620005a6565b82815285828487010111156200063257600080fd5b60005b838110156200065257858101830151828201840152820162000635565b83811115620006645760008385840101525b5095945050505050565b600080600080600060a086880312156200068757600080fd5b855162000694816200054b565b60208701519095506001600160401b0380821115620006b257600080fd5b620006c089838a01620005d9565b95506040880151915080821115620006d757600080fd5b50620006e688828901620005d9565b9350506060860151620006f9816200054b565b60808701519092506200070c816200054b565b809150509295509295909350565b805160ff811681146200072c57600080fd5b919050565b6000602082840312156200074457600080fd5b620003df826200071a565b600181811c908216806200076457607f821691505b6020821081036200078557634e487b7160e01b600052602260045260246000fd5b50919050565b601f821115620007d957600081815260208120601f850160051c81016020861015620007b45750805b601f850160051c820191505b81811015620007d557828155600101620007c0565b5050505b505050565b81516001600160401b03811115620007fa57620007fa62000564565b62000812816200080b84546200074f565b846200078b565b602080601f8311600181146200084a5760008415620008315750858301515b600019600386901b1c1916600185901b178555620007d5565b600085815260208120601f198616915b828110156200087b578886015182559484019460019091019084016200085a565b50858210156200089a5787850151600019600388901b60f8161c191681555b5050505050600190811b01905550565b634e487b7160e01b600052601160045260246000fd5b600181815b8085111562000901578160001904821115620008e557620008e5620008aa565b80851615620008f357918102915b93841c9390800290620008c5565b509250929050565b6000826200091a57506001620009b9565b816200092957506000620009b9565b81600181146200094257600281146200094d576200096d565b6001915050620009b9565b60ff841115620009615762000961620008aa565b50506001821b620009b9565b5060208310610133831016604e8410600b841016171562000992575081810a620009b9565b6200099e8383620008c0565b8060001904821115620009b557620009b5620008aa565b0290505b92915050565b6000620003df60ff84168362000909565b600060208284031215620009e357600080fd5b604051602081016001600160401b038111828210171562000a085762000a0862000564565b6040529151825250919050565b80516001600160801b03811681146200072c57600080fd5b805164ffffffffff811681146200072c57600080fd5b80516200072c816200054b565b6000610180828403121562000a6457600080fd5b62000a6e6200057a565b62000a7a8484620009d0565b815262000a8a6020840162000a15565b602082015262000a9d6040840162000a15565b604082015262000ab06060840162000a15565b606082015262000ac36080840162000a15565b608082015262000ad660a0840162000a15565b60a082015262000ae960c0840162000a2d565b60c082015262000afc60e0840162000a43565b60e082015261010062000b1181850162000a43565b9082015261012062000b2584820162000a43565b9082015261014062000b3984820162000a43565b9082015261016062000b4d8482016200071a565b908201529392505050565b60006020828403121562000b6b57600080fd5b81518015158114620003df57600080fd5b600080835462000b8c816200074f565b6001828116801562000ba7576001811462000bbd5762000bee565b60ff198416875282151583028701945062000bee565b8760005260208060002060005b8581101562000be55781548a82015290840190820162000bca565b50505082870194505b50929695505050505050565b60006020828403121562000c0d57600080fd5b5051919050565b6000821982111562000c2a5762000c2a620008aa565b500190565b60008282101562000c445762000c44620008aa565b500390565b60805160a05160c05160e051613a9b62000cd06000396000818161050e0152818161093201528181611444015281816116ee0152818161191801528181611e7b0152818161281601528181612bae01528181612c3e01528181612cab0152612d4901526000610e9901526000610e690152600081816104aa0152611c6f0152613a9b6000f3fe608060405234801561001057600080fd5b50600436106103d05760003560e01c80638bc7e8c4116101ff578063badd25261161011a578063d505accf116100ad578063dbf2c98d1161007c578063dbf2c98d146108b2578063dd62ed3e146108ba578063e30c3978146108e5578063ef8b30f7146108f857600080fd5b8063d505accf1461083e578063d905777e14610851578063dbbd47d41461087a578063dbe66ca01461088f57600080fd5b8063c866a1e5116100e9578063c866a1e5146107f2578063cdc412dd14610805578063ce96cb7714610818578063d0ebdbe71461082b57600080fd5b8063badd2526146107b9578063c0246668146107cc578063c63d75b61461059f578063c6e6f592146107df57600080fd5b8063ac1e502511610192578063b460af9411610161578063b460af941461076a578063b4adc4231461077d578063b59629171461079d578063ba087652146107a657600080fd5b8063ac1e50251461073c578063b0f58c611461074f578063b3d7f6b914610757578063b45bb10d1461074f57600080fd5b806394bf804d116101ce57806394bf804d1461070657806395d89b4114610719578063a0807ae114610721578063a9059cbb1461072957600080fd5b80638bc7e8c4146106c25780638da5cb5b146106cb578063918195c5146106de57806391b5fd5f146106fe57600080fd5b8063402d267d116102ef5780636e553f6511610282578063792b55b611610251578063792b55b61461067e5780637d7c2a1c146106915780637ecebe00146106995780638422318f146106b957600080fd5b80636e553f651461063057806370a0823114610643578063725fd92014610663578063749f10441461066b57600080fd5b80634e71e0c8116102be5780634e71e0c8146105ed5780634ec5908d146105f557806367a4c944146106085780636dd46b4f1461061b57600080fd5b8063402d267d1461059f57806348023e26146105b4578063481c6a75146105c75780634cdad506146105da57600080fd5b806323b872dd11610367578063367fc2fc11610336578063367fc2fc146104e657806338d52e0f1461050957806338dbd5651461054857806339bad3dd1461056857600080fd5b806323b872dd146104755780632859398414610488578063313ce567146104a55780633644e515146104de57600080fd5b8063095ea7b3116103a3578063095ea7b31461042d5780630a28a4771461045057806318160ddd146104635780631e12e7ea1461046c57600080fd5b806301e1d114146103d557806306fdde03146103f0578063078dfbe71461040557806307a2d13a1461041a575b600080fd5b6103dd61090b565b6040519081526020015b60405180910390f35b6103f86109be565b6040516103e79190612f13565b610418610413366004612f50565b610a4c565b005b6103dd610428366004612f95565b610b65565b61044061043b366004612fae565b610b92565b60405190151581526020016103e7565b6103dd61045e366004612f95565b610bff565b6103dd60025481565b6103dd60105481565b610440610483366004612fda565b610c70565b610490610d50565b604080519283526020830191909152016103e7565b6104cc7f000000000000000000000000000000000000000000000000000000000000000081565b60405160ff90911681526020016103e7565b6103dd610e65565b6104406104f436600461301b565b600e6020526000908152604090205460ff1681565b6105307f000000000000000000000000000000000000000000000000000000000000000081565b6040516001600160a01b0390911681526020016103e7565b61055b610556366004613038565b610ebb565b6040516103e7919061305a565b61057b610576366004612f95565b610fd3565b6040805163ffffffff90931683526001600160e01b039091166020830152016103e7565b6103dd6105ad36600461301b565b5060001990565b61055b6105c2366004613038565b61100b565b600854610530906001600160a01b031681565b6103dd6105e8366004612f95565b611139565b610418611189565b61041861060336600461301b565b611247565b610418610616366004612f95565b611293565b61062361138a565b6040516103e79190613104565b6103dd61063e366004613117565b6113ec565b6103dd61065136600461301b565b60036020526000908152604090205481565b6103dd6114c6565b600954610530906001600160a01b031681565b61041861068c366004612f95565b611534565b610418611563565b6103dd6106a736600461301b565b60056020526000908152604090205481565b6103dd60115481565b6103dd600a5481565b600654610530906001600160a01b031681565b6106f16106ec366004612f95565b611571565b6040516103e79190613147565b6103dd6115ef565b6103dd610714366004613117565b6116d4565b6103f8611770565b600c546103dd565b610440610737366004612fae565b61177d565b61041861074a366004612f95565b6117e3565b6000196103dd565b6103dd610765366004612f95565b611812565b6103dd61077836600461316d565b611831565b61079061078b366004613247565b61193f565b6040516103e79190613395565b6103dd600b5481565b6103dd6107b436600461316d565b611d56565b6104186107c7366004612f95565b611ea2565b6104186107da3660046133f7565b611f9b565b6103dd6107ed366004612f95565b612021565b610530610800366004612f95565b612041565b6104186108133660046133f7565b61206b565b6103dd61082636600461301b565b612143565b61041861083936600461301b565b612165565b61041861084c36600461342c565b6121b1565b6103dd61085f36600461301b565b6001600160a01b031660009081526003602052604090205490565b6108826123f5565b6040516103e791906134a3565b61044061089d36600461301b565b600d6020526000908152604090205460ff1681565b6103dd6125ea565b6103dd6108c83660046134ee565b600460209081526000928352604080842090915290825290205481565b600754610530906001600160a01b031681565b6103dd610906366004612f95565b61261b565b60006109156125ea565b61091d6114c6565b6040516370a0823160e01b81523060048201527f00000000000000000000000000000000000000000000000000000000000000006001600160a01b0316906370a0823190602401602060405180830381865afa158015610981573d6000803e3d6000fd5b505050506040513d601f19601f820116820180604052508101906109a5919061351c565b6109af919061354b565b6109b99190613563565b905090565b600080546109cb9061357a565b80601f01602080910402602001604051908101604052809291908181526020018280546109f79061357a565b8015610a445780601f10610a1957610100808354040283529160200191610a44565b820191906000526020600020905b815481529060010190602001808311610a2757829003601f168201915b505050505081565b6006546001600160a01b03163314610a7f5760405162461bcd60e51b8152600401610a76906135b4565b60405180910390fd5b8115610b43576001600160a01b038316151580610a995750805b610add5760405162461bcd60e51b81526020600482015260156024820152744f776e61626c653a207a65726f206164647265737360581b6044820152606401610a76565b6006546040516001600160a01b038086169216907f8be0079c531659141344cd1fd0a4f28419497f9722a3daafe3b4186f6b6457e090600090a3600680546001600160a01b0385166001600160a01b031991821617909155600780549091169055505050565b600780546001600160a01b0385166001600160a01b0319909116179055505050565b6002546000908015610b8957610b84610b7c61090b565b849083612626565b610b8b565b825b9392505050565b3360008181526004602090815260408083206001600160a01b038716808552925280832085905551919290917f8c5be1e5ebec7d5bd14f71427d1e84f3dd0314c0f7b2291e5b200ac8c7c3b92590610bed9086815260200190565b60405180910390a35060015b92915050565b600a54336000908152600d602052604081205490919060ff1615610c21575060005b60025460008115610c4557610c4082610c3861090b565b879190612645565b610c47565b845b9050610c67670de0b6b3a7640000610c5f8582613563565b839190612645565b95945050505050565b6001600160a01b03831660009081526004602090815260408083203384529091528120546000198114610ccc57610ca78382613563565b6001600160a01b03861660009081526004602090815260408083203384529091529020555b6001600160a01b03851660009081526003602052604081208054859290610cf4908490613563565b90915550506001600160a01b0380851660008181526003602052604090819020805487019055519091871690600080516020613a4683398151915290610d3d9087815260200190565b60405180910390a3506001949350505050565b60008060006001600c80549050610d679190613563565b90506001811015610d8057506201518092600092509050565b6000600c8281548110610d9557610d956135e9565b600091825260208083206040805180820190915292015463ffffffff81168352600160201b90046001600160e01b0316908201529150600c610dd8600185613563565b81548110610de857610de86135e9565b60009182526020918290206040805180820190915291015463ffffffff808216808452600160201b9092046001600160e01b031683850181905286519487015192909403169750909250610e3d9082906135ff565b610e4f90670de0b6b3a764000061364f565b610e5991906136e3565b601b0b93505050509091565b60007f00000000000000000000000000000000000000000000000000000000000000004614610e96576109b9612673565b507f000000000000000000000000000000000000000000000000000000000000000090565b60606000610ec98484613563565b610ed490600161354b565b905060008167ffffffffffffffff811115610ef157610ef16131af565b604051908082528060200260200182016040528015610f3657816020015b6040805180820190915260008082526020820152815260200190600190039081610f0f5790505b50905060005b82811015610fca57600c610f50828861354b565b81548110610f6057610f606135e9565b60009182526020918290206040805180820190915291015463ffffffff81168252600160201b90046001600160e01b0316918101919091528251839083908110610fac57610fac6135e9565b60200260200101819052508080610fc29061372f565b915050610f3c565b50949350505050565b600c8181548110610fe357600080fd5b60009182526020909120015463ffffffff81169150600160201b90046001600160e01b031682565b606060006110198484613563565b61102490600161354b565b600c5490915060009061103990600190613563565b905060008267ffffffffffffffff811115611056576110566131af565b60405190808252806020026020018201604052801561109b57816020015b60408051808201909152600080825260208201528152602001906001900390816110745790505b50905060005b8381101561112f57600c6110b58285613563565b815481106110c5576110c56135e9565b60009182526020918290206040805180820190915291015463ffffffff81168252600160201b90046001600160e01b0316918101919091528251839083908110611111576111116135e9565b602002602001018190525080806111279061372f565b9150506110a1565b5095945050505050565b600a54336000908152600d602052604081205490919060ff161561115b575060005b610b8b61117082670de0b6b3a7640000613563565b670de0b6b3a764000061118286610b65565b9190612626565b6007546001600160a01b03163381146111e45760405162461bcd60e51b815260206004820181905260248201527f4f776e61626c653a2063616c6c657220213d2070656e64696e67206f776e65726044820152606401610a76565b6006546040516001600160a01b038084169216907f8be0079c531659141344cd1fd0a4f28419497f9722a3daafe3b4186f6b6457e090600090a3600680546001600160a01b039092166001600160a01b0319928316179055600780549091169055565b6006546001600160a01b031633146112715760405162461bcd60e51b8152600401610a76906135b4565b600980546001600160a01b0319166001600160a01b0392909216919091179055565b6008546001600160a01b03163314806112b657506006546001600160a01b031633145b6112d25760405162461bcd60e51b8152600401610a7690613748565b60115481106113495760405162461bcd60e51b815260206004820152603860248201527f43616e6e6f742073657420746172676574436f6c6c61746572616c526174696f60448201527f206f766572206d6178436f6c6c61746572616c526174696f00000000000000006064820152608401610a76565b60105460408051918252602082018390527f44b56064048acd7afec122889cc6faae3494866375d78c6b4b532f024718589f910160405180910390a1601055565b6060600f8054806020026020016040519081016040528092919081815260200182805480156113e257602002820191906000526020600020905b81546001600160a01b031681526001909101906020018083116113c4575b5050505050905090565b60006113f78361261b565b9050806000036114375760405162461bcd60e51b815260206004820152600b60248201526a5a45524f5f53484152455360a81b6044820152606401610a76565b61146c6001600160a01b037f00000000000000000000000000000000000000000000000000000000000000001633308661270d565b6114768282612797565b60408051848152602081018390526001600160a01b0384169133917fdcbc1c05240f31ff3ad067ef1ee35ce4997762752e3a095284754544f4c709d7910160405180910390a3610bf983826127f1565b6014546040516370a0823160e01b81523060048201526000916001600160a01b0316906370a08231906024015b602060405180830381865afa158015611510573d6000803e3d6000fd5b505050506040513d601f19601f820116820180604052508101906109b9919061351c565b6006546001600160a01b0316331461155e5760405162461bcd60e51b8152600401610a76906135b4565b600b55565b61156f600060016127fe565b565b6040805180820190915260008082526020820152600c8054839061159790600190613563565b6115a19190613563565b815481106115b1576115b16135e9565b60009182526020918290206040805180820190915291015463ffffffff81168252600160201b90046001600160e01b03169181019190915292915050565b601554604080516318160ddd60e01b815290516000926001600160a01b0316916318160ddd9160048083019260209291908290030181865afa158015611639573d6000803e3d6000fd5b505050506040513d601f19601f8201168201806040525081019061165d919061351c565b601460009054906101000a90046001600160a01b03166001600160a01b03166318160ddd6040518163ffffffff1660e01b8152600401602060405180830381865afa1580156116b0573d6000803e3d6000fd5b505050506040513d601f19601f820116820180604052508101906109af919061351c565b60006116df83611812565b90506117166001600160a01b037f00000000000000000000000000000000000000000000000000000000000000001633308461270d565b6117208284612797565b60408051828152602081018590526001600160a01b0384169133917fdcbc1c05240f31ff3ad067ef1ee35ce4997762752e3a095284754544f4c709d7910160405180910390a3610bf981846127f1565b600180546109cb9061357a565b3360009081526003602052604081208054839190839061179e908490613563565b90915550506001600160a01b03831660008181526003602052604090819020805485019055513390600080516020613a4683398151915290610bed9086815260200190565b6006546001600160a01b0316331461180d5760405162461bcd60e51b8152600401610a76906135b4565b600a55565b6002546000908015610b8957610b8461182961090b565b849083612645565b600061183c84610bff565b9050336001600160a01b038316146118ac576001600160a01b038216600090815260046020908152604080832033845290915290205460001981146118aa576118858282613563565b6001600160a01b03841660009081526004602090815260408083203384529091529020555b505b6118b68482612a51565b6118c08282612a9e565b60408051858152602081018390526001600160a01b03808516929086169133917ffbde797d201c681b91056529119e0b02407c7bb96a4a2c75c01fc9667232c8db910160405180910390a4610b8b6001600160a01b037f0000000000000000000000000000000000000000000000000000000000000000168486612b00565b6008546060906001600160a01b0316331461199c5760405162461bcd60e51b815260206004820152601f60248201527f4f6e6c79206d616e6167657220697320616c6c6f77656420746f2063616c6c006044820152606401610a76565b60006119a661090b565b90506119b0612b7e565b825167ffffffffffffffff8111156119ca576119ca6131af565b6040519080825280602002602001820160405280156119fd57816020015b60608152602001906001900390816119e85790505b50915060005b8351811015611ba457600e6000858381518110611a2257611a226135e9565b602090810291909101810151516001600160a01b031682528101919091526040016000205460ff16611a8e5760405162461bcd60e51b81526020600482015260156024820152741a185c9d995cdd1bdc881b9bdd08185b1b1bddd959605a1b6044820152606401610a76565b60006060858381518110611aa457611aa46135e9565b6020026020010151600001516001600160a01b0316868481518110611acb57611acb6135e9565b602002602001015160200151604051611ae49190613790565b600060405180830381855af49150503d8060008114611b1f576040519150601f19603f3d011682016040523d82523d6000602084013e611b24565b606091505b50909250905081611b7157604481511015611b3e57600080fd5b60048101905080806020019051810190611b5891906137ac565b60405162461bcd60e51b8152600401610a769190612f13565b80858481518110611b8457611b846135e9565b602002602001018190525050508080611b9c9061372f565b915050611a03565b506000611baf61090b565b905081811015611bf45760405162461bcd60e51b815260206004820152601060248201526f1b9959d85d1a5d99481a185c9d995cdd60821b6044820152606401610a76565b600b5482820390600090611c2490611c1490670de0b6b3a7640000613563565b8390670de0b6b3a7640000612645565b611c2e908561354b565b600254909150600090611c42818685612626565b611c4c9190613563565b600954909150611c65906001600160a01b031682612797565b6000611c956104287f0000000000000000000000000000000000000000000000000000000000000000600a6138fe565b60408051808201825263ffffffff42811682526001600160e01b0380851660208401908152600c805460018101825560009190915293519051909116600160201b029116177fdf6966c971051c3d54ec59162606531493a51404a002842f56009d7e5cf4a8c790910155519091507f6c8433a8e155f0af04dba058d4e4695f7da554578963d876bdf4a6d8d6399d9c90611d3b9083908590918252602082015260400190565b60405180910390a1611d4b611563565b505050505050919050565b6000336001600160a01b03831614611dc6576001600160a01b03821660009081526004602090815260408083203384529091529020546000198114611dc457611d9f8582613563565b6001600160a01b03841660009081526004602090815260408083203384529091529020555b505b611dcf84611139565b905080600003611e0f5760405162461bcd60e51b815260206004820152600b60248201526a5a45524f5f41535345545360a81b6044820152606401610a76565b611e198185612a51565b611e238285612a9e565b60408051828152602081018690526001600160a01b03808516929086169133917ffbde797d201c681b91056529119e0b02407c7bb96a4a2c75c01fc9667232c8db910160405180910390a4610b8b6001600160a01b037f0000000000000000000000000000000000000000000000000000000000000000168483612b00565b6008546001600160a01b0316331480611ec557506006546001600160a01b031633145b611ee15760405162461bcd60e51b8152600401610a7690613748565b6011546006546001600160a01b0316331480611efc57508082105b611f585760405162461bcd60e51b815260206004820152602760248201527f4f6e6c79204f776e65722063616e207261697365206d6178436f6c6c61746572604482015266616c526174696f60c81b6064820152608401610a76565b601182905560408051828152602081018490527faa915560e9978e01b02ffd7ed7b18b60e842c2772bb4dab6ba9b141e7441693c91015b60405180910390a15050565b6006546001600160a01b03163314611fc55760405162461bcd60e51b8152600401610a76906135b4565b6001600160a01b0382166000818152600d6020908152604091829020805460ff19168515159081179091558251938452908301527f13e65f4beb0eb8b8336d270aa4ac99e9fa961d9eb25a89ff945d8f1224bbbcda9101611f8f565b6002546000908015610b8957610b848161203961090b565b859190612626565b600f818154811061205157600080fd5b6000918252602090912001546001600160a01b0316905081565b6006546001600160a01b031633146120955760405162461bcd60e51b8152600401610a76906135b4565b80156120e757600f80546001810182556000919091527f8d1108e10bcb7c27dddfc02ed9d693a074039d026cf4ea4240b40f7d581ac8020180546001600160a01b0319166001600160a01b0384161790555b6001600160a01b0382166000818152600e6020908152604091829020805460ff19168515159081179091558251938452908301527fa85166530e095b84b707bec761a551e9f45e9f2b8d7c0afa50073171b1aaafbb9101611f8f565b6001600160a01b038116600090815260036020526040812054610bf990610b65565b6006546001600160a01b0316331461218f5760405162461bcd60e51b8152600401610a76906135b4565b600880546001600160a01b0319166001600160a01b0392909216919091179055565b428410156122015760405162461bcd60e51b815260206004820152601760248201527f5045524d49545f444541444c494e455f455850495245440000000000000000006044820152606401610a76565b6000600161220d610e65565b6001600160a01b038a811660008181526005602090815260409182902080546001810190915582517f6e71edae12b1b97f4d1f60370fef10105fa2faae0126114a169c64845d6126c98184015280840194909452938d166060840152608083018c905260a083019390935260c08083018b90528151808403909101815260e08301909152805192019190912061190160f01b6101008301526101028201929092526101228101919091526101420160408051601f198184030181528282528051602091820120600084529083018083525260ff871690820152606081018590526080810184905260a0016020604051602081039080840390855afa158015612319573d6000803e3d6000fd5b5050604051601f1901519150506001600160a01b0381161580159061234f5750876001600160a01b0316816001600160a01b0316145b61238c5760405162461bcd60e51b815260206004820152600e60248201526d24a72b20a624a22fa9a4a3a722a960911b6044820152606401610a76565b6001600160a01b0390811660009081526004602090815260408083208a8516808552908352928190208990555188815291928a16917f8c5be1e5ebec7d5bd14f71427d1e84f3dd0314c0f7b2291e5b200ac8c7c3b925910160405180910390a350505050505050565b60408051600280825260608083018452926000929190602083019080368337505060145482519293506001600160a01b03169183915060009061243a5761243a6135e9565b6001600160a01b03928316602091820292909201015260155482519116908290600190811061246b5761246b6135e9565b6001600160a01b03928316602091820292909201810191909152601354604080516399248ea760e01b8152905160009492909216926399248ea7926004808401938290030181865afa1580156124c5573d6000803e3d6000fd5b505050506040513d601f19601f820116820180604052508101906124e9919061390d565b6013546040516345accf9360e11b81529192506000916001600160a01b0390911690638b599f2690612521908690309060040161392a565b602060405180830381865afa15801561253e573d6000803e3d6000fd5b505050506040513d601f19601f82011682018060405250810190612562919061351c565b60408051600180825281830190925291925060009190816020015b604080518082019091526000808252602082015281526020019060019003908161257d5790505090506040518060400160405280846001600160a01b0316815260200183815250816000815181106125d7576125d76135e9565b6020908102919091010152949350505050565b6015546040516370a0823160e01b81523060048201526000916001600160a01b0316906370a08231906024016114f3565b6000610bf982612021565b82820281151584158583048514171661263e57600080fd5b0492915050565b82820281151584158583048514171661265d57600080fd5b6001826001830304018115150290509392505050565b60007f8b73c3c69bb8fe3d512ecc4cf759cc79239f7b179b0ffacaa9a75d522b39400f60006040516126a59190613954565b6040805191829003822060208301939093528101919091527fc89efdaa54c0f20c7adf612882df0950f5a951637e0307cdcb4c672f298b8bc660608201524660808201523060a082015260c00160405160208183030381529060405280519060200120905090565b60006040516323b872dd60e01b81528460048201528360248201528260448201526020600060648360008a5af13d15601f3d11600160005114161716915050806127905760405162461bcd60e51b81526020600482015260146024820152731514905394d1915497d19493d357d1905253115160621b6044820152606401610a76565b5050505050565b80600260008282546127a9919061354b565b90915550506001600160a01b038216600081815260036020908152604080832080548601905551848152600080516020613a4683398151915291015b60405180910390a35050565b6127fa82612b86565b5050565b6040516370a0823160e01b81523060048201526000907f00000000000000000000000000000000000000000000000000000000000000006001600160a01b0316906370a0823190602401602060405180830381865afa158015612865573d6000803e3d6000fd5b505050506040513d601f19601f82011682018060405250810190612889919061351c565b9050801561289a5761289a81612b94565b60006128a46125ea565b905060006128b06114c6565b905060006128eb6010548785856128c79190613563565b6128d19190613563565b6010546128e690670de0b6b3a7640000613563565b612626565b90508083101561299c575b61290881670dcef33a6f8380006139f3565b61291a84670de0b6b3a76400006139f3565b101561299757600061292c8483613563565b905060008461294685601154670de0b6b3a7640000612626565b6129509190613563565b90508082111561295e578091505b61296782612c24565b61297082612b94565b8661297c575050612a3a565b6129846125ea565b945061298e6114c6565b935050506128f6565b612a3a565b80831115612a3a575b6129b781670df27a2cdf4480006139f3565b6129c984670de0b6b3a76400006139f3565b1115612a3a5760006129db8285613563565b90506000846129f585601154670de0b6b3a7640000612626565b6129ff9190613563565b905080821115612a0d578091505b612a1682612c91565b612a1f82612d2f565b612a276125ea565b9450612a316114c6565b935050506129a5565b8515612a4957612a4986612c91565b505050505050565b336000908152600d602052604090205460ff16612a9557600954600a54612a95916001600160a01b031690612a90908490670de0b6b3a7640000612626565b612797565b6127fa82612d95565b6001600160a01b03821660009081526003602052604081208054839290612ac6908490613563565b90915550506002805482900390556040518181526000906001600160a01b03841690600080516020613a46833981519152906020016127e5565b600060405163a9059cbb60e01b8152836004820152826024820152602060006044836000895af13d15601f3d1160016000511416171691505080612b785760405162461bcd60e51b815260206004820152600f60248201526e1514905394d1915497d19052531151608a1b6044820152606401610a76565b50505050565b61156f612da0565b612b916000806127fe565b50565b60125460405163e8eda9df60e01b81526001600160a01b037f00000000000000000000000000000000000000000000000000000000000000008116600483015260248201849052306044830152600060648301529091169063e8eda9df906084015b600060405180830381600087803b158015612c1057600080fd5b505af1158015612790573d6000803e3d6000fd5b60125460405163a415bcad60e01b81526001600160a01b037f0000000000000000000000000000000000000000000000000000000000000000811660048301526024820184905260026044830152600060648301523060848301529091169063a415bcad9060a401612bf6565b601254604051631a4ca37b60e21b81526001600160a01b037f00000000000000000000000000000000000000000000000000000000000000008116600483015260248201849052306044830152909116906369328dec906064015b6020604051808303816000875af1158015612d0b573d6000803e3d6000fd5b505050506040513d601f19601f820116820180604052508101906127fa919061351c565b60125460405163573ade8160e01b81526001600160a01b037f00000000000000000000000000000000000000000000000000000000000000008116600483015260248201849052600260448301523060648301529091169063573ade8190608401612cec565b612b918160006127fe565b604080516002808252606082018352600092602083019080368337505060145482519293506001600160a01b031691839150600090612de157612de16135e9565b6001600160a01b039283166020918202929092010152601554825191169082906001908110612e1257612e126135e9565b6001600160a01b0392831660209182029290920101526013546040516345accf9360e11b8152911690633111e7b39083908390638b599f2690612e5b908490309060040161392a565b602060405180830381865afa158015612e78573d6000803e3d6000fd5b505050506040513d601f19601f82011682018060405250810190612e9c919061351c565b306040518463ffffffff1660e01b8152600401612cec93929190613a12565b60005b83811015612ed6578181015183820152602001612ebe565b83811115612b785750506000910152565b60008151808452612eff816020860160208601612ebb565b601f01601f19169290920160200192915050565b602081526000610b8b6020830184612ee7565b6001600160a01b0381168114612b9157600080fd5b80358015158114612f4b57600080fd5b919050565b600080600060608486031215612f6557600080fd5b8335612f7081612f26565b9250612f7e60208501612f3b565b9150612f8c60408501612f3b565b90509250925092565b600060208284031215612fa757600080fd5b5035919050565b60008060408385031215612fc157600080fd5b8235612fcc81612f26565b946020939093013593505050565b600080600060608486031215612fef57600080fd5b8335612ffa81612f26565b9250602084013561300a81612f26565b929592945050506040919091013590565b60006020828403121561302d57600080fd5b8135610b8b81612f26565b6000806040838503121561304b57600080fd5b50508035926020909101359150565b602080825282518282018190526000919060409081850190868401855b828110156130b3576130a3848351805163ffffffff1682526020908101516001600160e01b0316910152565b9284019290850190600101613077565b5091979650505050505050565b600081518084526020808501945080840160005b838110156130f95781516001600160a01b0316875295820195908201906001016130d4565b509495945050505050565b602081526000610b8b60208301846130c0565b6000806040838503121561312a57600080fd5b82359150602083013561313c81612f26565b809150509250929050565b815163ffffffff1681526020808301516001600160e01b03169082015260408101610bf9565b60008060006060848603121561318257600080fd5b83359250602084013561319481612f26565b915060408401356131a481612f26565b809150509250925092565b634e487b7160e01b600052604160045260246000fd5b6040805190810167ffffffffffffffff811182821017156131e8576131e86131af565b60405290565b604051601f8201601f1916810167ffffffffffffffff81118282101715613217576132176131af565b604052919050565b600067ffffffffffffffff821115613239576132396131af565b50601f01601f191660200190565b6000602080838503121561325a57600080fd5b823567ffffffffffffffff8082111561327257600080fd5b818501915085601f83011261328657600080fd5b813581811115613298576132986131af565b8060051b6132a78582016131ee565b91825283810185019185810190898411156132c157600080fd5b86860192505b83831015613388578235858111156132df5760008081fd5b86016040818c03601f19018113156132f75760008081fd5b6132ff6131c5565b8983013561330c81612f26565b815282820135888111156133205760008081fd5b8084019350508c603f8401126133365760008081fd5b8983013561334b6133468261321f565b6131ee565b8181528e848387010111156133605760008081fd5b818486018d83013760009181018c0191909152818b01528452505091860191908601906132c7565b9998505050505050505050565b6000602080830181845280855180835260408601915060408160051b870101925083870160005b828110156133ea57603f198886030184526133d8858351612ee7565b945092850192908501906001016133bc565b5092979650505050505050565b6000806040838503121561340a57600080fd5b823561341581612f26565b915061342360208401612f3b565b90509250929050565b600080600080600080600060e0888a03121561344757600080fd5b873561345281612f26565b9650602088013561346281612f26565b95506040880135945060608801359350608088013560ff8116811461348657600080fd5b9699959850939692959460a0840135945060c09093013592915050565b602080825282518282018190526000919060409081850190868401855b828110156130b357815180516001600160a01b031685528601518685015292840192908501906001016134c0565b6000806040838503121561350157600080fd5b823561350c81612f26565b9150602083013561313c81612f26565b60006020828403121561352e57600080fd5b5051919050565b634e487b7160e01b600052601160045260246000fd5b6000821982111561355e5761355e613535565b500190565b60008282101561357557613575613535565b500390565b600181811c9082168061358e57607f821691505b6020821081036135ae57634e487b7160e01b600052602260045260246000fd5b50919050565b6020808252818101527f4f776e61626c653a2063616c6c6572206973206e6f7420746865206f776e6572604082015260600190565b634e487b7160e01b600052603260045260246000fd5b600081601b0b83601b0b60008112816401ffffffff60df1b0183128115161561362a5761362a613535565b6001600160df1b038201831381161561364557613645613535565b5090039392505050565b6000601b82810b9084900b6001600160df1b038382138484138082168484048611161561367e5761367e613535565b6001600160df1b031960008512828116878305871216156136a1576136a1613535565b600087129250858205871284841616156136bd576136bd613535565b858505871281841616156136d3576136d3613535565b5050509290910295945050505050565b600081601b0b83601b0b8061370857634e487b7160e01b600052601260045260246000fd5b6001600160df1b031982146000198214161561372657613726613535565b90059392505050565b60006001820161374157613741613535565b5060010190565b60208082526028908201527f4f6e6c79206d616e61676572206f72204f776e657220697320616c6c6f776564604082015267081d1bc818d85b1b60c21b606082015260800190565b600082516137a2818460208701612ebb565b9190910192915050565b6000602082840312156137be57600080fd5b815167ffffffffffffffff8111156137d557600080fd5b8201601f810184136137e657600080fd5b80516137f46133468261321f565b81815285602083850101111561380957600080fd5b610c67826020830160208601612ebb565b600181815b8085111561385557816000190482111561383b5761383b613535565b8085161561384857918102915b93841c939080029061381f565b509250929050565b60008261386c57506001610bf9565b8161387957506000610bf9565b816001811461388f5760028114613899576138b5565b6001915050610bf9565b60ff8411156138aa576138aa613535565b50506001821b610bf9565b5060208310610133831016604e8410600b84101617156138d8575081810a610bf9565b6138e2838361381a565b80600019048211156138f6576138f6613535565b029392505050565b6000610b8b60ff84168361385d565b60006020828403121561391f57600080fd5b8151610b8b81612f26565b60408152600061393d60408301856130c0565b905060018060a01b03831660208301529392505050565b600080835481600182811c91508083168061397057607f831692505b6020808410820361398f57634e487b7160e01b86526022600452602486fd5b8180156139a357600181146139b8576139e5565b60ff19861689528415158502890196506139e5565b60008a81526020902060005b868110156139dd5781548b8201529085019083016139c4565b505084890196505b509498975050505050505050565b6000816000190483118215151615613a0d57613a0d613535565b500290565b606081526000613a2560608301866130c0565b6020830194909452506001600160a01b039190911660409091015291905056feddf252ad1be2c89b69c2b068fc378daa952ba7f163c4a11628f55a4df523b3efa264697066735822122053c35efe8fc1a2b845b5dc0556fa1f743a183ae8ae621c8347ff942d6f1a731564736f6c634300080f0033",
  "devdoc": {
    "kind": "dev",
    "methods": {
      "getBorrowedFromProtocol()": {
        "returns": {
          "_0": "Assets borrowed"
        }
      },
      "getProtocolLiquidity()": {
        "details": "ignored on this version",
        "returns": {
          "_0": "liquidity The diff"
        }
      },
      "getRemainingProtocolBorrowCap()": {
        "details": "ignored on this versionshould return 0 if the borrow cap is exhausted",
        "returns": {
          "_0": "remainingBorrowCap"
        }
      },
      "getRemainingProtocolSupplyCap()": {
        "details": "ignored on this versionshould return 0 if the supply cap is exhausted",
        "returns": {
          "_0": "remainingSupplyCap"
        }
      },
      "getSuppliedToProtocol()": {
        "returns": {
          "_0": "Assets supplied"
        }
      },
      "transferOwnership(address,bool,bool)": {
        "params": {
          "direct": "True if `newOwner` should be set immediately. False if `newOwner` needs to use `claimOwnership`.",
          "newOwner": "Address of the new owner.",
          "renounce": "Allows the `newOwner` to be `address(0)` if `direct` and `renounce` is True. Has no effect otherwise."
        }
      }
    },
    "version": 1
  },
  "userdoc": {
    "kind": "user",
    "methods": {
      "claimOwnership()": {
        "notice": "Needs to be called by `pendingOwner` to claim ownership."
      },
      "getBorrowedFromProtocol()": {
        "notice": "Get amount of assets borrowed from the protocol by the vault"
      },
      "getProtocolLiquidity()": {
        "notice": "Get liquidity availailable in the protocol"
      },
      "getRemainingProtocolBorrowCap()": {
        "notice": "Get remaining borrow cap in the protocol"
      },
      "getRemainingProtocolSupplyCap()": {
        "notice": "Get remaining supply cap in the protocol"
      },
      "getSuppliedToProtocol()": {
        "notice": "Get amount of assets supplied to the protocol by the vault"
      },
      "transferOwnership(address,bool,bool)": {
        "notice": "Transfers ownership to `newOwner`. Either directly or claimable by the new pending owner. Can only be invoked by the current `owner`."
      }
    },
    "version": 1
  },
  "storageLayout": {
    "storage": [
      {
        "astId": 11459,
        "contract": "contracts/citrus-vaults/src/Aave2LeveragedVault.sol:Aave2LeveragedVault",
        "label": "name",
        "offset": 0,
        "slot": "0",
        "type": "t_string_storage"
      },
      {
        "astId": 11461,
        "contract": "contracts/citrus-vaults/src/Aave2LeveragedVault.sol:Aave2LeveragedVault",
        "label": "symbol",
        "offset": 0,
        "slot": "1",
        "type": "t_string_storage"
      },
      {
        "astId": 11465,
        "contract": "contracts/citrus-vaults/src/Aave2LeveragedVault.sol:Aave2LeveragedVault",
        "label": "totalSupply",
        "offset": 0,
        "slot": "2",
        "type": "t_uint256"
      },
      {
        "astId": 11469,
        "contract": "contracts/citrus-vaults/src/Aave2LeveragedVault.sol:Aave2LeveragedVault",
        "label": "balanceOf",
        "offset": 0,
        "slot": "3",
        "type": "t_mapping(t_address,t_uint256)"
      },
      {
        "astId": 11475,
        "contract": "contracts/citrus-vaults/src/Aave2LeveragedVault.sol:Aave2LeveragedVault",
        "label": "allowance",
        "offset": 0,
        "slot": "4",
        "type": "t_mapping(t_address,t_mapping(t_address,t_uint256))"
      },
      {
        "astId": 11483,
        "contract": "contracts/citrus-vaults/src/Aave2LeveragedVault.sol:Aave2LeveragedVault",
        "label": "nonces",
        "offset": 0,
        "slot": "5",
        "type": "t_mapping(t_address,t_uint256)"
      },
      {
        "astId": 6331,
        "contract": "contracts/citrus-vaults/src/Aave2LeveragedVault.sol:Aave2LeveragedVault",
        "label": "owner",
        "offset": 0,
        "slot": "6",
        "type": "t_address"
      },
      {
        "astId": 6333,
        "contract": "contracts/citrus-vaults/src/Aave2LeveragedVault.sol:Aave2LeveragedVault",
        "label": "pendingOwner",
        "offset": 0,
        "slot": "7",
        "type": "t_address"
      },
      {
        "astId": 15558,
        "contract": "contracts/citrus-vaults/src/Aave2LeveragedVault.sol:Aave2LeveragedVault",
        "label": "manager",
        "offset": 0,
        "slot": "8",
        "type": "t_address"
      },
      {
        "astId": 15560,
        "contract": "contracts/citrus-vaults/src/Aave2LeveragedVault.sol:Aave2LeveragedVault",
        "label": "feeTaker",
        "offset": 0,
        "slot": "9",
        "type": "t_address"
      },
      {
        "astId": 15562,
        "contract": "contracts/citrus-vaults/src/Aave2LeveragedVault.sol:Aave2LeveragedVault",
        "label": "withdrawalFee",
        "offset": 0,
        "slot": "10",
        "type": "t_uint256"
      },
      {
        "astId": 15564,
        "contract": "contracts/citrus-vaults/src/Aave2LeveragedVault.sol:Aave2LeveragedVault",
        "label": "harvestFee",
        "offset": 0,
        "slot": "11",
        "type": "t_uint256"
      },
      {
        "astId": 15568,
        "contract": "contracts/citrus-vaults/src/Aave2LeveragedVault.sol:Aave2LeveragedVault",
        "label": "harvestCheckpoints",
        "offset": 0,
        "slot": "12",
        "type": "t_array(t_struct(HarvestCheckpoint)15531_storage)dyn_storage"
      },
      {
        "astId": 15572,
        "contract": "contracts/citrus-vaults/src/Aave2LeveragedVault.sol:Aave2LeveragedVault",
        "label": "excludedFromFees",
        "offset": 0,
        "slot": "13",
        "type": "t_mapping(t_address,t_bool)"
      },
      {
        "astId": 15576,
        "contract": "contracts/citrus-vaults/src/Aave2LeveragedVault.sol:Aave2LeveragedVault",
        "label": "allowedHarvesters",
        "offset": 0,
        "slot": "14",
        "type": "t_mapping(t_address,t_bool)"
      },
      {
        "astId": 15579,
        "contract": "contracts/citrus-vaults/src/Aave2LeveragedVault.sol:Aave2LeveragedVault",
        "label": "_allHarvesters",
        "offset": 0,
        "slot": "15",
        "type": "t_array(t_address)dyn_storage"
      },
      {
        "astId": 15109,
        "contract": "contracts/citrus-vaults/src/Aave2LeveragedVault.sol:Aave2LeveragedVault",
        "label": "targetCollateralRatio",
        "offset": 0,
        "slot": "16",
        "type": "t_uint256"
      },
      {
        "astId": 15111,
        "contract": "contracts/citrus-vaults/src/Aave2LeveragedVault.sol:Aave2LeveragedVault",
        "label": "maxCollateralRatio",
        "offset": 0,
        "slot": "17",
        "type": "t_uint256"
      },
      {
        "astId": 13229,
        "contract": "contracts/citrus-vaults/src/Aave2LeveragedVault.sol:Aave2LeveragedVault",
        "label": "lendingPool",
        "offset": 0,
        "slot": "18",
        "type": "t_contract(ILendingPool)14675"
      },
      {
        "astId": 13232,
        "contract": "contracts/citrus-vaults/src/Aave2LeveragedVault.sol:Aave2LeveragedVault",
        "label": "incentivesController",
        "offset": 0,
        "slot": "19",
        "type": "t_contract(IAaveIncentivesController)14297"
      },
      {
        "astId": 13235,
        "contract": "contracts/citrus-vaults/src/Aave2LeveragedVault.sol:Aave2LeveragedVault",
        "label": "aToken",
        "offset": 0,
        "slot": "20",
        "type": "t_contract(IERC20)8319"
      },
      {
        "astId": 13238,
        "contract": "contracts/citrus-vaults/src/Aave2LeveragedVault.sol:Aave2LeveragedVault",
        "label": "debtToken",
        "offset": 0,
        "slot": "21",
        "type": "t_contract(IERC20)8319"
      }
    ],
    "types": {
      "t_address": {
        "encoding": "inplace",
        "label": "address",
        "numberOfBytes": "20"
      },
      "t_array(t_address)dyn_storage": {
        "base": "t_address",
        "encoding": "dynamic_array",
        "label": "address[]",
        "numberOfBytes": "32"
      },
      "t_array(t_struct(HarvestCheckpoint)15531_storage)dyn_storage": {
        "base": "t_struct(HarvestCheckpoint)15531_storage",
        "encoding": "dynamic_array",
        "label": "struct HarvestCheckpoint[]",
        "numberOfBytes": "32"
      },
      "t_bool": {
        "encoding": "inplace",
        "label": "bool",
        "numberOfBytes": "1"
      },
      "t_contract(IAaveIncentivesController)14297": {
        "encoding": "inplace",
        "label": "contract IAaveIncentivesController",
        "numberOfBytes": "20"
      },
      "t_contract(IERC20)8319": {
        "encoding": "inplace",
        "label": "contract IERC20",
        "numberOfBytes": "20"
      },
      "t_contract(ILendingPool)14675": {
        "encoding": "inplace",
        "label": "contract ILendingPool",
        "numberOfBytes": "20"
      },
      "t_mapping(t_address,t_bool)": {
        "encoding": "mapping",
        "key": "t_address",
        "label": "mapping(address => bool)",
        "numberOfBytes": "32",
        "value": "t_bool"
      },
      "t_mapping(t_address,t_mapping(t_address,t_uint256))": {
        "encoding": "mapping",
        "key": "t_address",
        "label": "mapping(address => mapping(address => uint256))",
        "numberOfBytes": "32",
        "value": "t_mapping(t_address,t_uint256)"
      },
      "t_mapping(t_address,t_uint256)": {
        "encoding": "mapping",
        "key": "t_address",
        "label": "mapping(address => uint256)",
        "numberOfBytes": "32",
        "value": "t_uint256"
      },
      "t_string_storage": {
        "encoding": "bytes",
        "label": "string",
        "numberOfBytes": "32"
      },
      "t_struct(HarvestCheckpoint)15531_storage": {
        "encoding": "inplace",
        "label": "struct HarvestCheckpoint",
        "members": [
          {
            "astId": 15528,
            "contract": "contracts/citrus-vaults/src/Aave2LeveragedVault.sol:Aave2LeveragedVault",
            "label": "blockTimestamp",
            "offset": 0,
            "slot": "0",
            "type": "t_uint32"
          },
          {
            "astId": 15530,
            "contract": "contracts/citrus-vaults/src/Aave2LeveragedVault.sol:Aave2LeveragedVault",
            "label": "assetsPerShare",
            "offset": 4,
            "slot": "0",
            "type": "t_uint224"
          }
        ],
        "numberOfBytes": "32"
      },
      "t_uint224": {
        "encoding": "inplace",
        "label": "uint224",
        "numberOfBytes": "28"
      },
      "t_uint256": {
        "encoding": "inplace",
        "label": "uint256",
        "numberOfBytes": "32"
      },
      "t_uint32": {
        "encoding": "inplace",
        "label": "uint32",
        "numberOfBytes": "4"
      }
    }
  }
}