{
  "address": "0x4f6F3aAd9A82Bed611D74b2856200F52103Be9FE",
  "abi": [
    {
      "inputs": [
        {
          "internalType": "contract ERC20",
          "name": "asset",
          "type": "address"
        },
        {
          "internalType": "string",
          "name": "name",
          "type": "string"
        },
        {
          "internalType": "string",
          "name": "symbol",
          "type": "string"
        },
        {
          "internalType": "contract ILendingPool",
          "name": "_lendingPool",
          "type": "address"
        },
        {
          "internalType": "contract IAaveIncentivesController",
          "name": "_incentivesController",
          "type": "address"
        }
      ],
      "stateMutability": "nonpayable",
      "type": "constructor"
    },
    {
      "anonymous": false,
      "inputs": [
        {
          "indexed": true,
          "internalType": "address",
          "name": "owner",
          "type": "address"
        },
        {
          "indexed": true,
          "internalType": "address",
          "name": "spender",
          "type": "address"
        },
        {
          "indexed": false,
          "internalType": "uint256",
          "name": "amount",
          "type": "uint256"
        }
      ],
      "name": "Approval",
      "type": "event"
    },
    {
      "anonymous": false,
      "inputs": [
        {
          "indexed": true,
          "internalType": "address",
          "name": "caller",
          "type": "address"
        },
        {
          "indexed": true,
          "internalType": "address",
          "name": "owner",
          "type": "address"
        },
        {
          "indexed": false,
          "internalType": "uint256",
          "name": "assets",
          "type": "uint256"
        },
        {
          "indexed": false,
          "internalType": "uint256",
          "name": "shares",
          "type": "uint256"
        }
      ],
      "name": "Deposit",
      "type": "event"
    },
    {
      "anonymous": false,
      "inputs": [
        {
          "indexed": false,
          "internalType": "uint256",
          "name": "assetsPerShare",
          "type": "uint256"
        },
        {
          "indexed": false,
          "internalType": "uint256",
          "name": "sharesToHarvester",
          "type": "uint256"
        }
      ],
      "name": "Harvest",
      "type": "event"
    },
    {
      "anonymous": false,
      "inputs": [
        {
          "indexed": false,
          "internalType": "uint256",
          "name": "oldMaxCollateralRatio",
          "type": "uint256"
        },
        {
          "indexed": false,
          "internalType": "uint256",
          "name": "newMaxCollateralRatio",
          "type": "uint256"
        }
      ],
      "name": "MaxCollateralRatioUpdated",
      "type": "event"
    },
    {
      "anonymous": false,
      "inputs": [
        {
          "indexed": true,
          "internalType": "address",
          "name": "previousOwner",
          "type": "address"
        },
        {
          "indexed": true,
          "internalType": "address",
          "name": "newOwner",
          "type": "address"
        }
      ],
      "name": "OwnershipTransferred",
      "type": "event"
    },
    {
      "anonymous": false,
      "inputs": [
        {
          "indexed": false,
          "internalType": "uint256",
          "name": "oldTargetCollateralRatio",
          "type": "uint256"
        },
        {
          "indexed": false,
          "internalType": "uint256",
          "name": "newTargetCollateralRatio",
          "type": "uint256"
        }
      ],
      "name": "TargetCollateralRatioUpdated",
      "type": "event"
    },
    {
      "anonymous": false,
      "inputs": [
        {
          "indexed": true,
          "internalType": "address",
          "name": "from",
          "type": "address"
        },
        {
          "indexed": true,
          "internalType": "address",
          "name": "to",
          "type": "address"
        },
        {
          "indexed": false,
          "internalType": "uint256",
          "name": "amount",
          "type": "uint256"
        }
      ],
      "name": "Transfer",
      "type": "event"
    },
    {
      "anonymous": false,
      "inputs": [
        {
          "indexed": false,
          "internalType": "address",
          "name": "user",
          "type": "address"
        },
        {
          "indexed": false,
          "internalType": "bool",
          "name": "excluded",
          "type": "bool"
        }
      ],
      "name": "UpdateFeeExclusion",
      "type": "event"
    },
    {
      "anonymous": false,
      "inputs": [
        {
          "indexed": false,
          "internalType": "address",
          "name": "target",
          "type": "address"
        },
        {
          "indexed": false,
          "internalType": "bytes4",
          "name": "sig",
          "type": "bytes4"
        },
        {
          "indexed": false,
          "internalType": "bool",
          "name": "allowed",
          "type": "bool"
        }
      ],
      "name": "UpdateHarvestCallAuthorisation",
      "type": "event"
    },
    {
      "anonymous": false,
      "inputs": [
        {
          "indexed": true,
          "internalType": "address",
          "name": "caller",
          "type": "address"
        },
        {
          "indexed": true,
          "internalType": "address",
          "name": "receiver",
          "type": "address"
        },
        {
          "indexed": true,
          "internalType": "address",
          "name": "owner",
          "type": "address"
        },
        {
          "indexed": false,
          "internalType": "uint256",
          "name": "assets",
          "type": "uint256"
        },
        {
          "indexed": false,
          "internalType": "uint256",
          "name": "shares",
          "type": "uint256"
        }
      ],
      "name": "Withdraw",
      "type": "event"
    },
    {
      "inputs": [],
      "name": "DOMAIN_SEPARATOR",
      "outputs": [
        {
          "internalType": "bytes32",
          "name": "",
          "type": "bytes32"
        }
      ],
      "stateMutability": "view",
      "type": "function"
    },
    {
      "inputs": [
        {
          "internalType": "address",
          "name": "target",
          "type": "address"
        },
        {
          "internalType": "bytes4",
          "name": "sig",
          "type": "bytes4"
        },
        {
          "internalType": "bool",
          "name": "allowed",
          "type": "bool"
        }
      ],
      "name": "allowHarvestCall",
      "outputs": [],
      "stateMutability": "nonpayable",
      "type": "function"
    },
    {
      "inputs": [
        {
          "internalType": "address",
          "name": "",
          "type": "address"
        },
        {
          "internalType": "address",
          "name": "",
          "type": "address"
        }
      ],
      "name": "allowance",
      "outputs": [
        {
          "internalType": "uint256",
          "name": "",
          "type": "uint256"
        }
      ],
      "stateMutability": "view",
      "type": "function"
    },
    {
      "inputs": [
        {
          "internalType": "address",
          "name": "spender",
          "type": "address"
        },
        {
          "internalType": "uint256",
          "name": "amount",
          "type": "uint256"
        }
      ],
      "name": "approve",
      "outputs": [
        {
          "internalType": "bool",
          "name": "",
          "type": "bool"
        }
      ],
      "stateMutability": "nonpayable",
      "type": "function"
    },
    {
      "inputs": [],
      "name": "asset",
      "outputs": [
        {
          "internalType": "contract ERC20",
          "name": "",
          "type": "address"
        }
      ],
      "stateMutability": "view",
      "type": "function"
    },
    {
      "inputs": [
        {
          "internalType": "address",
          "name": "",
          "type": "address"
        }
      ],
      "name": "balanceOf",
      "outputs": [
        {
          "internalType": "uint256",
          "name": "",
          "type": "uint256"
        }
      ],
      "stateMutability": "view",
      "type": "function"
    },
    {
      "inputs": [],
      "name": "claimOwnership",
      "outputs": [],
      "stateMutability": "nonpayable",
      "type": "function"
    },
    {
      "inputs": [
        {
          "internalType": "uint256",
          "name": "shares",
          "type": "uint256"
        }
      ],
      "name": "convertToAssets",
      "outputs": [
        {
          "internalType": "uint256",
          "name": "",
          "type": "uint256"
        }
      ],
      "stateMutability": "view",
      "type": "function"
    },
    {
      "inputs": [
        {
          "internalType": "uint256",
          "name": "assets",
          "type": "uint256"
        }
      ],
      "name": "convertToShares",
      "outputs": [
        {
          "internalType": "uint256",
          "name": "",
          "type": "uint256"
        }
      ],
      "stateMutability": "view",
      "type": "function"
    },
    {
      "inputs": [],
      "name": "decimals",
      "outputs": [
        {
          "internalType": "uint8",
          "name": "",
          "type": "uint8"
        }
      ],
      "stateMutability": "view",
      "type": "function"
    },
    {
      "inputs": [
        {
          "internalType": "uint256",
          "name": "assets",
          "type": "uint256"
        },
        {
          "internalType": "address",
          "name": "receiver",
          "type": "address"
        }
      ],
      "name": "deposit",
      "outputs": [
        {
          "internalType": "uint256",
          "name": "shares",
          "type": "uint256"
        }
      ],
      "stateMutability": "nonpayable",
      "type": "function"
    },
    {
      "inputs": [
        {
          "internalType": "address",
          "name": "user",
          "type": "address"
        },
        {
          "internalType": "bool",
          "name": "exclude",
          "type": "bool"
        }
      ],
      "name": "excludeFromFees",
      "outputs": [],
      "stateMutability": "nonpayable",
      "type": "function"
    },
    {
      "inputs": [
        {
          "internalType": "address",
          "name": "",
          "type": "address"
        }
      ],
      "name": "excludedFromFees",
      "outputs": [
        {
          "internalType": "bool",
          "name": "",
          "type": "bool"
        }
      ],
      "stateMutability": "view",
      "type": "function"
    },
    {
      "inputs": [],
      "name": "feeTaker",
      "outputs": [
        {
          "internalType": "address",
          "name": "",
          "type": "address"
        }
      ],
      "stateMutability": "view",
      "type": "function"
    },
    {
      "inputs": [],
      "name": "getBorrowedFromProtocol",
      "outputs": [
        {
          "internalType": "uint256",
          "name": "",
          "type": "uint256"
        }
      ],
      "stateMutability": "view",
      "type": "function"
    },
    {
      "inputs": [],
      "name": "getProtocolLiquidity",
      "outputs": [
        {
          "internalType": "uint256",
          "name": "",
          "type": "uint256"
        }
      ],
      "stateMutability": "view",
      "type": "function"
    },
    {
      "inputs": [],
      "name": "getRemainingProtocolBorrowCap",
      "outputs": [
        {
          "internalType": "uint256",
          "name": "",
          "type": "uint256"
        }
      ],
      "stateMutability": "pure",
      "type": "function"
    },
    {
      "inputs": [],
      "name": "getRemainingProtocolSupplyCap",
      "outputs": [
        {
          "internalType": "uint256",
          "name": "",
          "type": "uint256"
        }
      ],
      "stateMutability": "pure",
      "type": "function"
    },
    {
      "inputs": [],
      "name": "getSuppliedToProtocol",
      "outputs": [
        {
          "internalType": "uint256",
          "name": "",
          "type": "uint256"
        }
      ],
      "stateMutability": "view",
      "type": "function"
    },
    {
      "inputs": [
        {
          "components": [
            {
              "internalType": "address",
              "name": "target",
              "type": "address"
            },
            {
              "internalType": "bytes",
              "name": "callData",
              "type": "bytes"
            }
          ],
          "internalType": "struct HarvestCall[]",
          "name": "calls",
          "type": "tuple[]"
        }
      ],
      "name": "harvest",
      "outputs": [
        {
          "internalType": "bytes[]",
          "name": "returnData",
          "type": "bytes[]"
        }
      ],
      "stateMutability": "nonpayable",
      "type": "function"
    },
    {
      "inputs": [
        {
          "internalType": "uint256",
          "name": "",
          "type": "uint256"
        }
      ],
      "name": "harvestCheckpoints",
      "outputs": [
        {
          "internalType": "uint32",
          "name": "blockTimestamp",
          "type": "uint32"
        },
        {
          "internalType": "uint224",
          "name": "assetsPerShare",
          "type": "uint224"
        }
      ],
      "stateMutability": "view",
      "type": "function"
    },
    {
      "inputs": [],
      "name": "harvestCheckpointsLength",
      "outputs": [
        {
          "internalType": "uint256",
          "name": "",
          "type": "uint256"
        }
      ],
      "stateMutability": "view",
      "type": "function"
    },
    {
      "inputs": [],
      "name": "harvestFee",
      "outputs": [
        {
          "internalType": "uint256",
          "name": "",
          "type": "uint256"
        }
      ],
      "stateMutability": "view",
      "type": "function"
    },
    {
      "inputs": [],
      "name": "harvestable",
      "outputs": [
        {
          "components": [
            {
              "internalType": "address",
              "name": "token",
              "type": "address"
            },
            {
              "internalType": "uint256",
              "name": "amount",
              "type": "uint256"
            }
          ],
          "internalType": "struct Harvestable[]",
          "name": "",
          "type": "tuple[]"
        }
      ],
      "stateMutability": "view",
      "type": "function"
    },
    {
      "inputs": [
        {
          "internalType": "contract ERC20",
          "name": "token",
          "type": "address"
        },
        {
          "internalType": "address",
          "name": "spender",
          "type": "address"
        }
      ],
      "name": "increaseAllowance",
      "outputs": [
        {
          "internalType": "bool",
          "name": "",
          "type": "bool"
        }
      ],
      "stateMutability": "nonpayable",
      "type": "function"
    },
    {
      "inputs": [
        {
          "internalType": "uint256",
          "name": "index",
          "type": "uint256"
        }
      ],
      "name": "invertedHarvestCheckpoints",
      "outputs": [
        {
          "components": [
            {
              "internalType": "uint32",
              "name": "blockTimestamp",
              "type": "uint32"
            },
            {
              "internalType": "uint224",
              "name": "assetsPerShare",
              "type": "uint224"
            }
          ],
          "internalType": "struct HarvestCheckpoint",
          "name": "",
          "type": "tuple"
        }
      ],
      "stateMutability": "view",
      "type": "function"
    },
    {
      "inputs": [],
      "name": "manager",
      "outputs": [
        {
          "internalType": "address",
          "name": "",
          "type": "address"
        }
      ],
      "stateMutability": "view",
      "type": "function"
    },
    {
      "inputs": [
        {
          "internalType": "address",
          "name": "",
          "type": "address"
        }
      ],
      "name": "maxDeposit",
      "outputs": [
        {
          "internalType": "uint256",
          "name": "",
          "type": "uint256"
        }
      ],
      "stateMutability": "view",
      "type": "function"
    },
    {
      "inputs": [
        {
          "internalType": "address",
          "name": "",
          "type": "address"
        }
      ],
      "name": "maxMint",
      "outputs": [
        {
          "internalType": "uint256",
          "name": "",
          "type": "uint256"
        }
      ],
      "stateMutability": "view",
      "type": "function"
    },
    {
      "inputs": [
        {
          "internalType": "address",
          "name": "owner",
          "type": "address"
        }
      ],
      "name": "maxRedeem",
      "outputs": [
        {
          "internalType": "uint256",
          "name": "",
          "type": "uint256"
        }
      ],
      "stateMutability": "view",
      "type": "function"
    },
    {
      "inputs": [
        {
          "internalType": "address",
          "name": "owner",
          "type": "address"
        }
      ],
      "name": "maxWithdraw",
      "outputs": [
        {
          "internalType": "uint256",
          "name": "",
          "type": "uint256"
        }
      ],
      "stateMutability": "view",
      "type": "function"
    },
    {
      "inputs": [
        {
          "internalType": "uint256",
          "name": "shares",
          "type": "uint256"
        },
        {
          "internalType": "address",
          "name": "receiver",
          "type": "address"
        }
      ],
      "name": "mint",
      "outputs": [
        {
          "internalType": "uint256",
          "name": "assets",
          "type": "uint256"
        }
      ],
      "stateMutability": "nonpayable",
      "type": "function"
    },
    {
      "inputs": [],
      "name": "name",
      "outputs": [
        {
          "internalType": "string",
          "name": "",
          "type": "string"
        }
      ],
      "stateMutability": "view",
      "type": "function"
    },
    {
      "inputs": [
        {
          "internalType": "address",
          "name": "",
          "type": "address"
        }
      ],
      "name": "nonces",
      "outputs": [
        {
          "internalType": "uint256",
          "name": "",
          "type": "uint256"
        }
      ],
      "stateMutability": "view",
      "type": "function"
    },
    {
      "inputs": [],
      "name": "owner",
      "outputs": [
        {
          "internalType": "address",
          "name": "",
          "type": "address"
        }
      ],
      "stateMutability": "view",
      "type": "function"
    },
    {
      "inputs": [],
      "name": "pendingOwner",
      "outputs": [
        {
          "internalType": "address",
          "name": "",
          "type": "address"
        }
      ],
      "stateMutability": "view",
      "type": "function"
    },
    {
      "inputs": [
        {
          "internalType": "address",
          "name": "owner",
          "type": "address"
        },
        {
          "internalType": "address",
          "name": "spender",
          "type": "address"
        },
        {
          "internalType": "uint256",
          "name": "value",
          "type": "uint256"
        },
        {
          "internalType": "uint256",
          "name": "deadline",
          "type": "uint256"
        },
        {
          "internalType": "uint8",
          "name": "v",
          "type": "uint8"
        },
        {
          "internalType": "bytes32",
          "name": "r",
          "type": "bytes32"
        },
        {
          "internalType": "bytes32",
          "name": "s",
          "type": "bytes32"
        }
      ],
      "name": "permit",
      "outputs": [],
      "stateMutability": "nonpayable",
      "type": "function"
    },
    {
      "inputs": [
        {
          "internalType": "uint256",
          "name": "assets",
          "type": "uint256"
        }
      ],
      "name": "previewDeposit",
      "outputs": [
        {
          "internalType": "uint256",
          "name": "",
          "type": "uint256"
        }
      ],
      "stateMutability": "view",
      "type": "function"
    },
    {
      "inputs": [
        {
          "internalType": "uint256",
          "name": "shares",
          "type": "uint256"
        }
      ],
      "name": "previewMint",
      "outputs": [
        {
          "internalType": "uint256",
          "name": "",
          "type": "uint256"
        }
      ],
      "stateMutability": "view",
      "type": "function"
    },
    {
      "inputs": [
        {
          "internalType": "uint256",
          "name": "shares",
          "type": "uint256"
        }
      ],
      "name": "previewRedeem",
      "outputs": [
        {
          "internalType": "uint256",
          "name": "",
          "type": "uint256"
        }
      ],
      "stateMutability": "view",
      "type": "function"
    },
    {
      "inputs": [
        {
          "internalType": "uint256",
          "name": "assets",
          "type": "uint256"
        }
      ],
      "name": "previewWithdraw",
      "outputs": [
        {
          "internalType": "uint256",
          "name": "",
          "type": "uint256"
        }
      ],
      "stateMutability": "view",
      "type": "function"
    },
    {
      "inputs": [],
      "name": "rebalance",
      "outputs": [],
      "stateMutability": "nonpayable",
      "type": "function"
    },
    {
      "inputs": [
        {
          "internalType": "uint256",
          "name": "shares",
          "type": "uint256"
        },
        {
          "internalType": "address",
          "name": "receiver",
          "type": "address"
        },
        {
          "internalType": "address",
          "name": "owner",
          "type": "address"
        }
      ],
      "name": "redeem",
      "outputs": [
        {
          "internalType": "uint256",
          "name": "assets",
          "type": "uint256"
        }
      ],
      "stateMutability": "nonpayable",
      "type": "function"
    },
    {
      "inputs": [
        {
          "internalType": "uint256",
          "name": "start",
          "type": "uint256"
        },
        {
          "internalType": "uint256",
          "name": "end",
          "type": "uint256"
        }
      ],
      "name": "selectHarvestCheckpoints",
      "outputs": [
        {
          "components": [
            {
              "internalType": "uint32",
              "name": "blockTimestamp",
              "type": "uint32"
            },
            {
              "internalType": "uint224",
              "name": "assetsPerShare",
              "type": "uint224"
            }
          ],
          "internalType": "struct HarvestCheckpoint[]",
          "name": "",
          "type": "tuple[]"
        }
      ],
      "stateMutability": "view",
      "type": "function"
    },
    {
      "inputs": [
        {
          "internalType": "uint256",
          "name": "start",
          "type": "uint256"
        },
        {
          "internalType": "uint256",
          "name": "end",
          "type": "uint256"
        }
      ],
      "name": "selectInvertedHarvestCheckpoints",
      "outputs": [
        {
          "components": [
            {
              "internalType": "uint32",
              "name": "blockTimestamp",
              "type": "uint32"
            },
            {
              "internalType": "uint224",
              "name": "assetsPerShare",
              "type": "uint224"
            }
          ],
          "internalType": "struct HarvestCheckpoint[]",
          "name": "",
          "type": "tuple[]"
        }
      ],
      "stateMutability": "view",
      "type": "function"
    },
    {
      "inputs": [
        {
          "internalType": "address",
          "name": "_feeTaker",
          "type": "address"
        }
      ],
      "name": "setFeeTaker",
      "outputs": [],
      "stateMutability": "nonpayable",
      "type": "function"
    },
    {
      "inputs": [
        {
          "internalType": "uint256",
          "name": "_harvestFee",
          "type": "uint256"
        }
      ],
      "name": "setHarvestFee",
      "outputs": [],
      "stateMutability": "nonpayable",
      "type": "function"
    },
    {
      "inputs": [
        {
          "internalType": "address",
          "name": "_manager",
          "type": "address"
        }
      ],
      "name": "setManager",
      "outputs": [],
      "stateMutability": "nonpayable",
      "type": "function"
    },
    {
      "inputs": [
        {
          "internalType": "uint256",
          "name": "newMaxCollateralRatio",
          "type": "uint256"
        }
      ],
      "name": "setMaxCollateralRatio",
      "outputs": [],
      "stateMutability": "nonpayable",
      "type": "function"
    },
    {
      "inputs": [
        {
          "internalType": "uint256",
          "name": "newTargetCollateralRatio",
          "type": "uint256"
        }
      ],
      "name": "setTargetCollateralRatio",
      "outputs": [],
      "stateMutability": "nonpayable",
      "type": "function"
    },
    {
      "inputs": [
        {
          "internalType": "uint256",
          "name": "_withdrawalFee",
          "type": "uint256"
        }
      ],
      "name": "setWithdrawalFee",
      "outputs": [],
      "stateMutability": "nonpayable",
      "type": "function"
    },
    {
      "inputs": [],
      "name": "symbol",
      "outputs": [
        {
          "internalType": "string",
          "name": "",
          "type": "string"
        }
      ],
      "stateMutability": "view",
      "type": "function"
    },
    {
      "inputs": [],
      "name": "totalAssets",
      "outputs": [
        {
          "internalType": "uint256",
          "name": "",
          "type": "uint256"
        }
      ],
      "stateMutability": "view",
      "type": "function"
    },
    {
      "inputs": [],
      "name": "totalSupply",
      "outputs": [
        {
          "internalType": "uint256",
          "name": "",
          "type": "uint256"
        }
      ],
      "stateMutability": "view",
      "type": "function"
    },
    {
      "inputs": [
        {
          "internalType": "address",
          "name": "to",
          "type": "address"
        },
        {
          "internalType": "uint256",
          "name": "amount",
          "type": "uint256"
        }
      ],
      "name": "transfer",
      "outputs": [
        {
          "internalType": "bool",
          "name": "",
          "type": "bool"
        }
      ],
      "stateMutability": "nonpayable",
      "type": "function"
    },
    {
      "inputs": [
        {
          "internalType": "address",
          "name": "from",
          "type": "address"
        },
        {
          "internalType": "address",
          "name": "to",
          "type": "address"
        },
        {
          "internalType": "uint256",
          "name": "amount",
          "type": "uint256"
        }
      ],
      "name": "transferFrom",
      "outputs": [
        {
          "internalType": "bool",
          "name": "",
          "type": "bool"
        }
      ],
      "stateMutability": "nonpayable",
      "type": "function"
    },
    {
      "inputs": [
        {
          "internalType": "address",
          "name": "newOwner",
          "type": "address"
        },
        {
          "internalType": "bool",
          "name": "direct",
          "type": "bool"
        },
        {
          "internalType": "bool",
          "name": "renounce",
          "type": "bool"
        }
      ],
      "name": "transferOwnership",
      "outputs": [],
      "stateMutability": "nonpayable",
      "type": "function"
    },
    {
      "inputs": [
        {
          "internalType": "uint256",
          "name": "assets",
          "type": "uint256"
        },
        {
          "internalType": "address",
          "name": "receiver",
          "type": "address"
        },
        {
          "internalType": "address",
          "name": "owner",
          "type": "address"
        }
      ],
      "name": "withdraw",
      "outputs": [
        {
          "internalType": "uint256",
          "name": "shares",
          "type": "uint256"
        }
      ],
      "stateMutability": "nonpayable",
      "type": "function"
    },
    {
      "inputs": [],
      "name": "withdrawalFee",
      "outputs": [
        {
          "internalType": "uint256",
          "name": "",
          "type": "uint256"
        }
      ],
      "stateMutability": "view",
      "type": "function"
    },
    {
      "inputs": [],
      "name": "yield",
      "outputs": [
        {
          "internalType": "uint256",
          "name": "diffTimestamp",
          "type": "uint256"
        },
        {
          "internalType": "int256",
          "name": "diffAssetsPerShare",
          "type": "int256"
        }
      ],
      "stateMutability": "view",
      "type": "function"
    }
  ],
  "transactionHash": "0xa484881128264c78b4424f6251bd4f45543311e67e471c11843ef3675b34612a",
  "args": [
    "0xe91D153E0b41518A2Ce8Dd3D7944Fa863463a97d",
    "Citrus Agave Leveraged WXDAI Vault",
    "clvagWXDAI",
    "0x5E15d5E33d318dCEd84Bfe3F4EACe07909bE6d9c",
    "0xfa255f5104f129B78f477e9a6D050a02f31A5D86"
  ],
  "numDeployments": 2,
  "solcInputHash": "f7b69ae8a59114c3bb7fd2d2b9bb8aab",
  "bytecode": "0x6101006040523480156200001257600080fd5b50604051620047943803806200479483398101604081905262000035916200066e565b8484848282828282828181846001600160a01b031663313ce5676040518163ffffffff1660e01b8152600401602060405180830381865afa1580156200007f573d6000803e3d6000fd5b505050506040513d601f19601f82011682018060405250810190620000a5919062000731565b6000620000b38482620007de565b506001620000c28382620007de565b5060ff81166080524660a052620000d862000309565b60c0525050506001600160a01b0390921660e0525050600680546001600160a01b031916339081179091556040516000907f8be0079c531659141344cd1fd0a4f28419497f9722a3daafe3b4186f6b6457e0908290a3600c60405180604001604052804263ffffffff16815260200162000162608051600a6200015c9190620009bf565b620003a5565b6001600160e01b03908116909152825460018101845560009384526020808520845191909401519092166401000000000263ffffffff90921691909117910155601180546001600160a01b03808c166001600160a01b0319928316811790935560128054918c16919092161790556040516335ea6a7560e01b815291975095506335ea6a7594506200020b93508b925060040190506001600160a01b0391909116815260200190565b61018060405180830381865afa1580156200022a573d6000803e3d6000fd5b505050506040513d601f19601f8201168201806040525081019062000250919062000a50565b60e0810151601380546001600160a01b03199081166001600160a01b03938416179091556101208301516014805490921690831617905560115460405163095ea7b360e01b81529082166004820152600019602482015291925087169063095ea7b3906044016020604051808303816000875af1158015620002d6573d6000803e3d6000fd5b505050506040513d601f19601f82011682018060405250810190620002fc919062000b58565b5050505050505062000c49565b60007f8b73c3c69bb8fe3d512ecc4cf759cc79239f7b179b0ffacaa9a75d522b39400f60006040516200033d919062000b7c565b6040805191829003822060208301939093528101919091527fc89efdaa54c0f20c7adf612882df0950f5a951637e0307cdcb4c672f298b8bc660608201524660808201523060a082015260c00160405160208183030381529060405280519060200120905090565b6002546000908015620003dd57620003d7620003c0620003e6565b82856200048860201b620025e4179092919060201c565b620003df565b825b9392505050565b6000620003f2620004a8565b620003fc62000519565b60e0516040516370a0823160e01b81523060048201526001600160a01b03909116906370a0823190602401602060405180830381865afa15801562000445573d6000803e3d6000fd5b505050506040513d601f19601f820116820180604052508101906200046b919062000bfa565b62000477919062000c14565b62000483919062000c2f565b905090565b828202811515841585830485141716620004a157600080fd5b0492915050565b6014546040516370a0823160e01b81523060048201526000916001600160a01b0316906370a08231906024015b602060405180830381865afa158015620004f3573d6000803e3d6000fd5b505050506040513d601f19601f8201168201806040525081019062000483919062000bfa565b6013546040516370a0823160e01b81523060048201526000916001600160a01b0316906370a0823190602401620004d5565b6001600160a01b03811681146200056157600080fd5b50565b634e487b7160e01b600052604160045260246000fd5b60405161018081016001600160401b0381118282101715620005a057620005a062000564565b60405290565b604051601f8201601f191681016001600160401b0381118282101715620005d157620005d162000564565b604052919050565b600082601f830112620005eb57600080fd5b81516001600160401b0381111562000607576200060762000564565b60206200061d601f8301601f19168201620005a6565b82815285828487010111156200063257600080fd5b60005b838110156200065257858101830151828201840152820162000635565b83811115620006645760008385840101525b5095945050505050565b600080600080600060a086880312156200068757600080fd5b855162000694816200054b565b60208701519095506001600160401b0380821115620006b257600080fd5b620006c089838a01620005d9565b95506040880151915080821115620006d757600080fd5b50620006e688828901620005d9565b9350506060860151620006f9816200054b565b60808701519092506200070c816200054b565b809150509295509295909350565b805160ff811681146200072c57600080fd5b919050565b6000602082840312156200074457600080fd5b620003df826200071a565b600181811c908216806200076457607f821691505b6020821081036200078557634e487b7160e01b600052602260045260246000fd5b50919050565b601f821115620007d957600081815260208120601f850160051c81016020861015620007b45750805b601f850160051c820191505b81811015620007d557828155600101620007c0565b5050505b505050565b81516001600160401b03811115620007fa57620007fa62000564565b62000812816200080b84546200074f565b846200078b565b602080601f8311600181146200084a5760008415620008315750858301515b600019600386901b1c1916600185901b178555620007d5565b600085815260208120601f198616915b828110156200087b578886015182559484019460019091019084016200085a565b50858210156200089a5787850151600019600388901b60f8161c191681555b5050505050600190811b01905550565b634e487b7160e01b600052601160045260246000fd5b600181815b8085111562000901578160001904821115620008e557620008e5620008aa565b80851615620008f357918102915b93841c9390800290620008c5565b509250929050565b6000826200091a57506001620009b9565b816200092957506000620009b9565b81600181146200094257600281146200094d576200096d565b6001915050620009b9565b60ff841115620009615762000961620008aa565b50506001821b620009b9565b5060208310610133831016604e8410600b841016171562000992575081810a620009b9565b6200099e8383620008c0565b8060001904821115620009b557620009b5620008aa565b0290505b92915050565b6000620003df60ff84168362000909565b600060208284031215620009e357600080fd5b604051602081016001600160401b038111828210171562000a085762000a0862000564565b6040529151825250919050565b80516001600160801b03811681146200072c57600080fd5b805164ffffffffff811681146200072c57600080fd5b80516200072c816200054b565b6000610180828403121562000a6457600080fd5b62000a6e6200057a565b62000a7a8484620009d0565b815262000a8a6020840162000a15565b602082015262000a9d6040840162000a15565b604082015262000ab06060840162000a15565b606082015262000ac36080840162000a15565b608082015262000ad660a0840162000a15565b60a082015262000ae960c0840162000a2d565b60c082015262000afc60e0840162000a43565b60e082015261010062000b1181850162000a43565b9082015261012062000b2584820162000a43565b9082015261014062000b3984820162000a43565b9082015261016062000b4d8482016200071a565b908201529392505050565b60006020828403121562000b6b57600080fd5b81518015158114620003df57600080fd5b600080835462000b8c816200074f565b6001828116801562000ba7576001811462000bbd5762000bee565b60ff198416875282151583028701945062000bee565b8760005260208060002060005b8581101562000be55781548a82015290840190820162000bca565b50505082870194505b50929695505050505050565b60006020828403121562000c0d57600080fd5b5051919050565b6000821982111562000c2a5762000c2a620008aa565b500190565b60008282101562000c445762000c44620008aa565b500390565b60805160a05160c05160e051613ac462000cd0600039600081816104c9015281816108bc015281816114b8015281816117620152818161198c01528181611f3b015281816127d401528181612b6c01528181612bfc01528181612c690152612d0701526000610e2301526000610df30152600081816104750152611d2f0152613ac46000f3fe608060405234801561001057600080fd5b50600436106103a45760003560e01c80638bc7e8c4116101e9578063ba0876521161010f578063d505accf116100ad578063dbf2c98d1161007c578063dbf2c98d1461083c578063dd62ed3e14610844578063e30c39781461086f578063ef8b30f71461088257600080fd5b8063d505accf146107c8578063d905777e146107db578063dbbd47d414610804578063dbe66ca01461081957600080fd5b8063c63d75b6116100e9578063c63d75b61461055a578063c6e6f5921461078f578063ce96cb77146107a2578063d0ebdbe7146107b557600080fd5b8063ba08765214610756578063badd252614610769578063c02466681461077c57600080fd5b8063a9059cbb11610187578063b45bb10d11610156578063b45bb10d146106ff578063b460af941461071a578063b4adc4231461072d578063b59629171461074d57600080fd5b8063a9059cbb146106d9578063ac1e5025146106ec578063b0f58c61146106ff578063b3d7f6b91461070757600080fd5b806391b5fd5f116101c357806391b5fd5f146106ae57806394bf804d146106b657806395d89b41146106c9578063a0807ae1146106d157600080fd5b80638bc7e8c4146106725780638da5cb5b1461067b578063918195c51461068e57600080fd5b8063402d267d116102ce57806367a4c9441161026c578063749f10441161023b578063749f104414610624578063792b55b6146106375780637d7c2a1c1461064a5780637ecebe001461065257600080fd5b806367a4c944146105d65780636e553f65146105e957806370a08231146105fc578063725fd9201461061c57600080fd5b80634cdad506116102a85780634cdad506146105955780634e71e0c8146105a85780634ec5908d146105b057806367a263c8146105c357600080fd5b8063402d267d1461055a57806348023e261461056f578063481c6a751461058257600080fd5b806323b872dd11610346578063380e7e4211610315578063380e7e42146104b157806338d52e0f146104c457806338dbd5651461050357806339bad3dd1461052357600080fd5b806323b872dd146104405780632859398414610453578063313ce567146104705780633644e515146104a957600080fd5b806307a2d13a1161038257806307a2d13a146103ee578063095ea7b3146104015780630a28a4771461042457806318160ddd1461043757600080fd5b806301e1d114146103a957806306fdde03146103c4578063078dfbe7146103d9575b600080fd5b6103b1610895565b6040519081526020015b60405180910390f35b6103cc610948565b6040516103bb9190612ed1565b6103ec6103e7366004612f07565b6109d6565b005b6103b16103fc366004612f52565b610aef565b61041461040f366004612f6b565b610b1c565b60405190151581526020016103bb565b6103b1610432366004612f52565b610b89565b6103b160025481565b61041461044e366004612f97565b610bfa565b61045b610cda565b604080519283526020830191909152016103bb565b6104977f000000000000000000000000000000000000000000000000000000000000000081565b60405160ff90911681526020016103bb565b6103b1610def565b6104146104bf366004612fd8565b610e45565b6104eb7f000000000000000000000000000000000000000000000000000000000000000081565b6040516001600160a01b0390911681526020016103bb565b610516610511366004613011565b610ee6565b6040516103bb9190613033565b610536610531366004612f52565b610ffe565b6040805163ffffffff90931683526001600160e01b039091166020830152016103bb565b6103b1610568366004613099565b5060001990565b61051661057d366004613011565b611036565b6008546104eb906001600160a01b031681565b6103b16105a3366004612f52565b611164565b6103ec6111b4565b6103ec6105be366004613099565b611272565b6103ec6105d13660046130b6565b6112be565b6103ec6105e4366004612f52565b611369565b6103b16105f73660046130f3565b611460565b6103b161060a366004613099565b60036020526000908152604090205481565b6103b161153a565b6009546104eb906001600160a01b031681565b6103ec610645366004612f52565b6115a8565b6103ec6115d7565b6103b1610660366004613099565b60056020526000908152604090205481565b6103b1600a5481565b6006546104eb906001600160a01b031681565b6106a161069c366004612f52565b6115e5565b6040516103bb9190613118565b6103b1611663565b6103b16106c43660046130f3565b611748565b6103cc6117e4565b600c546103b1565b6104146106e7366004612f6b565b6117f1565b6103ec6106fa366004612f52565b611857565b6000196103b1565b6103b1610715366004612f52565b611886565b6103b161072836600461313e565b6118a5565b61074061073b36600461320d565b6119b3565b6040516103bb919061335b565b6103b1600b5481565b6103b161076436600461313e565b611e16565b6103ec610777366004612f52565b611f62565b6103ec61078a3660046133bd565b61205b565b6103b161079d366004612f52565b6120e1565b6103b16107b0366004613099565b612101565b6103ec6107c3366004613099565b612123565b6103ec6107d63660046133eb565b61216f565b6103b16107e9366004613099565b6001600160a01b031660009081526003602052604090205490565b61080c6123b3565b6040516103bb9190613462565b610414610827366004613099565b600d6020526000908152604090205460ff1681565b6103b16125a8565b6103b1610852366004612fd8565b600460209081526000928352604080842090915290825290205481565b6007546104eb906001600160a01b031681565b6103b1610890366004612f52565b6125d9565b600061089f6125a8565b6108a761153a565b6040516370a0823160e01b81523060048201527f00000000000000000000000000000000000000000000000000000000000000006001600160a01b0316906370a0823190602401602060405180830381865afa15801561090b573d6000803e3d6000fd5b505050506040513d601f19601f8201168201806040525081019061092f91906134ad565b61093991906134dc565b61094391906134f4565b905090565b600080546109559061350b565b80601f01602080910402602001604051908101604052809291908181526020018280546109819061350b565b80156109ce5780601f106109a3576101008083540402835291602001916109ce565b820191906000526020600020905b8154815290600101906020018083116109b157829003601f168201915b505050505081565b6006546001600160a01b03163314610a095760405162461bcd60e51b8152600401610a0090613545565b60405180910390fd5b8115610acd576001600160a01b038316151580610a235750805b610a675760405162461bcd60e51b81526020600482015260156024820152744f776e61626c653a207a65726f206164647265737360581b6044820152606401610a00565b6006546040516001600160a01b038086169216907f8be0079c531659141344cd1fd0a4f28419497f9722a3daafe3b4186f6b6457e090600090a3600680546001600160a01b0385166001600160a01b031991821617909155600780549091169055505050565b600780546001600160a01b0385166001600160a01b0319909116179055505050565b6002546000908015610b1357610b0e610b06610895565b8490836125e4565b610b15565b825b9392505050565b3360008181526004602090815260408083206001600160a01b038716808552925280832085905551919290917f8c5be1e5ebec7d5bd14f71427d1e84f3dd0314c0f7b2291e5b200ac8c7c3b92590610b779086815260200190565b60405180910390a35060015b92915050565b600a54336000908152600d602052604081205490919060ff1615610bab575060005b60025460008115610bcf57610bca82610bc2610895565b879190612603565b610bd1565b845b9050610bf1670de0b6b3a7640000610be985826134f4565b839190612603565b95945050505050565b6001600160a01b03831660009081526004602090815260408083203384529091528120546000198114610c5657610c3183826134f4565b6001600160a01b03861660009081526004602090815260408083203384529091529020555b6001600160a01b03851660009081526003602052604081208054859290610c7e9084906134f4565b90915550506001600160a01b0380851660008181526003602052604090819020805487019055519091871690600080516020613a6f83398151915290610cc79087815260200190565b60405180910390a3506001949350505050565b60008060006001600c80549050610cf191906134f4565b90506001811015610d0a57506201518092600092509050565b6000600c8281548110610d1f57610d1f61357a565b600091825260208083206040805180820190915292015463ffffffff81168352600160201b90046001600160e01b0316908201529150600c610d626001856134f4565b81548110610d7257610d7261357a565b60009182526020918290206040805180820190915291015463ffffffff808216808452600160201b9092046001600160e01b031683850181905286519487015192909403169750909250610dc7908290613590565b610dd990670de0b6b3a76400006135e0565b610de39190613674565b601b0b93505050509091565b60007f00000000000000000000000000000000000000000000000000000000000000004614610e2057610943612631565b507f000000000000000000000000000000000000000000000000000000000000000090565b6006546000906001600160a01b03163314610e725760405162461bcd60e51b8152600401610a0090613545565b60405163095ea7b360e01b81526001600160a01b038381166004830152600019602483015284169063095ea7b3906044016020604051808303816000875af1158015610ec2573d6000803e3d6000fd5b505050506040513d601f19601f82011682018060405250810190610b1591906136c0565b60606000610ef484846134f4565b610eff9060016134dc565b905060008167ffffffffffffffff811115610f1c57610f1c613175565b604051908082528060200260200182016040528015610f6157816020015b6040805180820190915260008082526020820152815260200190600190039081610f3a5790505b50905060005b82811015610ff557600c610f7b82886134dc565b81548110610f8b57610f8b61357a565b60009182526020918290206040805180820190915291015463ffffffff81168252600160201b90046001600160e01b0316918101919091528251839083908110610fd757610fd761357a565b60200260200101819052508080610fed906136dd565b915050610f67565b50949350505050565b600c818154811061100e57600080fd5b60009182526020909120015463ffffffff81169150600160201b90046001600160e01b031682565b6060600061104484846134f4565b61104f9060016134dc565b600c54909150600090611064906001906134f4565b905060008267ffffffffffffffff81111561108157611081613175565b6040519080825280602002602001820160405280156110c657816020015b604080518082019091526000808252602082015281526020019060019003908161109f5790505b50905060005b8381101561115a57600c6110e082856134f4565b815481106110f0576110f061357a565b60009182526020918290206040805180820190915291015463ffffffff81168252600160201b90046001600160e01b031691810191909152825183908390811061113c5761113c61357a565b60200260200101819052508080611152906136dd565b9150506110cc565b5095945050505050565b600a54336000908152600d602052604081205490919060ff1615611186575060005b610b1561119b82670de0b6b3a76400006134f4565b670de0b6b3a76400006111ad86610aef565b91906125e4565b6007546001600160a01b031633811461120f5760405162461bcd60e51b815260206004820181905260248201527f4f776e61626c653a2063616c6c657220213d2070656e64696e67206f776e65726044820152606401610a00565b6006546040516001600160a01b038084169216907f8be0079c531659141344cd1fd0a4f28419497f9722a3daafe3b4186f6b6457e090600090a3600680546001600160a01b039092166001600160a01b0319928316179055600780549091169055565b6006546001600160a01b0316331461129c5760405162461bcd60e51b8152600401610a0090613545565b600980546001600160a01b0319166001600160a01b0392909216919091179055565b6006546001600160a01b031633146112e85760405162461bcd60e51b8152600401610a0090613545565b6001600160a01b0383166000818152600e602090815260408083206001600160e01b0319871680855290835292819020805460ff1916861515908117909155815194855291840192909252908201527fbd1eab6fc1cf76a15aec1801ee37ce6203b3790fc066de31c3373fb993d7a2919060600160405180910390a1505050565b6008546001600160a01b031633148061138c57506006546001600160a01b031633145b6113a85760405162461bcd60e51b8152600401610a00906136f6565b601054811061141f5760405162461bcd60e51b815260206004820152603860248201527f43616e6e6f742073657420746172676574436f6c6c61746572616c526174696f60448201527f206f766572206d6178436f6c6c61746572616c526174696f00000000000000006064820152608401610a00565b600f5460408051918252602082018390527f44b56064048acd7afec122889cc6faae3494866375d78c6b4b532f024718589f910160405180910390a1600f55565b600061146b836125d9565b9050806000036114ab5760405162461bcd60e51b815260206004820152600b60248201526a5a45524f5f53484152455360a81b6044820152606401610a00565b6114e06001600160a01b037f0000000000000000000000000000000000000000000000000000000000000000163330866126cb565b6114ea8282612755565b60408051848152602081018390526001600160a01b0384169133917fdcbc1c05240f31ff3ad067ef1ee35ce4997762752e3a095284754544f4c709d7910160405180910390a3610b8383826127af565b6013546040516370a0823160e01b81523060048201526000916001600160a01b0316906370a08231906024015b602060405180830381865afa158015611584573d6000803e3d6000fd5b505050506040513d601f19601f8201168201806040525081019061094391906134ad565b6006546001600160a01b031633146115d25760405162461bcd60e51b8152600401610a0090613545565b600b55565b6115e3600060016127bc565b565b6040805180820190915260008082526020820152600c8054839061160b906001906134f4565b61161591906134f4565b815481106116255761162561357a565b60009182526020918290206040805180820190915291015463ffffffff81168252600160201b90046001600160e01b03169181019190915292915050565b601454604080516318160ddd60e01b815290516000926001600160a01b0316916318160ddd9160048083019260209291908290030181865afa1580156116ad573d6000803e3d6000fd5b505050506040513d601f19601f820116820180604052508101906116d191906134ad565b601360009054906101000a90046001600160a01b03166001600160a01b03166318160ddd6040518163ffffffff1660e01b8152600401602060405180830381865afa158015611724573d6000803e3d6000fd5b505050506040513d601f19601f8201168201806040525081019061093991906134ad565b600061175383611886565b905061178a6001600160a01b037f0000000000000000000000000000000000000000000000000000000000000000163330846126cb565b6117948284612755565b60408051828152602081018590526001600160a01b0384169133917fdcbc1c05240f31ff3ad067ef1ee35ce4997762752e3a095284754544f4c709d7910160405180910390a3610b8381846127af565b600180546109559061350b565b336000908152600360205260408120805483919083906118129084906134f4565b90915550506001600160a01b03831660008181526003602052604090819020805485019055513390600080516020613a6f83398151915290610b779086815260200190565b6006546001600160a01b031633146118815760405162461bcd60e51b8152600401610a0090613545565b600a55565b6002546000908015610b1357610b0e61189d610895565b849083612603565b60006118b084610b89565b9050336001600160a01b03831614611920576001600160a01b0382166000908152600460209081526040808320338452909152902054600019811461191e576118f982826134f4565b6001600160a01b03841660009081526004602090815260408083203384529091529020555b505b61192a8482612a0f565b6119348282612a5c565b60408051858152602081018390526001600160a01b03808516929086169133917ffbde797d201c681b91056529119e0b02407c7bb96a4a2c75c01fc9667232c8db910160405180910390a4610b156001600160a01b037f0000000000000000000000000000000000000000000000000000000000000000168486612abe565b6008546060906001600160a01b03163314611a105760405162461bcd60e51b815260206004820152601f60248201527f4f6e6c79206d616e6167657220697320616c6c6f77656420746f2063616c6c006044820152606401610a00565b6000611a1a610895565b9050611a24612b3c565b825167ffffffffffffffff811115611a3e57611a3e613175565b604051908082528060200260200182016040528015611a7157816020015b6060815260200190600190039081611a5c5790505b50915060005b8351811015611c6457600e6000858381518110611a9657611a9661357a565b6020026020010151600001516001600160a01b03166001600160a01b031681526020019081526020016000206000858381518110611ad657611ad661357a565b602002602001015160200151611aeb9061373e565b6001600160e01b031916815260208101919091526040016000205460ff16611b4e5760405162461bcd60e51b81526020600482015260166024820152751b595d1a1bd9081b9bdd081dda1a5d195b1a5cdd195960521b6044820152606401610a00565b60006060858381518110611b6457611b6461357a565b6020026020010151600001516001600160a01b0316868481518110611b8b57611b8b61357a565b602002602001015160200151604051611ba49190613775565b600060405180830381855af49150503d8060008114611bdf576040519150601f19603f3d011682016040523d82523d6000602084013e611be4565b606091505b50909250905081611c3157604481511015611bfe57600080fd5b60048101905080806020019051810190611c189190613791565b60405162461bcd60e51b8152600401610a009190612ed1565b80858481518110611c4457611c4461357a565b602002602001018190525050508080611c5c906136dd565b915050611a77565b506000611c6f610895565b905081811015611cb45760405162461bcd60e51b815260206004820152601060248201526f1b9959d85d1a5d99481a185c9d995cdd60821b6044820152606401610a00565b600b5482820390600090611ce490611cd490670de0b6b3a76400006134f4565b8390670de0b6b3a7640000612603565b611cee90856134dc565b600254909150600090611d028186856125e4565b611d0c91906134f4565b600954909150611d25906001600160a01b031682612755565b6000611d556103fc7f0000000000000000000000000000000000000000000000000000000000000000600a6138e3565b60408051808201825263ffffffff42811682526001600160e01b0380851660208401908152600c805460018101825560009190915293519051909116600160201b029116177fdf6966c971051c3d54ec59162606531493a51404a002842f56009d7e5cf4a8c790910155519091507f6c8433a8e155f0af04dba058d4e4695f7da554578963d876bdf4a6d8d6399d9c90611dfb9083908590918252602082015260400190565b60405180910390a1611e0b6115d7565b505050505050919050565b6000336001600160a01b03831614611e86576001600160a01b03821660009081526004602090815260408083203384529091529020546000198114611e8457611e5f85826134f4565b6001600160a01b03841660009081526004602090815260408083203384529091529020555b505b611e8f84611164565b905080600003611ecf5760405162461bcd60e51b815260206004820152600b60248201526a5a45524f5f41535345545360a81b6044820152606401610a00565b611ed98185612a0f565b611ee38285612a5c565b60408051828152602081018690526001600160a01b03808516929086169133917ffbde797d201c681b91056529119e0b02407c7bb96a4a2c75c01fc9667232c8db910160405180910390a4610b156001600160a01b037f0000000000000000000000000000000000000000000000000000000000000000168483612abe565b6008546001600160a01b0316331480611f8557506006546001600160a01b031633145b611fa15760405162461bcd60e51b8152600401610a00906136f6565b6010546006546001600160a01b0316331480611fbc57508082105b6120185760405162461bcd60e51b815260206004820152602760248201527f4f6e6c79204f776e65722063616e207261697365206d6178436f6c6c61746572604482015266616c526174696f60c81b6064820152608401610a00565b601082905560408051828152602081018490527faa915560e9978e01b02ffd7ed7b18b60e842c2772bb4dab6ba9b141e7441693c91015b60405180910390a15050565b6006546001600160a01b031633146120855760405162461bcd60e51b8152600401610a0090613545565b6001600160a01b0382166000818152600d6020908152604091829020805460ff19168515159081179091558251938452908301527f13e65f4beb0eb8b8336d270aa4ac99e9fa961d9eb25a89ff945d8f1224bbbcda910161204f565b6002546000908015610b1357610b0e816120f9610895565b8591906125e4565b6001600160a01b038116600090815260036020526040812054610b8390610aef565b6006546001600160a01b0316331461214d5760405162461bcd60e51b8152600401610a0090613545565b600880546001600160a01b0319166001600160a01b0392909216919091179055565b428410156121bf5760405162461bcd60e51b815260206004820152601760248201527f5045524d49545f444541444c494e455f455850495245440000000000000000006044820152606401610a00565b600060016121cb610def565b6001600160a01b038a811660008181526005602090815260409182902080546001810190915582517f6e71edae12b1b97f4d1f60370fef10105fa2faae0126114a169c64845d6126c98184015280840194909452938d166060840152608083018c905260a083019390935260c08083018b90528151808403909101815260e08301909152805192019190912061190160f01b6101008301526101028201929092526101228101919091526101420160408051601f198184030181528282528051602091820120600084529083018083525260ff871690820152606081018590526080810184905260a0016020604051602081039080840390855afa1580156122d7573d6000803e3d6000fd5b5050604051601f1901519150506001600160a01b0381161580159061230d5750876001600160a01b0316816001600160a01b0316145b61234a5760405162461bcd60e51b815260206004820152600e60248201526d24a72b20a624a22fa9a4a3a722a960911b6044820152606401610a00565b6001600160a01b0390811660009081526004602090815260408083208a8516808552908352928190208990555188815291928a16917f8c5be1e5ebec7d5bd14f71427d1e84f3dd0314c0f7b2291e5b200ac8c7c3b925910160405180910390a350505050505050565b60408051600280825260608083018452926000929190602083019080368337505060135482519293506001600160a01b0316918391506000906123f8576123f861357a565b6001600160a01b0392831660209182029290920101526014548251911690829060019081106124295761242961357a565b6001600160a01b03928316602091820292909201810191909152601254604080516399248ea760e01b8152905160009492909216926399248ea7926004808401938290030181865afa158015612483573d6000803e3d6000fd5b505050506040513d601f19601f820116820180604052508101906124a791906138f2565b6012546040516345accf9360e11b81529192506000916001600160a01b0390911690638b599f26906124df9086903090600401613953565b602060405180830381865afa1580156124fc573d6000803e3d6000fd5b505050506040513d601f19601f8201168201806040525081019061252091906134ad565b60408051600180825281830190925291925060009190816020015b604080518082019091526000808252602082015281526020019060019003908161253b5790505090506040518060400160405280846001600160a01b0316815260200183815250816000815181106125955761259561357a565b6020908102919091010152949350505050565b6014546040516370a0823160e01b81523060048201526000916001600160a01b0316906370a0823190602401611567565b6000610b83826120e1565b8282028115158415858304851417166125fc57600080fd5b0492915050565b82820281151584158583048514171661261b57600080fd5b6001826001830304018115150290509392505050565b60007f8b73c3c69bb8fe3d512ecc4cf759cc79239f7b179b0ffacaa9a75d522b39400f6000604051612663919061397d565b6040805191829003822060208301939093528101919091527fc89efdaa54c0f20c7adf612882df0950f5a951637e0307cdcb4c672f298b8bc660608201524660808201523060a082015260c00160405160208183030381529060405280519060200120905090565b60006040516323b872dd60e01b81528460048201528360248201528260448201526020600060648360008a5af13d15601f3d116001600051141617169150508061274e5760405162461bcd60e51b81526020600482015260146024820152731514905394d1915497d19493d357d1905253115160621b6044820152606401610a00565b5050505050565b806002600082825461276791906134dc565b90915550506001600160a01b038216600081815260036020908152604080832080548601905551848152600080516020613a6f83398151915291015b60405180910390a35050565b6127b882612b44565b5050565b6040516370a0823160e01b81523060048201526000907f00000000000000000000000000000000000000000000000000000000000000006001600160a01b0316906370a0823190602401602060405180830381865afa158015612823573d6000803e3d6000fd5b505050506040513d601f19601f8201168201806040525081019061284791906134ad565b905080156128585761285881612b52565b60006128626125a8565b9050600061286e61153a565b905060006128a9600f5487858561288591906134f4565b61288f91906134f4565b600f546128a490670de0b6b3a76400006134f4565b6125e4565b90508083101561295a575b6128c681670dcef33a6f838000613a1c565b6128d884670de0b6b3a7640000613a1c565b10156129555760006128ea84836134f4565b905060008461290485601054670de0b6b3a76400006125e4565b61290e91906134f4565b90508082111561291c578091505b61292582612be2565b61292e82612b52565b8661293a5750506129f8565b6129426125a8565b945061294c61153a565b935050506128b4565b6129f8565b808311156129f8575b61297581670df27a2cdf448000613a1c565b61298784670de0b6b3a7640000613a1c565b11156129f857600061299982856134f4565b90506000846129b385601054670de0b6b3a76400006125e4565b6129bd91906134f4565b9050808211156129cb578091505b6129d482612c4f565b6129dd82612ced565b6129e56125a8565b94506129ef61153a565b93505050612963565b8515612a0757612a0786612c4f565b505050505050565b336000908152600d602052604090205460ff16612a5357600954600a54612a53916001600160a01b031690612a4e908490670de0b6b3a76400006125e4565b612755565b6127b882612d53565b6001600160a01b03821660009081526003602052604081208054839290612a849084906134f4565b90915550506002805482900390556040518181526000906001600160a01b03841690600080516020613a6f833981519152906020016127a3565b600060405163a9059cbb60e01b8152836004820152826024820152602060006044836000895af13d15601f3d1160016000511416171691505080612b365760405162461bcd60e51b815260206004820152600f60248201526e1514905394d1915497d19052531151608a1b6044820152606401610a00565b50505050565b6115e3612d5e565b612b4f6000806127bc565b50565b60115460405163e8eda9df60e01b81526001600160a01b037f00000000000000000000000000000000000000000000000000000000000000008116600483015260248201849052306044830152600060648301529091169063e8eda9df906084015b600060405180830381600087803b158015612bce57600080fd5b505af115801561274e573d6000803e3d6000fd5b60115460405163a415bcad60e01b81526001600160a01b037f0000000000000000000000000000000000000000000000000000000000000000811660048301526024820184905260026044830152600060648301523060848301529091169063a415bcad9060a401612bb4565b601154604051631a4ca37b60e21b81526001600160a01b037f00000000000000000000000000000000000000000000000000000000000000008116600483015260248201849052306044830152909116906369328dec906064015b6020604051808303816000875af1158015612cc9573d6000803e3d6000fd5b505050506040513d601f19601f820116820180604052508101906127b891906134ad565b60115460405163573ade8160e01b81526001600160a01b037f00000000000000000000000000000000000000000000000000000000000000008116600483015260248201849052600260448301523060648301529091169063573ade8190608401612caa565b612b4f8160006127bc565b604080516002808252606082018352600092602083019080368337505060135482519293506001600160a01b031691839150600090612d9f57612d9f61357a565b6001600160a01b039283166020918202929092010152601454825191169082906001908110612dd057612dd061357a565b6001600160a01b0392831660209182029290920101526012546040516345accf9360e11b8152911690633111e7b39083908390638b599f2690612e199084903090600401613953565b602060405180830381865afa158015612e36573d6000803e3d6000fd5b505050506040513d601f19601f82011682018060405250810190612e5a91906134ad565b306040518463ffffffff1660e01b8152600401612caa93929190613a3b565b60005b83811015612e94578181015183820152602001612e7c565b83811115612b365750506000910152565b60008151808452612ebd816020860160208601612e79565b601f01601f19169290920160200192915050565b602081526000610b156020830184612ea5565b6001600160a01b0381168114612b4f57600080fd5b8015158114612b4f57600080fd5b600080600060608486031215612f1c57600080fd5b8335612f2781612ee4565b92506020840135612f3781612ef9565b91506040840135612f4781612ef9565b809150509250925092565b600060208284031215612f6457600080fd5b5035919050565b60008060408385031215612f7e57600080fd5b8235612f8981612ee4565b946020939093013593505050565b600080600060608486031215612fac57600080fd5b8335612fb781612ee4565b92506020840135612fc781612ee4565b929592945050506040919091013590565b60008060408385031215612feb57600080fd5b8235612ff681612ee4565b9150602083013561300681612ee4565b809150509250929050565b6000806040838503121561302457600080fd5b50508035926020909101359150565b602080825282518282018190526000919060409081850190868401855b8281101561308c5761307c848351805163ffffffff1682526020908101516001600160e01b0316910152565b9284019290850190600101613050565b5091979650505050505050565b6000602082840312156130ab57600080fd5b8135610b1581612ee4565b6000806000606084860312156130cb57600080fd5b83356130d681612ee4565b925060208401356001600160e01b031981168114612f3757600080fd5b6000806040838503121561310657600080fd5b82359150602083013561300681612ee4565b815163ffffffff1681526020808301516001600160e01b03169082015260408101610b83565b60008060006060848603121561315357600080fd5b83359250602084013561316581612ee4565b91506040840135612f4781612ee4565b634e487b7160e01b600052604160045260246000fd5b6040805190810167ffffffffffffffff811182821017156131ae576131ae613175565b60405290565b604051601f8201601f1916810167ffffffffffffffff811182821017156131dd576131dd613175565b604052919050565b600067ffffffffffffffff8211156131ff576131ff613175565b50601f01601f191660200190565b6000602080838503121561322057600080fd5b823567ffffffffffffffff8082111561323857600080fd5b818501915085601f83011261324c57600080fd5b81358181111561325e5761325e613175565b8060051b61326d8582016131b4565b918252838101850191858101908984111561328757600080fd5b86860192505b8383101561334e578235858111156132a55760008081fd5b86016040818c03601f19018113156132bd5760008081fd5b6132c561318b565b898301356132d281612ee4565b815282820135888111156132e65760008081fd5b8084019350508c603f8401126132fc5760008081fd5b8983013561331161330c826131e5565b6131b4565b8181528e848387010111156133265760008081fd5b818486018d83013760009181018c0191909152818b015284525050918601919086019061328d565b9998505050505050505050565b6000602080830181845280855180835260408601915060408160051b870101925083870160005b828110156133b057603f1988860301845261339e858351612ea5565b94509285019290850190600101613382565b5092979650505050505050565b600080604083850312156133d057600080fd5b82356133db81612ee4565b9150602083013561300681612ef9565b600080600080600080600060e0888a03121561340657600080fd5b873561341181612ee4565b9650602088013561342181612ee4565b95506040880135945060608801359350608088013560ff8116811461344557600080fd5b9699959850939692959460a0840135945060c09093013592915050565b602080825282518282018190526000919060409081850190868401855b8281101561308c57815180516001600160a01b0316855286015186850152928401929085019060010161347f565b6000602082840312156134bf57600080fd5b5051919050565b634e487b7160e01b600052601160045260246000fd5b600082198211156134ef576134ef6134c6565b500190565b600082821015613506576135066134c6565b500390565b600181811c9082168061351f57607f821691505b60208210810361353f57634e487b7160e01b600052602260045260246000fd5b50919050565b6020808252818101527f4f776e61626c653a2063616c6c6572206973206e6f7420746865206f776e6572604082015260600190565b634e487b7160e01b600052603260045260246000fd5b600081601b0b83601b0b60008112816401ffffffff60df1b018312811516156135bb576135bb6134c6565b6001600160df1b03820183138116156135d6576135d66134c6565b5090039392505050565b6000601b82810b9084900b6001600160df1b038382138484138082168484048611161561360f5761360f6134c6565b6001600160df1b03196000851282811687830587121615613632576136326134c6565b6000871292508582058712848416161561364e5761364e6134c6565b85850587128184161615613664576136646134c6565b5050509290910295945050505050565b600081601b0b83601b0b8061369957634e487b7160e01b600052601260045260246000fd5b6001600160df1b03198214600019821416156136b7576136b76134c6565b90059392505050565b6000602082840312156136d257600080fd5b8151610b1581612ef9565b6000600182016136ef576136ef6134c6565b5060010190565b60208082526028908201527f4f6e6c79206d616e61676572206f72204f776e657220697320616c6c6f776564604082015267081d1bc818d85b1b60c21b606082015260800190565b805160208201516001600160e01b0319808216929190600483101561376d5780818460040360031b1b83161693505b505050919050565b60008251613787818460208701612e79565b9190910192915050565b6000602082840312156137a357600080fd5b815167ffffffffffffffff8111156137ba57600080fd5b8201601f810184136137cb57600080fd5b80516137d961330c826131e5565b8181528560208385010111156137ee57600080fd5b610bf1826020830160208601612e79565b600181815b8085111561383a578160001904821115613820576138206134c6565b8085161561382d57918102915b93841c9390800290613804565b509250929050565b60008261385157506001610b83565b8161385e57506000610b83565b8160018114613874576002811461387e5761389a565b6001915050610b83565b60ff84111561388f5761388f6134c6565b50506001821b610b83565b5060208310610133831016604e8410600b84101617156138bd575081810a610b83565b6138c783836137ff565b80600019048211156138db576138db6134c6565b029392505050565b6000610b1560ff841683613842565b60006020828403121561390457600080fd5b8151610b1581612ee4565b600081518084526020808501945080840160005b838110156139485781516001600160a01b031687529582019590820190600101613923565b509495945050505050565b604081526000613966604083018561390f565b905060018060a01b03831660208301529392505050565b600080835481600182811c91508083168061399957607f831692505b602080841082036139b857634e487b7160e01b86526022600452602486fd5b8180156139cc57600181146139e157613a0e565b60ff1986168952841515850289019650613a0e565b60008a81526020902060005b86811015613a065781548b8201529085019083016139ed565b505084890196505b509498975050505050505050565b6000816000190483118215151615613a3657613a366134c6565b500290565b606081526000613a4e606083018661390f565b6020830194909452506001600160a01b039190911660409091015291905056feddf252ad1be2c89b69c2b068fc378daa952ba7f163c4a11628f55a4df523b3efa2646970667358221220345ccc29bf4ab2a148c7ca04140aa8a03d25967977bbc995608440c7c23ac72564736f6c634300080f0033",
  "devdoc": {
    "kind": "dev",
    "methods": {
      "getBorrowedFromProtocol()": {
        "returns": {
          "_0": "Assets borrowed"
        }
      },
      "getProtocolLiquidity()": {
        "details": "ignored on this version",
        "returns": {
          "_0": "liquidity The diff"
        }
      },
      "getRemainingProtocolBorrowCap()": {
        "details": "ignored on this versionshould return 0 if the borrow cap is exhausted",
        "returns": {
          "_0": "remainingBorrowCap"
        }
      },
      "getRemainingProtocolSupplyCap()": {
        "details": "ignored on this versionshould return 0 if the supply cap is exhausted",
        "returns": {
          "_0": "remainingSupplyCap"
        }
      },
      "getSuppliedToProtocol()": {
        "returns": {
          "_0": "Assets supplied"
        }
      },
      "transferOwnership(address,bool,bool)": {
        "params": {
          "direct": "True if `newOwner` should be set immediately. False if `newOwner` needs to use `claimOwnership`.",
          "newOwner": "Address of the new owner.",
          "renounce": "Allows the `newOwner` to be `address(0)` if `direct` and `renounce` is True. Has no effect otherwise."
        }
      }
    },
    "version": 1
  },
  "userdoc": {
    "kind": "user",
    "methods": {
      "claimOwnership()": {
        "notice": "Needs to be called by `pendingOwner` to claim ownership."
      },
      "getBorrowedFromProtocol()": {
        "notice": "Get amount of assets borrowed from the protocol by the vault"
      },
      "getProtocolLiquidity()": {
        "notice": "Get liquidity availailable in the protocol"
      },
      "getRemainingProtocolBorrowCap()": {
        "notice": "Get remaining borrow cap in the protocol"
      },
      "getRemainingProtocolSupplyCap()": {
        "notice": "Get remaining supply cap in the protocol"
      },
      "getSuppliedToProtocol()": {
        "notice": "Get amount of assets supplied to the protocol by the vault"
      },
      "transferOwnership(address,bool,bool)": {
        "notice": "Transfers ownership to `newOwner`. Either directly or claimable by the new pending owner. Can only be invoked by the current `owner`."
      }
    },
    "version": 1
  },
  "storageLayout": {
    "storage": [
      {
        "astId": 11459,
        "contract": "contracts/citrus-vaults/src/Aave2LeveragedVault.sol:Aave2LeveragedVault",
        "label": "name",
        "offset": 0,
        "slot": "0",
        "type": "t_string_storage"
      },
      {
        "astId": 11461,
        "contract": "contracts/citrus-vaults/src/Aave2LeveragedVault.sol:Aave2LeveragedVault",
        "label": "symbol",
        "offset": 0,
        "slot": "1",
        "type": "t_string_storage"
      },
      {
        "astId": 11465,
        "contract": "contracts/citrus-vaults/src/Aave2LeveragedVault.sol:Aave2LeveragedVault",
        "label": "totalSupply",
        "offset": 0,
        "slot": "2",
        "type": "t_uint256"
      },
      {
        "astId": 11469,
        "contract": "contracts/citrus-vaults/src/Aave2LeveragedVault.sol:Aave2LeveragedVault",
        "label": "balanceOf",
        "offset": 0,
        "slot": "3",
        "type": "t_mapping(t_address,t_uint256)"
      },
      {
        "astId": 11475,
        "contract": "contracts/citrus-vaults/src/Aave2LeveragedVault.sol:Aave2LeveragedVault",
        "label": "allowance",
        "offset": 0,
        "slot": "4",
        "type": "t_mapping(t_address,t_mapping(t_address,t_uint256))"
      },
      {
        "astId": 11483,
        "contract": "contracts/citrus-vaults/src/Aave2LeveragedVault.sol:Aave2LeveragedVault",
        "label": "nonces",
        "offset": 0,
        "slot": "5",
        "type": "t_mapping(t_address,t_uint256)"
      },
      {
        "astId": 6331,
        "contract": "contracts/citrus-vaults/src/Aave2LeveragedVault.sol:Aave2LeveragedVault",
        "label": "owner",
        "offset": 0,
        "slot": "6",
        "type": "t_address"
      },
      {
        "astId": 6333,
        "contract": "contracts/citrus-vaults/src/Aave2LeveragedVault.sol:Aave2LeveragedVault",
        "label": "pendingOwner",
        "offset": 0,
        "slot": "7",
        "type": "t_address"
      },
      {
        "astId": 15432,
        "contract": "contracts/citrus-vaults/src/Aave2LeveragedVault.sol:Aave2LeveragedVault",
        "label": "manager",
        "offset": 0,
        "slot": "8",
        "type": "t_address"
      },
      {
        "astId": 15434,
        "contract": "contracts/citrus-vaults/src/Aave2LeveragedVault.sol:Aave2LeveragedVault",
        "label": "feeTaker",
        "offset": 0,
        "slot": "9",
        "type": "t_address"
      },
      {
        "astId": 15436,
        "contract": "contracts/citrus-vaults/src/Aave2LeveragedVault.sol:Aave2LeveragedVault",
        "label": "withdrawalFee",
        "offset": 0,
        "slot": "10",
        "type": "t_uint256"
      },
      {
        "astId": 15438,
        "contract": "contracts/citrus-vaults/src/Aave2LeveragedVault.sol:Aave2LeveragedVault",
        "label": "harvestFee",
        "offset": 0,
        "slot": "11",
        "type": "t_uint256"
      },
      {
        "astId": 15442,
        "contract": "contracts/citrus-vaults/src/Aave2LeveragedVault.sol:Aave2LeveragedVault",
        "label": "harvestCheckpoints",
        "offset": 0,
        "slot": "12",
        "type": "t_array(t_struct(HarvestCheckpoint)15403_storage)dyn_storage"
      },
      {
        "astId": 15446,
        "contract": "contracts/citrus-vaults/src/Aave2LeveragedVault.sol:Aave2LeveragedVault",
        "label": "excludedFromFees",
        "offset": 0,
        "slot": "13",
        "type": "t_mapping(t_address,t_bool)"
      },
      {
        "astId": 15452,
        "contract": "contracts/citrus-vaults/src/Aave2LeveragedVault.sol:Aave2LeveragedVault",
        "label": "harvesAllowedCalls",
        "offset": 0,
        "slot": "14",
        "type": "t_mapping(t_address,t_mapping(t_bytes4,t_bool))"
      },
      {
        "astId": 14981,
        "contract": "contracts/citrus-vaults/src/Aave2LeveragedVault.sol:Aave2LeveragedVault",
        "label": "targetCollateralRatio",
        "offset": 0,
        "slot": "15",
        "type": "t_uint256"
      },
      {
        "astId": 14983,
        "contract": "contracts/citrus-vaults/src/Aave2LeveragedVault.sol:Aave2LeveragedVault",
        "label": "maxCollateralRatio",
        "offset": 0,
        "slot": "16",
        "type": "t_uint256"
      },
      {
        "astId": 13230,
        "contract": "contracts/citrus-vaults/src/Aave2LeveragedVault.sol:Aave2LeveragedVault",
        "label": "lendingPool",
        "offset": 0,
        "slot": "17",
        "type": "t_contract(ILendingPool)14565"
      },
      {
        "astId": 13233,
        "contract": "contracts/citrus-vaults/src/Aave2LeveragedVault.sol:Aave2LeveragedVault",
        "label": "incentivesController",
        "offset": 0,
        "slot": "18",
        "type": "t_contract(IAaveIncentivesController)14187"
      },
      {
        "astId": 13236,
        "contract": "contracts/citrus-vaults/src/Aave2LeveragedVault.sol:Aave2LeveragedVault",
        "label": "aToken",
        "offset": 0,
        "slot": "19",
        "type": "t_contract(IERC20)8319"
      },
      {
        "astId": 13239,
        "contract": "contracts/citrus-vaults/src/Aave2LeveragedVault.sol:Aave2LeveragedVault",
        "label": "debtToken",
        "offset": 0,
        "slot": "20",
        "type": "t_contract(IERC20)8319"
      }
    ],
    "types": {
      "t_address": {
        "encoding": "inplace",
        "label": "address",
        "numberOfBytes": "20"
      },
      "t_array(t_struct(HarvestCheckpoint)15403_storage)dyn_storage": {
        "base": "t_struct(HarvestCheckpoint)15403_storage",
        "encoding": "dynamic_array",
        "label": "struct HarvestCheckpoint[]",
        "numberOfBytes": "32"
      },
      "t_bool": {
        "encoding": "inplace",
        "label": "bool",
        "numberOfBytes": "1"
      },
      "t_bytes4": {
        "encoding": "inplace",
        "label": "bytes4",
        "numberOfBytes": "4"
      },
      "t_contract(IAaveIncentivesController)14187": {
        "encoding": "inplace",
        "label": "contract IAaveIncentivesController",
        "numberOfBytes": "20"
      },
      "t_contract(IERC20)8319": {
        "encoding": "inplace",
        "label": "contract IERC20",
        "numberOfBytes": "20"
      },
      "t_contract(ILendingPool)14565": {
        "encoding": "inplace",
        "label": "contract ILendingPool",
        "numberOfBytes": "20"
      },
      "t_mapping(t_address,t_bool)": {
        "encoding": "mapping",
        "key": "t_address",
        "label": "mapping(address => bool)",
        "numberOfBytes": "32",
        "value": "t_bool"
      },
      "t_mapping(t_address,t_mapping(t_address,t_uint256))": {
        "encoding": "mapping",
        "key": "t_address",
        "label": "mapping(address => mapping(address => uint256))",
        "numberOfBytes": "32",
        "value": "t_mapping(t_address,t_uint256)"
      },
      "t_mapping(t_address,t_mapping(t_bytes4,t_bool))": {
        "encoding": "mapping",
        "key": "t_address",
        "label": "mapping(address => mapping(bytes4 => bool))",
        "numberOfBytes": "32",
        "value": "t_mapping(t_bytes4,t_bool)"
      },
      "t_mapping(t_address,t_uint256)": {
        "encoding": "mapping",
        "key": "t_address",
        "label": "mapping(address => uint256)",
        "numberOfBytes": "32",
        "value": "t_uint256"
      },
      "t_mapping(t_bytes4,t_bool)": {
        "encoding": "mapping",
        "key": "t_bytes4",
        "label": "mapping(bytes4 => bool)",
        "numberOfBytes": "32",
        "value": "t_bool"
      },
      "t_string_storage": {
        "encoding": "bytes",
        "label": "string",
        "numberOfBytes": "32"
      },
      "t_struct(HarvestCheckpoint)15403_storage": {
        "encoding": "inplace",
        "label": "struct HarvestCheckpoint",
        "members": [
          {
            "astId": 15400,
            "contract": "contracts/citrus-vaults/src/Aave2LeveragedVault.sol:Aave2LeveragedVault",
            "label": "blockTimestamp",
            "offset": 0,
            "slot": "0",
            "type": "t_uint32"
          },
          {
            "astId": 15402,
            "contract": "contracts/citrus-vaults/src/Aave2LeveragedVault.sol:Aave2LeveragedVault",
            "label": "assetsPerShare",
            "offset": 4,
            "slot": "0",
            "type": "t_uint224"
          }
        ],
        "numberOfBytes": "32"
      },
      "t_uint224": {
        "encoding": "inplace",
        "label": "uint224",
        "numberOfBytes": "28"
      },
      "t_uint256": {
        "encoding": "inplace",
        "label": "uint256",
        "numberOfBytes": "32"
      },
      "t_uint32": {
        "encoding": "inplace",
        "label": "uint32",
        "numberOfBytes": "4"
      }
    }
  }
}