{
  "address": "0xb091087E865d200c622241D1BC00A67Dd465e083",
  "abi": [
    {
      "anonymous": false,
      "inputs": [
        {
          "indexed": false,
          "internalType": "string",
          "name": "action",
          "type": "string"
        },
        {
          "indexed": false,
          "internalType": "bool",
          "name": "pauseState",
          "type": "bool"
        }
      ],
      "name": "ActionPaused",
      "type": "event"
    },
    {
      "anonymous": false,
      "inputs": [
        {
          "indexed": false,
          "internalType": "contract CToken",
          "name": "cToken",
          "type": "address"
        },
        {
          "indexed": false,
          "internalType": "string",
          "name": "action",
          "type": "string"
        },
        {
          "indexed": false,
          "internalType": "bool",
          "name": "pauseState",
          "type": "bool"
        }
      ],
      "name": "ActionPaused",
      "type": "event"
    },
    {
      "anonymous": false,
      "inputs": [
        {
          "indexed": false,
          "internalType": "address",
          "name": "rewardsDistributor",
          "type": "address"
        }
      ],
      "name": "AddedRewardsDistributor",
      "type": "event"
    },
    {
      "anonymous": false,
      "inputs": [
        {
          "indexed": false,
          "internalType": "bool",
          "name": "enabled",
          "type": "bool"
        }
      ],
      "name": "AutoImplementationsToggled",
      "type": "event"
    },
    {
      "anonymous": false,
      "inputs": [
        {
          "indexed": false,
          "internalType": "uint256",
          "name": "error",
          "type": "uint256"
        },
        {
          "indexed": false,
          "internalType": "uint256",
          "name": "info",
          "type": "uint256"
        },
        {
          "indexed": false,
          "internalType": "uint256",
          "name": "detail",
          "type": "uint256"
        }
      ],
      "name": "Failure",
      "type": "event"
    },
    {
      "anonymous": false,
      "inputs": [
        {
          "indexed": false,
          "internalType": "contract CToken",
          "name": "cToken",
          "type": "address"
        },
        {
          "indexed": false,
          "internalType": "address",
          "name": "account",
          "type": "address"
        }
      ],
      "name": "MarketEntered",
      "type": "event"
    },
    {
      "anonymous": false,
      "inputs": [
        {
          "indexed": false,
          "internalType": "contract CToken",
          "name": "cToken",
          "type": "address"
        },
        {
          "indexed": false,
          "internalType": "address",
          "name": "account",
          "type": "address"
        }
      ],
      "name": "MarketExited",
      "type": "event"
    },
    {
      "anonymous": false,
      "inputs": [
        {
          "indexed": false,
          "internalType": "contract CToken",
          "name": "cToken",
          "type": "address"
        }
      ],
      "name": "MarketListed",
      "type": "event"
    },
    {
      "anonymous": false,
      "inputs": [
        {
          "indexed": false,
          "internalType": "contract CToken",
          "name": "cToken",
          "type": "address"
        }
      ],
      "name": "MarketUnlisted",
      "type": "event"
    },
    {
      "anonymous": false,
      "inputs": [
        {
          "indexed": true,
          "internalType": "contract CToken",
          "name": "cToken",
          "type": "address"
        },
        {
          "indexed": false,
          "internalType": "uint256",
          "name": "newBorrowCap",
          "type": "uint256"
        }
      ],
      "name": "NewBorrowCap",
      "type": "event"
    },
    {
      "anonymous": false,
      "inputs": [
        {
          "indexed": false,
          "internalType": "address",
          "name": "oldBorrowCapGuardian",
          "type": "address"
        },
        {
          "indexed": false,
          "internalType": "address",
          "name": "newBorrowCapGuardian",
          "type": "address"
        }
      ],
      "name": "NewBorrowCapGuardian",
      "type": "event"
    },
    {
      "anonymous": false,
      "inputs": [
        {
          "indexed": false,
          "internalType": "uint256",
          "name": "oldCloseFactorMantissa",
          "type": "uint256"
        },
        {
          "indexed": false,
          "internalType": "uint256",
          "name": "newCloseFactorMantissa",
          "type": "uint256"
        }
      ],
      "name": "NewCloseFactor",
      "type": "event"
    },
    {
      "anonymous": false,
      "inputs": [
        {
          "indexed": false,
          "internalType": "contract CToken",
          "name": "cToken",
          "type": "address"
        },
        {
          "indexed": false,
          "internalType": "uint256",
          "name": "oldCollateralFactorMantissa",
          "type": "uint256"
        },
        {
          "indexed": false,
          "internalType": "uint256",
          "name": "newCollateralFactorMantissa",
          "type": "uint256"
        }
      ],
      "name": "NewCollateralFactor",
      "type": "event"
    },
    {
      "anonymous": false,
      "inputs": [
        {
          "indexed": false,
          "internalType": "uint256",
          "name": "oldLiquidationIncentiveMantissa",
          "type": "uint256"
        },
        {
          "indexed": false,
          "internalType": "uint256",
          "name": "newLiquidationIncentiveMantissa",
          "type": "uint256"
        }
      ],
      "name": "NewLiquidationIncentive",
      "type": "event"
    },
    {
      "anonymous": false,
      "inputs": [
        {
          "indexed": false,
          "internalType": "address",
          "name": "oldPauseGuardian",
          "type": "address"
        },
        {
          "indexed": false,
          "internalType": "address",
          "name": "newPauseGuardian",
          "type": "address"
        }
      ],
      "name": "NewPauseGuardian",
      "type": "event"
    },
    {
      "anonymous": false,
      "inputs": [
        {
          "indexed": false,
          "internalType": "contract PriceOracle",
          "name": "oldPriceOracle",
          "type": "address"
        },
        {
          "indexed": false,
          "internalType": "contract PriceOracle",
          "name": "newPriceOracle",
          "type": "address"
        }
      ],
      "name": "NewPriceOracle",
      "type": "event"
    },
    {
      "anonymous": false,
      "inputs": [
        {
          "indexed": true,
          "internalType": "contract CToken",
          "name": "cToken",
          "type": "address"
        },
        {
          "indexed": false,
          "internalType": "uint256",
          "name": "newSupplyCap",
          "type": "uint256"
        }
      ],
      "name": "NewSupplyCap",
      "type": "event"
    },
    {
      "anonymous": false,
      "inputs": [
        {
          "indexed": false,
          "internalType": "bool",
          "name": "enforce",
          "type": "bool"
        }
      ],
      "name": "WhitelistEnforcementChanged",
      "type": "event"
    },
    {
      "constant": false,
      "inputs": [
        {
          "internalType": "address",
          "name": "distributor",
          "type": "address"
        }
      ],
      "name": "_addRewardsDistributor",
      "outputs": [
        {
          "internalType": "uint256",
          "name": "",
          "type": "uint256"
        }
      ],
      "payable": false,
      "stateMutability": "nonpayable",
      "type": "function"
    },
    {
      "constant": false,
      "inputs": [],
      "name": "_afterNonReentrant",
      "outputs": [],
      "payable": false,
      "stateMutability": "nonpayable",
      "type": "function"
    },
    {
      "constant": false,
      "inputs": [
        {
          "internalType": "contract UnitrollerInterface",
          "name": "unitroller",
          "type": "address"
        }
      ],
      "name": "_become",
      "outputs": [],
      "payable": false,
      "stateMutability": "nonpayable",
      "type": "function"
    },
    {
      "constant": false,
      "inputs": [],
      "name": "_becomeImplementation",
      "outputs": [],
      "payable": false,
      "stateMutability": "nonpayable",
      "type": "function"
    },
    {
      "constant": false,
      "inputs": [],
      "name": "_beforeNonReentrant",
      "outputs": [],
      "payable": false,
      "stateMutability": "nonpayable",
      "type": "function"
    },
    {
      "constant": true,
      "inputs": [],
      "name": "_borrowGuardianPaused",
      "outputs": [
        {
          "internalType": "bool",
          "name": "",
          "type": "bool"
        }
      ],
      "payable": false,
      "stateMutability": "view",
      "type": "function"
    },
    {
      "constant": false,
      "inputs": [
        {
          "internalType": "bool",
          "name": "isCEther",
          "type": "bool"
        },
        {
          "internalType": "bytes",
          "name": "constructorData",
          "type": "bytes"
        },
        {
          "internalType": "uint256",
          "name": "collateralFactorMantissa",
          "type": "uint256"
        }
      ],
      "name": "_deployMarket",
      "outputs": [
        {
          "internalType": "uint256",
          "name": "",
          "type": "uint256"
        }
      ],
      "payable": false,
      "stateMutability": "nonpayable",
      "type": "function"
    },
    {
      "constant": true,
      "inputs": [],
      "name": "_globalPauseBorrowOverride",
      "outputs": [
        {
          "internalType": "bool",
          "name": "",
          "type": "bool"
        }
      ],
      "payable": false,
      "stateMutability": "view",
      "type": "function"
    },
    {
      "constant": true,
      "inputs": [],
      "name": "_mintGuardianPaused",
      "outputs": [
        {
          "internalType": "bool",
          "name": "",
          "type": "bool"
        }
      ],
      "payable": false,
      "stateMutability": "view",
      "type": "function"
    },
    {
      "constant": false,
      "inputs": [
        {
          "internalType": "address",
          "name": "newBorrowCapGuardian",
          "type": "address"
        }
      ],
      "name": "_setBorrowCapGuardian",
      "outputs": [],
      "payable": false,
      "stateMutability": "nonpayable",
      "type": "function"
    },
    {
      "constant": false,
      "inputs": [
        {
          "internalType": "contract CToken",
          "name": "cToken",
          "type": "address"
        },
        {
          "internalType": "bool",
          "name": "state",
          "type": "bool"
        }
      ],
      "name": "_setBorrowPaused",
      "outputs": [
        {
          "internalType": "bool",
          "name": "",
          "type": "bool"
        }
      ],
      "payable": false,
      "stateMutability": "nonpayable",
      "type": "function"
    },
    {
      "constant": false,
      "inputs": [
        {
          "internalType": "uint256",
          "name": "newCloseFactorMantissa",
          "type": "uint256"
        }
      ],
      "name": "_setCloseFactor",
      "outputs": [
        {
          "internalType": "uint256",
          "name": "",
          "type": "uint256"
        }
      ],
      "payable": false,
      "stateMutability": "nonpayable",
      "type": "function"
    },
    {
      "constant": false,
      "inputs": [
        {
          "internalType": "contract CToken",
          "name": "cToken",
          "type": "address"
        },
        {
          "internalType": "uint256",
          "name": "newCollateralFactorMantissa",
          "type": "uint256"
        }
      ],
      "name": "_setCollateralFactor",
      "outputs": [
        {
          "internalType": "uint256",
          "name": "",
          "type": "uint256"
        }
      ],
      "payable": false,
      "stateMutability": "nonpayable",
      "type": "function"
    },
    {
      "constant": false,
      "inputs": [
        {
          "internalType": "bool",
          "name": "status",
          "type": "bool"
        }
      ],
      "name": "_setGlobalPauseBorrowOverride",
      "outputs": [],
      "payable": false,
      "stateMutability": "nonpayable",
      "type": "function"
    },
    {
      "constant": false,
      "inputs": [
        {
          "internalType": "uint256",
          "name": "newLiquidationIncentiveMantissa",
          "type": "uint256"
        }
      ],
      "name": "_setLiquidationIncentive",
      "outputs": [
        {
          "internalType": "uint256",
          "name": "",
          "type": "uint256"
        }
      ],
      "payable": false,
      "stateMutability": "nonpayable",
      "type": "function"
    },
    {
      "constant": false,
      "inputs": [
        {
          "internalType": "contract CToken[]",
          "name": "cTokens",
          "type": "address[]"
        },
        {
          "internalType": "uint256[]",
          "name": "newBorrowCaps",
          "type": "uint256[]"
        }
      ],
      "name": "_setMarketBorrowCaps",
      "outputs": [],
      "payable": false,
      "stateMutability": "nonpayable",
      "type": "function"
    },
    {
      "constant": false,
      "inputs": [
        {
          "internalType": "contract CToken[]",
          "name": "cTokens",
          "type": "address[]"
        },
        {
          "internalType": "uint256[]",
          "name": "newSupplyCaps",
          "type": "uint256[]"
        }
      ],
      "name": "_setMarketSupplyCaps",
      "outputs": [],
      "payable": false,
      "stateMutability": "nonpayable",
      "type": "function"
    },
    {
      "constant": false,
      "inputs": [
        {
          "internalType": "contract CToken",
          "name": "cToken",
          "type": "address"
        },
        {
          "internalType": "bool",
          "name": "state",
          "type": "bool"
        }
      ],
      "name": "_setMintPaused",
      "outputs": [
        {
          "internalType": "bool",
          "name": "",
          "type": "bool"
        }
      ],
      "payable": false,
      "stateMutability": "nonpayable",
      "type": "function"
    },
    {
      "constant": false,
      "inputs": [
        {
          "internalType": "address",
          "name": "newPauseGuardian",
          "type": "address"
        }
      ],
      "name": "_setPauseGuardian",
      "outputs": [
        {
          "internalType": "uint256",
          "name": "",
          "type": "uint256"
        }
      ],
      "payable": false,
      "stateMutability": "nonpayable",
      "type": "function"
    },
    {
      "constant": false,
      "inputs": [
        {
          "internalType": "contract PriceOracle",
          "name": "newOracle",
          "type": "address"
        }
      ],
      "name": "_setPriceOracle",
      "outputs": [
        {
          "internalType": "uint256",
          "name": "",
          "type": "uint256"
        }
      ],
      "payable": false,
      "stateMutability": "nonpayable",
      "type": "function"
    },
    {
      "constant": false,
      "inputs": [
        {
          "internalType": "bool",
          "name": "state",
          "type": "bool"
        }
      ],
      "name": "_setSeizePaused",
      "outputs": [
        {
          "internalType": "bool",
          "name": "",
          "type": "bool"
        }
      ],
      "payable": false,
      "stateMutability": "nonpayable",
      "type": "function"
    },
    {
      "constant": false,
      "inputs": [
        {
          "internalType": "bool",
          "name": "state",
          "type": "bool"
        }
      ],
      "name": "_setTransferPaused",
      "outputs": [
        {
          "internalType": "bool",
          "name": "",
          "type": "bool"
        }
      ],
      "payable": false,
      "stateMutability": "nonpayable",
      "type": "function"
    },
    {
      "constant": false,
      "inputs": [
        {
          "internalType": "bool",
          "name": "enforce",
          "type": "bool"
        }
      ],
      "name": "_setWhitelistEnforcement",
      "outputs": [
        {
          "internalType": "uint256",
          "name": "",
          "type": "uint256"
        }
      ],
      "payable": false,
      "stateMutability": "nonpayable",
      "type": "function"
    },
    {
      "constant": false,
      "inputs": [
        {
          "internalType": "address[]",
          "name": "suppliers",
          "type": "address[]"
        },
        {
          "internalType": "bool[]",
          "name": "statuses",
          "type": "bool[]"
        }
      ],
      "name": "_setWhitelistStatuses",
      "outputs": [
        {
          "internalType": "uint256",
          "name": "",
          "type": "uint256"
        }
      ],
      "payable": false,
      "stateMutability": "nonpayable",
      "type": "function"
    },
    {
      "constant": false,
      "inputs": [
        {
          "internalType": "bool",
          "name": "enabled",
          "type": "bool"
        }
      ],
      "name": "_toggleAutoImplementations",
      "outputs": [
        {
          "internalType": "uint256",
          "name": "",
          "type": "uint256"
        }
      ],
      "payable": false,
      "stateMutability": "nonpayable",
      "type": "function"
    },
    {
      "constant": false,
      "inputs": [
        {
          "internalType": "contract CToken",
          "name": "cToken",
          "type": "address"
        }
      ],
      "name": "_unsupportMarket",
      "outputs": [
        {
          "internalType": "uint256",
          "name": "",
          "type": "uint256"
        }
      ],
      "payable": false,
      "stateMutability": "nonpayable",
      "type": "function"
    },
    {
      "constant": true,
      "inputs": [
        {
          "internalType": "address",
          "name": "",
          "type": "address"
        },
        {
          "internalType": "uint256",
          "name": "",
          "type": "uint256"
        }
      ],
      "name": "accountAssets",
      "outputs": [
        {
          "internalType": "contract CToken",
          "name": "",
          "type": "address"
        }
      ],
      "payable": false,
      "stateMutability": "view",
      "type": "function"
    },
    {
      "constant": true,
      "inputs": [],
      "name": "admin",
      "outputs": [
        {
          "internalType": "address",
          "name": "",
          "type": "address"
        }
      ],
      "payable": false,
      "stateMutability": "view",
      "type": "function"
    },
    {
      "constant": true,
      "inputs": [],
      "name": "adminHasRights",
      "outputs": [
        {
          "internalType": "bool",
          "name": "",
          "type": "bool"
        }
      ],
      "payable": false,
      "stateMutability": "view",
      "type": "function"
    },
    {
      "constant": true,
      "inputs": [
        {
          "internalType": "uint256",
          "name": "",
          "type": "uint256"
        }
      ],
      "name": "allBorrowers",
      "outputs": [
        {
          "internalType": "address",
          "name": "",
          "type": "address"
        }
      ],
      "payable": false,
      "stateMutability": "view",
      "type": "function"
    },
    {
      "constant": true,
      "inputs": [
        {
          "internalType": "uint256",
          "name": "",
          "type": "uint256"
        }
      ],
      "name": "allMarkets",
      "outputs": [
        {
          "internalType": "contract CToken",
          "name": "",
          "type": "address"
        }
      ],
      "payable": false,
      "stateMutability": "view",
      "type": "function"
    },
    {
      "constant": true,
      "inputs": [],
      "name": "autoImplementation",
      "outputs": [
        {
          "internalType": "bool",
          "name": "",
          "type": "bool"
        }
      ],
      "payable": false,
      "stateMutability": "view",
      "type": "function"
    },
    {
      "constant": false,
      "inputs": [
        {
          "internalType": "address",
          "name": "cToken",
          "type": "address"
        },
        {
          "internalType": "address",
          "name": "borrower",
          "type": "address"
        },
        {
          "internalType": "uint256",
          "name": "borrowAmount",
          "type": "uint256"
        }
      ],
      "name": "borrowAllowed",
      "outputs": [
        {
          "internalType": "uint256",
          "name": "",
          "type": "uint256"
        }
      ],
      "payable": false,
      "stateMutability": "nonpayable",
      "type": "function"
    },
    {
      "constant": true,
      "inputs": [],
      "name": "borrowCapGuardian",
      "outputs": [
        {
          "internalType": "address",
          "name": "",
          "type": "address"
        }
      ],
      "payable": false,
      "stateMutability": "view",
      "type": "function"
    },
    {
      "constant": true,
      "inputs": [
        {
          "internalType": "address",
          "name": "",
          "type": "address"
        }
      ],
      "name": "borrowCaps",
      "outputs": [
        {
          "internalType": "uint256",
          "name": "",
          "type": "uint256"
        }
      ],
      "payable": false,
      "stateMutability": "view",
      "type": "function"
    },
    {
      "constant": true,
      "inputs": [
        {
          "internalType": "address",
          "name": "",
          "type": "address"
        }
      ],
      "name": "borrowGuardianPaused",
      "outputs": [
        {
          "internalType": "bool",
          "name": "",
          "type": "bool"
        }
      ],
      "payable": false,
      "stateMutability": "view",
      "type": "function"
    },
    {
      "constant": false,
      "inputs": [
        {
          "internalType": "address",
          "name": "cToken",
          "type": "address"
        },
        {
          "internalType": "address",
          "name": "borrower",
          "type": "address"
        },
        {
          "internalType": "uint256",
          "name": "borrowAmount",
          "type": "uint256"
        }
      ],
      "name": "borrowVerify",
      "outputs": [],
      "payable": false,
      "stateMutability": "nonpayable",
      "type": "function"
    },
    {
      "constant": false,
      "inputs": [
        {
          "internalType": "address",
          "name": "cToken",
          "type": "address"
        },
        {
          "internalType": "uint256",
          "name": "accountBorrowsNew",
          "type": "uint256"
        }
      ],
      "name": "borrowWithinLimits",
      "outputs": [
        {
          "internalType": "uint256",
          "name": "",
          "type": "uint256"
        }
      ],
      "payable": false,
      "stateMutability": "nonpayable",
      "type": "function"
    },
    {
      "constant": true,
      "inputs": [
        {
          "internalType": "address",
          "name": "",
          "type": "address"
        }
      ],
      "name": "cTokensByUnderlying",
      "outputs": [
        {
          "internalType": "contract CToken",
          "name": "",
          "type": "address"
        }
      ],
      "payable": false,
      "stateMutability": "view",
      "type": "function"
    },
    {
      "constant": true,
      "inputs": [
        {
          "internalType": "address",
          "name": "account",
          "type": "address"
        },
        {
          "internalType": "contract CToken",
          "name": "cToken",
          "type": "address"
        }
      ],
      "name": "checkMembership",
      "outputs": [
        {
          "internalType": "bool",
          "name": "",
          "type": "bool"
        }
      ],
      "payable": false,
      "stateMutability": "view",
      "type": "function"
    },
    {
      "constant": true,
      "inputs": [],
      "name": "closeFactorMantissa",
      "outputs": [
        {
          "internalType": "uint256",
          "name": "",
          "type": "uint256"
        }
      ],
      "payable": false,
      "stateMutability": "view",
      "type": "function"
    },
    {
      "constant": true,
      "inputs": [],
      "name": "comptrollerImplementation",
      "outputs": [
        {
          "internalType": "address",
          "name": "",
          "type": "address"
        }
      ],
      "payable": false,
      "stateMutability": "view",
      "type": "function"
    },
    {
      "constant": true,
      "inputs": [],
      "name": "enforceWhitelist",
      "outputs": [
        {
          "internalType": "bool",
          "name": "",
          "type": "bool"
        }
      ],
      "payable": false,
      "stateMutability": "view",
      "type": "function"
    },
    {
      "constant": false,
      "inputs": [
        {
          "internalType": "address[]",
          "name": "cTokens",
          "type": "address[]"
        }
      ],
      "name": "enterMarkets",
      "outputs": [
        {
          "internalType": "uint256[]",
          "name": "",
          "type": "uint256[]"
        }
      ],
      "payable": false,
      "stateMutability": "nonpayable",
      "type": "function"
    },
    {
      "constant": false,
      "inputs": [
        {
          "internalType": "address",
          "name": "cTokenAddress",
          "type": "address"
        }
      ],
      "name": "exitMarket",
      "outputs": [
        {
          "internalType": "uint256",
          "name": "",
          "type": "uint256"
        }
      ],
      "payable": false,
      "stateMutability": "nonpayable",
      "type": "function"
    },
    {
      "constant": true,
      "inputs": [],
      "name": "fuseAdmin",
      "outputs": [
        {
          "internalType": "contract IFuseFeeDistributor",
          "name": "",
          "type": "address"
        }
      ],
      "payable": false,
      "stateMutability": "view",
      "type": "function"
    },
    {
      "constant": true,
      "inputs": [],
      "name": "fuseAdminHasRights",
      "outputs": [
        {
          "internalType": "bool",
          "name": "",
          "type": "bool"
        }
      ],
      "payable": false,
      "stateMutability": "view",
      "type": "function"
    },
    {
      "constant": true,
      "inputs": [
        {
          "internalType": "address",
          "name": "account",
          "type": "address"
        }
      ],
      "name": "getAccountLiquidity",
      "outputs": [
        {
          "internalType": "uint256",
          "name": "",
          "type": "uint256"
        },
        {
          "internalType": "uint256",
          "name": "",
          "type": "uint256"
        },
        {
          "internalType": "uint256",
          "name": "",
          "type": "uint256"
        }
      ],
      "payable": false,
      "stateMutability": "view",
      "type": "function"
    },
    {
      "constant": true,
      "inputs": [],
      "name": "getAllBorrowers",
      "outputs": [
        {
          "internalType": "address[]",
          "name": "",
          "type": "address[]"
        }
      ],
      "payable": false,
      "stateMutability": "view",
      "type": "function"
    },
    {
      "constant": true,
      "inputs": [],
      "name": "getAllMarkets",
      "outputs": [
        {
          "internalType": "contract CToken[]",
          "name": "",
          "type": "address[]"
        }
      ],
      "payable": false,
      "stateMutability": "view",
      "type": "function"
    },
    {
      "constant": true,
      "inputs": [
        {
          "internalType": "address",
          "name": "account",
          "type": "address"
        }
      ],
      "name": "getAssetsIn",
      "outputs": [
        {
          "internalType": "contract CToken[]",
          "name": "",
          "type": "address[]"
        }
      ],
      "payable": false,
      "stateMutability": "view",
      "type": "function"
    },
    {
      "constant": true,
      "inputs": [
        {
          "internalType": "address",
          "name": "account",
          "type": "address"
        },
        {
          "internalType": "address",
          "name": "cTokenModify",
          "type": "address"
        },
        {
          "internalType": "uint256",
          "name": "redeemTokens",
          "type": "uint256"
        },
        {
          "internalType": "uint256",
          "name": "borrowAmount",
          "type": "uint256"
        }
      ],
      "name": "getHypotheticalAccountLiquidity",
      "outputs": [
        {
          "internalType": "uint256",
          "name": "",
          "type": "uint256"
        },
        {
          "internalType": "uint256",
          "name": "",
          "type": "uint256"
        },
        {
          "internalType": "uint256",
          "name": "",
          "type": "uint256"
        }
      ],
      "payable": false,
      "stateMutability": "view",
      "type": "function"
    },
    {
      "constant": true,
      "inputs": [],
      "name": "getRewardsDistributors",
      "outputs": [
        {
          "internalType": "address[]",
          "name": "",
          "type": "address[]"
        }
      ],
      "payable": false,
      "stateMutability": "view",
      "type": "function"
    },
    {
      "constant": true,
      "inputs": [],
      "name": "getWhitelist",
      "outputs": [
        {
          "internalType": "address[]",
          "name": "",
          "type": "address[]"
        }
      ],
      "payable": false,
      "stateMutability": "view",
      "type": "function"
    },
    {
      "constant": true,
      "inputs": [],
      "name": "isComptroller",
      "outputs": [
        {
          "internalType": "bool",
          "name": "",
          "type": "bool"
        }
      ],
      "payable": false,
      "stateMutability": "view",
      "type": "function"
    },
    {
      "constant": true,
      "inputs": [
        {
          "internalType": "contract CToken",
          "name": "cToken",
          "type": "address"
        }
      ],
      "name": "isDeprecated",
      "outputs": [
        {
          "internalType": "bool",
          "name": "",
          "type": "bool"
        }
      ],
      "payable": false,
      "stateMutability": "view",
      "type": "function"
    },
    {
      "constant": false,
      "inputs": [
        {
          "internalType": "address",
          "name": "cTokenBorrowed",
          "type": "address"
        },
        {
          "internalType": "address",
          "name": "cTokenCollateral",
          "type": "address"
        },
        {
          "internalType": "address",
          "name": "liquidator",
          "type": "address"
        },
        {
          "internalType": "address",
          "name": "borrower",
          "type": "address"
        },
        {
          "internalType": "uint256",
          "name": "repayAmount",
          "type": "uint256"
        }
      ],
      "name": "liquidateBorrowAllowed",
      "outputs": [
        {
          "internalType": "uint256",
          "name": "",
          "type": "uint256"
        }
      ],
      "payable": false,
      "stateMutability": "nonpayable",
      "type": "function"
    },
    {
      "constant": false,
      "inputs": [
        {
          "internalType": "address",
          "name": "cTokenBorrowed",
          "type": "address"
        },
        {
          "internalType": "address",
          "name": "cTokenCollateral",
          "type": "address"
        },
        {
          "internalType": "address",
          "name": "liquidator",
          "type": "address"
        },
        {
          "internalType": "address",
          "name": "borrower",
          "type": "address"
        },
        {
          "internalType": "uint256",
          "name": "actualRepayAmount",
          "type": "uint256"
        },
        {
          "internalType": "uint256",
          "name": "seizeTokens",
          "type": "uint256"
        }
      ],
      "name": "liquidateBorrowVerify",
      "outputs": [],
      "payable": false,
      "stateMutability": "nonpayable",
      "type": "function"
    },
    {
      "constant": true,
      "inputs": [
        {
          "internalType": "address",
          "name": "cTokenBorrowed",
          "type": "address"
        },
        {
          "internalType": "address",
          "name": "cTokenCollateral",
          "type": "address"
        },
        {
          "internalType": "uint256",
          "name": "actualRepayAmount",
          "type": "uint256"
        }
      ],
      "name": "liquidateCalculateSeizeTokens",
      "outputs": [
        {
          "internalType": "uint256",
          "name": "",
          "type": "uint256"
        },
        {
          "internalType": "uint256",
          "name": "",
          "type": "uint256"
        }
      ],
      "payable": false,
      "stateMutability": "view",
      "type": "function"
    },
    {
      "constant": true,
      "inputs": [],
      "name": "liquidationIncentiveMantissa",
      "outputs": [
        {
          "internalType": "uint256",
          "name": "",
          "type": "uint256"
        }
      ],
      "payable": false,
      "stateMutability": "view",
      "type": "function"
    },
    {
      "constant": true,
      "inputs": [
        {
          "internalType": "address",
          "name": "",
          "type": "address"
        }
      ],
      "name": "markets",
      "outputs": [
        {
          "internalType": "bool",
          "name": "isListed",
          "type": "bool"
        },
        {
          "internalType": "uint256",
          "name": "collateralFactorMantissa",
          "type": "uint256"
        }
      ],
      "payable": false,
      "stateMutability": "view",
      "type": "function"
    },
    {
      "constant": false,
      "inputs": [
        {
          "internalType": "address",
          "name": "cToken",
          "type": "address"
        },
        {
          "internalType": "address",
          "name": "minter",
          "type": "address"
        },
        {
          "internalType": "uint256",
          "name": "mintAmount",
          "type": "uint256"
        }
      ],
      "name": "mintAllowed",
      "outputs": [
        {
          "internalType": "uint256",
          "name": "",
          "type": "uint256"
        }
      ],
      "payable": false,
      "stateMutability": "nonpayable",
      "type": "function"
    },
    {
      "constant": true,
      "inputs": [
        {
          "internalType": "address",
          "name": "",
          "type": "address"
        }
      ],
      "name": "mintGuardianPaused",
      "outputs": [
        {
          "internalType": "bool",
          "name": "",
          "type": "bool"
        }
      ],
      "payable": false,
      "stateMutability": "view",
      "type": "function"
    },
    {
      "constant": false,
      "inputs": [
        {
          "internalType": "address",
          "name": "cToken",
          "type": "address"
        },
        {
          "internalType": "address",
          "name": "minter",
          "type": "address"
        },
        {
          "internalType": "uint256",
          "name": "actualMintAmount",
          "type": "uint256"
        },
        {
          "internalType": "uint256",
          "name": "mintTokens",
          "type": "uint256"
        }
      ],
      "name": "mintVerify",
      "outputs": [],
      "payable": false,
      "stateMutability": "nonpayable",
      "type": "function"
    },
    {
      "constant": false,
      "inputs": [
        {
          "internalType": "address",
          "name": "cToken",
          "type": "address"
        },
        {
          "internalType": "uint256",
          "name": "exchangeRateMantissa",
          "type": "uint256"
        },
        {
          "internalType": "uint256",
          "name": "accountTokens",
          "type": "uint256"
        },
        {
          "internalType": "uint256",
          "name": "mintAmount",
          "type": "uint256"
        }
      ],
      "name": "mintWithinLimits",
      "outputs": [
        {
          "internalType": "uint256",
          "name": "",
          "type": "uint256"
        }
      ],
      "payable": false,
      "stateMutability": "nonpayable",
      "type": "function"
    },
    {
      "constant": true,
      "inputs": [],
      "name": "oracle",
      "outputs": [
        {
          "internalType": "contract PriceOracle",
          "name": "",
          "type": "address"
        }
      ],
      "payable": false,
      "stateMutability": "view",
      "type": "function"
    },
    {
      "constant": true,
      "inputs": [],
      "name": "pauseGuardian",
      "outputs": [
        {
          "internalType": "address",
          "name": "",
          "type": "address"
        }
      ],
      "payable": false,
      "stateMutability": "view",
      "type": "function"
    },
    {
      "constant": true,
      "inputs": [],
      "name": "pendingAdmin",
      "outputs": [
        {
          "internalType": "address",
          "name": "",
          "type": "address"
        }
      ],
      "payable": false,
      "stateMutability": "view",
      "type": "function"
    },
    {
      "constant": true,
      "inputs": [],
      "name": "pendingComptrollerImplementation",
      "outputs": [
        {
          "internalType": "address",
          "name": "",
          "type": "address"
        }
      ],
      "payable": false,
      "stateMutability": "view",
      "type": "function"
    },
    {
      "constant": false,
      "inputs": [
        {
          "internalType": "address",
          "name": "cToken",
          "type": "address"
        },
        {
          "internalType": "address",
          "name": "redeemer",
          "type": "address"
        },
        {
          "internalType": "uint256",
          "name": "redeemTokens",
          "type": "uint256"
        }
      ],
      "name": "redeemAllowed",
      "outputs": [
        {
          "internalType": "uint256",
          "name": "",
          "type": "uint256"
        }
      ],
      "payable": false,
      "stateMutability": "nonpayable",
      "type": "function"
    },
    {
      "constant": false,
      "inputs": [
        {
          "internalType": "address",
          "name": "cToken",
          "type": "address"
        },
        {
          "internalType": "address",
          "name": "redeemer",
          "type": "address"
        },
        {
          "internalType": "uint256",
          "name": "redeemAmount",
          "type": "uint256"
        },
        {
          "internalType": "uint256",
          "name": "redeemTokens",
          "type": "uint256"
        }
      ],
      "name": "redeemVerify",
      "outputs": [],
      "payable": false,
      "stateMutability": "nonpayable",
      "type": "function"
    },
    {
      "constant": false,
      "inputs": [
        {
          "internalType": "address",
          "name": "cToken",
          "type": "address"
        },
        {
          "internalType": "address",
          "name": "payer",
          "type": "address"
        },
        {
          "internalType": "address",
          "name": "borrower",
          "type": "address"
        },
        {
          "internalType": "uint256",
          "name": "repayAmount",
          "type": "uint256"
        }
      ],
      "name": "repayBorrowAllowed",
      "outputs": [
        {
          "internalType": "uint256",
          "name": "",
          "type": "uint256"
        }
      ],
      "payable": false,
      "stateMutability": "nonpayable",
      "type": "function"
    },
    {
      "constant": false,
      "inputs": [
        {
          "internalType": "address",
          "name": "cToken",
          "type": "address"
        },
        {
          "internalType": "address",
          "name": "payer",
          "type": "address"
        },
        {
          "internalType": "address",
          "name": "borrower",
          "type": "address"
        },
        {
          "internalType": "uint256",
          "name": "actualRepayAmount",
          "type": "uint256"
        },
        {
          "internalType": "uint256",
          "name": "borrowerIndex",
          "type": "uint256"
        }
      ],
      "name": "repayBorrowVerify",
      "outputs": [],
      "payable": false,
      "stateMutability": "nonpayable",
      "type": "function"
    },
    {
      "constant": true,
      "inputs": [
        {
          "internalType": "uint256",
          "name": "",
          "type": "uint256"
        }
      ],
      "name": "rewardsDistributors",
      "outputs": [
        {
          "internalType": "address",
          "name": "",
          "type": "address"
        }
      ],
      "payable": false,
      "stateMutability": "view",
      "type": "function"
    },
    {
      "constant": false,
      "inputs": [
        {
          "internalType": "address",
          "name": "cTokenCollateral",
          "type": "address"
        },
        {
          "internalType": "address",
          "name": "cTokenBorrowed",
          "type": "address"
        },
        {
          "internalType": "address",
          "name": "liquidator",
          "type": "address"
        },
        {
          "internalType": "address",
          "name": "borrower",
          "type": "address"
        },
        {
          "internalType": "uint256",
          "name": "seizeTokens",
          "type": "uint256"
        }
      ],
      "name": "seizeAllowed",
      "outputs": [
        {
          "internalType": "uint256",
          "name": "",
          "type": "uint256"
        }
      ],
      "payable": false,
      "stateMutability": "nonpayable",
      "type": "function"
    },
    {
      "constant": true,
      "inputs": [],
      "name": "seizeGuardianPaused",
      "outputs": [
        {
          "internalType": "bool",
          "name": "",
          "type": "bool"
        }
      ],
      "payable": false,
      "stateMutability": "view",
      "type": "function"
    },
    {
      "constant": false,
      "inputs": [
        {
          "internalType": "address",
          "name": "cTokenCollateral",
          "type": "address"
        },
        {
          "internalType": "address",
          "name": "cTokenBorrowed",
          "type": "address"
        },
        {
          "internalType": "address",
          "name": "liquidator",
          "type": "address"
        },
        {
          "internalType": "address",
          "name": "borrower",
          "type": "address"
        },
        {
          "internalType": "uint256",
          "name": "seizeTokens",
          "type": "uint256"
        }
      ],
      "name": "seizeVerify",
      "outputs": [],
      "payable": false,
      "stateMutability": "nonpayable",
      "type": "function"
    },
    {
      "constant": true,
      "inputs": [
        {
          "internalType": "address",
          "name": "",
          "type": "address"
        }
      ],
      "name": "suppliers",
      "outputs": [
        {
          "internalType": "bool",
          "name": "",
          "type": "bool"
        }
      ],
      "payable": false,
      "stateMutability": "view",
      "type": "function"
    },
    {
      "constant": true,
      "inputs": [
        {
          "internalType": "address",
          "name": "",
          "type": "address"
        }
      ],
      "name": "supplyCaps",
      "outputs": [
        {
          "internalType": "uint256",
          "name": "",
          "type": "uint256"
        }
      ],
      "payable": false,
      "stateMutability": "view",
      "type": "function"
    },
    {
      "constant": false,
      "inputs": [
        {
          "internalType": "address",
          "name": "cToken",
          "type": "address"
        },
        {
          "internalType": "address",
          "name": "src",
          "type": "address"
        },
        {
          "internalType": "address",
          "name": "dst",
          "type": "address"
        },
        {
          "internalType": "uint256",
          "name": "transferTokens",
          "type": "uint256"
        }
      ],
      "name": "transferAllowed",
      "outputs": [
        {
          "internalType": "uint256",
          "name": "",
          "type": "uint256"
        }
      ],
      "payable": false,
      "stateMutability": "nonpayable",
      "type": "function"
    },
    {
      "constant": true,
      "inputs": [],
      "name": "transferGuardianPaused",
      "outputs": [
        {
          "internalType": "bool",
          "name": "",
          "type": "bool"
        }
      ],
      "payable": false,
      "stateMutability": "view",
      "type": "function"
    },
    {
      "constant": false,
      "inputs": [
        {
          "internalType": "address",
          "name": "cToken",
          "type": "address"
        },
        {
          "internalType": "address",
          "name": "src",
          "type": "address"
        },
        {
          "internalType": "address",
          "name": "dst",
          "type": "address"
        },
        {
          "internalType": "uint256",
          "name": "transferTokens",
          "type": "uint256"
        }
      ],
      "name": "transferVerify",
      "outputs": [],
      "payable": false,
      "stateMutability": "nonpayable",
      "type": "function"
    },
    {
      "constant": true,
      "inputs": [
        {
          "internalType": "address",
          "name": "",
          "type": "address"
        }
      ],
      "name": "whitelist",
      "outputs": [
        {
          "internalType": "bool",
          "name": "",
          "type": "bool"
        }
      ],
      "payable": false,
      "stateMutability": "view",
      "type": "function"
    },
    {
      "constant": true,
      "inputs": [
        {
          "internalType": "uint256",
          "name": "",
          "type": "uint256"
        }
      ],
      "name": "whitelistArray",
      "outputs": [
        {
          "internalType": "address",
          "name": "",
          "type": "address"
        }
      ],
      "payable": false,
      "stateMutability": "view",
      "type": "function"
    }
  ],
  "transactionHash": "0xc7d998fd145cfe3ce7c13a2052f4384092763aa57df15ea69529879241902449",
  "args": [],
  "numDeployments": 1,
  "solcInputHash": "c04279b95a9643e46d7ebe9f6a5d8bfb",
  "bytecode": "0x60806040526002805460ff60a81b1960ff60a01b19909116600160a01b1716600160a81b17905534801561003257600080fd5b50615e6c80620000436000396000f3fe608060405234801561001057600080fd5b50600436106104ab5760003560e01c80636d154ea51161026d578063bdcdc25811610151578063da3d454c116100ce578063e6653f3d11610092578063e6653f3d1461123e578063e875544614611246578063eabe7d911461124e578063ede4edd014611284578063f6c9aea7146112aa578063f851a440146112c9576104ab565b8063da3d454c146111a0578063dce15449146111d6578063dcfbc0c714611202578063dd5cd22c1461120a578063e4028eee14611212576104ab565b8063c90c20b111610115578063c90c20b11461110e578063d01f63f514611116578063d02f73511461111e578063d251fefc14611164578063d533316614611181576104ab565b8063bdcdc25814610f07578063c299823814610f43578063c488847b14610fe4578063c6c5b0dd14611033578063c8c9c97514611050576104ab565b8063929fe9a1116101ea578063abfceffc116101ae578063abfceffc14610e9b578063ac0b0bb714610ec1578063b0772d0b14610ec9578063b095721014610ed1578063b9b5b15314610ed9578063bb82aa5e14610eff576104ab565b8063929fe9a114610d8b57806394543c1514610db9578063952adf5a14610ddf5780639b19251a14610dfe578063aba35b9814610e24576104ab565b80637dc0d1d0116102315780637dc0d1d014610cf5578063819605a814610cfd57806387f7630314610d235780638e8f294b14610d2b5780638ebf636414610d6c576104ab565b80636d154ea514610c1a5780636d35bf9114610c40578063731f0c2b14610c865780637515bafa14610cac578063779b229414610cc9576104ab565b80633c94786f1161039457806352d84d1e116103115780635ec88c79116102d55780635ec88c7914610a865780635f5af1aa14610aac5780635fc7e71e14610ad2578063607ef6c114610b18578063632e514214610bd65780636a56947e14610bde576104ab565b806352d84d1e146109fd57806355ee1fe114610a1a578063570e136f14610a405780635c77860514610a485780635d72de6214610a7e576104ab565b80634e79238f116103585780634e79238f146108565780634ef4c3e1146108b05780634fd42e17146108e657806351a485e41461090357806351dff989146109c1576104ab565b80633c94786f1461079857806341c728b9146107a057806347ef3b3b146107dc5780634a584432146108285780634ada90af1461084e576104ab565b806324008a621161042d578063317b0b77116103f1578063317b0b77146106a157806331ff47fa146106be57806332abcdbe146106e45780633605b51b1461073c578063391957d7146107445780633bcf7ec11461076a576104ab565b806324008a621461062e57806324a3d6221461066a57806326782247146106725780632d70db781461067a5780632f1069ba14610699576104ab565b806318c882a51161047457806318c882a5146105565780631d504dc6146105845780631ededc91146105ac57806321af4569146105ee5780632259192a146105f6576104ab565b80627e3dd2146104b057806302c3bcbb146104cc5780630a755ec21461050457806315761d511461050c57806316dc15fe14610530575b600080fd5b6104b86112d1565b604080519115158252519081900360200190f35b6104f2600480360360208110156104e257600080fd5b50356001600160a01b03166112d6565b60408051918252519081900360200190f35b6104b86112e8565b6105146112f8565b604080516001600160a01b039092168252519081900360200190f35b6104b86004803603602081101561054657600080fd5b50356001600160a01b0316611307565b6104b86004803603604081101561056c57600080fd5b506001600160a01b038135169060200135151561131c565b6105aa6004803603602081101561059a57600080fd5b50356001600160a01b03166114af565b005b6105aa600480360360a08110156105c257600080fd5b506001600160a01b03813581169160208101358216916040820135169060608101359060800135611755565b61051461175c565b6104f26004803603608081101561060c57600080fd5b506001600160a01b038135169060208101359060408101359060600135611770565b6104f26004803603608081101561064457600080fd5b506001600160a01b0381358116916020810135821691604082013516906060013561177f565b6105146117ba565b6105146117c9565b6104b86004803603602081101561069057600080fd5b503515156117d8565b6104b8611905565b6104f2600480360360208110156106b757600080fd5b5035611915565b610514600480360360208110156106d457600080fd5b50356001600160a01b0316611a23565b6106ec611a3e565b60408051602080825283518183015283519192839290830191858101910280838360005b83811015610728578181015183820152602001610710565b505050509050019250505060405180910390f35b6106ec611aa1565b6105aa6004803603602081101561075a57600080fd5b50356001600160a01b0316611b01565b6104b86004803603604081101561078057600080fd5b506001600160a01b0381351690602001351515611bb1565b6104b8611d3d565b6105aa600480360360808110156107b657600080fd5b506001600160a01b03813581169160208101359091169060408101359060600135611d4d565b6105aa600480360360c08110156107f257600080fd5b506001600160a01b0381358116916020810135821691604082013581169160608101359091169060808101359060a00135611d74565b6104f26004803603602081101561083e57600080fd5b50356001600160a01b0316611d79565b6104f2611d8b565b6108926004803603608081101561086c57600080fd5b506001600160a01b03813581169160208101359091169060408101359060600135611d91565b60408051938452602084019290925282820152519081900360600190f35b6104f2600480360360608110156108c657600080fd5b506001600160a01b03813581169160208101359091169060400135611dcb565b6104f2600480360360208110156108fc57600080fd5b50356121ce565b6105aa6004803603604081101561091957600080fd5b810190602081018135600160201b81111561093357600080fd5b82018360208201111561094557600080fd5b803590602001918460208302840111600160201b8311171561096657600080fd5b919390929091602081019035600160201b81111561098357600080fd5b82018360208201111561099557600080fd5b803590602001918460208302840111600160201b831117156109b657600080fd5b5090925090506122bd565b6105aa600480360360808110156109d757600080fd5b506001600160a01b0381358116916020810135909116906040810135906060013561244c565b61051460048036036020811015610a1357600080fd5b50356124a6565b6104f260048036036020811015610a3057600080fd5b50356001600160a01b03166124cd565b6104b861254f565b6105aa60048036036060811015610a5e57600080fd5b506001600160a01b0381358116916020810135909116906040013561255e565b6105aa612563565b61089260048036036020811015610a9c57600080fd5b50356001600160a01b03166125d6565b6104f260048036036020811015610ac257600080fd5b50356001600160a01b031661260b565b6104f2600480360360a0811015610ae857600080fd5b506001600160a01b038135811691602081013582169160408201358116916060810135909116906080013561268a565b6105aa60048036036040811015610b2e57600080fd5b810190602081018135600160201b811115610b4857600080fd5b820183602082011115610b5a57600080fd5b803590602001918460208302840111600160201b83111715610b7b57600080fd5b919390929091602081019035600160201b811115610b9857600080fd5b820183602082011115610baa57600080fd5b803590602001918460208302840111600160201b83111715610bcb57600080fd5b509092509050612841565b6105aa6129c7565b6105aa60048036036080811015610bf457600080fd5b506001600160a01b03813581169160208101358216916040820135169060600135612a24565b6104b860048036036020811015610c3057600080fd5b50356001600160a01b0316612a29565b6105aa600480360360a0811015610c5657600080fd5b506001600160a01b0381358116916020810135821691604082013581169160608101359091169060800135611755565b6104b860048036036020811015610c9c57600080fd5b50356001600160a01b0316612a3e565b61051460048036036020811015610cc257600080fd5b5035612a52565b6104f260048036036040811015610cdf57600080fd5b506001600160a01b038135169060200135612a5f565b610514612bf1565b6104f260048036036020811015610d1357600080fd5b50356001600160a01b0316612c00565b6104b8612f5a565b610d5160048036036020811015610d4157600080fd5b50356001600160a01b0316612f6a565b60408051921515835260208301919091528051918290030190f35b6104b860048036036020811015610d8257600080fd5b50351515612f89565b6104b860048036036040811015610da157600080fd5b506001600160a01b03813581169160200135166130b5565b6104b860048036036020811015610dcf57600080fd5b50356001600160a01b03166130e8565b6104f260048036036020811015610df557600080fd5b5035151561325a565b6104b860048036036020811015610e1457600080fd5b50356001600160a01b03166132d7565b6104f260048036036060811015610e3a57600080fd5b813515159190810190604081016020820135600160201b811115610e5d57600080fd5b820183602082011115610e6f57600080fd5b803590602001918460018302840111600160201b83111715610e9057600080fd5b9193509150356132ec565b6106ec60048036036020811015610eb157600080fd5b50356001600160a01b03166134bb565b6104b8613544565b6106ec613554565b6104b86135b4565b6104f260048036036020811015610eef57600080fd5b50356001600160a01b03166135bd565b61051461378e565b6104f260048036036080811015610f1d57600080fd5b506001600160a01b0381358116916020810135821691604082013516906060013561379d565b6106ec60048036036020811015610f5957600080fd5b810190602081018135600160201b811115610f7357600080fd5b820183602082011115610f8557600080fd5b803590602001918460208302840111600160201b83111715610fa657600080fd5b919080806020026020016040519081016040528093929190818152602001838360200280828437600092019190915250929550613827945050505050565b61101a60048036036060811015610ffa57600080fd5b506001600160a01b038135811691602081013590911690604001356138be565b6040805192835260208301919091528051918290030190f35b6105146004803603602081101561104957600080fd5b5035613adf565b6104f26004803603604081101561106657600080fd5b810190602081018135600160201b81111561108057600080fd5b82018360208201111561109257600080fd5b803590602001918460208302840111600160201b831117156110b357600080fd5b919390929091602081019035600160201b8111156110d057600080fd5b8201836020820111156110e257600080fd5b803590602001918460208302840111600160201b8311171561110357600080fd5b509092509050613aec565b6105aa613cff565b6106ec613db0565b6104f2600480360360a081101561113457600080fd5b506001600160a01b0381358116916020810135821691604082013581169160608101359091169060800135613e10565b6105146004803603602081101561117a57600080fd5b5035613fa6565b6104f26004803603602081101561119757600080fd5b50351515613fb3565b6104f2600480360360608110156111b657600080fd5b506001600160a01b03813581169160208101359091169060400135614030565b610514600480360360408110156111ec57600080fd5b506001600160a01b0381351690602001356143da565b61051461440f565b6104b861441e565b6104f26004803603604081101561122857600080fd5b506001600160a01b038135169060200135614427565b6104b86145ce565b6104f26145de565b6104f26004803603606081101561126457600080fd5b506001600160a01b038135811691602081013590911690604001356145e4565b6104f26004803603602081101561129a57600080fd5b50356001600160a01b0316614601565b6105aa600480360360208110156112c057600080fd5b503515156149ec565b610514614a4a565b600181565b60246020526000908152604090205481565b600254600160a81b900460ff1681565b6000546001600160a01b031681565b60196020526000908152604090205460ff1681565b6001600160a01b03821660009081526014602052604081205460ff166113735760405162461bcd60e51b8152600401808060200182810382526028815260200180615c076028913960400191505060405180910390fd5b601f546001600160a01b031633148061138f575061138f614a59565b6113ca5760405162461bcd60e51b8152600401808060200182810382526027815260200180615c926027913960400191505060405180910390fd5b6113d2614a59565b806113df57506001821515145b611429576040805162461bcd60e51b81526020600482015260166024820152756f6e6c792061646d696e2063616e20756e706175736560501b604482015290519081900360640190fd5b6001600160a01b038316600081815260216020908152604091829020805486151560ff199091168117909155825193845283830152606090830181905260069083015265426f72726f7760d01b6080830152517f71aec636243f9709bb0007ae15e9afb8150ab01716d75fd7573be5cc096e03b09181900360a00190a150805b92915050565b6000546001600160a01b03163314801561152a5750806001600160a01b0316632f1069ba6040518163ffffffff1660e01b815260040160206040518083038186803b1580156114fd57600080fd5b505afa158015611511573d6000803e3d6000fd5b505050506040513d602081101561152757600080fd5b50515b8061160d5750806001600160a01b031663f851a4406040518163ffffffff1660e01b815260040160206040518083038186803b15801561156957600080fd5b505afa15801561157d573d6000803e3d6000fd5b505050506040513d602081101561159357600080fd5b50516001600160a01b03163314801561160d5750806001600160a01b0316630a755ec26040518163ffffffff1660e01b815260040160206040518083038186803b1580156115e057600080fd5b505afa1580156115f4573d6000803e3d6000fd5b505050506040513d602081101561160a57600080fd5b50515b6116485760405162461bcd60e51b8152600401808060200182810382526027815260200180615e116027913960400191505060405180910390fd5b6000816001600160a01b031663c1e803346040518163ffffffff1660e01b8152600401602060405180830381600087803b15801561168557600080fd5b505af1158015611699573d6000803e3d6000fd5b505050506040513d60208110156116af57600080fd5b5051905080156116fe576040805162461bcd60e51b815260206004820152601560248201527418da185b99d9481b9bdd08185d5d1a1bdc9a5e9959605a1b604482015290519081900360640190fd5b816001600160a01b0316635d72de626040518163ffffffff1660e01b8152600401600060405180830381600087803b15801561173957600080fd5b505af115801561174d573d6000803e3d6000fd5b505050505050565b5050505050565b60225461010090046001600160a01b031681565b6000805b90505b949350505050565b6001600160a01b03841660009081526014602052604081205460ff166117a95760095b9050611777565b6117b38584614aad565b6000611774565b601f546001600160a01b031681565b6002546001600160a01b031681565b601f546000906001600160a01b03163314806117f757506117f7614a59565b6118325760405162461bcd60e51b8152600401808060200182810382526027815260200180615c926027913960400191505060405180910390fd5b61183a614a59565b8061184757506001821515145b611891576040805162461bcd60e51b81526020600482015260166024820152756f6e6c792061646d696e2063616e20756e706175736560501b604482015290519081900360640190fd5b601f8054831515600160b81b810260ff60b81b1990921691909117909155604080516020810192909252808252600582820152645365697a6560d81b6060830152517fef159d9a32b2472e32b098f954f3ce62d232939f1c207070b584df1814de2de09181900360800190a150805b919050565b600254600160a01b900460ff1681565b600061191f614a59565b6119365761192f60016007614b45565b9050611900565b61193e615b1e565b506040805160208101909152828152611955615b1e565b50604080516020810190915266b1a2bc2ec5000081526119758282614bab565b1561198f5761198660056008614b45565b92505050611900565b611997615b1e565b506040805160208101909152670c7d713b49da000081526119b88184614bb3565b156119d3576119c960056008614b45565b9350505050611900565b6010805490869055604080518281526020810188905281517f3b9670cf975d26958e754b57098eaa2ac914d8d2a31b83257997b9f346110fd9929181900390910190a160005b9695505050505050565b601a602052600090815260409020546001600160a01b031681565b60606017805480602002602001604051908101604052809291908181526020018280548015611a9657602002820191906000526020600020905b81546001600160a01b03168152600190910190602001808311611a78575b505050505090505b90565b60606025805480602002602001604051908101604052809291908181526020018280548015611a96576020028201919060005260206000209081546001600160a01b03168152600190910190602001808311611a78575050505050905090565b611b09614a59565b611b445760405162461bcd60e51b8152600401808060200182810382526026815260200180615cb96026913960400191505060405180910390fd5b602280546001600160a01b03838116610100818102610100600160a81b03198516179094556040805194909304919091168084526020840191909152815190927feda98690e518e9a05f8ec6837663e188211b2da8f4906648b323f2c1d4434e2992908290030190a15050565b6001600160a01b03821660009081526014602052604081205460ff16611c085760405162461bcd60e51b8152600401808060200182810382526028815260200180615c076028913960400191505060405180910390fd5b601f546001600160a01b0316331480611c245750611c24614a59565b611c5f5760405162461bcd60e51b8152600401808060200182810382526027815260200180615c926027913960400191505060405180910390fd5b611c67614a59565b80611c7457506001821515145b611cbe576040805162461bcd60e51b81526020600482015260166024820152756f6e6c792061646d696e2063616e20756e706175736560501b604482015290519081900360640190fd5b6001600160a01b03831660008181526020808052604091829020805486151560ff199091168117909155825193845283830152606090830181905260049083015263135a5b9d60e21b6080830152517f71aec636243f9709bb0007ae15e9afb8150ab01716d75fd7573be5cc096e03b09181900360a00190a150919050565b601f54600160a01b900460ff1681565b50506001600160a01b03166000908152601960205260409020805460ff1916600117905550565b61174d565b60236020526000908152604090205481565b60115481565b600080600080600080611da68a8a8a8a614bba565b925092509250826015811115611db857fe5b95509093509150505b9450945094915050565b6001600160a01b038316600090815260208052604081205460ff1615611e29576040805162461bcd60e51b815260206004820152600e60248201526d1b5a5b9d081a5cc81c185d5cd95960921b604482015290519081900360640190fd5b6001600160a01b03841660009081526014602052604090205460ff16611e535760095b90506121c7565b601b5460ff168015611e7e57506001600160a01b0383166000908152601c602052604090205460ff16155b15611e8a576012611e4c565b6001600160a01b03841660009081526024602052604090205480156121b6576000856001600160a01b0316633b1d21a26040518163ffffffff1660e01b815260040160206040518083038186803b158015611ee457600080fd5b505afa158015611ef8573d6000803e3d6000fd5b505050506040513d6020811015611f0e57600080fd5b5051604080516308f7a6e360e31b815290519192506000916001600160a01b038916916347bd3718916004808301926020929190829003018186803b158015611f5657600080fd5b505afa158015611f6a573d6000803e3d6000fd5b505050506040513d6020811015611f8057600080fd5b505160408051638f840ddd60e01b815290519192506000916001600160a01b038a1691638f840ddd916004808301926020929190829003018186803b158015611fc857600080fd5b505afa158015611fdc573d6000803e3d6000fd5b505050506040513d6020811015611ff257600080fd5b50516040805163dc028ab160e01b815290519192506000916001600160a01b038b169163dc028ab1916004808301926020929190829003018186803b15801561203a57600080fd5b505afa15801561204e573d6000803e3d6000fd5b505050506040513d602081101561206457600080fd5b5051604080516361feacff60e01b815290519192506000916001600160a01b038c16916361feacff916004808301926020929190829003018186803b1580156120ac57600080fd5b505afa1580156120c0573d6000803e3d6000fd5b505050506040513d60208110156120d657600080fd5b505190506000806120fa87876120f56120ef8989614ef3565b87614ef3565b614f29565b9092509050600082600381111561210d57fe5b1461212357600b985050505050505050506121c7565b600061212f828c614f75565b9093509050600083600381111561214257fe5b1461215957600b99505050505050505050506121c7565b8881106121ad576040805162461bcd60e51b815260206004820152601960248201527f6d61726b657420737570706c7920636170207265616368656400000000000000604482015290519081900360640190fd5b50505050505050505b6121c08585614f9e565b60005b9150505b9392505050565b60006121d8614a59565b6121e85761192f6001600d614b45565b6121f0615b1e565b506040805160208101909152828152612207615b1e565b506040805160208101909152670de0b6b3a764000081526122288282614bb3565b15612239576119866007600e614b45565b612241615b1e565b5060408051602081019091526714d1120d7b16000081526122628184614bb3565b15612273576119c96007600e614b45565b6011805490869055604080518281526020810188905281517faeba5a6c40a8ac138134bff1aaa65debf25971188a58804bad717f82f0ec1316929181900390910190a16000611a19565b6122c5614a59565b806122df575060225461010090046001600160a01b031633145b61231a5760405162461bcd60e51b8152600401808060200182810382526035815260200180615da76035913960400191505060405180910390fd5b8281811580159061232a57508082145b61236b576040805162461bcd60e51b815260206004820152600d60248201526c1a5b9d985b1a59081a5b9c1d5d609a1b604482015290519081900360640190fd5b60005b828110156124435784848281811061238257fe5b905060200201356024600089898581811061239957fe5b905060200201356001600160a01b03166001600160a01b03166001600160a01b03168152602001908152602001600020819055508686828181106123d957fe5b905060200201356001600160a01b03166001600160a01b03167f9e0ad9cee10bdf36b7fbd38910c0bdff0f275ace679b45b922381c2723d676f886868481811061241f57fe5b905060200201356040518082815260200191505060405180910390a260010161236e565b50505050505050565b8015801561245a5750600082115b156124a0576040805162461bcd60e51b815260206004820152601160248201527072656465656d546f6b656e73207a65726f60781b604482015290519081900360640190fd5b50505050565b601581815481106124b357fe5b6000918252602090912001546001600160a01b0316905081565b60006124d7614a59565b6124e75761192f60016013614b45565b600f80546001600160a01b038481166001600160a01b0319831681179093556040805191909216808252602082019390935281517fd52b2b9b7e9ee655fcb95d2e5b9e0c9f69e7ef2b8e9d2d0ea78402d576d22e22929181900390910190a160009392505050565b60265462010000900460ff1681565b505050565b6003546001600160a01b031633146125ac5760405162461bcd60e51b8152600401808060200182810382526032815260200180615cdf6032913960400191505060405180910390fd5b602654610100900460ff166125d4576026805461ff001960ff19909116600117166101001790555b565b6000806000806000806125ed876000806000614bba565b9250925092508260158111156125ff57fe5b97919650945092505050565b6000612615614a59565b6126255761192f60016018614b45565b601f80546001600160a01b038481166001600160a01b0319831617928390556040805192821680845293909116602083015280517f0613b6ee6a04f0d09f390e4d9318894b9f6ac7fd83897cd8d18896ba579c401e9281900390910190a160006121c7565b6001600160a01b03851660009081526014602052604081205460ff1615806126cb57506001600160a01b03851660009081526014602052604090205460ff16155b156126da5760095b9050612838565b6000866001600160a01b03166395dd9193856040518263ffffffff1660e01b815260040180826001600160a01b03166001600160a01b0316815260200191505060206040518083038186803b15801561273257600080fd5b505afa158015612746573d6000803e3d6000fd5b505050506040513d602081101561275c57600080fd5b50519050612769876130e8565b156127b257828110156127ad5760405162461bcd60e51b8152600401808060200182810382526028815260200180615c2f6028913960400191505060405180910390fd5b612832565b6000806127be86615035565b919350909150600090508260158111156127d457fe5b146127ef578160158111156127e557fe5b9350505050612838565b806127fb5760036127e5565b6000612817604051806020016040528060105481525085615055565b90508086111561282e576011945050505050612838565b5050505b60009150505b95945050505050565b612849614a59565b80612863575060225461010090046001600160a01b031633145b61289e5760405162461bcd60e51b8152600401808060200182810382526035815260200180615d4d6035913960400191505060405180910390fd5b828181158015906128ae57508082145b6128ef576040805162461bcd60e51b815260206004820152600d60248201526c1a5b9d985b1a59081a5b9c1d5d609a1b604482015290519081900360640190fd5b60005b828110156124435784848281811061290657fe5b905060200201356023600089898581811061291d57fe5b905060200201356001600160a01b03166001600160a01b03166001600160a01b031681526020019081526020016000208190555086868281811061295d57fe5b905060200201356001600160a01b03166001600160a01b03167f6f1951b2aad10f3fc81b86d91105b413a5b3f847a34bbc5ce1904201b14438f68686848181106129a357fe5b905060200201356040518082815260200191505060405180910390a26001016128f2565b3360009081526014602052604090205460ff16612a155760405162461bcd60e51b815260040180806020018281038252603b815260200180615c57603b913960400191505060405180910390fd5b6026805460ff19166001179055565b6124a0565b60216020526000908152604090205460ff1681565b602080526000908152604090205460ff1681565b601781815481106124b357fe5b602654600090819062010000900460ff16612af2576000809054906101000a90046001600160a01b03166001600160a01b031663fdb25fb16040518163ffffffff1660e01b815260040160206040518083038186803b158015612ac157600080fd5b505afa158015612ad5573d6000803e3d6000fd5b505050506040513d6020811015612aeb57600080fd5b5051612afc565b670de0b6b3a76400005b90508015612be757600f546040805163fc57d4df60e01b81526001600160a01b0387811660048301529151600093929092169163fc57d4df91602480820192602092909190829003018186803b158015612b5557600080fd5b505afa158015612b69573d6000803e3d6000fd5b505050506040513d6020811015612b7f57600080fd5b5051905080612b9357600d925050506114a9565b600080612bae60405180602001604052808581525087615074565b90925090506000826003811115612bc157fe5b14612bd457600b5b9450505050506114a9565b83811015612be3576013612bc9565b5050505b6000949350505050565b600f546001600160a01b031681565b6000612c0a614a59565b612c1a5761192f60016019614b45565b6001600160a01b03821660009081526014602052604090205460ff16612c465761192f6009601a614b45565b6000826001600160a01b03166318160ddd6040518163ffffffff1660e01b815260040160206040518083038186803b158015612c8157600080fd5b505afa158015612c95573d6000803e3d6000fd5b505050506040513d6020811015612cab57600080fd5b50511115612cbf5761192f6015601b614b45565b6001600160a01b0382166000908152601460209081526040808320805460ff19168155600101929092556015805483518184028101840190945280845260609392830182828015612d3957602002820191906000526020600020905b81546001600160a01b03168152600190910190602001808311612d1b575b5050835193945083925060009150505b82811015612d8e57856001600160a01b0316848281518110612d6757fe5b60200260200101516001600160a01b03161415612d8657809150612d8e565b600101612d49565b50818110612d9857fe5b601580546000198101908110612daa57fe5b600091825260209091200154601580546001600160a01b039092169183908110612dd057fe5b600091825260209091200180546001600160a01b0319166001600160a01b03929092169190911790556015805490612e0c906000198301615b31565b506000601a6000876001600160a01b031663ac784ddc6040518163ffffffff1660e01b815260040160206040518083038186803b158015612e4c57600080fd5b505afa158015612e60573d6000803e3d6000fd5b505050506040513d6020811015612e7657600080fd5b5051612ee657876001600160a01b0316636f307dc36040518163ffffffff1660e01b815260040160206040518083038186803b158015612eb557600080fd5b505afa158015612ec9573d6000803e3d6000fd5b505050506040513d6020811015612edf57600080fd5b5051612ee9565b60005b6001600160a01b039081168252602080830193909352604091820160002080546001600160a01b0319169482169490941790935580519288168352517f302feb03efd5741df80efe7f97f5d93d74d46a542a3d312d0faae64fa1f3e0e99281900390910190a1600095945050505050565b601f54600160b01b900460ff1681565b6014602052600090815260409020805460019091015460ff9091169082565b601f546000906001600160a01b0316331480612fa85750612fa8614a59565b612fe35760405162461bcd60e51b8152600401808060200182810382526027815260200180615c926027913960400191505060405180910390fd5b612feb614a59565b80612ff857506001821515145b613042576040805162461bcd60e51b81526020600482015260166024820152756f6e6c792061646d696e2063616e20756e706175736560501b604482015290519081900360640190fd5b601f8054831515600160b01b810260ff60b01b1990921691909117909155604080516020810192909252808252600882820152672a3930b739b332b960c11b6060830152517fef159d9a32b2472e32b098f954f3ce62d232939f1c207070b584df1814de2de09181900360800190a15090565b6001600160a01b038082166000908152601460209081526040808320938616835260029093019052205460ff1692915050565b6001600160a01b03811660009081526014602052604081206001015415801561312e57506001600160a01b03821660009081526021602052604090205460ff1615156001145b80156114a9575061324a613211836001600160a01b031663173b99046040518163ffffffff1660e01b815260040160206040518083038186803b15801561317457600080fd5b505afa158015613188573d6000803e3d6000fd5b505050506040513d602081101561319e57600080fd5b505160408051638d02d9a160e01b815290516001600160a01b03871691638d02d9a1916004808301926020929190829003018186803b1580156131e057600080fd5b505afa1580156131f4573d6000803e3d6000fd5b505050506040513d602081101561320a57600080fd5b5051614ef3565b836001600160a01b031663dbfe7c196040518163ffffffff1660e01b815260040160206040518083038186803b1580156131e057600080fd5b670de0b6b3a76400001492915050565b6000613264614a59565b6132745761192f60016014614b45565b601b5460ff161515821515141561328c57600061192f565b601b805483151560ff19909116811790915560408051918252517f84c7d948374a180eddab35d27d2f7a94167a1ff4e79467f1e89c061984190a1e9181900360200190a160006114a9565b601c6020526000908152604090205460ff1681565b60006132f6614a59565b613306576117a260016017614b45565b60028054600160a01b60ff60a01b19821681179092550460ff166000866133cf57600054604051638754e4fd60e01b8152602060048201908152602482018890526001600160a01b0390921691638754e4fd91899189918190604401848480828437600081840152601f19601f8201169050808301925050509350505050602060405180830381600087803b15801561339e57600080fd5b505af11580156133b2573d6000803e3d6000fd5b505050506040513d60208110156133c857600080fd5b5051613473565b600054604051639b86a9b560e01b8152602060048201908152602482018890526001600160a01b0390921691639b86a9b591899189918190604401848480828437600081840152601f19601f8201169050808301925050509350505050602060405180830381600087803b15801561344657600080fd5b505af115801561345a573d6000803e3d6000fd5b505050506040513d602081101561347057600080fd5b50515b6002805460ff60a01b1916600160a01b8515150217905590506000613497826150c7565b905080156134a557806134af565b6134af8286614427565b98975050505050505050565b60608060136000846001600160a01b03166001600160a01b0316815260200190815260200160002080548060200260200160405190810160405280929190818152602001828054801561353757602002820191906000526020600020905b81546001600160a01b03168152600190910190602001808311613519575b5093979650505050505050565b601f54600160b81b900460ff1681565b60606015805480602002602001604051908101604052809291908181526020018280548015611a96576020028201919060005260206000209081546001600160a01b03168152600190910190602001808311611a78575050505050905090565b601b5460ff1681565b60006135c7614a59565b6135d75761192f60016002614b45565b816001600160a01b031663abc6d72d6040518163ffffffff1660e01b815260040160206040518083038186803b15801561361057600080fd5b505afa158015613624573d6000803e3d6000fd5b505050506040513d602081101561363a57600080fd5b505161368d576040805162461bcd60e51b815260206004820152601c60248201527f6d61726b6572206d6574686f642072657475726e65642066616c736500000000604482015290519081900360640190fd5b60005b60255481101561370557602581815481106136a757fe5b6000918252602090912001546001600160a01b03848116911614156136fd5760405162461bcd60e51b8152600401808060200182810382526029815260200180615bde6029913960400191505060405180910390fd5b600101613690565b50602580546001810182556000919091527f401968ff42a154441da5f6c4c935ac46b8671f0e062baaa62a7545ba53bb6e4c0180546001600160a01b0384166001600160a01b0319909116811790915560408051918252517f98ef1187fb6fd2bc85f8996489877eb2b5428f9e9bdfc068c9ad6c2ea82eacc79181900360200190a160006114a9565b6003546001600160a01b031681565b601f54600090600160b01b900460ff16156137f4576040805162461bcd60e51b81526020600482015260126024820152711d1c985b9cd9995c881a5cc81c185d5cd95960721b604482015290519081900360640190fd5b600061380186868561545a565b90508015613810579050611777565b61381b868686615506565b60009695505050505050565b606060008251905060608160405190808252806020026020018201604052801561385b578160200160208202803883390190505b50905060005b828110156138b657600085828151811061387757fe5b6020026020010151905061388b81336155a6565b601581111561389657fe5b8383815181106138a257fe5b602090810291909101015250600101613861565b509392505050565b600f546040805163fc57d4df60e01b81526001600160a01b03868116600483015291516000938493849391169163fc57d4df91602480820192602092909190829003018186803b15801561391157600080fd5b505afa158015613925573d6000803e3d6000fd5b505050506040513d602081101561393b57600080fd5b5051600f546040805163fc57d4df60e01b81526001600160a01b0389811660048301529151939450600093919092169163fc57d4df916024808301926020929190829003018186803b15801561399057600080fd5b505afa1580156139a4573d6000803e3d6000fd5b505050506040513d60208110156139ba57600080fd5b505190508115806139c9575080155b156139de57600d935060009250613ad7915050565b6000866001600160a01b031663182df0f56040518163ffffffff1660e01b815260040160206040518083038186803b158015613a1957600080fd5b505afa158015613a2d573d6000803e3d6000fd5b505050506040513d6020811015613a4357600080fd5b505190506000613a51615b1e565b613a59615b1e565b613a61615b1e565b613a89604051806020016040528060115481525060405180602001604052808a815250615733565b9250613ab1604051806020016040528088815250604051806020016040528088815250615733565b9150613abd8383615772565b9050613ac9818b615055565b600099509750505050505050505b935093915050565b602581815481106124b357fe5b6000613af6614a59565b613b06576117a260016015614b45565b60005b84811015613cf7576000868683818110613b1f57fe5b905060200201356001600160a01b03169050848483818110613b3d57fe5b9050602002013515613be9576001600160a01b0381166000908152601c602052604090205460ff16613be4576001600160a01b0381166000818152601c60209081526040808320805460ff19166001908117909155601d805491820181557f6d4407e7be21f808e6509aa9fa9143369579dd7d760fe20a2c09680fc146134f90910180546001600160a01b0319168617905554938352601e90915290206000199190910190555b613cee565b6001600160a01b0381166000908152601c602052604090205460ff1615613cee576001600160a01b0381166000908152601e6020526040902054601d5460001901811015613cab57601d8054600091906000198101908110613c4757fe5b600091825260209091200154601d80546001600160a01b039092169250829184908110613c7057fe5b600091825260208083209190910180546001600160a01b0319166001600160a01b03948516179055929091168152601e909152604090208190555b601d805490613cbe906000198301615b31565b50506001600160a01b0381166000908152601e60209081526040808320839055601c9091529020805460ff191690555b50600101613b09565b506000611774565b3360009081526014602052604090205460ff16613d4d5760405162461bcd60e51b815260040180806020018281038252603c815260200180615d11603c913960400191505060405180910390fd5b60265460ff16613da4576040805162461bcd60e51b815260206004820152601860248201527f72652d656e7465726564206163726f7373206173736574730000000000000000604482015290519081900360640190fd5b6026805460ff19169055565b6060601d805480602002602001604051908101604052809291908181526020018280548015611a96576020028201919060005260206000209081546001600160a01b03168152600190910190602001808311611a78575050505050905090565b601f54600090600160b81b900460ff1615613e64576040805162461bcd60e51b815260206004820152600f60248201526e1cd95a5e99481a5cc81c185d5cd959608a1b604482015290519081900360640190fd5b6001600160a01b03861660009081526014602052604090205460ff161580613ea557506001600160a01b03851660009081526014602052604090205460ff16155b15613eb15760096126d3565b846001600160a01b0316635fe3b5676040518163ffffffff1660e01b815260040160206040518083038186803b158015613eea57600080fd5b505afa158015613efe573d6000803e3d6000fd5b505050506040513d6020811015613f1457600080fd5b505160408051635fe3b56760e01b815290516001600160a01b0392831692891691635fe3b567916004808301926020929190829003018186803b158015613f5a57600080fd5b505afa158015613f6e573d6000803e3d6000fd5b505050506040513d6020811015613f8457600080fd5b50516001600160a01b031614613f9b5760026126d3565b61381b868486615506565b601d81815481106124b357fe5b6000613fbd614a59565b613fcd5761192f60016006614b45565b60225460ff1615158215151415613fe557600061192f565b6022805483151560ff19909116811790915560408051918252517faa40ee94af55250363b91641a0a615c47690148901505f89b01dafae03fff2819181900360200190a160006114a9565b6001600160a01b03831660009081526021602052604081205460ff1615614091576040805162461bcd60e51b815260206004820152601060248201526f189bdc9c9bddc81a5cc81c185d5cd95960821b604482015290519081900360640190fd5b6001600160a01b03841660009081526014602052604090205460ff166140b8576009611e4c565b6001600160a01b038085166000908152601460209081526040808320938716835260029093019052205460ff166141a857336001600160a01b0385161461413e576040805162461bcd60e51b815260206004820152601560248201527439b2b73232b91036bab9ba1031329031aa37b5b2b760591b604482015290519081900360640190fd5b600061414a33856155a6565b9050600081601581111561415a57fe5b146141735780601581111561416b57fe5b9150506121c7565b6001600160a01b038086166000908152601460209081526040808320938816835260029093019052205460ff166141a657fe5b505b600f546040805163fc57d4df60e01b81526001600160a01b0387811660048301529151919092169163fc57d4df916024808301926020929190829003018186803b1580156141f557600080fd5b505afa158015614209573d6000803e3d6000fd5b505050506040513d602081101561421f57600080fd5b505161422c57600d611e4c565b601b5460ff16801561425757506001600160a01b0383166000908152601c602052604090205460ff16155b15614263576012611e4c565b6001600160a01b0384166000908152602360205260409020548015614375576000856001600160a01b03166347bd37186040518163ffffffff1660e01b815260040160206040518083038186803b1580156142bd57600080fd5b505afa1580156142d1573d6000803e3d6000fd5b505050506040513d60208110156142e757600080fd5b505190506000806142f88387614f75565b9092509050600082600381111561430b57fe5b1461431d57600b9450505050506121c7565b838110614371576040805162461bcd60e51b815260206004820152601960248201527f6d61726b657420626f72726f7720636170207265616368656400000000000000604482015290519081900360640190fd5b5050505b61437f8585614aad565b60008061438f8688600088614bba565b919350909150600090508260158111156143a557fe5b146143c0578160158111156143b657fe5b93505050506121c7565b80156143cd5760046143b6565b6000979650505050505050565b601360205281600052604060002081815481106143f357fe5b6000918252602090912001546001600160a01b03169150829050565b6004546001600160a01b031681565b60225460ff1681565b6000614431614a59565b6144485761444160016009614b45565b90506114a9565b6001600160a01b0383166000908152601460205260409020805460ff1661447d576144756009600a614b45565b9150506114a9565b614485615b1e565b50604080516020810190915283815261449c615b1e565b506040805160208101909152670c7d713b49da000081526144bd8183614bb3565b156144d8576144ce6006600b614b45565b93505050506114a9565b841580159061455d5750600f546040805163fc57d4df60e01b81526001600160a01b0389811660048301529151919092169163fc57d4df916024808301926020929190829003018186803b15801561452f57600080fd5b505afa158015614543573d6000803e3d6000fd5b505050506040513d602081101561455957600080fd5b5051155b1561456e576144ce600d600c614b45565b60018301805490869055604080516001600160a01b03891681526020810183905280820188905290517f70483e6592cd5182d45ac970e05bc62cdcc90e9d8ef2c2dbe686cf383bcd7fc59181900360600190a16000979650505050505050565b601f54600160a81b900460ff1681565b60105481565b6000806145f285858561545a565b905080156121b65790506121c7565b6000808290506000806000836001600160a01b031663c37f68e2336040518263ffffffff1660e01b815260040180826001600160a01b03166001600160a01b0316815260200191505060806040518083038186803b15801561466257600080fd5b505afa158015614676573d6000803e3d6000fd5b505050506040513d608081101561468c57600080fd5b5080516020820151604090920151909450909250905082156146df5760405162461bcd60e51b8152600401808060200182810382526025815260200180615d826025913960400191505060405180910390fd5b80156146fc576146f1600c6003614b45565b945050505050611900565b600061470987338561545a565b9050801561472a5761471e600e6004836157ae565b95505050505050611900565b6001600160a01b0385166000908152601460209081526040808320338452600281019092529091205460ff166147695760009650505050505050611900565b3360009081526002820160209081526040808320805460ff1916905560138252918290208054835181840281018401909452808452606093928301828280156147db57602002820191906000526020600020905b81546001600160a01b031681526001909101906020018083116147bd575b5050835193945083925060009150505b8281101561483057896001600160a01b031684828151811061480957fe5b60200260200101516001600160a01b0316141561482857809150614830565b6001016147eb565b5081811061483a57fe5b33600090815260136020526040902080548190600019810190811061485b57fe5b9060005260206000200160009054906101000a90046001600160a01b031681838154811061488557fe5b600091825260209091200180546001600160a01b0319166001600160a01b039290921691909117905580546148be826000198301615b31565b50805461499757336000908152601860205260409020546017546000190181101561495d57601780546000919060001981019081106148f957fe5b600091825260209091200154601780546001600160a01b03909216925082918490811061492257fe5b600091825260208083209190910180546001600160a01b0319166001600160a01b039485161790559290911681526018909152604090208190555b6017805490614970906000198301615b31565b505033600090815260186020908152604080832083905560169091529020805460ff191690555b604080516001600160a01b038c16815233602082015281517fe699a64c18b07ac5b7301aa273f36a2287239eb9501d81950672794afba29a0d929181900390910190a160009c9b505050505050505050505050565b6149f4614a59565b614a2e576040805162461bcd60e51b815260206004820152600660248201526510b0b236b4b760d11b604482015290519081900360640190fd5b60268054911515620100000262ff000019909216919091179055565b6001546001600160a01b031681565b6001546000906001600160a01b031633148015614a7f5750600254600160a81b900460ff165b80614aa857506000546001600160a01b031633148015614aa85750600254600160a01b900460ff165b905090565b60005b60255481101561255e5760258181548110614ac757fe5b600091825260208220015460408051631cdc2c5d60e31b81526001600160a01b03878116600483015286811660248301529151919092169263e6e162e8926044808201939182900301818387803b158015614b2157600080fd5b505af1158015614b35573d6000803e3d6000fd5b505060019092019150614ab09050565b60007f45b96fe442630264581b197e84bbada861235052c5a1aadfff9ea4e40a969aa0836015811115614b7457fe5b83601b811115614b8057fe5b604080519283526020830191909152600082820152519081900360600190a18260158111156121c757fe5b519051111590565b5190511090565b6000806000614bc7615b55565b6001600160a01b03881660009081526013602090815260408083208054825181850281018501909352808352606093830182828015614c2f57602002820191906000526020600020905b81546001600160a01b03168152600190910190602001808311614c11575b50939450600093505050505b8151811015614eb4576000828281518110614c5257fe5b60200260200101519050806001600160a01b031663c37f68e28d6040518263ffffffff1660e01b815260040180826001600160a01b03166001600160a01b0316815260200191505060806040518083038186803b158015614cb257600080fd5b505afa158015614cc6573d6000803e3d6000fd5b505050506040513d6080811015614cdc57600080fd5b508051602082015160408084015160609485015160808b0152938901939093529187019190915293508315614d215750600f965060009550859450611dc19350505050565b60408051602080820183526001600160a01b0380851660008181526014845285902060010154845260c08a01939093528351808301855260808a0151815260e08a0152600f54845163fc57d4df60e01b81526004810194909452935193169263fc57d4df926024808201939291829003018186803b158015614da257600080fd5b505afa158015614db6573d6000803e3d6000fd5b505050506040513d6020811015614dcc57600080fd5b505160a08601819052614def5750600d965060009550859450611dc19350505050565b604080516020810190915260a0860151815261010086015260c085015160e0860151614e2991614e1e91615733565b866101000151615733565b610120860181905260408601518651614e43929190615814565b855261010085015160608601516020870151614e60929190615814565b60208601526001600160a01b03818116908c161415614eab57614e8d8561012001518b8760200151615814565b60208601819052610100860151614ea5918b90615814565b60208601525b50600101614c3b565b50602083015183511115614eda5750506020810151905160009450039150829050611dc1565b5050805160209091015160009450849350039050611dc1565b60006121c78383604051806040016040528060118152602001706164646974696f6e206f766572666c6f7760781b81525061583c565b600080600080614f398787614f75565b90925090506000826003811115614f4c57fe5b14614f5d5750915060009050613ad7565b614f6781866158d7565b935093505050935093915050565b600080838301848110614f8d57600092509050614f97565b5060029150600090505b9250929050565b60005b60255481101561255e5760258181548110614fb857fe5b60009182526020822001546040805162e48b0f60e51b81526001600160a01b038781166004830152868116602483015291519190921692631c9161e0926044808201939182900301818387803b15801561501157600080fd5b505af1158015615025573d6000803e3d6000fd5b505060019092019150614fa19050565b6000806000615048846000806000614bba565b9250925092509193909250565b600061505f615b1e565b61506984846158fa565b90506117778161591b565b6000806000615081615b1e565b61508b868661592a565b9092509050600082600381111561509e57fe5b146150af5750915060009050614f97565b60006150ba8261591b565b9350935050509250929050565b60006150d1614a59565b6150e15761192f60016017614b45565b6001600160a01b03821660009081526014602052604090205460ff161561510e5761192f600a6016614b45565b816001600160a01b031663fe9c44ae6040518163ffffffff1660e01b815260040160206040518083038186803b15801561514757600080fd5b505afa15801561515b573d6000803e3d6000fd5b505050506040513d602081101561517157600080fd5b50516151c4576040805162461bcd60e51b815260206004820152601c60248201527f6d61726b6572206d6574686f642072657475726e65642066616c736500000000604482015290519081900360640190fd5b306001600160a01b0316826001600160a01b0316635fe3b5676040518163ffffffff1660e01b815260040160206040518083038186803b15801561520757600080fd5b505afa15801561521b573d6000803e3d6000fd5b505050506040513d602081101561523157600080fd5b50516001600160a01b0316146152785760405162461bcd60e51b8152600401808060200182810382526035815260200180615ddc6035913960400191505060405180910390fd5b6000826001600160a01b031663ac784ddc6040518163ffffffff1660e01b815260040160206040518083038186803b1580156152b357600080fd5b505afa1580156152c7573d6000803e3d6000fd5b505050506040513d60208110156152dd57600080fd5b505161534d57826001600160a01b0316636f307dc36040518163ffffffff1660e01b815260040160206040518083038186803b15801561531c57600080fd5b505afa158015615330573d6000803e3d6000fd5b505050506040513d602081101561534657600080fd5b5051615350565b60005b6001600160a01b038082166000908152601a602052604090205491925016156153875761537f600a6016614b45565b915050611900565b6040805180820182526001808252600060208084018281526001600160a01b03898116808552601484528785209651875460ff19169015151787559151958501959095556015805494850190557f55f448fdea98c4d29eb340757ef0a66cd03dbb9538908a6a81d96026b71ec47590930180546001600160a01b031990811685179091559386168252601a81529084902080549093168217909255825190815291517fcf583bb0c569eb967f806b11601c4cb93c10310485c67add5f8362c2f212321f9281900390910190a160006121c7565b6001600160a01b03831660009081526014602052604081205460ff16615481576009611e4c565b6001600160a01b038085166000908152601460209081526040808320938716835260029093019052205460ff166154b9576000611e4c565b6000806154c98587866000614bba565b919350909150600090508260158111156154df57fe5b146154f9578160158111156154f057fe5b925050506121c7565b801561381b5760046154f0565b60005b6025548110156124a0576025818154811061552057fe5b600091825260208220015460408051634e081c9560e01b81526001600160a01b0388811660048301528781166024830152868116604483015291519190921692634e081c95926064808201939182900301818387803b15801561558257600080fd5b505af1158015615596573d6000803e3d6000fd5b5050600190920191506155099050565b6001600160a01b0382166000908152601460205260408120805460ff166155d15760099150506114a9565b6001600160a01b038316600090815260028201602052604090205460ff161515600114156156035760009150506114a9565b6001600160a01b03838116600081815260028401602090815260408083208054600160ff199091168117909155601383528184208054918201815584528284200180546001600160a01b031916958a16959095179094559181526016909152205460ff166156e45760178054600180820183557fc624b66cc0138b8fabc209247f72d758e1cf3343756d543badbf24212bed8c1590910180546001600160a01b0319166001600160a01b0387169081179091556000908152601660209081526040808320805460ff1916909417909355925460189093522060001990910190555b604080516001600160a01b0380871682528516602082015281517f3ab23ab0d51cccc0c3085aec51f99228625aa1a922b3a8ca89a26b0f2027a1a5929181900390910190a15060009392505050565b61573b615b1e565b6040518060200160405280670de0b6b3a764000061576186600001518660000151615992565b8161576857fe5b0490529392505050565b61577a615b1e565b60405180602001604052806157a561579e8660000151670de0b6b3a7640000615992565b85516159d4565b90529392505050565b60007f45b96fe442630264581b197e84bbada861235052c5a1aadfff9ea4e40a969aa08460158111156157dd57fe5b84601b8111156157e957fe5b604080519283526020830191909152818101859052519081900360600190a183601581111561177757fe5b600061581e615b1e565b61582885856158fa565b90506121c36158368261591b565b84614ef3565b600083830182858210156158ce5760405162461bcd60e51b81526004018080602001828103825283818151815260200191508051906020019080838360005b8381101561589357818101518382015260200161587b565b50505050905090810190601f1680156158c05780820380516001836020036101000a031916815260200191505b509250505060405180910390fd5b50949350505050565b6000808383116158ee575060009050818303614f97565b50600390506000614f97565b615902615b1e565b60405180602001604052806157a5856000015185615992565b51670de0b6b3a7640000900490565b6000615934615b1e565b600080615945866000015186615a07565b9092509050600082600381111561595857fe5b1461597757506040805160208101909152600081529092509050614f97565b60408051602081019091529081526000969095509350505050565b60006121c783836040518060400160405280601781526020017f6d756c7469706c69636174696f6e206f766572666c6f77000000000000000000815250615a46565b60006121c783836040518060400160405280600e81526020016d646976696465206279207a65726f60901b815250615abc565b60008083615a1a57506000905080614f97565b83830283858281615a2757fe5b0414615a3b57506002915060009050614f97565b600092509050614f97565b6000831580615a53575082155b15615a60575060006121c7565b83830283858281615a6d57fe5b041483906158ce5760405162461bcd60e51b815260206004820181815283516024840152835190928392604490910191908501908083836000831561589357818101518382015260200161587b565b60008183615b0b5760405162461bcd60e51b815260206004820181815283516024840152835190928392604490910191908501908083836000831561589357818101518382015260200161587b565b50828481615b1557fe5b04949350505050565b6040518060200160405280600081525090565b81548183558181111561255e5760008381526020902061255e918101908301615bbf565b604051806101400160405280600081526020016000815260200160008152602001600081526020016000815260200160008152602001615b93615b1e565b8152602001615ba0615b1e565b8152602001615bad615b1e565b8152602001615bba615b1e565b905290565b611a9e91905b80821115615bd95760008155600101615bc5565b509056fe526577617264734469737472696275746f7220636f6e747261637420616c726561647920616464656463616e6e6f742070617573652061206d61726b65742074686174206973206e6f74206c697374656443616e206e6f74207265706179206d6f7265207468616e2074686520746f74616c20626f72726f77436f6d7074726f6c6c65723a5f61667465724e6f6e5265656e7472616e743a2063616c6c6572206e6f74206c6973746564206173206d61726b65746f6e6c7920706175736520677561726469616e20616e642061646d696e2063616e2070617573656f6e6c792061646d696e2063616e2073657420626f72726f772063617020677561726469616e6f6e6c7920696d706c656d656e746174696f6e206d61792063616c6c205f6265636f6d65496d706c656d656e746174696f6e436f6d7074726f6c6c65723a5f6265666f72654e6f6e5265656e7472616e743a2063616c6c6572206e6f74206c6973746564206173206d61726b65746f6e6c792061646d696e206f7220626f72726f772063617020677561726469616e2063616e2073657420626f72726f772063617073657869744d61726b65743a206765744163636f756e74536e617073686f74206661696c65646f6e6c792061646d696e206f7220626f72726f772063617020677561726469616e2063616e2073657420737570706c79206361707343616e6e6f7420737570706f72742061206d61726b65742077697468206120646966666572656e7420436f6d7074726f6c6c65722e6f6e6c7920756e6974726f6c6c65722061646d696e2063616e206368616e676520627261696e73a265627a7a723158206f29da39703b0c540e93c507f9304fe41ae1ea94f118487a879088722223371f64736f6c63430005110032",
  "devdoc": {
    "author": "Compound",
    "details": "This contract should not to be deployed alone; instead, deploy `Unitroller` (proxy contract) on top of this `Comptroller` (logic/implementation contract).",
    "methods": {
      "_addRewardsDistributor(address)": {
        "details": "Admin function to add a RewardsDistributor contract",
        "return": "uint 0=success, otherwise a failure (see ErrorReporter.sol for details)"
      },
      "_afterNonReentrant()": {
        "details": "Called by cTokens after a non-reentrant function for pool-wide reentrancy prevention. Prevents pool-wide/cross-asset reentrancy exploits like AMP on Cream."
      },
      "_beforeNonReentrant()": {
        "details": "Called by cTokens before a non-reentrant function for pool-wide reentrancy prevention. Prevents pool-wide/cross-asset reentrancy exploits like AMP on Cream."
      },
      "_deployMarket(bool,bytes,uint256)": {
        "details": "Admin function to deploy cToken, set isListed, and add support for the market and set the collateral factor",
        "return": "uint 0=success, otherwise a failure. (See enum Error for details)"
      },
      "_setBorrowCapGuardian(address)": {
        "params": {
          "newBorrowCapGuardian": "The address of the new Borrow Cap Guardian"
        }
      },
      "_setCloseFactor(uint256)": {
        "details": "Admin function to set closeFactor",
        "params": {
          "newCloseFactorMantissa": "New close factor, scaled by 1e18"
        },
        "return": "uint 0=success, otherwise a failure. (See ErrorReporter for details)"
      },
      "_setCollateralFactor(address,uint256)": {
        "details": "Admin function to set per-market collateralFactor",
        "params": {
          "cToken": "The market to set the factor on",
          "newCollateralFactorMantissa": "The new collateral factor, scaled by 1e18"
        },
        "return": "uint 0=success, otherwise a failure. (See ErrorReporter for details)"
      },
      "_setLiquidationIncentive(uint256)": {
        "details": "Admin function to set liquidationIncentive",
        "params": {
          "newLiquidationIncentiveMantissa": "New liquidationIncentive scaled by 1e18"
        },
        "return": "uint 0=success, otherwise a failure. (See ErrorReporter for details)"
      },
      "_setMarketBorrowCaps(address[],uint256[])": {
        "details": "Admin or borrowCapGuardian function to set the borrow caps. A borrow cap of 0 corresponds to unlimited borrowing.",
        "params": {
          "cTokens": "The addresses of the markets (tokens) to change the borrow caps for",
          "newBorrowCaps": "The new borrow cap values in underlying to be set. A value of 0 corresponds to unlimited borrowing."
        }
      },
      "_setMarketSupplyCaps(address[],uint256[])": {
        "details": "Admin or borrowCapGuardian function to set the supply caps. A supply cap of 0 corresponds to unlimited supplying.",
        "params": {
          "cTokens": "The addresses of the markets (tokens) to change the supply caps for",
          "newSupplyCaps": "The new supply cap values in underlying to be set. A value of 0 corresponds to unlimited supplying."
        }
      },
      "_setPauseGuardian(address)": {
        "params": {
          "newPauseGuardian": "The address of the new Pause Guardian"
        },
        "return": "uint 0=success, otherwise a failure. (See enum Error for details)"
      },
      "_setPriceOracle(address)": {
        "details": "Admin function to set a new price oracle",
        "return": "uint 0=success, otherwise a failure (see ErrorReporter.sol for details)"
      },
      "_setWhitelistEnforcement(bool)": {
        "details": "Admin function to set a new whitelist enforcement boolean",
        "return": "uint 0=success, otherwise a failure (see ErrorReporter.sol for details)"
      },
      "_setWhitelistStatuses(address[],bool[])": {
        "details": "Admin function to set the whitelist `statuses` for `suppliers`",
        "return": "uint 0=success, otherwise a failure (see ErrorReporter.sol for details)"
      },
      "_toggleAutoImplementations(bool)": {
        "params": {
          "enabled": "If the feature is to be enabled"
        },
        "return": "uint 0=success, otherwise a failure. (See enum Error for details)"
      },
      "_unsupportMarket(address)": {
        "details": "Admin function unset isListed and collateralFactorMantissa and unadd support for the market",
        "params": {
          "cToken": "The address of the market (token) to unlist"
        },
        "return": "uint 0=success, otherwise a failure. (See enum Error for details)"
      },
      "borrowAllowed(address,address,uint256)": {
        "params": {
          "borrowAmount": "The amount of underlying the account would borrow",
          "borrower": "The account which would borrow the asset",
          "cToken": "The market to verify the borrow against"
        },
        "return": "0 if the borrow is allowed, otherwise a semi-opaque error code (See ErrorReporter.sol)"
      },
      "borrowVerify(address,address,uint256)": {
        "params": {
          "borrowAmount": "The amount of the underlying asset requested to borrow",
          "borrower": "The address borrowing the underlying",
          "cToken": "Asset whose underlying is being borrowed"
        }
      },
      "borrowWithinLimits(address,uint256)": {
        "params": {
          "accountBorrowsNew": "The user's new borrow balance of the underlying asset",
          "cToken": "Asset whose underlying is being borrowed"
        }
      },
      "checkMembership(address,address)": {
        "params": {
          "account": "The address of the account to check",
          "cToken": "The cToken to check"
        },
        "return": "True if the account is in the asset, otherwise false."
      },
      "enterMarkets(address[])": {
        "params": {
          "cTokens": "The list of addresses of the cToken markets to be enabled"
        },
        "return": "Success indicator for whether each corresponding market was entered"
      },
      "exitMarket(address)": {
        "details": "Sender must not have an outstanding borrow balance in the asset, or be providing neccessary collateral for an outstanding borrow.",
        "params": {
          "cTokenAddress": "The address of the asset to be removed"
        },
        "return": "Whether or not the account successfully exited the market"
      },
      "getAccountLiquidity(address)": {
        "return": "(possible error code (semi-opaque), account liquidity in excess of collateral requirements,         account shortfall below collateral requirements)"
      },
      "getAllBorrowers()": {
        "details": "The automatic getter may be used to access an individual borrower.",
        "return": "The list of borrower account addresses"
      },
      "getAllMarkets()": {
        "details": "The automatic getter may be used to access an individual market.",
        "return": "The list of market addresses"
      },
      "getAssetsIn(address)": {
        "params": {
          "account": "The address of the account to pull assets for"
        },
        "return": "A dynamic list with the assets the account has entered"
      },
      "getHypotheticalAccountLiquidity(address,address,uint256,uint256)": {
        "params": {
          "account": "The account to determine liquidity for",
          "borrowAmount": "The amount of underlying to hypothetically borrow",
          "cTokenModify": "The market to hypothetically redeem/borrow in",
          "redeemTokens": "The number of tokens to hypothetically redeem"
        },
        "return": "(possible error code (semi-opaque), hypothetical account liquidity in excess of collateral requirements,         hypothetical account shortfall below collateral requirements)"
      },
      "getWhitelist()": {
        "details": "The automatic getter may be used to access an individual whitelist status.",
        "return": "The list of borrower account addresses"
      },
      "isDeprecated(address)": {
        "details": "All borrows in a deprecated cToken market can be immediately liquidated",
        "params": {
          "cToken": "The market to check if deprecated"
        }
      },
      "liquidateBorrowAllowed(address,address,address,address,uint256)": {
        "params": {
          "borrower": "The address of the borrower",
          "cTokenBorrowed": "Asset which was borrowed by the borrower",
          "cTokenCollateral": "Asset which was used as collateral and will be seized",
          "liquidator": "The address repaying the borrow and seizing the collateral",
          "repayAmount": "The amount of underlying being repaid"
        }
      },
      "liquidateBorrowVerify(address,address,address,address,uint256,uint256)": {
        "params": {
          "actualRepayAmount": "The amount of underlying being repaid",
          "borrower": "The address of the borrower",
          "cTokenBorrowed": "Asset which was borrowed by the borrower",
          "cTokenCollateral": "Asset which was used as collateral and will be seized",
          "liquidator": "The address repaying the borrow and seizing the collateral"
        }
      },
      "liquidateCalculateSeizeTokens(address,address,uint256)": {
        "details": "Used in liquidation (called in cToken.liquidateBorrowFresh)",
        "params": {
          "actualRepayAmount": "The amount of cTokenBorrowed underlying to convert into cTokenCollateral tokens",
          "cTokenBorrowed": "The address of the borrowed cToken",
          "cTokenCollateral": "The address of the collateral cToken"
        },
        "return": "(errorCode, number of cTokenCollateral tokens to be seized in a liquidation)"
      },
      "mintAllowed(address,address,uint256)": {
        "params": {
          "cToken": "The market to verify the mint against",
          "mintAmount": "The amount of underlying being supplied to the market in exchange for tokens",
          "minter": "The account which would get the minted tokens"
        },
        "return": "0 if the mint is allowed, otherwise a semi-opaque error code (See ErrorReporter.sol)"
      },
      "mintVerify(address,address,uint256,uint256)": {
        "params": {
          "actualMintAmount": "The amount of the underlying asset being minted",
          "cToken": "Asset being minted",
          "mintTokens": "The number of tokens being minted",
          "minter": "The address minting the tokens"
        }
      },
      "mintWithinLimits(address,uint256,uint256,uint256)": {
        "params": {
          "accountTokens": "Underlying amount to mint",
          "cToken": "Asset whose underlying is being borrowed",
          "exchangeRateMantissa": "Underlying/cToken exchange rate"
        }
      },
      "redeemAllowed(address,address,uint256)": {
        "params": {
          "cToken": "The market to verify the redeem against",
          "redeemTokens": "The number of cTokens to exchange for the underlying asset in the market",
          "redeemer": "The account which would redeem the tokens"
        },
        "return": "0 if the redeem is allowed, otherwise a semi-opaque error code (See ErrorReporter.sol)"
      },
      "redeemVerify(address,address,uint256,uint256)": {
        "params": {
          "cToken": "Asset being redeemed",
          "redeemAmount": "The amount of the underlying asset being redeemed",
          "redeemTokens": "The number of tokens being redeemed",
          "redeemer": "The address redeeming the tokens"
        }
      },
      "repayBorrowAllowed(address,address,address,uint256)": {
        "params": {
          "borrower": "The account which would borrowed the asset",
          "cToken": "The market to verify the repay against",
          "payer": "The account which would repay the asset",
          "repayAmount": "The amount of the underlying asset the account would repay"
        },
        "return": "0 if the repay is allowed, otherwise a semi-opaque error code (See ErrorReporter.sol)"
      },
      "repayBorrowVerify(address,address,address,uint256,uint256)": {
        "params": {
          "actualRepayAmount": "The amount of underlying being repaid",
          "borrower": "The address of the borrower",
          "cToken": "Asset being repaid",
          "payer": "The address repaying the borrow"
        }
      },
      "seizeAllowed(address,address,address,address,uint256)": {
        "params": {
          "borrower": "The address of the borrower",
          "cTokenBorrowed": "Asset which was borrowed by the borrower",
          "cTokenCollateral": "Asset which was used as collateral and will be seized",
          "liquidator": "The address repaying the borrow and seizing the collateral",
          "seizeTokens": "The number of collateral tokens to seize"
        }
      },
      "seizeVerify(address,address,address,address,uint256)": {
        "params": {
          "borrower": "The address of the borrower",
          "cTokenBorrowed": "Asset which was borrowed by the borrower",
          "cTokenCollateral": "Asset which was used as collateral and will be seized",
          "liquidator": "The address repaying the borrow and seizing the collateral",
          "seizeTokens": "The number of collateral tokens to seize"
        }
      },
      "transferAllowed(address,address,address,uint256)": {
        "params": {
          "cToken": "The market to verify the transfer against",
          "dst": "The account which receives the tokens",
          "src": "The account which sources the tokens",
          "transferTokens": "The number of cTokens to transfer"
        },
        "return": "0 if the transfer is allowed, otherwise a semi-opaque error code (See ErrorReporter.sol)"
      },
      "transferVerify(address,address,address,uint256)": {
        "params": {
          "cToken": "Asset being transferred",
          "dst": "The account which receives the tokens",
          "src": "The account which sources the tokens",
          "transferTokens": "The number of cTokens to transfer"
        }
      }
    },
    "title": "Compound's Comptroller Contract"
  },
  "userdoc": {
    "methods": {
      "_addRewardsDistributor(address)": {
        "notice": "Add a RewardsDistributor contracts."
      },
      "_deployMarket(bool,bytes,uint256)": {
        "notice": "Deploy cToken, add the market to the markets mapping, and set it as listed and set the collateral factor"
      },
      "_setBorrowCapGuardian(address)": {
        "notice": "Admin function to change the Borrow Cap Guardian"
      },
      "_setCloseFactor(uint256)": {
        "notice": "Sets the closeFactor used when liquidating borrows"
      },
      "_setCollateralFactor(address,uint256)": {
        "notice": "Sets the collateralFactor for a market"
      },
      "_setGlobalPauseBorrowOverride(bool)": {
        "notice": "Sets the global pause borrows override"
      },
      "_setLiquidationIncentive(uint256)": {
        "notice": "Sets liquidationIncentive"
      },
      "_setMarketBorrowCaps(address[],uint256[])": {
        "notice": "Set the given borrow caps for the given cToken markets. Borrowing that brings total borrows to or above borrow cap will revert."
      },
      "_setMarketSupplyCaps(address[],uint256[])": {
        "notice": "Set the given supply caps for the given cToken markets. Supplying that brings total underlying supply to or above supply cap will revert."
      },
      "_setPauseGuardian(address)": {
        "notice": "Admin function to change the Pause Guardian"
      },
      "_setPriceOracle(address)": {
        "notice": "Sets a new price oracle for the comptroller"
      },
      "_setWhitelistEnforcement(bool)": {
        "notice": "Sets the whitelist enforcement for the comptroller"
      },
      "_setWhitelistStatuses(address[],bool[])": {
        "notice": "Sets the whitelist `statuses` for `suppliers`"
      },
      "_toggleAutoImplementations(bool)": {
        "notice": "Toggles the auto-implementation feature"
      },
      "_unsupportMarket(address)": {
        "notice": "Removed a market from the markets mapping and sets it as unlisted"
      },
      "borrowAllowed(address,address,uint256)": {
        "notice": "Checks if the account should be allowed to borrow the underlying asset of the given market"
      },
      "borrowVerify(address,address,uint256)": {
        "notice": "Validates borrow and reverts on rejection. May emit logs."
      },
      "borrowWithinLimits(address,uint256)": {
        "notice": "Checks if the account should be allowed to borrow the underlying asset of the given market"
      },
      "checkMembership(address,address)": {
        "notice": "Returns whether the given account is entered in the given asset"
      },
      "enterMarkets(address[])": {
        "notice": "Add assets to be included in account liquidity calculation"
      },
      "exitMarket(address)": {
        "notice": "Removes asset from sender's account liquidity calculation"
      },
      "getAccountLiquidity(address)": {
        "notice": "Determine the current account liquidity wrt collateral requirements"
      },
      "getAllBorrowers()": {
        "notice": "Return all of the borrowers"
      },
      "getAllMarkets()": {
        "notice": "Return all of the markets"
      },
      "getAssetsIn(address)": {
        "notice": "Returns the assets an account has entered"
      },
      "getHypotheticalAccountLiquidity(address,address,uint256,uint256)": {
        "notice": "Determine what the account liquidity would be if the given amounts were redeemed/borrowed"
      },
      "getRewardsDistributors()": {
        "notice": "Returns an array of all RewardsDistributors"
      },
      "getWhitelist()": {
        "notice": "Return all of the whitelist"
      },
      "isDeprecated(address)": {
        "notice": "Returns true if the given cToken market has been deprecated"
      },
      "liquidateBorrowAllowed(address,address,address,address,uint256)": {
        "notice": "Checks if the liquidation should be allowed to occur"
      },
      "liquidateBorrowVerify(address,address,address,address,uint256,uint256)": {
        "notice": "Validates liquidateBorrow and reverts on rejection. May emit logs."
      },
      "liquidateCalculateSeizeTokens(address,address,uint256)": {
        "notice": "Calculate number of tokens of collateral asset to seize given an underlying amount"
      },
      "mintAllowed(address,address,uint256)": {
        "notice": "Checks if the account should be allowed to mint tokens in the given market"
      },
      "mintVerify(address,address,uint256,uint256)": {
        "notice": "Validates mint and reverts on rejection. May emit logs."
      },
      "mintWithinLimits(address,uint256,uint256,uint256)": {
        "notice": "Checks if the account should be allowed to borrow the underlying asset of the given market"
      },
      "redeemAllowed(address,address,uint256)": {
        "notice": "Checks if the account should be allowed to redeem tokens in the given market"
      },
      "redeemVerify(address,address,uint256,uint256)": {
        "notice": "Validates redeem and reverts on rejection. May emit logs."
      },
      "repayBorrowAllowed(address,address,address,uint256)": {
        "notice": "Checks if the account should be allowed to repay a borrow in the given market"
      },
      "repayBorrowVerify(address,address,address,uint256,uint256)": {
        "notice": "Validates repayBorrow and reverts on rejection. May emit logs."
      },
      "seizeAllowed(address,address,address,address,uint256)": {
        "notice": "Checks if the seizing of assets should be allowed to occur"
      },
      "seizeVerify(address,address,address,address,uint256)": {
        "notice": "Validates seize and reverts on rejection. May emit logs."
      },
      "transferAllowed(address,address,address,uint256)": {
        "notice": "Checks if the account should be allowed to transfer tokens in the given market"
      },
      "transferVerify(address,address,address,uint256)": {
        "notice": "Validates transfer and reverts on rejection. May emit logs."
      }
    }
  },
  "storageLayout": {
    "storage": [
      {
        "astId": 13228,
        "contract": "contracts/rari-fuse/src/core/Comptroller.sol:Comptroller",
        "label": "fuseAdmin",
        "offset": 0,
        "slot": "0",
        "type": "t_contract(IFuseFeeDistributor)15573"
      },
      {
        "astId": 13230,
        "contract": "contracts/rari-fuse/src/core/Comptroller.sol:Comptroller",
        "label": "admin",
        "offset": 0,
        "slot": "1",
        "type": "t_address"
      },
      {
        "astId": 13232,
        "contract": "contracts/rari-fuse/src/core/Comptroller.sol:Comptroller",
        "label": "pendingAdmin",
        "offset": 0,
        "slot": "2",
        "type": "t_address"
      },
      {
        "astId": 13235,
        "contract": "contracts/rari-fuse/src/core/Comptroller.sol:Comptroller",
        "label": "fuseAdminHasRights",
        "offset": 20,
        "slot": "2",
        "type": "t_bool"
      },
      {
        "astId": 13238,
        "contract": "contracts/rari-fuse/src/core/Comptroller.sol:Comptroller",
        "label": "adminHasRights",
        "offset": 21,
        "slot": "2",
        "type": "t_bool"
      },
      {
        "astId": 13264,
        "contract": "contracts/rari-fuse/src/core/Comptroller.sol:Comptroller",
        "label": "comptrollerImplementation",
        "offset": 0,
        "slot": "3",
        "type": "t_address"
      },
      {
        "astId": 13266,
        "contract": "contracts/rari-fuse/src/core/Comptroller.sol:Comptroller",
        "label": "pendingComptrollerImplementation",
        "offset": 0,
        "slot": "4",
        "type": "t_address"
      },
      {
        "astId": 13270,
        "contract": "contracts/rari-fuse/src/core/Comptroller.sol:Comptroller",
        "label": "__gap",
        "offset": 0,
        "slot": "5",
        "type": "t_array(t_uint256)10_storage"
      },
      {
        "astId": 13278,
        "contract": "contracts/rari-fuse/src/core/Comptroller.sol:Comptroller",
        "label": "oracle",
        "offset": 0,
        "slot": "15",
        "type": "t_contract(PriceOracle)15977"
      },
      {
        "astId": 13280,
        "contract": "contracts/rari-fuse/src/core/Comptroller.sol:Comptroller",
        "label": "closeFactorMantissa",
        "offset": 0,
        "slot": "16",
        "type": "t_uint256"
      },
      {
        "astId": 13282,
        "contract": "contracts/rari-fuse/src/core/Comptroller.sol:Comptroller",
        "label": "liquidationIncentiveMantissa",
        "offset": 0,
        "slot": "17",
        "type": "t_uint256"
      },
      {
        "astId": 13284,
        "contract": "contracts/rari-fuse/src/core/Comptroller.sol:Comptroller",
        "label": "maxAssets",
        "offset": 0,
        "slot": "18",
        "type": "t_uint256"
      },
      {
        "astId": 13289,
        "contract": "contracts/rari-fuse/src/core/Comptroller.sol:Comptroller",
        "label": "accountAssets",
        "offset": 0,
        "slot": "19",
        "type": "t_mapping(t_address,t_array(t_contract(CToken)6395)dyn_storage)"
      },
      {
        "astId": 13305,
        "contract": "contracts/rari-fuse/src/core/Comptroller.sol:Comptroller",
        "label": "markets",
        "offset": 0,
        "slot": "20",
        "type": "t_mapping(t_address,t_struct(Market)13301_storage)"
      },
      {
        "astId": 13308,
        "contract": "contracts/rari-fuse/src/core/Comptroller.sol:Comptroller",
        "label": "allMarkets",
        "offset": 0,
        "slot": "21",
        "type": "t_array(t_contract(CToken)6395)dyn_storage"
      },
      {
        "astId": 13312,
        "contract": "contracts/rari-fuse/src/core/Comptroller.sol:Comptroller",
        "label": "borrowers",
        "offset": 0,
        "slot": "22",
        "type": "t_mapping(t_address,t_bool)"
      },
      {
        "astId": 13315,
        "contract": "contracts/rari-fuse/src/core/Comptroller.sol:Comptroller",
        "label": "allBorrowers",
        "offset": 0,
        "slot": "23",
        "type": "t_array(t_address)dyn_storage"
      },
      {
        "astId": 13319,
        "contract": "contracts/rari-fuse/src/core/Comptroller.sol:Comptroller",
        "label": "borrowerIndexes",
        "offset": 0,
        "slot": "24",
        "type": "t_mapping(t_address,t_uint256)"
      },
      {
        "astId": 13323,
        "contract": "contracts/rari-fuse/src/core/Comptroller.sol:Comptroller",
        "label": "suppliers",
        "offset": 0,
        "slot": "25",
        "type": "t_mapping(t_address,t_bool)"
      },
      {
        "astId": 13327,
        "contract": "contracts/rari-fuse/src/core/Comptroller.sol:Comptroller",
        "label": "cTokensByUnderlying",
        "offset": 0,
        "slot": "26",
        "type": "t_mapping(t_address,t_contract(CToken)6395)"
      },
      {
        "astId": 13329,
        "contract": "contracts/rari-fuse/src/core/Comptroller.sol:Comptroller",
        "label": "enforceWhitelist",
        "offset": 0,
        "slot": "27",
        "type": "t_bool"
      },
      {
        "astId": 13333,
        "contract": "contracts/rari-fuse/src/core/Comptroller.sol:Comptroller",
        "label": "whitelist",
        "offset": 0,
        "slot": "28",
        "type": "t_mapping(t_address,t_bool)"
      },
      {
        "astId": 13336,
        "contract": "contracts/rari-fuse/src/core/Comptroller.sol:Comptroller",
        "label": "whitelistArray",
        "offset": 0,
        "slot": "29",
        "type": "t_array(t_address)dyn_storage"
      },
      {
        "astId": 13340,
        "contract": "contracts/rari-fuse/src/core/Comptroller.sol:Comptroller",
        "label": "whitelistIndexes",
        "offset": 0,
        "slot": "30",
        "type": "t_mapping(t_address,t_uint256)"
      },
      {
        "astId": 13342,
        "contract": "contracts/rari-fuse/src/core/Comptroller.sol:Comptroller",
        "label": "pauseGuardian",
        "offset": 0,
        "slot": "31",
        "type": "t_address"
      },
      {
        "astId": 13344,
        "contract": "contracts/rari-fuse/src/core/Comptroller.sol:Comptroller",
        "label": "_mintGuardianPaused",
        "offset": 20,
        "slot": "31",
        "type": "t_bool"
      },
      {
        "astId": 13346,
        "contract": "contracts/rari-fuse/src/core/Comptroller.sol:Comptroller",
        "label": "_borrowGuardianPaused",
        "offset": 21,
        "slot": "31",
        "type": "t_bool"
      },
      {
        "astId": 13348,
        "contract": "contracts/rari-fuse/src/core/Comptroller.sol:Comptroller",
        "label": "transferGuardianPaused",
        "offset": 22,
        "slot": "31",
        "type": "t_bool"
      },
      {
        "astId": 13350,
        "contract": "contracts/rari-fuse/src/core/Comptroller.sol:Comptroller",
        "label": "seizeGuardianPaused",
        "offset": 23,
        "slot": "31",
        "type": "t_bool"
      },
      {
        "astId": 13354,
        "contract": "contracts/rari-fuse/src/core/Comptroller.sol:Comptroller",
        "label": "mintGuardianPaused",
        "offset": 0,
        "slot": "32",
        "type": "t_mapping(t_address,t_bool)"
      },
      {
        "astId": 13358,
        "contract": "contracts/rari-fuse/src/core/Comptroller.sol:Comptroller",
        "label": "borrowGuardianPaused",
        "offset": 0,
        "slot": "33",
        "type": "t_mapping(t_address,t_bool)"
      },
      {
        "astId": 13363,
        "contract": "contracts/rari-fuse/src/core/Comptroller.sol:Comptroller",
        "label": "autoImplementation",
        "offset": 0,
        "slot": "34",
        "type": "t_bool"
      },
      {
        "astId": 13365,
        "contract": "contracts/rari-fuse/src/core/Comptroller.sol:Comptroller",
        "label": "borrowCapGuardian",
        "offset": 1,
        "slot": "34",
        "type": "t_address"
      },
      {
        "astId": 13369,
        "contract": "contracts/rari-fuse/src/core/Comptroller.sol:Comptroller",
        "label": "borrowCaps",
        "offset": 0,
        "slot": "35",
        "type": "t_mapping(t_address,t_uint256)"
      },
      {
        "astId": 13373,
        "contract": "contracts/rari-fuse/src/core/Comptroller.sol:Comptroller",
        "label": "supplyCaps",
        "offset": 0,
        "slot": "36",
        "type": "t_mapping(t_address,t_uint256)"
      },
      {
        "astId": 13376,
        "contract": "contracts/rari-fuse/src/core/Comptroller.sol:Comptroller",
        "label": "rewardsDistributors",
        "offset": 0,
        "slot": "37",
        "type": "t_array(t_address)dyn_storage"
      },
      {
        "astId": 13378,
        "contract": "contracts/rari-fuse/src/core/Comptroller.sol:Comptroller",
        "label": "_notEntered",
        "offset": 0,
        "slot": "38",
        "type": "t_bool"
      },
      {
        "astId": 13380,
        "contract": "contracts/rari-fuse/src/core/Comptroller.sol:Comptroller",
        "label": "_notEnteredInitialized",
        "offset": 1,
        "slot": "38",
        "type": "t_bool"
      },
      {
        "astId": 13385,
        "contract": "contracts/rari-fuse/src/core/Comptroller.sol:Comptroller",
        "label": "_globalPauseBorrowOverride",
        "offset": 2,
        "slot": "38",
        "type": "t_bool"
      }
    ],
    "types": {
      "t_address": {
        "encoding": "inplace",
        "label": "address",
        "numberOfBytes": "20"
      },
      "t_array(t_address)dyn_storage": {
        "base": "t_address",
        "encoding": "dynamic_array",
        "label": "address[]",
        "numberOfBytes": "32"
      },
      "t_array(t_contract(CToken)6395)dyn_storage": {
        "base": "t_contract(CToken)6395",
        "encoding": "dynamic_array",
        "label": "contract CToken[]",
        "numberOfBytes": "32"
      },
      "t_array(t_uint256)10_storage": {
        "base": "t_uint256",
        "encoding": "inplace",
        "label": "uint256[10]",
        "numberOfBytes": "320"
      },
      "t_bool": {
        "encoding": "inplace",
        "label": "bool",
        "numberOfBytes": "1"
      },
      "t_contract(CToken)6395": {
        "encoding": "inplace",
        "label": "contract CToken",
        "numberOfBytes": "20"
      },
      "t_contract(IFuseFeeDistributor)15573": {
        "encoding": "inplace",
        "label": "contract IFuseFeeDistributor",
        "numberOfBytes": "20"
      },
      "t_contract(PriceOracle)15977": {
        "encoding": "inplace",
        "label": "contract PriceOracle",
        "numberOfBytes": "20"
      },
      "t_mapping(t_address,t_array(t_contract(CToken)6395)dyn_storage)": {
        "encoding": "mapping",
        "key": "t_address",
        "label": "mapping(address => contract CToken[])",
        "numberOfBytes": "32",
        "value": "t_array(t_contract(CToken)6395)dyn_storage"
      },
      "t_mapping(t_address,t_bool)": {
        "encoding": "mapping",
        "key": "t_address",
        "label": "mapping(address => bool)",
        "numberOfBytes": "32",
        "value": "t_bool"
      },
      "t_mapping(t_address,t_contract(CToken)6395)": {
        "encoding": "mapping",
        "key": "t_address",
        "label": "mapping(address => contract CToken)",
        "numberOfBytes": "32",
        "value": "t_contract(CToken)6395"
      },
      "t_mapping(t_address,t_struct(Market)13301_storage)": {
        "encoding": "mapping",
        "key": "t_address",
        "label": "mapping(address => struct ComptrollerV2Storage.Market)",
        "numberOfBytes": "32",
        "value": "t_struct(Market)13301_storage"
      },
      "t_mapping(t_address,t_uint256)": {
        "encoding": "mapping",
        "key": "t_address",
        "label": "mapping(address => uint256)",
        "numberOfBytes": "32",
        "value": "t_uint256"
      },
      "t_struct(Market)13301_storage": {
        "encoding": "inplace",
        "label": "struct ComptrollerV2Storage.Market",
        "members": [
          {
            "astId": 13294,
            "contract": "contracts/rari-fuse/src/core/Comptroller.sol:Comptroller",
            "label": "isListed",
            "offset": 0,
            "slot": "0",
            "type": "t_bool"
          },
          {
            "astId": 13296,
            "contract": "contracts/rari-fuse/src/core/Comptroller.sol:Comptroller",
            "label": "collateralFactorMantissa",
            "offset": 0,
            "slot": "1",
            "type": "t_uint256"
          },
          {
            "astId": 13300,
            "contract": "contracts/rari-fuse/src/core/Comptroller.sol:Comptroller",
            "label": "accountMembership",
            "offset": 0,
            "slot": "2",
            "type": "t_mapping(t_address,t_bool)"
          }
        ],
        "numberOfBytes": "96"
      },
      "t_uint256": {
        "encoding": "inplace",
        "label": "uint256",
        "numberOfBytes": "32"
      }
    }
  }
}