{
  "address": "0xd41aD5CC4496f3Aae5bB4dD0FCf23874f1b45466",
  "abi": [
    {
      "inputs": [
        {
          "internalType": "contract IWETH9",
          "name": "weth",
          "type": "address"
        }
      ],
      "stateMutability": "nonpayable",
      "type": "constructor"
    },
    {
      "inputs": [],
      "name": "MaxAmountError",
      "type": "error"
    },
    {
      "inputs": [],
      "name": "MaxSharesError",
      "type": "error"
    },
    {
      "inputs": [],
      "name": "MinAmountError",
      "type": "error"
    },
    {
      "inputs": [],
      "name": "MinSharesError",
      "type": "error"
    },
    {
      "inputs": [],
      "name": "WETH9",
      "outputs": [
        {
          "internalType": "contract IWETH9",
          "name": "",
          "type": "address"
        }
      ],
      "stateMutability": "view",
      "type": "function"
    },
    {
      "inputs": [
        {
          "internalType": "contract ERC20",
          "name": "token",
          "type": "address"
        },
        {
          "internalType": "address",
          "name": "to",
          "type": "address"
        },
        {
          "internalType": "uint256",
          "name": "amount",
          "type": "uint256"
        }
      ],
      "name": "approve",
      "outputs": [],
      "stateMutability": "payable",
      "type": "function"
    },
    {
      "inputs": [
        {
          "internalType": "contract IERC4626",
          "name": "vault",
          "type": "address"
        },
        {
          "internalType": "address",
          "name": "to",
          "type": "address"
        },
        {
          "internalType": "uint256",
          "name": "amount",
          "type": "uint256"
        },
        {
          "internalType": "uint256",
          "name": "minSharesOut",
          "type": "uint256"
        }
      ],
      "name": "deposit",
      "outputs": [
        {
          "internalType": "uint256",
          "name": "sharesOut",
          "type": "uint256"
        }
      ],
      "stateMutability": "payable",
      "type": "function"
    },
    {
      "inputs": [
        {
          "internalType": "contract IERC4626",
          "name": "vault",
          "type": "address"
        },
        {
          "internalType": "address",
          "name": "to",
          "type": "address"
        },
        {
          "internalType": "uint256",
          "name": "minSharesOut",
          "type": "uint256"
        }
      ],
      "name": "depositMax",
      "outputs": [
        {
          "internalType": "uint256",
          "name": "sharesOut",
          "type": "uint256"
        }
      ],
      "stateMutability": "payable",
      "type": "function"
    },
    {
      "inputs": [
        {
          "internalType": "contract IERC4626",
          "name": "vault",
          "type": "address"
        },
        {
          "internalType": "address",
          "name": "to",
          "type": "address"
        },
        {
          "internalType": "uint256",
          "name": "amount",
          "type": "uint256"
        },
        {
          "internalType": "uint256",
          "name": "minSharesOut",
          "type": "uint256"
        }
      ],
      "name": "depositToVault",
      "outputs": [
        {
          "internalType": "uint256",
          "name": "sharesOut",
          "type": "uint256"
        }
      ],
      "stateMutability": "payable",
      "type": "function"
    },
    {
      "inputs": [
        {
          "internalType": "contract IERC4626",
          "name": "vault",
          "type": "address"
        },
        {
          "internalType": "address",
          "name": "to",
          "type": "address"
        },
        {
          "internalType": "uint256",
          "name": "shares",
          "type": "uint256"
        },
        {
          "internalType": "uint256",
          "name": "maxAmountIn",
          "type": "uint256"
        }
      ],
      "name": "mint",
      "outputs": [
        {
          "internalType": "uint256",
          "name": "amountIn",
          "type": "uint256"
        }
      ],
      "stateMutability": "payable",
      "type": "function"
    },
    {
      "inputs": [
        {
          "internalType": "bytes[]",
          "name": "data",
          "type": "bytes[]"
        }
      ],
      "name": "multicall",
      "outputs": [
        {
          "internalType": "bytes[]",
          "name": "results",
          "type": "bytes[]"
        }
      ],
      "stateMutability": "payable",
      "type": "function"
    },
    {
      "inputs": [
        {
          "internalType": "contract ERC20",
          "name": "token",
          "type": "address"
        },
        {
          "internalType": "uint256",
          "name": "amount",
          "type": "uint256"
        },
        {
          "internalType": "address",
          "name": "recipient",
          "type": "address"
        }
      ],
      "name": "pullToken",
      "outputs": [],
      "stateMutability": "payable",
      "type": "function"
    },
    {
      "inputs": [
        {
          "internalType": "contract IERC4626",
          "name": "vault",
          "type": "address"
        },
        {
          "internalType": "address",
          "name": "to",
          "type": "address"
        },
        {
          "internalType": "uint256",
          "name": "shares",
          "type": "uint256"
        },
        {
          "internalType": "uint256",
          "name": "minAmountOut",
          "type": "uint256"
        }
      ],
      "name": "redeem",
      "outputs": [
        {
          "internalType": "uint256",
          "name": "amountOut",
          "type": "uint256"
        }
      ],
      "stateMutability": "payable",
      "type": "function"
    },
    {
      "inputs": [
        {
          "internalType": "contract IERC4626",
          "name": "vault",
          "type": "address"
        },
        {
          "internalType": "address",
          "name": "to",
          "type": "address"
        },
        {
          "internalType": "uint256",
          "name": "minAmountOut",
          "type": "uint256"
        }
      ],
      "name": "redeemMax",
      "outputs": [
        {
          "internalType": "uint256",
          "name": "amountOut",
          "type": "uint256"
        }
      ],
      "stateMutability": "payable",
      "type": "function"
    },
    {
      "inputs": [
        {
          "internalType": "contract IERC4626",
          "name": "fromVault",
          "type": "address"
        },
        {
          "internalType": "contract IERC4626",
          "name": "toVault",
          "type": "address"
        },
        {
          "internalType": "address",
          "name": "to",
          "type": "address"
        },
        {
          "internalType": "uint256",
          "name": "shares",
          "type": "uint256"
        },
        {
          "internalType": "uint256",
          "name": "minSharesOut",
          "type": "uint256"
        }
      ],
      "name": "redeemToDeposit",
      "outputs": [
        {
          "internalType": "uint256",
          "name": "sharesOut",
          "type": "uint256"
        }
      ],
      "stateMutability": "payable",
      "type": "function"
    },
    {
      "inputs": [],
      "name": "refundETH",
      "outputs": [],
      "stateMutability": "payable",
      "type": "function"
    },
    {
      "inputs": [
        {
          "internalType": "address",
          "name": "token",
          "type": "address"
        },
        {
          "internalType": "uint256",
          "name": "value",
          "type": "uint256"
        },
        {
          "internalType": "uint256",
          "name": "deadline",
          "type": "uint256"
        },
        {
          "internalType": "uint8",
          "name": "v",
          "type": "uint8"
        },
        {
          "internalType": "bytes32",
          "name": "r",
          "type": "bytes32"
        },
        {
          "internalType": "bytes32",
          "name": "s",
          "type": "bytes32"
        }
      ],
      "name": "selfPermit",
      "outputs": [],
      "stateMutability": "payable",
      "type": "function"
    },
    {
      "inputs": [
        {
          "internalType": "address",
          "name": "token",
          "type": "address"
        },
        {
          "internalType": "uint256",
          "name": "nonce",
          "type": "uint256"
        },
        {
          "internalType": "uint256",
          "name": "expiry",
          "type": "uint256"
        },
        {
          "internalType": "uint8",
          "name": "v",
          "type": "uint8"
        },
        {
          "internalType": "bytes32",
          "name": "r",
          "type": "bytes32"
        },
        {
          "internalType": "bytes32",
          "name": "s",
          "type": "bytes32"
        }
      ],
      "name": "selfPermitAllowed",
      "outputs": [],
      "stateMutability": "payable",
      "type": "function"
    },
    {
      "inputs": [
        {
          "internalType": "address",
          "name": "token",
          "type": "address"
        },
        {
          "internalType": "uint256",
          "name": "nonce",
          "type": "uint256"
        },
        {
          "internalType": "uint256",
          "name": "expiry",
          "type": "uint256"
        },
        {
          "internalType": "uint8",
          "name": "v",
          "type": "uint8"
        },
        {
          "internalType": "bytes32",
          "name": "r",
          "type": "bytes32"
        },
        {
          "internalType": "bytes32",
          "name": "s",
          "type": "bytes32"
        }
      ],
      "name": "selfPermitAllowedIfNecessary",
      "outputs": [],
      "stateMutability": "payable",
      "type": "function"
    },
    {
      "inputs": [
        {
          "internalType": "address",
          "name": "token",
          "type": "address"
        },
        {
          "internalType": "uint256",
          "name": "value",
          "type": "uint256"
        },
        {
          "internalType": "uint256",
          "name": "deadline",
          "type": "uint256"
        },
        {
          "internalType": "uint8",
          "name": "v",
          "type": "uint8"
        },
        {
          "internalType": "bytes32",
          "name": "r",
          "type": "bytes32"
        },
        {
          "internalType": "bytes32",
          "name": "s",
          "type": "bytes32"
        }
      ],
      "name": "selfPermitIfNecessary",
      "outputs": [],
      "stateMutability": "payable",
      "type": "function"
    },
    {
      "inputs": [
        {
          "internalType": "contract ERC20",
          "name": "token",
          "type": "address"
        },
        {
          "internalType": "uint256",
          "name": "amountMinimum",
          "type": "uint256"
        },
        {
          "internalType": "address",
          "name": "recipient",
          "type": "address"
        }
      ],
      "name": "sweepToken",
      "outputs": [],
      "stateMutability": "payable",
      "type": "function"
    },
    {
      "inputs": [
        {
          "internalType": "uint256",
          "name": "amountMinimum",
          "type": "uint256"
        },
        {
          "internalType": "address",
          "name": "recipient",
          "type": "address"
        }
      ],
      "name": "unwrapWETH9",
      "outputs": [],
      "stateMutability": "payable",
      "type": "function"
    },
    {
      "inputs": [
        {
          "internalType": "contract IERC4626",
          "name": "vault",
          "type": "address"
        },
        {
          "internalType": "address",
          "name": "to",
          "type": "address"
        },
        {
          "internalType": "uint256",
          "name": "amount",
          "type": "uint256"
        },
        {
          "internalType": "uint256",
          "name": "maxSharesOut",
          "type": "uint256"
        }
      ],
      "name": "withdraw",
      "outputs": [
        {
          "internalType": "uint256",
          "name": "sharesOut",
          "type": "uint256"
        }
      ],
      "stateMutability": "payable",
      "type": "function"
    },
    {
      "inputs": [
        {
          "internalType": "contract IERC4626",
          "name": "fromVault",
          "type": "address"
        },
        {
          "internalType": "contract IERC4626",
          "name": "toVault",
          "type": "address"
        },
        {
          "internalType": "address",
          "name": "to",
          "type": "address"
        },
        {
          "internalType": "uint256",
          "name": "amount",
          "type": "uint256"
        },
        {
          "internalType": "uint256",
          "name": "maxSharesIn",
          "type": "uint256"
        },
        {
          "internalType": "uint256",
          "name": "minSharesOut",
          "type": "uint256"
        }
      ],
      "name": "withdrawToDeposit",
      "outputs": [
        {
          "internalType": "uint256",
          "name": "sharesOut",
          "type": "uint256"
        }
      ],
      "stateMutability": "payable",
      "type": "function"
    },
    {
      "inputs": [],
      "name": "wrapWETH9",
      "outputs": [],
      "stateMutability": "payable",
      "type": "function"
    },
    {
      "stateMutability": "payable",
      "type": "receive"
    }
  ],
  "transactionHash": "0xd4956592656af9bdf2257176624aafcc19044ffdca551463fdb9ad0aeb8e2015",
  "args": [
    "0xe91D153E0b41518A2Ce8Dd3D7944Fa863463a97d"
  ],
  "numDeployments": 2,
  "solcInputHash": "aab95249642dbbe02413ca9c896957a1",
  "bytecode": "0x60a060405234801561001057600080fd5b506040516116b73803806116b783398101604081905261002f91610040565b6001600160a01b0316608052610070565b60006020828403121561005257600080fd5b81516001600160a01b038116811461006957600080fd5b9392505050565b6080516116176100a0600039600081816101aa015281816103ca015281816104eb01526105c601526116176000f3fe60806040526004361061012e5760003560e01c8063a246bd30116100ab578063c2e3140a1161006f578063c2e3140a1461029c578063df2ab5bb146102af578063e1f21c67146102c2578063ed01c6e5146102d5578063f3995c67146102e8578063f943028c146102fb57600080fd5b8063a246bd3014610230578063a4a78f0c14610243578063ac9650d814610256578063b3f1c93d14610276578063b592e4061461028957600080fd5b80634aa4a4fc116100f25780634aa4a4fc146101985780634be47418146101e457806373d15414146101f75780637bfe950c1461020a57806390f328c91461021d57600080fd5b806312210e8a1461013a57806320e8c565146101445780633f50fd1f1461016a5780634659a4941461017257806349404b7c1461018557600080fd5b3661013557005b600080fd5b61014261030e565b005b6101576101523660046110f2565b610320565b6040519081526020015b60405180910390f35b6101426103c2565b610142610180366004611138565b61043e565b61014261019336600461119a565b6104d3565b3480156101a457600080fd5b506101cc7f000000000000000000000000000000000000000000000000000000000000000081565b6040516001600160a01b039091168152602001610161565b6101576101f23660046110f2565b610643565b6101426102053660046111ca565b6106e3565b6101576102183660046110f2565b6106f8565b61015761022b36600461120c565b610798565b61015761023e366004611267565b6107c1565b610142610251366004611138565b6108bd565b6102696102643660046112a8565b61094b565b6040516101619190611375565b6101576102843660046110f2565b610aa3565b6101576102973660046113d7565b610b3d565b6101426102aa366004611138565b610b58565b6101426102bd3660046111ca565b610bdc565b6101426102d0366004611267565b610cae565b6101576102e3366004611267565b610cc2565b6101426102f6366004611138565b610e3d565b6101576103093660046110f2565b610e94565b471561031e5761031e3347610f17565b565b604051636e553f6560e01b8152600481018390526001600160a01b0384811660248301526000918391871690636e553f65906044016020604051808303816000875af1158015610374573d6000803e3d6000fd5b505050506040513d601f19601f82011682018060405250810190610398919061143c565b91508110156103ba576040516305133e6360e51b815260040160405180910390fd5b949350505050565b471561031e577f00000000000000000000000000000000000000000000000000000000000000006001600160a01b031663d0e30db0476040518263ffffffff1660e01b81526004016000604051808303818588803b15801561042357600080fd5b505af1158015610437573d6000803e3d6000fd5b5050505050565b6040516323f2ebc360e21b815233600482015230602482015260448101869052606481018590526001608482015260ff841660a482015260c4810183905260e481018290526001600160a01b03871690638fcbaf0c90610104015b600060405180830381600087803b1580156104b357600080fd5b505af11580156104c7573d6000803e3d6000fd5b50505050505050505050565b6040516370a0823160e01b81523060048201526000907f00000000000000000000000000000000000000000000000000000000000000006001600160a01b0316906370a0823190602401602060405180830381865afa15801561053a573d6000803e3d6000fd5b505050506040513d601f19601f8201168201806040525081019061055e919061143c565b9050828110156105aa5760405162461bcd60e51b8152602060048201526012602482015271496e73756666696369656e7420574554483960701b60448201526064015b60405180910390fd5b801561063e57604051632e1a7d4d60e01b8152600481018290527f00000000000000000000000000000000000000000000000000000000000000006001600160a01b031690632e1a7d4d90602401600060405180830381600087803b15801561061257600080fd5b505af1158015610626573d6000803e3d6000fd5b5061063e925050506001600160a01b03831682610f17565b505050565b604051635d043b2960e11b8152600481018390526001600160a01b038481166024830152336044830152600091839187169063ba087652906064016020604051808303816000875af115801561069d573d6000803e3d6000fd5b505050506040513d601f19601f820116820180604052508101906106c1919061143c565b91508110156103ba57604051636e8c873b60e01b815260040160405180910390fd5b61063e6001600160a01b038416338385610f68565b604051632d182be560e21b8152600481018390526001600160a01b038481166024830152336044830152600091839187169063b460af94906064016020604051808303816000875af1158015610752573d6000803e3d6000fd5b505050506040513d601f19601f82011682018060405250810190610776919061143c565b91508111156103ba5760405163ac11961360e01b815260040160405180910390fd5b6000806107a88730866000610643565b90506107b686868386610320565b979650505050505050565b6040516370a0823160e01b815233600482015260009081906001600160a01b038616906370a0823190602401602060405180830381865afa15801561080a573d6000803e3d6000fd5b505050506040513d601f19601f8201168201806040525081019061082e919061143c565b604051636c82bbbf60e11b81523360048201529091506000906001600160a01b0387169063d905777e90602401602060405180830381865afa158015610878573d6000803e3d6000fd5b505050506040513d601f19601f8201168201806040525081019061089c919061143c565b905060008282106108ad57826108af565b815b90506107b687878388610643565b604051636eb1769f60e11b8152336004820152306024820152600019906001600160a01b0388169063dd62ed3e90604401602060405180830381865afa15801561090b573d6000803e3d6000fd5b505050506040513d601f19601f8201168201806040525081019061092f919061143c565b10156109435761094386868686868661043e565b505050505050565b60608167ffffffffffffffff81111561096657610966611455565b60405190808252806020026020018201604052801561099957816020015b60608152602001906001900390816109845790505b50905060005b82811015610a9c57600080308686858181106109bd576109bd61146b565b90506020028101906109cf9190611481565b6040516109dd9291906114cf565b600060405180830381855af49150503d8060008114610a18576040519150601f19603f3d011682016040523d82523d6000602084013e610a1d565b606091505b509150915081610a6957604481511015610a3657600080fd5b60048101905080806020019051810190610a5091906114df565b60405162461bcd60e51b81526004016105a19190611581565b80848481518110610a7c57610a7c61146b565b602002602001018190525050508080610a949061159b565b91505061099f565b5092915050565b6040516394bf804d60e01b8152600481018390526001600160a01b03848116602483015260009183918716906394bf804d906044016020604051808303816000875af1158015610af7573d6000803e3d6000fd5b505050506040513d601f19601f82011682018060405250810190610b1b919061143c565b91508111156103ba57604051634e3c485360e01b815260040160405180910390fd5b6000610b4b873086866106f8565b506107b686868685610320565b604051636eb1769f60e11b815233600482015230602482015285906001600160a01b0388169063dd62ed3e90604401602060405180830381865afa158015610ba4573d6000803e3d6000fd5b505050506040513d601f19601f82011682018060405250810190610bc8919061143c565b101561094357610943868686868686610e3d565b6040516370a0823160e01b81523060048201526000906001600160a01b038516906370a0823190602401602060405180830381865afa158015610c23573d6000803e3d6000fd5b505050506040513d601f19601f82011682018060405250810190610c47919061143c565b905082811015610c8e5760405162461bcd60e51b815260206004820152601260248201527124b739bab33334b1b4b2b73a103a37b5b2b760711b60448201526064016105a1565b8015610ca857610ca86001600160a01b0385168383610feb565b50505050565b61063e6001600160a01b0384168383611063565b600080846001600160a01b03166338d52e0f6040518163ffffffff1660e01b8152600401602060405180830381865afa158015610d03573d6000803e3d6000fd5b505050506040513d601f19601f82011682018060405250810190610d2791906115c4565b6040516370a0823160e01b81523360048201529091506000906001600160a01b038316906370a0823190602401602060405180830381865afa158015610d71573d6000803e3d6000fd5b505050506040513d601f19601f82011682018060405250810190610d95919061143c565b60405163402d267d60e01b81526001600160a01b03878116600483015291925060009188169063402d267d90602401602060405180830381865afa158015610de1573d6000803e3d6000fd5b505050506040513d601f19601f82011682018060405250810190610e05919061143c565b90506000828210610e165782610e18565b815b9050610e258482306106e3565b610e3188888389610320565b98975050505050505050565b60405163d505accf60e01b8152336004820152306024820152604481018690526064810185905260ff8416608482015260a4810183905260c481018290526001600160a01b0387169063d505accf9060e401610499565b6000610f02856001600160a01b03166338d52e0f6040518163ffffffff1660e01b8152600401602060405180830381865afa158015610ed7573d6000803e3d6000fd5b505050506040513d601f19601f82011682018060405250810190610efb91906115c4565b84306106e3565b610f0e85858585610320565b95945050505050565b600080600080600085875af190508061063e5760405162461bcd60e51b815260206004820152601360248201527211551217d514905394d1915497d19052531151606a1b60448201526064016105a1565b60006040516323b872dd60e01b81528460048201528360248201528260448201526020600060648360008a5af13d15601f3d11600160005114161716915050806104375760405162461bcd60e51b81526020600482015260146024820152731514905394d1915497d19493d357d1905253115160621b60448201526064016105a1565b600060405163a9059cbb60e01b8152836004820152826024820152602060006044836000895af13d15601f3d1160016000511416171691505080610ca85760405162461bcd60e51b815260206004820152600f60248201526e1514905394d1915497d19052531151608a1b60448201526064016105a1565b600060405163095ea7b360e01b8152836004820152826024820152602060006044836000895af13d15601f3d1160016000511416171691505080610ca85760405162461bcd60e51b815260206004820152600e60248201526d1054141493d59157d1905253115160921b60448201526064016105a1565b6001600160a01b03811681146110ef57600080fd5b50565b6000806000806080858703121561110857600080fd5b8435611113816110da565b93506020850135611123816110da565b93969395505050506040820135916060013590565b60008060008060008060c0878903121561115157600080fd5b863561115c816110da565b95506020870135945060408701359350606087013560ff8116811461118057600080fd5b9598949750929560808101359460a0909101359350915050565b600080604083850312156111ad57600080fd5b8235915060208301356111bf816110da565b809150509250929050565b6000806000606084860312156111df57600080fd5b83356111ea816110da565b9250602084013591506040840135611201816110da565b809150509250925092565b600080600080600060a0868803121561122457600080fd5b853561122f816110da565b9450602086013561123f816110da565b9350604086013561124f816110da565b94979396509394606081013594506080013592915050565b60008060006060848603121561127c57600080fd5b8335611287816110da565b92506020840135611297816110da565b929592945050506040919091013590565b600080602083850312156112bb57600080fd5b823567ffffffffffffffff808211156112d357600080fd5b818501915085601f8301126112e757600080fd5b8135818111156112f657600080fd5b8660208260051b850101111561130b57600080fd5b60209290920196919550909350505050565b60005b83811015611338578181015183820152602001611320565b83811115610ca85750506000910152565b6000815180845261136181602086016020860161131d565b601f01601f19169290920160200192915050565b6000602080830181845280855180835260408601915060408160051b870101925083870160005b828110156113ca57603f198886030184526113b8858351611349565b9450928501929085019060010161139c565b5092979650505050505050565b60008060008060008060c087890312156113f057600080fd5b86356113fb816110da565b9550602087013561140b816110da565b9450604087013561141b816110da565b959894975094956060810135955060808101359460a0909101359350915050565b60006020828403121561144e57600080fd5b5051919050565b634e487b7160e01b600052604160045260246000fd5b634e487b7160e01b600052603260045260246000fd5b6000808335601e1984360301811261149857600080fd5b83018035915067ffffffffffffffff8211156114b357600080fd5b6020019150368190038213156114c857600080fd5b9250929050565b8183823760009101908152919050565b6000602082840312156114f157600080fd5b815167ffffffffffffffff8082111561150957600080fd5b818401915084601f83011261151d57600080fd5b81518181111561152f5761152f611455565b604051601f8201601f19908116603f0116810190838211818310171561155757611557611455565b8160405282815287602084870101111561157057600080fd5b6107b683602083016020880161131d565b6020815260006115946020830184611349565b9392505050565b60006000198214156115bd57634e487b7160e01b600052601160045260246000fd5b5060010190565b6000602082840312156115d657600080fd5b8151611594816110da56fea2646970667358221220f918e380b158188bbd033467e10f83115114d75ca5fd5dc3f5edfd7fb571bd5964736f6c634300080a0033",
  "devdoc": {
    "kind": "dev",
    "methods": {
      "deposit(address,address,uint256,uint256)": {
        "details": "throws MinSharesError   ",
        "params": {
          "amount": "The amount of assets to deposit to `vault`.",
          "minSharesOut": "The min amount of `vault` shares received by `to`.",
          "to": "The destination of ownership shares.",
          "vault": "The ERC4626 vault to deposit assets to."
        },
        "returns": {
          "sharesOut": "the amount of shares received by `to`."
        }
      },
      "depositMax(address,address,uint256)": {
        "details": "throws MinSharesError   ",
        "params": {
          "minSharesOut": "The min amount of `vault` shares received by `to`.",
          "to": "The destination of ownership shares.",
          "vault": "The ERC4626 vault to deposit assets to."
        },
        "returns": {
          "sharesOut": "the amount of shares received by `to`."
        }
      },
      "depositToVault(address,address,uint256,uint256)": {
        "details": "throws MinSharesError   ",
        "params": {
          "amount": "The amount of assets to deposit to `vault`.",
          "minSharesOut": "The min amount of `vault` shares received by `to`.",
          "to": "The destination of ownership shares.",
          "vault": "The ERC4626 vault to deposit assets to."
        },
        "returns": {
          "sharesOut": "the amount of shares received by `to`."
        }
      },
      "mint(address,address,uint256,uint256)": {
        "details": "throws MaxAmountError   ",
        "params": {
          "maxAmountIn": "The max amount of assets used to mint.",
          "shares": "The amount of shares to mint from `vault`.",
          "to": "The destination of ownership shares.",
          "vault": "The ERC4626 vault to mint shares from."
        },
        "returns": {
          "amountIn": "the amount of assets used to mint by `to`."
        }
      },
      "multicall(bytes[])": {
        "details": "The `msg.value` should not be trusted for any method callable from multicall.",
        "params": {
          "data": "The encoded function data for each of the calls to make to this contract"
        },
        "returns": {
          "results": "The results from each of the calls passed in via data"
        }
      },
      "redeem(address,address,uint256,uint256)": {
        "details": "throws MinAmountError   ",
        "params": {
          "minAmountOut": "The min amount of assets received by `to`.",
          "shares": "The amount of shares to redeem from vault.",
          "to": "The destination of assets.",
          "vault": "The ERC4626 vault to redeem shares from."
        },
        "returns": {
          "amountOut": "the amount of assets received by `to`."
        }
      },
      "redeemMax(address,address,uint256)": {
        "details": "throws MinAmountError   ",
        "params": {
          "minAmountOut": "The min amount of assets received by `to`.",
          "to": "The destination of assets.",
          "vault": "The ERC4626 vault to redeem shares from."
        },
        "returns": {
          "amountOut": "the amount of assets received by `to`."
        }
      },
      "redeemToDeposit(address,address,address,uint256,uint256)": {
        "details": "throws MinAmountError, MinSharesError   ",
        "params": {
          "fromVault": "The ERC4626 vault to redeem shares from.",
          "minSharesOut": "The min amount of toVault shares received by `to`.",
          "shares": "The amount of shares to redeem from fromVault.",
          "to": "The destination of ownership shares.",
          "toVault": "The ERC4626 vault to deposit assets to."
        },
        "returns": {
          "sharesOut": "the amount of shares received by `to`."
        }
      },
      "selfPermit(address,uint256,uint256,uint8,bytes32,bytes32)": {
        "details": "The `owner` is always msg.sender and the `spender` is always address(this).",
        "params": {
          "deadline": "A timestamp, the current blocktime must be less than or equal to this timestamp",
          "r": "Must produce valid secp256k1 signature from the holder along with `v` and `s`",
          "s": "Must produce valid secp256k1 signature from the holder along with `r` and `v`",
          "token": "The address of the token spent",
          "v": "Must produce valid secp256k1 signature from the holder along with `r` and `s`",
          "value": "The amount that can be spent of token"
        }
      },
      "selfPermitAllowed(address,uint256,uint256,uint8,bytes32,bytes32)": {
        "details": "The `owner` is always msg.sender and the `spender` is always address(this)",
        "params": {
          "expiry": "The timestamp at which the permit is no longer valid",
          "nonce": "The current nonce of the owner",
          "r": "Must produce valid secp256k1 signature from the holder along with `v` and `s`",
          "s": "Must produce valid secp256k1 signature from the holder along with `r` and `v`",
          "token": "The address of the token spent",
          "v": "Must produce valid secp256k1 signature from the holder along with `r` and `s`"
        }
      },
      "selfPermitAllowedIfNecessary(address,uint256,uint256,uint8,bytes32,bytes32)": {
        "details": "The `owner` is always msg.sender and the `spender` is always address(this) Can be used instead of #selfPermitAllowed to prevent calls from failing due to a frontrun of a call to #selfPermitAllowed.",
        "params": {
          "expiry": "The timestamp at which the permit is no longer valid",
          "nonce": "The current nonce of the owner",
          "r": "Must produce valid secp256k1 signature from the holder along with `v` and `s`",
          "s": "Must produce valid secp256k1 signature from the holder along with `r` and `v`",
          "token": "The address of the token spent",
          "v": "Must produce valid secp256k1 signature from the holder along with `r` and `s`"
        }
      },
      "selfPermitIfNecessary(address,uint256,uint256,uint8,bytes32,bytes32)": {
        "details": "The `owner` is always msg.sender and the `spender` is always address(this). Can be used instead of #selfPermit to prevent calls from failing due to a frontrun of a call to #selfPermit",
        "params": {
          "deadline": "A timestamp, the current blocktime must be less than or equal to this timestamp",
          "r": "Must produce valid secp256k1 signature from the holder along with `v` and `s`",
          "s": "Must produce valid secp256k1 signature from the holder along with `r` and `v`",
          "token": "The address of the token spent",
          "v": "Must produce valid secp256k1 signature from the holder along with `r` and `s`",
          "value": "The amount that can be spent of token"
        }
      },
      "withdraw(address,address,uint256,uint256)": {
        "details": "throws MaxSharesError   ",
        "params": {
          "amount": "The amount of assets to withdraw from vault.",
          "minSharesOut": "The min amount of shares received by `to`.",
          "to": "The destination of assets.",
          "vault": "The ERC4626 vault to withdraw assets from."
        },
        "returns": {
          "sharesOut": "the amount of shares received by `to`."
        }
      },
      "withdrawToDeposit(address,address,address,uint256,uint256,uint256)": {
        "details": "throws MaxSharesError, MinSharesError ",
        "params": {
          "amount": "The amount of assets to withdraw from fromVault.",
          "fromVault": "The ERC4626 vault to withdraw assets from.",
          "maxSharesIn": "The max amount of fromVault shares withdrawn by caller.",
          "minSharesOut": "The min amount of toVault shares received by `to`.",
          "to": "The destination of ownership shares.",
          "toVault": "The ERC4626 vault to deposit assets to."
        },
        "returns": {
          "sharesOut": "the amount of shares received by `to`."
        }
      }
    },
    "title": "ERC4626Router contract",
    "version": 1
  },
  "userdoc": {
    "errors": {
      "MaxAmountError()": [
        {
          "notice": "thrown when amount of assets received is above the max set by caller"
        }
      ],
      "MaxSharesError()": [
        {
          "notice": "thrown when amount of shares received is above the max set by caller"
        }
      ],
      "MinAmountError()": [
        {
          "notice": "thrown when amount of assets received is below the min set by caller"
        }
      ],
      "MinSharesError()": [
        {
          "notice": "thrown when amount of shares received is below the min set by caller"
        }
      ]
    },
    "kind": "user",
    "methods": {
      "deposit(address,address,uint256,uint256)": {
        "notice": "deposit `amount` to an ERC4626 vault."
      },
      "depositMax(address,address,uint256)": {
        "notice": "deposit max assets to an ERC4626 vault."
      },
      "depositToVault(address,address,uint256,uint256)": {
        "notice": "deposit `amount` to an ERC4626 vault."
      },
      "mint(address,address,uint256,uint256)": {
        "notice": "mint `shares` from an ERC4626 vault."
      },
      "multicall(bytes[])": {
        "notice": "Call multiple functions in the current contract and return the data from all of them if they all succeed"
      },
      "redeem(address,address,uint256,uint256)": {
        "notice": "redeem `shares` shares from an ERC4626 vault."
      },
      "redeemMax(address,address,uint256)": {
        "notice": "redeem max shares to an ERC4626 vault."
      },
      "redeemToDeposit(address,address,address,uint256,uint256)": {
        "notice": "redeem `shares` to an ERC4626 vault."
      },
      "selfPermit(address,uint256,uint256,uint8,bytes32,bytes32)": {
        "notice": "Permits this contract to spend a given token from `msg.sender`"
      },
      "selfPermitAllowed(address,uint256,uint256,uint8,bytes32,bytes32)": {
        "notice": "Permits this contract to spend the sender's tokens for permit signatures that have the `allowed` parameter"
      },
      "selfPermitAllowedIfNecessary(address,uint256,uint256,uint8,bytes32,bytes32)": {
        "notice": "Permits this contract to spend the sender's tokens for permit signatures that have the `allowed` parameter"
      },
      "selfPermitIfNecessary(address,uint256,uint256,uint8,bytes32,bytes32)": {
        "notice": "Permits this contract to spend a given token from `msg.sender`"
      },
      "withdraw(address,address,uint256,uint256)": {
        "notice": "withdraw `amount` from an ERC4626 vault."
      },
      "withdrawToDeposit(address,address,address,uint256,uint256,uint256)": {
        "notice": "withdraw `amount` to an ERC4626 vault."
      }
    },
    "version": 1
  },
  "storageLayout": {
    "storage": [],
    "types": null
  }
}