{
  "address": "0xB0aD14503DC3c299d4Cad40FB4A6dECCF8F27266",
  "abi": [
    {
      "inputs": [],
      "name": "directory",
      "outputs": [
        {
          "internalType": "contract FusePoolDirectory",
          "name": "",
          "type": "address"
        }
      ],
      "stateMutability": "view",
      "type": "function"
    },
    {
      "inputs": [
        {
          "internalType": "contract Comptroller",
          "name": "comptroller",
          "type": "address"
        }
      ],
      "name": "getPoolAssetsWithData",
      "outputs": [
        {
          "components": [
            {
              "internalType": "address",
              "name": "cToken",
              "type": "address"
            },
            {
              "internalType": "address",
              "name": "underlyingToken",
              "type": "address"
            },
            {
              "internalType": "string",
              "name": "underlyingName",
              "type": "string"
            },
            {
              "internalType": "string",
              "name": "underlyingSymbol",
              "type": "string"
            },
            {
              "internalType": "uint256",
              "name": "underlyingDecimals",
              "type": "uint256"
            },
            {
              "internalType": "uint256",
              "name": "underlyingBalance",
              "type": "uint256"
            },
            {
              "internalType": "uint256",
              "name": "supplyRatePerBlock",
              "type": "uint256"
            },
            {
              "internalType": "uint256",
              "name": "borrowRatePerBlock",
              "type": "uint256"
            },
            {
              "internalType": "uint256",
              "name": "totalSupply",
              "type": "uint256"
            },
            {
              "internalType": "uint256",
              "name": "totalBorrow",
              "type": "uint256"
            },
            {
              "internalType": "uint256",
              "name": "supplyBalance",
              "type": "uint256"
            },
            {
              "internalType": "uint256",
              "name": "borrowBalance",
              "type": "uint256"
            },
            {
              "internalType": "uint256",
              "name": "liquidity",
              "type": "uint256"
            },
            {
              "internalType": "bool",
              "name": "membership",
              "type": "bool"
            },
            {
              "internalType": "uint256",
              "name": "exchangeRate",
              "type": "uint256"
            },
            {
              "internalType": "uint256",
              "name": "underlyingPrice",
              "type": "uint256"
            },
            {
              "internalType": "address",
              "name": "oracle",
              "type": "address"
            },
            {
              "internalType": "uint256",
              "name": "collateralFactor",
              "type": "uint256"
            },
            {
              "internalType": "uint256",
              "name": "reserveFactor",
              "type": "uint256"
            },
            {
              "internalType": "uint256",
              "name": "adminFee",
              "type": "uint256"
            },
            {
              "internalType": "uint256",
              "name": "fuseFee",
              "type": "uint256"
            },
            {
              "internalType": "bool",
              "name": "borrowGuardianPaused",
              "type": "bool"
            }
          ],
          "internalType": "struct FusePoolLens.FusePoolAsset[]",
          "name": "",
          "type": "tuple[]"
        }
      ],
      "stateMutability": "nonpayable",
      "type": "function"
    },
    {
      "inputs": [
        {
          "internalType": "contract Comptroller",
          "name": "comptroller",
          "type": "address"
        }
      ],
      "name": "getPoolSummary",
      "outputs": [
        {
          "internalType": "uint256",
          "name": "",
          "type": "uint256"
        },
        {
          "internalType": "uint256",
          "name": "",
          "type": "uint256"
        },
        {
          "internalType": "address[]",
          "name": "",
          "type": "address[]"
        },
        {
          "internalType": "string[]",
          "name": "",
          "type": "string[]"
        },
        {
          "internalType": "bool",
          "name": "",
          "type": "bool"
        }
      ],
      "stateMutability": "nonpayable",
      "type": "function"
    },
    {
      "inputs": [
        {
          "internalType": "contract Comptroller",
          "name": "comptroller",
          "type": "address"
        },
        {
          "internalType": "address",
          "name": "account",
          "type": "address"
        }
      ],
      "name": "getPoolUserSummary",
      "outputs": [
        {
          "internalType": "uint256",
          "name": "",
          "type": "uint256"
        },
        {
          "internalType": "uint256",
          "name": "",
          "type": "uint256"
        }
      ],
      "stateMutability": "nonpayable",
      "type": "function"
    },
    {
      "inputs": [
        {
          "internalType": "contract Comptroller[]",
          "name": "comptrollers",
          "type": "address[]"
        },
        {
          "internalType": "uint256",
          "name": "maxHealth",
          "type": "uint256"
        }
      ],
      "name": "getPoolUsersWithData",
      "outputs": [
        {
          "components": [
            {
              "internalType": "address",
              "name": "account",
              "type": "address"
            },
            {
              "internalType": "uint256",
              "name": "totalBorrow",
              "type": "uint256"
            },
            {
              "internalType": "uint256",
              "name": "totalCollateral",
              "type": "uint256"
            },
            {
              "internalType": "uint256",
              "name": "health",
              "type": "uint256"
            },
            {
              "components": [
                {
                  "internalType": "address",
                  "name": "cToken",
                  "type": "address"
                },
                {
                  "internalType": "address",
                  "name": "underlyingToken",
                  "type": "address"
                },
                {
                  "internalType": "string",
                  "name": "underlyingName",
                  "type": "string"
                },
                {
                  "internalType": "string",
                  "name": "underlyingSymbol",
                  "type": "string"
                },
                {
                  "internalType": "uint256",
                  "name": "underlyingDecimals",
                  "type": "uint256"
                },
                {
                  "internalType": "uint256",
                  "name": "underlyingBalance",
                  "type": "uint256"
                },
                {
                  "internalType": "uint256",
                  "name": "supplyRatePerBlock",
                  "type": "uint256"
                },
                {
                  "internalType": "uint256",
                  "name": "borrowRatePerBlock",
                  "type": "uint256"
                },
                {
                  "internalType": "uint256",
                  "name": "totalSupply",
                  "type": "uint256"
                },
                {
                  "internalType": "uint256",
                  "name": "totalBorrow",
                  "type": "uint256"
                },
                {
                  "internalType": "uint256",
                  "name": "supplyBalance",
                  "type": "uint256"
                },
                {
                  "internalType": "uint256",
                  "name": "borrowBalance",
                  "type": "uint256"
                },
                {
                  "internalType": "uint256",
                  "name": "liquidity",
                  "type": "uint256"
                },
                {
                  "internalType": "bool",
                  "name": "membership",
                  "type": "bool"
                },
                {
                  "internalType": "uint256",
                  "name": "exchangeRate",
                  "type": "uint256"
                },
                {
                  "internalType": "uint256",
                  "name": "underlyingPrice",
                  "type": "uint256"
                },
                {
                  "internalType": "address",
                  "name": "oracle",
                  "type": "address"
                },
                {
                  "internalType": "uint256",
                  "name": "collateralFactor",
                  "type": "uint256"
                },
                {
                  "internalType": "uint256",
                  "name": "reserveFactor",
                  "type": "uint256"
                },
                {
                  "internalType": "uint256",
                  "name": "adminFee",
                  "type": "uint256"
                },
                {
                  "internalType": "uint256",
                  "name": "fuseFee",
                  "type": "uint256"
                },
                {
                  "internalType": "bool",
                  "name": "borrowGuardianPaused",
                  "type": "bool"
                }
              ],
              "internalType": "struct FusePoolLens.FusePoolAsset[]",
              "name": "assets",
              "type": "tuple[]"
            }
          ],
          "internalType": "struct FusePoolLens.FusePoolUser[][]",
          "name": "",
          "type": "tuple[][]"
        },
        {
          "internalType": "uint256[]",
          "name": "",
          "type": "uint256[]"
        },
        {
          "internalType": "uint256[]",
          "name": "",
          "type": "uint256[]"
        },
        {
          "internalType": "bool[]",
          "name": "",
          "type": "bool[]"
        }
      ],
      "stateMutability": "nonpayable",
      "type": "function"
    },
    {
      "inputs": [
        {
          "internalType": "contract Comptroller",
          "name": "comptroller",
          "type": "address"
        },
        {
          "internalType": "uint256",
          "name": "maxHealth",
          "type": "uint256"
        }
      ],
      "name": "getPoolUsersWithData",
      "outputs": [
        {
          "components": [
            {
              "internalType": "address",
              "name": "account",
              "type": "address"
            },
            {
              "internalType": "uint256",
              "name": "totalBorrow",
              "type": "uint256"
            },
            {
              "internalType": "uint256",
              "name": "totalCollateral",
              "type": "uint256"
            },
            {
              "internalType": "uint256",
              "name": "health",
              "type": "uint256"
            },
            {
              "components": [
                {
                  "internalType": "address",
                  "name": "cToken",
                  "type": "address"
                },
                {
                  "internalType": "address",
                  "name": "underlyingToken",
                  "type": "address"
                },
                {
                  "internalType": "string",
                  "name": "underlyingName",
                  "type": "string"
                },
                {
                  "internalType": "string",
                  "name": "underlyingSymbol",
                  "type": "string"
                },
                {
                  "internalType": "uint256",
                  "name": "underlyingDecimals",
                  "type": "uint256"
                },
                {
                  "internalType": "uint256",
                  "name": "underlyingBalance",
                  "type": "uint256"
                },
                {
                  "internalType": "uint256",
                  "name": "supplyRatePerBlock",
                  "type": "uint256"
                },
                {
                  "internalType": "uint256",
                  "name": "borrowRatePerBlock",
                  "type": "uint256"
                },
                {
                  "internalType": "uint256",
                  "name": "totalSupply",
                  "type": "uint256"
                },
                {
                  "internalType": "uint256",
                  "name": "totalBorrow",
                  "type": "uint256"
                },
                {
                  "internalType": "uint256",
                  "name": "supplyBalance",
                  "type": "uint256"
                },
                {
                  "internalType": "uint256",
                  "name": "borrowBalance",
                  "type": "uint256"
                },
                {
                  "internalType": "uint256",
                  "name": "liquidity",
                  "type": "uint256"
                },
                {
                  "internalType": "bool",
                  "name": "membership",
                  "type": "bool"
                },
                {
                  "internalType": "uint256",
                  "name": "exchangeRate",
                  "type": "uint256"
                },
                {
                  "internalType": "uint256",
                  "name": "underlyingPrice",
                  "type": "uint256"
                },
                {
                  "internalType": "address",
                  "name": "oracle",
                  "type": "address"
                },
                {
                  "internalType": "uint256",
                  "name": "collateralFactor",
                  "type": "uint256"
                },
                {
                  "internalType": "uint256",
                  "name": "reserveFactor",
                  "type": "uint256"
                },
                {
                  "internalType": "uint256",
                  "name": "adminFee",
                  "type": "uint256"
                },
                {
                  "internalType": "uint256",
                  "name": "fuseFee",
                  "type": "uint256"
                },
                {
                  "internalType": "bool",
                  "name": "borrowGuardianPaused",
                  "type": "bool"
                }
              ],
              "internalType": "struct FusePoolLens.FusePoolAsset[]",
              "name": "assets",
              "type": "tuple[]"
            }
          ],
          "internalType": "struct FusePoolLens.FusePoolUser[]",
          "name": "",
          "type": "tuple[]"
        },
        {
          "internalType": "uint256",
          "name": "",
          "type": "uint256"
        },
        {
          "internalType": "uint256",
          "name": "",
          "type": "uint256"
        }
      ],
      "stateMutability": "nonpayable",
      "type": "function"
    },
    {
      "inputs": [
        {
          "internalType": "address",
          "name": "account",
          "type": "address"
        }
      ],
      "name": "getPoolsByAccountWithData",
      "outputs": [
        {
          "internalType": "uint256[]",
          "name": "",
          "type": "uint256[]"
        },
        {
          "components": [
            {
              "internalType": "string",
              "name": "name",
              "type": "string"
            },
            {
              "internalType": "address",
              "name": "creator",
              "type": "address"
            },
            {
              "internalType": "address",
              "name": "comptroller",
              "type": "address"
            },
            {
              "internalType": "uint256",
              "name": "blockPosted",
              "type": "uint256"
            },
            {
              "internalType": "uint256",
              "name": "timestampPosted",
              "type": "uint256"
            }
          ],
          "internalType": "struct FusePoolDirectory.FusePool[]",
          "name": "",
          "type": "tuple[]"
        },
        {
          "components": [
            {
              "internalType": "uint256",
              "name": "totalSupply",
              "type": "uint256"
            },
            {
              "internalType": "uint256",
              "name": "totalBorrow",
              "type": "uint256"
            },
            {
              "internalType": "address[]",
              "name": "underlyingTokens",
              "type": "address[]"
            },
            {
              "internalType": "string[]",
              "name": "underlyingSymbols",
              "type": "string[]"
            },
            {
              "internalType": "bool",
              "name": "whitelistedAdmin",
              "type": "bool"
            }
          ],
          "internalType": "struct FusePoolLens.FusePoolData[]",
          "name": "",
          "type": "tuple[]"
        },
        {
          "internalType": "bool[]",
          "name": "",
          "type": "bool[]"
        }
      ],
      "stateMutability": "nonpayable",
      "type": "function"
    },
    {
      "inputs": [
        {
          "internalType": "address",
          "name": "account",
          "type": "address"
        }
      ],
      "name": "getPoolsBySupplier",
      "outputs": [
        {
          "internalType": "uint256[]",
          "name": "",
          "type": "uint256[]"
        },
        {
          "components": [
            {
              "internalType": "string",
              "name": "name",
              "type": "string"
            },
            {
              "internalType": "address",
              "name": "creator",
              "type": "address"
            },
            {
              "internalType": "address",
              "name": "comptroller",
              "type": "address"
            },
            {
              "internalType": "uint256",
              "name": "blockPosted",
              "type": "uint256"
            },
            {
              "internalType": "uint256",
              "name": "timestampPosted",
              "type": "uint256"
            }
          ],
          "internalType": "struct FusePoolDirectory.FusePool[]",
          "name": "",
          "type": "tuple[]"
        }
      ],
      "stateMutability": "view",
      "type": "function"
    },
    {
      "inputs": [
        {
          "internalType": "address",
          "name": "account",
          "type": "address"
        }
      ],
      "name": "getPoolsBySupplierWithData",
      "outputs": [
        {
          "internalType": "uint256[]",
          "name": "",
          "type": "uint256[]"
        },
        {
          "components": [
            {
              "internalType": "string",
              "name": "name",
              "type": "string"
            },
            {
              "internalType": "address",
              "name": "creator",
              "type": "address"
            },
            {
              "internalType": "address",
              "name": "comptroller",
              "type": "address"
            },
            {
              "internalType": "uint256",
              "name": "blockPosted",
              "type": "uint256"
            },
            {
              "internalType": "uint256",
              "name": "timestampPosted",
              "type": "uint256"
            }
          ],
          "internalType": "struct FusePoolDirectory.FusePool[]",
          "name": "",
          "type": "tuple[]"
        },
        {
          "components": [
            {
              "internalType": "uint256",
              "name": "totalSupply",
              "type": "uint256"
            },
            {
              "internalType": "uint256",
              "name": "totalBorrow",
              "type": "uint256"
            },
            {
              "internalType": "address[]",
              "name": "underlyingTokens",
              "type": "address[]"
            },
            {
              "internalType": "string[]",
              "name": "underlyingSymbols",
              "type": "string[]"
            },
            {
              "internalType": "bool",
              "name": "whitelistedAdmin",
              "type": "bool"
            }
          ],
          "internalType": "struct FusePoolLens.FusePoolData[]",
          "name": "",
          "type": "tuple[]"
        },
        {
          "internalType": "bool[]",
          "name": "",
          "type": "bool[]"
        }
      ],
      "stateMutability": "nonpayable",
      "type": "function"
    },
    {
      "inputs": [
        {
          "internalType": "uint256",
          "name": "maxHealth",
          "type": "uint256"
        }
      ],
      "name": "getPublicPoolUsersWithData",
      "outputs": [
        {
          "internalType": "contract Comptroller[]",
          "name": "",
          "type": "address[]"
        },
        {
          "components": [
            {
              "internalType": "address",
              "name": "account",
              "type": "address"
            },
            {
              "internalType": "uint256",
              "name": "totalBorrow",
              "type": "uint256"
            },
            {
              "internalType": "uint256",
              "name": "totalCollateral",
              "type": "uint256"
            },
            {
              "internalType": "uint256",
              "name": "health",
              "type": "uint256"
            },
            {
              "components": [
                {
                  "internalType": "address",
                  "name": "cToken",
                  "type": "address"
                },
                {
                  "internalType": "address",
                  "name": "underlyingToken",
                  "type": "address"
                },
                {
                  "internalType": "string",
                  "name": "underlyingName",
                  "type": "string"
                },
                {
                  "internalType": "string",
                  "name": "underlyingSymbol",
                  "type": "string"
                },
                {
                  "internalType": "uint256",
                  "name": "underlyingDecimals",
                  "type": "uint256"
                },
                {
                  "internalType": "uint256",
                  "name": "underlyingBalance",
                  "type": "uint256"
                },
                {
                  "internalType": "uint256",
                  "name": "supplyRatePerBlock",
                  "type": "uint256"
                },
                {
                  "internalType": "uint256",
                  "name": "borrowRatePerBlock",
                  "type": "uint256"
                },
                {
                  "internalType": "uint256",
                  "name": "totalSupply",
                  "type": "uint256"
                },
                {
                  "internalType": "uint256",
                  "name": "totalBorrow",
                  "type": "uint256"
                },
                {
                  "internalType": "uint256",
                  "name": "supplyBalance",
                  "type": "uint256"
                },
                {
                  "internalType": "uint256",
                  "name": "borrowBalance",
                  "type": "uint256"
                },
                {
                  "internalType": "uint256",
                  "name": "liquidity",
                  "type": "uint256"
                },
                {
                  "internalType": "bool",
                  "name": "membership",
                  "type": "bool"
                },
                {
                  "internalType": "uint256",
                  "name": "exchangeRate",
                  "type": "uint256"
                },
                {
                  "internalType": "uint256",
                  "name": "underlyingPrice",
                  "type": "uint256"
                },
                {
                  "internalType": "address",
                  "name": "oracle",
                  "type": "address"
                },
                {
                  "internalType": "uint256",
                  "name": "collateralFactor",
                  "type": "uint256"
                },
                {
                  "internalType": "uint256",
                  "name": "reserveFactor",
                  "type": "uint256"
                },
                {
                  "internalType": "uint256",
                  "name": "adminFee",
                  "type": "uint256"
                },
                {
                  "internalType": "uint256",
                  "name": "fuseFee",
                  "type": "uint256"
                },
                {
                  "internalType": "bool",
                  "name": "borrowGuardianPaused",
                  "type": "bool"
                }
              ],
              "internalType": "struct FusePoolLens.FusePoolAsset[]",
              "name": "assets",
              "type": "tuple[]"
            }
          ],
          "internalType": "struct FusePoolLens.FusePoolUser[][]",
          "name": "",
          "type": "tuple[][]"
        },
        {
          "internalType": "uint256[]",
          "name": "",
          "type": "uint256[]"
        },
        {
          "internalType": "uint256[]",
          "name": "",
          "type": "uint256[]"
        },
        {
          "internalType": "bool[]",
          "name": "",
          "type": "bool[]"
        }
      ],
      "stateMutability": "nonpayable",
      "type": "function"
    },
    {
      "inputs": [
        {
          "internalType": "bool",
          "name": "whitelistedAdmin",
          "type": "bool"
        }
      ],
      "name": "getPublicPoolsByVerificationWithData",
      "outputs": [
        {
          "internalType": "uint256[]",
          "name": "",
          "type": "uint256[]"
        },
        {
          "components": [
            {
              "internalType": "string",
              "name": "name",
              "type": "string"
            },
            {
              "internalType": "address",
              "name": "creator",
              "type": "address"
            },
            {
              "internalType": "address",
              "name": "comptroller",
              "type": "address"
            },
            {
              "internalType": "uint256",
              "name": "blockPosted",
              "type": "uint256"
            },
            {
              "internalType": "uint256",
              "name": "timestampPosted",
              "type": "uint256"
            }
          ],
          "internalType": "struct FusePoolDirectory.FusePool[]",
          "name": "",
          "type": "tuple[]"
        },
        {
          "components": [
            {
              "internalType": "uint256",
              "name": "totalSupply",
              "type": "uint256"
            },
            {
              "internalType": "uint256",
              "name": "totalBorrow",
              "type": "uint256"
            },
            {
              "internalType": "address[]",
              "name": "underlyingTokens",
              "type": "address[]"
            },
            {
              "internalType": "string[]",
              "name": "underlyingSymbols",
              "type": "string[]"
            },
            {
              "internalType": "bool",
              "name": "whitelistedAdmin",
              "type": "bool"
            }
          ],
          "internalType": "struct FusePoolLens.FusePoolData[]",
          "name": "",
          "type": "tuple[]"
        },
        {
          "internalType": "bool[]",
          "name": "",
          "type": "bool[]"
        }
      ],
      "stateMutability": "nonpayable",
      "type": "function"
    },
    {
      "inputs": [],
      "name": "getPublicPoolsWithData",
      "outputs": [
        {
          "internalType": "uint256[]",
          "name": "",
          "type": "uint256[]"
        },
        {
          "components": [
            {
              "internalType": "string",
              "name": "name",
              "type": "string"
            },
            {
              "internalType": "address",
              "name": "creator",
              "type": "address"
            },
            {
              "internalType": "address",
              "name": "comptroller",
              "type": "address"
            },
            {
              "internalType": "uint256",
              "name": "blockPosted",
              "type": "uint256"
            },
            {
              "internalType": "uint256",
              "name": "timestampPosted",
              "type": "uint256"
            }
          ],
          "internalType": "struct FusePoolDirectory.FusePool[]",
          "name": "",
          "type": "tuple[]"
        },
        {
          "components": [
            {
              "internalType": "uint256",
              "name": "totalSupply",
              "type": "uint256"
            },
            {
              "internalType": "uint256",
              "name": "totalBorrow",
              "type": "uint256"
            },
            {
              "internalType": "address[]",
              "name": "underlyingTokens",
              "type": "address[]"
            },
            {
              "internalType": "string[]",
              "name": "underlyingSymbols",
              "type": "string[]"
            },
            {
              "internalType": "bool",
              "name": "whitelistedAdmin",
              "type": "bool"
            }
          ],
          "internalType": "struct FusePoolLens.FusePoolData[]",
          "name": "",
          "type": "tuple[]"
        },
        {
          "internalType": "bool[]",
          "name": "",
          "type": "bool[]"
        }
      ],
      "stateMutability": "nonpayable",
      "type": "function"
    },
    {
      "inputs": [
        {
          "internalType": "address",
          "name": "account",
          "type": "address"
        }
      ],
      "name": "getUserSummary",
      "outputs": [
        {
          "internalType": "uint256",
          "name": "",
          "type": "uint256"
        },
        {
          "internalType": "uint256",
          "name": "",
          "type": "uint256"
        },
        {
          "internalType": "bool",
          "name": "",
          "type": "bool"
        }
      ],
      "stateMutability": "nonpayable",
      "type": "function"
    },
    {
      "inputs": [
        {
          "internalType": "address",
          "name": "account",
          "type": "address"
        }
      ],
      "name": "getWhitelistedPoolsByAccount",
      "outputs": [
        {
          "internalType": "uint256[]",
          "name": "",
          "type": "uint256[]"
        },
        {
          "components": [
            {
              "internalType": "string",
              "name": "name",
              "type": "string"
            },
            {
              "internalType": "address",
              "name": "creator",
              "type": "address"
            },
            {
              "internalType": "address",
              "name": "comptroller",
              "type": "address"
            },
            {
              "internalType": "uint256",
              "name": "blockPosted",
              "type": "uint256"
            },
            {
              "internalType": "uint256",
              "name": "timestampPosted",
              "type": "uint256"
            }
          ],
          "internalType": "struct FusePoolDirectory.FusePool[]",
          "name": "",
          "type": "tuple[]"
        }
      ],
      "stateMutability": "view",
      "type": "function"
    },
    {
      "inputs": [
        {
          "internalType": "address",
          "name": "account",
          "type": "address"
        }
      ],
      "name": "getWhitelistedPoolsByAccountWithData",
      "outputs": [
        {
          "internalType": "uint256[]",
          "name": "",
          "type": "uint256[]"
        },
        {
          "components": [
            {
              "internalType": "string",
              "name": "name",
              "type": "string"
            },
            {
              "internalType": "address",
              "name": "creator",
              "type": "address"
            },
            {
              "internalType": "address",
              "name": "comptroller",
              "type": "address"
            },
            {
              "internalType": "uint256",
              "name": "blockPosted",
              "type": "uint256"
            },
            {
              "internalType": "uint256",
              "name": "timestampPosted",
              "type": "uint256"
            }
          ],
          "internalType": "struct FusePoolDirectory.FusePool[]",
          "name": "",
          "type": "tuple[]"
        },
        {
          "components": [
            {
              "internalType": "uint256",
              "name": "totalSupply",
              "type": "uint256"
            },
            {
              "internalType": "uint256",
              "name": "totalBorrow",
              "type": "uint256"
            },
            {
              "internalType": "address[]",
              "name": "underlyingTokens",
              "type": "address[]"
            },
            {
              "internalType": "string[]",
              "name": "underlyingSymbols",
              "type": "string[]"
            },
            {
              "internalType": "bool",
              "name": "whitelistedAdmin",
              "type": "bool"
            }
          ],
          "internalType": "struct FusePoolLens.FusePoolData[]",
          "name": "",
          "type": "tuple[]"
        },
        {
          "internalType": "bool[]",
          "name": "",
          "type": "bool[]"
        }
      ],
      "stateMutability": "nonpayable",
      "type": "function"
    },
    {
      "inputs": [
        {
          "internalType": "contract FusePoolDirectory",
          "name": "_directory",
          "type": "address"
        }
      ],
      "name": "initialize",
      "outputs": [],
      "stateMutability": "nonpayable",
      "type": "function"
    }
  ],
  "transactionHash": "0x7ca80131b000e2b5b5d88b668161fc698761a9e6441cbb17bf9c4874c9c9be7d",
  "args": [],
  "numDeployments": 1,
  "solcInputHash": "4eb8ce46421ba4dff39c661f2a7e68f4",
  "bytecode": "0x608060405234801561001057600080fd5b5061510b806100206000396000f3fe608060405234801561001057600080fd5b50600436106101005760003560e01c80639c00a3d411610097578063d0a164fb11610066578063d0a164fb14610260578063d15e963114610268578063d64996e514610289578063dedfe22f1461029c57610100565b80639c00a3d414610201578063c3530a6314610223578063c41c2f2414610236578063c4d66de81461024b57610100565b806359d2fea6116100d357806359d2fea614610195578063635629e6146101b957806370733375146101cc5780638fbd0c2d146101df57610100565b80630b9c80bd1461010557806327e16c1f1461012f578063516786841461014f578063586f6c1014610172575b600080fd5b610118610113366004614144565b6102c0565b604051610126929190614d14565b60405180910390f35b61014261013d366004614144565b610811565b6040516101269190614cdc565b61016261015d366004614144565b610898565b6040516101269493929190614d42565b61018561018036600461424d565b610958565b6040516101269493929190614be5565b6101a86101a3366004614144565b610baa565b604051610126959493929190614fdc565b6101626101c7366004614144565b6113ae565b6101626101da366004614144565b6113c0565b6101f26101ed366004614144565b6113d2565b60405161012693929190615022565b61021461020f36600461450c565b611541565b60405161012693929190614cef565b610118610231366004614144565b611b19565b61023e611e02565b6040516101269190614bb7565b61025e610259366004614144565b611e17565b005b610162611eec565b61027b6102763660046144d4565b611fa0565b604051610126929190614fce565b61016261029736600461446f565b6123b8565b6102af6102aa366004614569565b612402565b604051610126959493929190614c3d565b6060806060600060029054906101000a90046001600160a01b03166001600160a01b031663d88ff1f46040518163ffffffff1660e01b815260040160006040518083038186803b15801561031357600080fd5b505afa158015610327573d6000803e3d6000fd5b505050506040513d6000823e601f3d908101601f1916820160405261034f9190810190614384565b90506000805b825181101561053a57600083828151811061036c57fe5b6020026020010151604001519050806001600160a01b03166316dc15fe886040518263ffffffff1660e01b81526004016103a69190614bb7565b60206040518083038186803b1580156103be57600080fd5b505afa9250505080156103ee575060408051601f3d908101601f191682019092526103eb9181019061448b565b60015b6103f757610531565b801561052f576060826001600160a01b031663b0772d0b6040518163ffffffff1660e01b815260040160006040518083038186803b15801561043857600080fd5b505afa15801561044c573d6000803e3d6000fd5b505050506040513d6000823e601f3d908101601f1916820160405261047491908101906141b6565b905060005b815181101561052c57600082828151811061049057fe5b60200260200101516001600160a01b03166370a082318c6040518263ffffffff1660e01b81526004016104c39190614bb7565b60206040518083038186803b1580156104db57600080fd5b505afa1580156104ef573d6000803e3d6000fd5b505050506040513d601f19601f820116820180604052508101906105139190614581565b11156105245760019095019461052c565b600101610479565b50505b505b50600101610355565b506060816001600160401b038111801561055357600080fd5b5060405190808252806020026020018201604052801561057d578160200160208202803683370190505b5090506060826001600160401b038111801561059857600080fd5b506040519080825280602002602001820160405280156105d257816020015b6105bf613bcb565b8152602001906001900390816105b75790505b5090506000805b85518110156108025760008682815181106105f057fe5b6020026020010151604001519050806001600160a01b03166316dc15fe8b6040518263ffffffff1660e01b815260040161062a9190614bb7565b60206040518083038186803b15801561064257600080fd5b505afa925050508015610672575060408051601f3d908101601f1916820190925261066f9181019061448b565b60015b61067b576107f9565b80156107f7576060826001600160a01b031663b0772d0b6040518163ffffffff1660e01b815260040160006040518083038186803b1580156106bc57600080fd5b505afa1580156106d0573d6000803e3d6000fd5b505050506040513d6000823e601f3d908101601f191682016040526106f891908101906141b6565b905060005b81518110156107f457600082828151811061071457fe5b60200260200101516001600160a01b03166370a082318f6040518263ffffffff1660e01b81526004016107479190614bb7565b60206040518083038186803b15801561075f57600080fd5b505afa158015610773573d6000803e3d6000fd5b505050506040513d601f19601f820116820180604052508101906107979190614581565b11156107ec57848887815181106107aa57fe5b6020026020010181815250508985815181106107c257fe5b60200260200101518787815181106107d657fe5b60209081029190910101526001909501946107f4565b6001016106fd565b50505b505b506001016105d9565b5091955093505050505b915091565b606061089282836001600160a01b031663b0772d0b6040518163ffffffff1660e01b815260040160006040518083038186803b15801561085057600080fd5b505afa158015610864573d6000803e3d6000fd5b505050506040513d6000823e601f3d908101601f1916820160405261088c91908101906141b6565b33612557565b92915050565b606080606080606080600060029054906101000a90046001600160a01b03166001600160a01b031663a3ed91c6886040518263ffffffff1660e01b81526004016108e29190614bb7565b60006040518083038186803b1580156108fa57600080fd5b505afa15801561090e573d6000803e3d6000fd5b505050506040513d6000823e601f3d908101601f1916820160405261093691908101906143b6565b91509150606080610946836132a5565b949a9399509750929550909350505050565b606080606080606086516001600160401b038111801561097757600080fd5b506040519080825280602002602001820160405280156109ab57816020015b60608152602001906001900390816109965790505b509050606087516001600160401b03811180156109c757600080fd5b506040519080825280602002602001820160405280156109f1578160200160208202803683370190505b509050606088516001600160401b0381118015610a0d57600080fd5b50604051908082528060200260200182016040528015610a37578160200160208202803683370190505b509050606089516001600160401b0381118015610a5357600080fd5b50604051908082528060200260200182016040528015610a7d578160200160208202803683370190505b50905060005b8a51811015610b9957306001600160a01b0316639c00a3d48c8381518110610aa757fe5b60200260200101518c6040518363ffffffff1660e01b8152600401610acd929190614e2b565b600060405180830381600087803b158015610ae757600080fd5b505af1925050508015610b1c57506040513d6000823e601f3d908101601f19168201604052610b1991908101906142eb565b60015b610b43576001828281518110610b2e57fe5b91151560209283029190910190910152610b91565b82888581518110610b5057fe5b602002602001018190525081878581518110610b6857fe5b60200260200101818152505080868581518110610b8157fe5b6020026020010181815250505050505b600101610a83565b509299919850965090945092505050565b6000806060806000806000905060006060886001600160a01b031663b0772d0b6040518163ffffffff1660e01b815260040160006040518083038186803b158015610bf457600080fd5b505afa158015610c08573d6000803e3d6000fd5b505050506040513d6000823e601f3d908101601f19168201604052610c3091908101906141b6565b9050606081516001600160401b0381118015610c4b57600080fd5b50604051908082528060200260200182016040528015610c75578160200160208202803683370190505b509050606082516001600160401b0381118015610c9157600080fd5b50604051908082528060200260200182016040528015610cc557816020015b6060815260200190600190039081610cb05790505b50905060008b6001600160a01b0316637dc0d1d06040518163ffffffff1660e01b815260040160206040518083038186803b158015610d0357600080fd5b505afa158015610d17573d6000803e3d6000fd5b505050506040513d601f19601f82011682018060405250810190610d3b9190614160565b905060005b8451811015611294576000858281518110610d5757fe5b6020026020010151905060008e6001600160a01b0316638e8f294b836040518263ffffffff1660e01b8152600401610d8f9190614bb7565b604080518083038186803b158015610da657600080fd5b505afa158015610dba573d6000803e3d6000fd5b505050506040513d601f19601f82011682018060405250810190610dde91906144a7565b50905080610ded57505061128c565b6000826001600160a01b03166373acee986040518163ffffffff1660e01b8152600401602060405180830381600087803b158015610e2a57600080fd5b505af1158015610e3e573d6000803e3d6000fd5b505050506040513d601f19601f82011682018060405250810190610e629190614581565b9050600061100b610fc8856001600160a01b031663dc028ab16040518163ffffffff1660e01b815260040160206040518083038186803b158015610ea557600080fd5b505afa158015610eb9573d6000803e3d6000fd5b505050506040513d601f19601f82011682018060405250810190610edd9190614581565b610fc2876001600160a01b03166361feacff6040518163ffffffff1660e01b815260040160206040518083038186803b158015610f1957600080fd5b505afa158015610f2d573d6000803e3d6000fd5b505050506040513d601f19601f82011682018060405250810190610f519190614581565b886001600160a01b0316638f840ddd6040518163ffffffff1660e01b815260040160206040518083038186803b158015610f8a57600080fd5b505afa158015610f9e573d6000803e3d6000fd5b505050506040513d601f19601f82011682018060405250810190610fc29190614581565b90613462565b61100584876001600160a01b0316633b1d21a26040518163ffffffff1660e01b815260040160206040518083038186803b158015610f8a57600080fd5b9061348e565b90506000866001600160a01b031663fc57d4df866040518263ffffffff1660e01b815260040161103b9190614bb7565b60206040518083038186803b15801561105357600080fd5b505afa158015611067573d6000803e3d6000fd5b505050506040513d601f19601f8201168201806040525081019061108b9190614581565b90506110b36110ac670de0b6b3a76400006110a686856134b6565b906134f0565b8d90613462565b9b506110d56110ce670de0b6b3a76400006110a685856134b6565b8c90613462565b9a50846001600160a01b031663ac784ddc6040518163ffffffff1660e01b815260040160206040518083038186803b15801561111057600080fd5b505afa158015611124573d6000803e3d6000fd5b505050506040513d601f19601f82011682018060405250810190611148919061448b565b156111b357600089878151811061115b57fe5b60200260200101906001600160a01b031690816001600160a01b0316815250506040518060400160405280600381526020016208aa8960eb1b8152508887815181106111a357fe5b6020026020010181905250611286565b846001600160a01b0316636f307dc36040518163ffffffff1660e01b815260040160206040518083038186803b1580156111ec57600080fd5b505afa158015611200573d6000803e3d6000fd5b505050506040513d601f19601f820116820180604052508101906112249190614160565b89878151811061123057fe5b60200260200101906001600160a01b031690816001600160a01b03168152505061126c89878151811061125f57fe5b6020026020010151613522565b905088878151811061127a57fe5b60200260200101819052505b50505050505b600101610d40565b5060008060029054906101000a90046001600160a01b03166001600160a01b03166343e20a1d8e6001600160a01b031663f851a4406040518163ffffffff1660e01b815260040160206040518083038186803b1580156112f357600080fd5b505afa158015611307573d6000803e3d6000fd5b505050506040513d601f19601f8201168201806040525081019061132b9190614160565b6040518263ffffffff1660e01b81526004016113479190614bb7565b60206040518083038186803b15801561135f57600080fd5b505afa158015611373573d6000803e3d6000fd5b505050506040513d601f19601f82011682018060405250810190611397919061448b565b959d969c50929a5090985092965092945050505050565b606080606080606080610936876102c0565b60608060608060608061093687611b19565b60008060006060600060029054906101000a90046001600160a01b03166001600160a01b031663d88ff1f46040518163ffffffff1660e01b815260040160006040518083038186803b15801561142757600080fd5b505afa15801561143b573d6000803e3d6000fd5b505050506040513d6000823e601f3d908101601f191682016040526114639190810190614384565b90506000806000805b845181101561153357306001600160a01b031663d15e963186838151811061149057fe5b6020026020010151604001518b6040518363ffffffff1660e01b81526004016114ba929190614bcb565b6040805180830381600087803b1580156114d357600080fd5b505af1925050508015611503575060408051601f3d908101601f1916820190925261150091810190614599565b60015b611510576001915061152b565b61151a8583613462565b94506115268682613462565b955050505b60010161146c565b509097919650945092505050565b60606000806060856001600160a01b03166332abcdbe6040518163ffffffff1660e01b815260040160006040518083038186803b15801561158157600080fd5b505afa158015611595573d6000803e3d6000fd5b505050506040513d6000823e601f3d908101601f191682016040526115bd919081019061417c565b90506000805b82518110156117ef5760008060606116818b8c6001600160a01b031663abfceffc8988815181106115f057fe5b60200260200101516040518263ffffffff1660e01b81526004016116149190614bb7565b60006040518083038186803b15801561162c57600080fd5b505afa158015611640573d6000803e3d6000fd5b505050506040513d6000823e601f3d908101601f1916820160405261166891908101906141b6565b88878151811061167457fe5b6020026020010151612557565b905060005b815181101561179a576116e86116e1670de0b6b3a76400006110a68585815181106116ad57fe5b60200260200101516101e001518686815181106116c657fe5b602002602001015161016001516134b690919063ffffffff16565b8590613462565b93508181815181106116f657fe5b60200260200101516101a00151156117925761178f611788670de0b6b3a76400006110a685858151811061172657fe5b60200260200101516102200151611782670de0b6b3a76400006110a689898151811061174e57fe5b60200260200101516101e001518a8a8151811061176757fe5b602002602001015161014001516134b690919063ffffffff16565b906134b6565b8490613462565b92505b600101611686565b5060008084116117b9576ec097ce7bc90715b34b9f10000000006117cf565b6117cf846110a685670de0b6b3a76400006134b6565b90508a81116117df576001909501945b5050600190920191506115c39050565b506060816001600160401b038111801561180857600080fd5b5060405190808252806020026020018201604052801561184257816020015b61182f613c0c565b8152602001906001900390816118275790505b5090506000805b8451811015611a245760008060606118fa8d8e6001600160a01b031663abfceffc8b888151811061187657fe5b60200260200101516040518263ffffffff1660e01b815260040161189a9190614bb7565b60006040518083038186803b1580156118b257600080fd5b505afa1580156118c6573d6000803e3d6000fd5b505050506040513d6000823e601f3d908101601f191682016040526118ee91908101906141b6565b8a878151811061167457fe5b905060005b815181101561196f576119266116e1670de0b6b3a76400006110a68585815181106116ad57fe5b935081818151811061193457fe5b60200260200101516101a001511561196757611964611788670de0b6b3a76400006110a685858151811061172657fe5b92505b6001016118ff565b50600080841161198e576ec097ce7bc90715b34b9f10000000006119a4565b6119a4846110a685670de0b6b3a76400006134b6565b90508c8111156119b75750505050611a1c565b6040518060a001604052808a87815181106119ce57fe5b60200260200101516001600160a01b0316815260200185815260200184815260200182815260200183815250878781518110611a0657fe5b6020908102919091010152505060019093019250505b600101611849565b5081896001600160a01b031663e87554466040518163ffffffff1660e01b815260040160206040518083038186803b158015611a5f57600080fd5b505afa158015611a73573d6000803e3d6000fd5b505050506040513d601f19601f82011682018060405250810190611a979190614581565b8a6001600160a01b0316634ada90af6040518163ffffffff1660e01b815260040160206040518083038186803b158015611ad057600080fd5b505afa158015611ae4573d6000803e3d6000fd5b505050506040513d601f19601f82011682018060405250810190611b089190614581565b965096509650505050509250925092565b6060806060600060029054906101000a90046001600160a01b03166001600160a01b031663d88ff1f46040518163ffffffff1660e01b815260040160006040518083038186803b158015611b6c57600080fd5b505afa158015611b80573d6000803e3d6000fd5b505050506040513d6000823e601f3d908101601f19168201604052611ba89190810190614384565b90506000805b8251811015611c64576000838281518110611bc557fe5b6020026020010151604001519050806001600160a01b0316639b19251a886040518263ffffffff1660e01b8152600401611bff9190614bb7565b60206040518083038186803b158015611c1757600080fd5b505afa158015611c2b573d6000803e3d6000fd5b505050506040513d601f19601f82011682018060405250810190611c4f919061448b565b15611c5b576001909201915b50600101611bae565b506060816001600160401b0381118015611c7d57600080fd5b50604051908082528060200260200182016040528015611ca7578160200160208202803683370190505b5090506060826001600160401b0381118015611cc257600080fd5b50604051908082528060200260200182016040528015611cfc57816020015b611ce9613bcb565b815260200190600190039081611ce15790505b5090506000805b8551811015610802576000868281518110611d1a57fe5b6020026020010151604001519050806001600160a01b0316639b19251a8b6040518263ffffffff1660e01b8152600401611d549190614bb7565b60206040518083038186803b158015611d6c57600080fd5b505afa158015611d80573d6000803e3d6000fd5b505050506040513d601f19601f82011682018060405250810190611da4919061448b565b15611df95781858481518110611db657fe5b602002602001018181525050868281518110611dce57fe5b6020026020010151848481518110611de257fe5b602090810291909101015250600190910190610802565b50600101611d03565b6000546201000090046001600160a01b031681565b600054610100900460ff1680611e305750611e30613bb4565b80611e3e575060005460ff16155b611e635760405162461bcd60e51b8152600401611e5a90614ee9565b60405180910390fd5b600054610100900460ff16158015611e8e576000805460ff1961ff0019909116610100171660011790555b6001600160a01b038216611eb45760405162461bcd60e51b8152600401611e5a90614f78565b6000805462010000600160b01b031916620100006001600160a01b038516021790558015611ee8576000805461ff00191690555b5050565b606080606080606080600060029054906101000a90046001600160a01b03166001600160a01b0316634ae26ea16040518163ffffffff1660e01b815260040160006040518083038186803b158015611f4357600080fd5b505afa158015611f57573d6000803e3d6000fd5b505050506040513d6000823e601f3d908101601f19168201604052611f7f91908101906143b6565b91509150606080611f8f836132a5565b949993985096509294509092505050565b600080600080856001600160a01b03166316dc15fe866040518263ffffffff1660e01b8152600401611fd29190614bb7565b60206040518083038186803b158015611fea57600080fd5b505afa158015611ffe573d6000803e3d6000fd5b505050506040513d601f19601f82011682018060405250810190612022919061448b565b612034576000809350935050506123b1565b6060866001600160a01b031663b0772d0b6040518163ffffffff1660e01b815260040160006040518083038186803b15801561206f57600080fd5b505afa158015612083573d6000803e3d6000fd5b505050506040513d6000823e601f3d908101601f191682016040526120ab91908101906141b6565b90506000876001600160a01b0316637dc0d1d06040518163ffffffff1660e01b815260040160206040518083038186803b1580156120e857600080fd5b505afa1580156120fc573d6000803e3d6000fd5b505050506040513d601f19601f820116820180604052508101906121209190614160565b905060005b82518110156123a757600083828151811061213c57fe5b6020026020010151905060008a6001600160a01b0316638e8f294b836040518263ffffffff1660e01b81526004016121749190614bb7565b604080518083038186803b15801561218b57600080fd5b505afa15801561219f573d6000803e3d6000fd5b505050506040513d601f19601f820116820180604052508101906121c391906144a7565b509050806121d257505061239f565b604051633af9e66960e01b81526000906001600160a01b03841690633af9e66990612201908e90600401614bb7565b602060405180830381600087803b15801561221b57600080fd5b505af115801561222f573d6000803e3d6000fd5b505050506040513d601f19601f820116820180604052508101906122539190614581565b90506000836001600160a01b03166395dd91938d6040518263ffffffff1660e01b81526004016122839190614bb7565b60206040518083038186803b15801561229b57600080fd5b505afa1580156122af573d6000803e3d6000fd5b505050506040513d601f19601f820116820180604052508101906122d39190614581565b90506000866001600160a01b031663fc57d4df866040518263ffffffff1660e01b81526004016123039190614bb7565b60206040518083038186803b15801561231b57600080fd5b505afa15801561232f573d6000803e3d6000fd5b505050506040513d601f19601f820116820180604052508101906123539190614581565b905061237561236e670de0b6b3a76400006110a685856134b6565b8b90613462565b9950612397612390670de0b6b3a76400006110a686856134b6565b8a90613462565b985050505050505b600101612125565b5091945091925050505b9250929050565b606080606080606080600060029054906101000a90046001600160a01b03166001600160a01b031663218a3bbe886040518263ffffffff1660e01b81526004016108e29190614e20565b6060806060806060806060600060029054906101000a90046001600160a01b03166001600160a01b0316634ae26ea16040518163ffffffff1660e01b815260040160006040518083038186803b15801561245b57600080fd5b505afa15801561246f573d6000803e3d6000fd5b505050506040513d6000823e601f3d908101601f1916820160405261249791908101906143b6565b91505080516001600160401b03811180156124b157600080fd5b506040519080825280602002602001820160405280156124db578160200160208202803683370190505b50915060005b815181101561252e578181815181106124f657fe5b60200260200101516040015183828151811061250e57fe5b6001600160a01b03909216602092830291909101909101526001016124e1565b5050606080606080612540858c610958565b979e929d50909b5099509497509395505050505050565b60606000805b845181101561260f576000866001600160a01b0316638e8f294b87848151811061258357fe5b60200260200101516040518263ffffffff1660e01b81526004016125a79190614bb7565b604080518083038186803b1580156125be57600080fd5b505afa1580156125d2573d6000803e3d6000fd5b505050506040513d601f19601f820116820180604052508101906125f691906144a7565b5090508015612606576001909201915b5060010161255d565b506060816001600160401b038111801561262857600080fd5b5060405190808252806020026020018201604052801561266257816020015b61264f613c44565b8152602001906001900390816126475790505b509050600080876001600160a01b0316637dc0d1d06040518163ffffffff1660e01b815260040160206040518083038186803b1580156126a157600080fd5b505afa1580156126b5573d6000803e3d6000fd5b505050506040513d601f19601f820116820180604052508101906126d99190614160565b905060005b8751811015613298576000808a6001600160a01b0316638e8f294b8b858151811061270557fe5b60200260200101516040518263ffffffff1660e01b81526004016127299190614bb7565b604080518083038186803b15801561274057600080fd5b505afa158015612754573d6000803e3d6000fd5b505050506040513d601f19601f8201168201806040525081019061277891906144a7565b9150915081612788575050613290565b612790613c44565b60008b858151811061279e57fe5b6020908102919091018101516001600160a01b03811680855260408051632b1e137760e21b81529051929450909263ac784ddc92600480840193829003018186803b1580156127ec57600080fd5b505afa158015612800573d6000803e3d6000fd5b505050506040513d601f19601f82011682018060405250810190612824919061448b565b1561288a576040805180820182526008815267457468657265756d60c01b602080830191909152848301919091528151808301909252600382526208aa8960eb1b908201526060830152601260808301526001600160a01b038b163160a0830152612a20565b806001600160a01b0316636f307dc36040518163ffffffff1660e01b815260040160206040518083038186803b1580156128c357600080fd5b505afa1580156128d7573d6000803e3d6000fd5b505050506040513d601f19601f820116820180604052508101906128fb9190614160565b6001600160a01b03166020830181905261291481613522565b84604001856060018290528290525050806001600160a01b031663313ce5676040518163ffffffff1660e01b815260040160206040518083038186803b15801561295d57600080fd5b505afa158015612971573d6000803e3d6000fd5b505050506040513d601f19601f820116820180604052508101906129959190614690565b60ff1660808401526040516370a0823160e01b81526001600160a01b038216906370a08231906129c9908f90600401614bb7565b60206040518083038186803b1580156129e157600080fd5b505afa1580156129f5573d6000803e3d6000fd5b505050506040513d601f19601f82011682018060405250810190612a199190614581565b60a0840152505b806001600160a01b031663ae9d70b06040518163ffffffff1660e01b815260040160206040518083038186803b158015612a5957600080fd5b505afa158015612a6d573d6000803e3d6000fd5b505050506040513d601f19601f82011682018060405250810190612a919190614581565b8260c0018181525050806001600160a01b031663f8f9da286040518163ffffffff1660e01b815260040160206040518083038186803b158015612ad357600080fd5b505afa158015612ae7573d6000803e3d6000fd5b505050506040513d601f19601f82011682018060405250810190612b0b9190614581565b8260e0018181525050806001600160a01b0316633b1d21a26040518163ffffffff1660e01b815260040160206040518083038186803b158015612b4d57600080fd5b505afa158015612b61573d6000803e3d6000fd5b505050506040513d601f19601f82011682018060405250810190612b859190614581565b82610180018181525050806001600160a01b03166373acee986040518163ffffffff1660e01b8152600401602060405180830381600087803b158015612bca57600080fd5b505af1158015612bde573d6000803e3d6000fd5b505050506040513d601f19601f82011682018060405250810190612c029190614581565b82610120018181525050612d45612d30826001600160a01b031663dc028ab16040518163ffffffff1660e01b815260040160206040518083038186803b158015612c4b57600080fd5b505afa158015612c5f573d6000803e3d6000fd5b505050506040513d601f19601f82011682018060405250810190612c839190614581565b610fc2846001600160a01b03166361feacff6040518163ffffffff1660e01b815260040160206040518083038186803b158015612cbf57600080fd5b505afa158015612cd3573d6000803e3d6000fd5b505050506040513d601f19601f82011682018060405250810190612cf79190614581565b856001600160a01b0316638f840ddd6040518163ffffffff1660e01b815260040160206040518083038186803b158015610f8a57600080fd5b61012084015161018085015161100591613462565b610100830152604051633af9e66960e01b81526001600160a01b03821690633af9e66990612d77908e90600401614bb7565b602060405180830381600087803b158015612d9157600080fd5b505af1158015612da5573d6000803e3d6000fd5b505050506040513d601f19601f82011682018060405250810190612dc99190614581565b6101408301526040516395dd919360e01b81526001600160a01b038216906395dd919390612dfb908e90600401614bb7565b60206040518083038186803b158015612e1357600080fd5b505afa158015612e27573d6000803e3d6000fd5b505050506040513d601f19601f82011682018060405250810190612e4b9190614581565b61016083015260405163929fe9a160e01b81526001600160a01b038e169063929fe9a190612e7f908e908590600401614bcb565b60206040518083038186803b158015612e9757600080fd5b505afa158015612eab573d6000803e3d6000fd5b505050506040513d601f19601f82011682018060405250810190612ecf919061448b565b15156101a08301526040805163182df0f560e01b815290516001600160a01b0383169163182df0f5916004808301926020929190829003018186803b158015612f1757600080fd5b505afa158015612f2b573d6000803e3d6000fd5b505050506040513d601f19601f82011682018060405250810190612f4f9190614581565b6101c083015260405163fc57d4df60e01b81526001600160a01b0387169063fc57d4df90612f81908490600401614bb7565b60206040518083038186803b158015612f9957600080fd5b505afa158015612fad573d6000803e3d6000fd5b505050506040513d601f19601f82011682018060405250810190612fd19190614581565b6101e08301526001600160a01b0386166102008301819052602083015160405163addd509960e01b815263addd50999161300d91600401614bb7565b60206040518083038186803b15801561302557600080fd5b505afa925050508015613055575060408051601f3d908101601f1916820190925261305291810190614160565b60015b61305e5761306e565b6001600160a01b03166102008301525b8282610220018181525050806001600160a01b031663173b99046040518163ffffffff1660e01b815260040160206040518083038186803b1580156130b257600080fd5b505afa1580156130c6573d6000803e3d6000fd5b505050506040513d601f19601f820116820180604052508101906130ea9190614581565b82610240018181525050806001600160a01b0316638d02d9a16040518163ffffffff1660e01b815260040160206040518083038186803b15801561312d57600080fd5b505afa158015613141573d6000803e3d6000fd5b505050506040513d601f19601f820116820180604052508101906131659190614581565b82610260018181525050806001600160a01b031663dbfe7c196040518163ffffffff1660e01b815260040160206040518083038186803b1580156131a857600080fd5b505afa1580156131bc573d6000803e3d6000fd5b505050506040513d601f19601f820116820180604052508101906131e09190614581565b610280830152604051636d154ea560e01b81526001600160a01b038e1690636d154ea590613212908490600401614bb7565b60206040518083038186803b15801561322a57600080fd5b505afa15801561323e573d6000803e3d6000fd5b505050506040513d601f19601f82011682018060405250810190613262919061448b565b15156102a08301528751829089908990811061327a57fe5b6020908102919091010152505060019094019350505b6001016126de565b5091979650505050505050565b606080606083516001600160401b03811180156132c157600080fd5b506040519080825280602002602001820160405280156132fb57816020015b6132e8613d0a565b8152602001906001900390816132e05790505b509050606084516001600160401b038111801561331757600080fd5b50604051908082528060200260200182016040528015613341578160200160208202803683370190505b50905060005b855181101561345757306001600160a01b03166359d2fea687838151811061336b57fe5b6020026020010151604001516040518263ffffffff1660e01b81526004016133939190614bb7565b600060405180830381600087803b1580156133ad57600080fd5b505af19250505080156133e257506040513d6000823e601f3d908101601f191682016040526133df91908101906145bc565b60015b6134095760018282815181106133f457fe5b9115156020928302919091019091015261344f565b6040518060a0016040528086815260200185815260200184815260200183815260200182151581525088878151811061343e57fe5b602002602001018190525050505050505b600101613347565b509092509050915091565b6000828201838110156134875760405162461bcd60e51b8152600401611e5a90614e44565b9392505050565b6000828211156134b05760405162461bcd60e51b8152600401611e5a90614e7b565b50900390565b6000826134c557506000610892565b828202828482816134d257fe5b04146134875760405162461bcd60e51b8152600401611e5a90614f37565b60008082116135115760405162461bcd60e51b8152600401611e5a90614eb2565b81838161351a57fe5b049392505050565b606080739f8f72aa9304c8b593d555f12ef6589cc3a579a26001600160a01b038416141561358d576040518060400160405280600581526020016426b0b5b2b960d91b8152506040518060400160405280600381526020016226a5a960e91b8152509150915061080c565b73b8c77482e45f1f44de1745f52c74426c631bdd526001600160a01b03841614156135f3576040518060400160405280600381526020016221272160e91b8152506040518060400160405280600381526020016221272160e91b8152509150915061080c565b60008390506060816001600160a01b03166306fdde036040518163ffffffff1660e01b815260040160006040518083038186803b15801561363357600080fd5b505afa158015613647573d6000803e3d6000fd5b505050506040513d6000823e601f3d908101601f1916820160405261366f9190810190614537565b90506060826001600160a01b03166395d89b416040518163ffffffff1660e01b815260040160006040518083038186803b1580156136ac57600080fd5b505afa1580156136c0573d6000803e3d6000fd5b505050506040513d6000823e601f3d908101601f191682016040526136e89190810190614537565b9050856001600160a01b0316630dfe16816040518163ffffffff1660e01b815260040160206040518083038186803b15801561372357600080fd5b505afa925050508015613753575060408051601f3d908101601f1916820190925261375091810190614160565b60015b61375c57613ba9565b600060405160200161376d90614b74565b60405160208183030381529060405280519060200120846040516020016137949190614aaa565b6040516020818303038152906040528051906020012014801561380057506040516020016137c190614b62565b60405160208183030381529060405280519060200120836040516020016137e89190614aaa565b60405160208183030381529060405280519060200120145b905060008115801561385b575060405160200161381c90614b99565b60405160208183030381529060405280519060200120856040516020016138439190614aaa565b60405160208183030381529060405280519060200120145b80156138b0575060405160200161387190614b8a565b60405160208183030381529060405280519060200120846040516020016138989190614aaa565b60405160208183030381529060405280519060200120145b905081806138bb5750805b15613ba557600083905060008a6001600160a01b031663d21220a76040518163ffffffff1660e01b815260040160206040518083038186803b15801561390057600080fd5b505afa158015613914573d6000803e3d6000fd5b505050506040513d601f19601f820116820180604052508101906139389190614160565b905082613965576040518060400160405280600881526020016702ab734b9bbb0b8160c51b815250613989565b6040518060400160405280600a815260200169029bab9b434a9bbb0b8160b51b8152505b826001600160a01b03166395d89b416040518163ffffffff1660e01b815260040160006040518083038186803b1580156139c257600080fd5b505afa1580156139d6573d6000803e3d6000fd5b505050506040513d6000823e601f3d908101601f191682016040526139fe9190810190614537565b826001600160a01b03166395d89b416040518163ffffffff1660e01b815260040160006040518083038186803b158015613a3757600080fd5b505afa158015613a4b573d6000803e3d6000fd5b505050506040513d6000823e601f3d908101601f19168201604052613a739190810190614537565b604051602001613a8593929190614ac6565b6040516020818303038152906040529650816001600160a01b03166395d89b416040518163ffffffff1660e01b815260040160006040518083038186803b158015613acf57600080fd5b505afa158015613ae3573d6000803e3d6000fd5b505050506040513d6000823e601f3d908101601f19168201604052613b0b9190810190614537565b816001600160a01b03166395d89b416040518163ffffffff1660e01b815260040160006040518083038186803b158015613b4457600080fd5b505afa158015613b58573d6000803e3d6000fd5b505050506040513d6000823e601f3d908101601f19168201604052613b809190810190614537565b604051602001613b91929190614b26565b604051602081830303815290604052955050505b5050505b909350915050915091565b6000613bbf30613bc5565b15905090565b3b151590565b6040518060a001604052806060815260200160006001600160a01b0316815260200160006001600160a01b0316815260200160008152602001600081525090565b6040518060a0016040528060006001600160a01b03168152602001600081526020016000815260200160008152602001606081525090565b604051806102c0016040528060006001600160a01b0316815260200160006001600160a01b031681526020016060815260200160608152602001600081526020016000815260200160008152602001600081526020016000815260200160008152602001600081526020016000815260200160008152602001600015158152602001600081526020016000815260200160006001600160a01b03168152602001600081526020016000815260200160008152602001600081526020016000151581525090565b6040518060a00160405280600081526020016000815260200160608152602001606081526020016000151581525090565b8051610892816150af565b600082601f830112613d56578081fd5b8151613d69613d6482615060565b61503a565b818152915060208083019084810181840286018201871015613d8a57600080fd5b60005b84811015613db2578151613da0816150af565b84529282019290820190600101613d8d565b505050505092915050565b600082601f830112613dcd578081fd5b8151613ddb613d6482615060565b818152915060208083019084810160005b84811015613db2578151870160a080601f19838c03011215613e0d57600080fd5b613e168161503a565b858301516001600160401b03811115613e2e57600080fd5b613e3c8c8883870101613ea6565b825250604080840151613e4e816150af565b82880152606084810151613e61816150af565b918301919091526080848101519183019190915291909201519082015284529282019290820190600101613dec565b8051610892816150c7565b8035610892816150af565b600082601f830112613eb6578081fd5b81516001600160401b03811115613ecb578182fd5b613ede601f8201601f191660200161503a565b9150808252836020828501011115613ef557600080fd5b613f0681602084016020860161507f565b5092915050565b600060a08284031215613f1e578081fd5b613f2860a061503a565b90508151613f35816150af565b8082525060208083015181830152604083015160408301526060830151606083015260808301516001600160401b0380821115613f7157600080fd5b818501915085601f830112613f8557600080fd5b8151613f93613d6482615060565b8181528481019084860160005b8481101561413157815187016102c080601f19838f03011215613fc257600080fd5b613fcb8161503a565b613fd78e8c8501613d3b565b8152613fe68e60408501613d3b565b8b820152606083015189811115613ffc57600080fd5b61400a8f8d83870101613ea6565b60408301525060808301518981111561402257600080fd5b6140308f8d83870101613ea6565b60608301525060a0830151608082015260c083015160a082015260e083015160c082015261010083015160e08201526101208301516101008201526101408301516101208201526101608301516101408201526101808301516101608201526101a08301516101808201526101c06140aa8f828601613e90565b6101a08301526101e080850151828401526102008501518184015250506102206140d68f828601613d3b565b61020083015261024084015181830152506102608301516102408201526102808301516102608201526102a08301516102808201526141178e838501613e90565b6102a0820152865250509287019290870190600101613fa0565b5050608087015250939695505050505050565b600060208284031215614155578081fd5b8135613487816150af565b600060208284031215614171578081fd5b8151613487816150af565b60006020828403121561418d578081fd5b81516001600160401b038111156141a2578182fd5b6141ae84828501613d46565b949350505050565b600060208083850312156141c8578182fd5b82516001600160401b038111156141dd578283fd5b8301601f810185136141ed578283fd5b80516141fb613d6482615060565b8181528381019083850185840285018601891015614217578687fd5b8694505b838510156142415761422d8982613d3b565b83526001949094019391850191850161421b565b50979650505050505050565b6000806040838503121561425f578081fd5b82356001600160401b03811115614274578182fd5b8301601f81018513614284578182fd5b8035614292613d6482615060565b8082825260208083019250808501898283870288010111156142b2578687fd5b8695505b848610156142dc576142c88a82613e9b565b8452600195909501949281019281016142b6565b50909896013596505050505050565b6000806000606084860312156142ff578081fd5b83516001600160401b03811115614314578182fd5b8401601f81018613614324578182fd5b8051614332613d6482615060565b81815260208082019190848101865b8581101561436a576143588c8484518a0101613f0d565b85529382019390820190600101614341565b505088015160409098015190999798509695505050505050565b600060208284031215614395578081fd5b81516001600160401b038111156143aa578182fd5b6141ae84828501613dbd565b600080604083850312156143c8578182fd5b82516001600160401b03808211156143de578384fd5b818501915085601f8301126143f1578384fd5b81516143ff613d6482615060565b80828252602080830192508086018a82838702890101111561441f578889fd5b8896505b84871015614441578051845260019690960195928101928101614423565b508801519096509350505080821115614458578283fd5b5061446585828601613dbd565b9150509250929050565b600060208284031215614480578081fd5b8135613487816150c7565b60006020828403121561449c578081fd5b8151613487816150c7565b600080604083850312156144b9578182fd5b82516144c4816150c7565b6020939093015192949293505050565b600080604083850312156144e6578182fd5b82356144f1816150af565b91506020830135614501816150af565b809150509250929050565b6000806040838503121561451e578182fd5b8235614529816150af565b946020939093013593505050565b600060208284031215614548578081fd5b81516001600160401b0381111561455d578182fd5b6141ae84828501613ea6565b60006020828403121561457a578081fd5b5035919050565b600060208284031215614592578081fd5b5051919050565b600080604083850312156145ab578182fd5b505080516020909101519092909150565b600080600080600060a086880312156145d3578283fd5b85519450602080870151945060408701516001600160401b03808211156145f8578586fd5b6146048a838b01613d46565b95506060890151915080821115614619578384fd5b508701601f8101891361462a578283fd5b8051614638613d6482615060565b81815283810190838501865b8481101561466d5761465b8e888451890101613ea6565b84529286019290860190600101614644565b505080965050505050506146848760808801613e90565b90509295509295909350565b6000602082840312156146a1578081fd5b815160ff81168114613487578182fd5b6001600160a01b03169052565b6000815180845260208085019450808401835b838110156146f65781516001600160a01b0316875295820195908201906001016146d1565b509495945050505050565b6000815180845260208085019450848183028601828601855b8581101561474457838303895261473283835161493e565b9885019892509084019060010161471a565b5090979650505050505050565b6000815180845260208085019450808401835b838110156146f6578151151587529582019590820190600101614764565b6000815180845260208085019450848183028601828601855b858110156147445783830389526147b3838351614a7e565b9885019892509084019060010161479b565b60008282518085526020808601955080818302840101818601855b8481101561474457601f1986840301895281516102c06148018583516146b1565b85820151614811878701826146b1565b50604080830151828288015261482983880182614a7e565b92505050606080830151868303828801526148448382614a7e565b6080858101519089015260a0808601519089015260c0808601519089015260e08086015190890152610100808601519089015261012080860151908901526101408086015190890152610160808601519089015261018080860151908901526101a080860151919450925090506148bd82880182614a78565b50506101c082810151908601526101e08083015190860152610200808301516148e8828801826146b1565b505061022082810151908601526102408083015190860152610260808301519086015261028080830151908601526102a0918201519161492a81870184614a78565b5099850199935050908301906001016147e0565b6000815180845260208085019450848183028601828601855b85811015614744578383038952815180516001600160a01b031684528581015186850152604080820151908501526060808201519085015260809081015160a0918501829052906149aa818601836147c5565b9a87019a9450505090840190600101614957565b60008282518085526020808601955080818302840101818601855b8481101561474457601f19868403018952815160a081518186526149ff82870182614a7e565b838801516001600160a01b03908116888a015260408086015190911690880152606080850151908801526080938401519390960192909252505097830197908301906001016149d9565b6000815180845260208085019450808401835b838110156146f657815187529582019590820190600101614a5c565b15159052565b60008151808452614a9681602086016020860161507f565b601f01601f19169290920160200192915050565b60008251614abc81846020870161507f565b9190910192915050565b60008451614ad881846020890161507f565b845190830190614aec81836020890161507f565b602f60f81b91019081528351614b0981600184016020880161507f565b620204c560ec1b6001929091019182015260040195945050505050565b60008351614b3881846020880161507f565b602d60f81b9083019081528351614b5681600184016020880161507f565b01600101949350505050565b652aa72496ab1960d11b815260060190565b692ab734b9bbb0b8102b1960b11b8152600a0190565b620534c560ec1b815260030190565b7129bab9b434a9bbb0b8102628102a37b5b2b760711b815260120190565b6001600160a01b0391909116815260200190565b6001600160a01b0392831681529116602082015260400190565b600060808252614bf86080830187614701565b8281036020840152614c0a8187614a49565b90508281036040840152614c1e8186614a49565b90508281036060840152614c328185614751565b979650505050505050565b60a0808252865190820181905260009060209060c0840190828a01845b82811015614c7f5781516001600160a01b031684529284019290840190600101614c5a565b50505083810382850152614c938189614701565b9150508281036040840152614ca88187614a49565b90508281036060840152614cbc8186614a49565b90508281036080840152614cd08185614751565b98975050505050505050565b60006020825261348760208301846147c5565b600060608252614d02606083018661493e565b60208301949094525060400152919050565b600060408252614d276040830185614a49565b8281036020840152614d3981856149be565b95945050505050565b60006080808352614d5581840188614a49565b602084820381860152614d6882896149be565b9150604085830381870152828851808552838501915083848202860101848b01885b83811015614dfb57601f19888403018552815160a0815185528882015189860152878201518189870152614dc0828701826146be565b91505060608083015186830382880152614dda8382614782565b938d01511515968d0196909652505094870194925090860190600101614d8a565b505088810360608a0152614e0f818b614751565b9d9c50505050505050505050505050565b901515815260200190565b6001600160a01b03929092168252602082015260400190565b6020808252601b908201527f536166654d6174683a206164646974696f6e206f766572666c6f770000000000604082015260600190565b6020808252601e908201527f536166654d6174683a207375627472616374696f6e206f766572666c6f770000604082015260600190565b6020808252601a908201527f536166654d6174683a206469766973696f6e206279207a65726f000000000000604082015260600190565b6020808252602e908201527f496e697469616c697a61626c653a20636f6e747261637420697320616c72656160408201526d191e481a5b9a5d1a585b1a5e995960921b606082015260800190565b60208082526021908201527f536166654d6174683a206d756c7469706c69636174696f6e206f766572666c6f6040820152607760f81b606082015260800190565b60208082526036908201527f46757365506f6f6c4469726563746f727920696e7374616e63652063616e6e6f6040820152753a103132903a3432903d32b9379030b2323932b9b99760511b606082015260800190565b918252602082015260400190565b600086825285602083015260a06040830152614ffb60a08301866146be565b828103606084015261500d8186614782565b91505082151560808301529695505050505050565b92835260208301919091521515604082015260600190565b6040518181016001600160401b038111828210171561505857600080fd5b604052919050565b60006001600160401b03821115615075578081fd5b5060209081020190565b60005b8381101561509a578181015183820152602001615082565b838111156150a9576000848401525b50505050565b6001600160a01b03811681146150c457600080fd5b50565b80151581146150c457600080fdfea26469706673582212207e39bb5e0e347fbd8a3371e9195c2ace6c8625df414f5b36559985912a5ecd1e64736f6c634300060c0033",
  "devdoc": {
    "author": "David Lucid <david@rari.capital> (https://github.com/davidlucid)",
    "kind": "dev",
    "methods": {
      "getPoolAssetsWithData(address)": {
        "details": "This function is not designed to be called in a transaction: it is too gas-intensive. Ideally, we can add the `view` modifier, but many cToken functions potentially modify the state.",
        "params": {
          "comptroller": "The Comptroller proxy contract of the Fuse pool."
        },
        "returns": {
          "_0": "An array of Fuse pool assets."
        }
      },
      "getPoolUserSummary(address,address)": {
        "details": "This function is not designed to be called in a transaction: it is too gas-intensive. Ideally, we can add the `view` modifier, but many cToken functions potentially modify the state."
      },
      "getPoolUsersWithData(address,uint256)": {
        "details": "This function is not designed to be called in a transaction: it is too gas-intensive. Ideally, we can add the `view` modifier, but many cToken functions potentially modify the state.",
        "params": {
          "comptroller": "The Comptroller proxy contract of the Fuse pool.",
          "maxHealth": "The maximum health (scaled by 1e18) for which to return data."
        },
        "returns": {
          "_0": "An array of Fuse pool users, the pool's close factor, and the pool's liquidation incentive."
        }
      },
      "getPoolUsersWithData(address[],uint256)": {
        "details": "This function is not designed to be called in a transaction: it is too gas-intensive. Ideally, we can add the `view` modifier, but many cToken functions potentially modify the state.",
        "params": {
          "comptrollers": "The Comptroller proxy contracts of the Fuse pools.",
          "maxHealth": "The maximum health (scaled by 1e18) for which to return data."
        },
        "returns": {
          "_0": "An array of arrays of Fuse pool users, an array of pools' close factors, an array of pools' liquidation incentives, and an array of booleans indicating if retrieving each pool's data failed."
        }
      },
      "getPoolsByAccountWithData(address)": {
        "details": "This function is not designed to be called in a transaction: it is too gas-intensive. Ideally, we can add the `view` modifier, but many cToken functions potentially modify the state."
      },
      "getPoolsBySupplier(address)": {
        "details": "This function is not designed to be called in a transaction: it is too gas-intensive."
      },
      "getPoolsBySupplierWithData(address)": {
        "details": "This function is not designed to be called in a transaction: it is too gas-intensive. Ideally, we can add the `view` modifier, but many cToken functions potentially modify the state."
      },
      "getPublicPoolUsersWithData(uint256)": {
        "details": "This function is not designed to be called in a transaction: it is too gas-intensive. Ideally, we can add the `view` modifier, but many cToken functions potentially modify the state.",
        "params": {
          "maxHealth": "The maximum health (scaled by 1e18) for which to return data."
        },
        "returns": {
          "_0": "An array of pools' Comptroller proxy addresses, an array of arrays of Fuse pool users, an array of pools' close factors, an array of pools' liquidation incentives, and an array of booleans indicating if retrieving each pool's data failed."
        }
      },
      "getPublicPoolsByVerificationWithData(bool)": {
        "details": "This function is not designed to be called in a transaction: it is too gas-intensive. Ideally, we can add the `view` modifier, but many cToken functions potentially modify the state."
      },
      "getPublicPoolsWithData()": {
        "details": "This function is not designed to be called in a transaction: it is too gas-intensive. Ideally, we can add the `view` modifier, but many cToken functions potentially modify the state."
      },
      "getUserSummary(address)": {
        "details": "This function is not designed to be called in a transaction: it is too gas-intensive. Ideally, we can add the `view` modifier, but many cToken functions potentially modify the state."
      },
      "getWhitelistedPoolsByAccount(address)": {
        "details": "This function is not designed to be called in a transaction: it is too gas-intensive."
      },
      "getWhitelistedPoolsByAccountWithData(address)": {
        "details": "This function is not designed to be called in a transaction: it is too gas-intensive. Ideally, we can add the `view` modifier, but many cToken functions potentially modify the state."
      }
    },
    "title": "FusePoolLens",
    "version": 1
  },
  "userdoc": {
    "kind": "user",
    "methods": {
      "directory()": {
        "notice": "`FusePoolDirectory` contract object."
      },
      "getPoolAssetsWithData(address)": {
        "notice": "Returns the assets of the specified Fuse pool."
      },
      "getPoolSummary(address)": {
        "notice": "Returns total supply balance (in ETH), total borrow balance (in ETH), underlying token addresses, and underlying token symbols of a Fuse pool."
      },
      "getPoolUserSummary(address,address)": {
        "notice": "Returns the total supply balance (in ETH) and the total borrow balance (in ETH) of the caller in the specified pool."
      },
      "getPoolUsersWithData(address,uint256)": {
        "notice": "Returns the borrowers of the specified Fuse pool."
      },
      "getPoolUsersWithData(address[],uint256)": {
        "notice": "Returns the users of the specified Fuse pools."
      },
      "getPoolsByAccountWithData(address)": {
        "notice": "Returns arrays of the indexes of Fuse pools created by `account`, data, total supply balances (in ETH), total borrow balances (in ETH), arrays of underlying token addresses, arrays of underlying asset symbols, and booleans indicating if retrieving each pool's data failed."
      },
      "getPoolsBySupplier(address)": {
        "notice": "Returns arrays of Fuse pool indexes and data supplied to by `account`."
      },
      "getPoolsBySupplierWithData(address)": {
        "notice": "Returns arrays of the indexes of Fuse pools supplied to by `account`, data, total supply balances (in ETH), total borrow balances (in ETH), arrays of underlying token addresses, arrays of underlying asset symbols, and booleans indicating if retrieving each pool's data failed."
      },
      "getPublicPoolUsersWithData(uint256)": {
        "notice": "Returns the users of each public Fuse pool."
      },
      "getPublicPoolsByVerificationWithData(bool)": {
        "notice": "Returns arrays of all whitelisted public Fuse pool indexes, data, total supply balances (in ETH), total borrow balances (in ETH), arrays of underlying token addresses, arrays of underlying asset symbols, and booleans indicating if retrieving each pool's data failed."
      },
      "getPublicPoolsWithData()": {
        "notice": "Returns arrays of all public Fuse pool indexes, data, total supply balances (in ETH), total borrow balances (in ETH), arrays of underlying token addresses, arrays of underlying asset symbols, and booleans indicating if retrieving each pool's data failed."
      },
      "getUserSummary(address)": {
        "notice": "Returns the total supply balance (in ETH) and the total borrow balance (in ETH) of the caller across all pools."
      },
      "getWhitelistedPoolsByAccount(address)": {
        "notice": "Returns arrays of Fuse pool indexes and data with a whitelist containing `account`. Note that the whitelist does not have to be enforced."
      },
      "getWhitelistedPoolsByAccountWithData(address)": {
        "notice": "Returns arrays of the indexes of Fuse pools with a whitelist containing `account`, data, total supply balances (in ETH), total borrow balances (in ETH), arrays of underlying token addresses, arrays of underlying asset symbols, and booleans indicating if retrieving each pool's data failed."
      },
      "initialize(address)": {
        "notice": "Constructor to set the `FusePoolDirectory` contract object."
      }
    },
    "notice": "FusePoolLens returns data on Fuse interest rate pools in mass for viewing by dApps, bots, etc.",
    "version": 1
  },
  "storageLayout": {
    "storage": [
      {
        "astId": 572,
        "contract": "contracts/rari-fuse/src/FusePoolLens.sol:FusePoolLens",
        "label": "_initialized",
        "offset": 0,
        "slot": "0",
        "type": "t_bool"
      },
      {
        "astId": 575,
        "contract": "contracts/rari-fuse/src/FusePoolLens.sol:FusePoolLens",
        "label": "_initializing",
        "offset": 1,
        "slot": "0",
        "type": "t_bool"
      },
      {
        "astId": 5673,
        "contract": "contracts/rari-fuse/src/FusePoolLens.sol:FusePoolLens",
        "label": "directory",
        "offset": 2,
        "slot": "0",
        "type": "t_contract(FusePoolDirectory)5624"
      }
    ],
    "types": {
      "t_bool": {
        "encoding": "inplace",
        "label": "bool",
        "numberOfBytes": "1"
      },
      "t_contract(FusePoolDirectory)5624": {
        "encoding": "inplace",
        "label": "contract FusePoolDirectory",
        "numberOfBytes": "20"
      }
    }
  }
}