{
  "address": "0xB4d0774C38bD9A4539CA7810ddEd8C3599a766Fe",
  "abi": [
    {
      "anonymous": false,
      "inputs": [
        {
          "indexed": true,
          "internalType": "address",
          "name": "previousOwner",
          "type": "address"
        },
        {
          "indexed": true,
          "internalType": "address",
          "name": "newOwner",
          "type": "address"
        }
      ],
      "name": "OwnershipTransferred",
      "type": "event"
    },
    {
      "inputs": [
        {
          "internalType": "address[]",
          "name": "targets",
          "type": "address[]"
        },
        {
          "internalType": "bytes[]",
          "name": "data",
          "type": "bytes[]"
        }
      ],
      "name": "_callPool",
      "outputs": [],
      "stateMutability": "nonpayable",
      "type": "function"
    },
    {
      "inputs": [
        {
          "internalType": "address[]",
          "name": "targets",
          "type": "address[]"
        },
        {
          "internalType": "bytes",
          "name": "data",
          "type": "bytes"
        }
      ],
      "name": "_callPool",
      "outputs": [],
      "stateMutability": "nonpayable",
      "type": "function"
    },
    {
      "inputs": [
        {
          "internalType": "address[]",
          "name": "oldImplementations",
          "type": "address[]"
        },
        {
          "internalType": "address[]",
          "name": "newImplementations",
          "type": "address[]"
        },
        {
          "internalType": "bool[]",
          "name": "allowResign",
          "type": "bool[]"
        },
        {
          "internalType": "bool[]",
          "name": "statuses",
          "type": "bool[]"
        }
      ],
      "name": "_editCErc20DelegateWhitelist",
      "outputs": [],
      "stateMutability": "nonpayable",
      "type": "function"
    },
    {
      "inputs": [
        {
          "internalType": "address[]",
          "name": "oldImplementations",
          "type": "address[]"
        },
        {
          "internalType": "address[]",
          "name": "newImplementations",
          "type": "address[]"
        },
        {
          "internalType": "bool[]",
          "name": "allowResign",
          "type": "bool[]"
        },
        {
          "internalType": "bool[]",
          "name": "statuses",
          "type": "bool[]"
        }
      ],
      "name": "_editCEtherDelegateWhitelist",
      "outputs": [],
      "stateMutability": "nonpayable",
      "type": "function"
    },
    {
      "inputs": [
        {
          "internalType": "address[]",
          "name": "oldImplementations",
          "type": "address[]"
        },
        {
          "internalType": "address[]",
          "name": "newImplementations",
          "type": "address[]"
        },
        {
          "internalType": "bool[]",
          "name": "statuses",
          "type": "bool[]"
        }
      ],
      "name": "_editComptrollerImplementationWhitelist",
      "outputs": [],
      "stateMutability": "nonpayable",
      "type": "function"
    },
    {
      "inputs": [
        {
          "internalType": "address[]",
          "name": "accounts",
          "type": "address[]"
        },
        {
          "internalType": "bool[]",
          "name": "status",
          "type": "bool[]"
        }
      ],
      "name": "_editGuardianWhitelist",
      "outputs": [],
      "stateMutability": "nonpayable",
      "type": "function"
    },
    {
      "inputs": [
        {
          "internalType": "address",
          "name": "",
          "type": "address"
        }
      ],
      "name": "_latestCErc20Delegate",
      "outputs": [
        {
          "internalType": "address",
          "name": "implementation",
          "type": "address"
        },
        {
          "internalType": "bool",
          "name": "allowResign",
          "type": "bool"
        },
        {
          "internalType": "bytes",
          "name": "becomeImplementationData",
          "type": "bytes"
        }
      ],
      "stateMutability": "view",
      "type": "function"
    },
    {
      "inputs": [
        {
          "internalType": "address",
          "name": "",
          "type": "address"
        }
      ],
      "name": "_latestCEtherDelegate",
      "outputs": [
        {
          "internalType": "address",
          "name": "implementation",
          "type": "address"
        },
        {
          "internalType": "bool",
          "name": "allowResign",
          "type": "bool"
        },
        {
          "internalType": "bytes",
          "name": "becomeImplementationData",
          "type": "bytes"
        }
      ],
      "stateMutability": "view",
      "type": "function"
    },
    {
      "inputs": [],
      "name": "_pauseAllBorrowing",
      "outputs": [],
      "stateMutability": "nonpayable",
      "type": "function"
    },
    {
      "inputs": [
        {
          "internalType": "address",
          "name": "comptroller",
          "type": "address"
        },
        {
          "internalType": "int256",
          "name": "rate",
          "type": "int256"
        }
      ],
      "name": "_setCustomInterestFeeRate",
      "outputs": [],
      "stateMutability": "nonpayable",
      "type": "function"
    },
    {
      "inputs": [
        {
          "internalType": "uint256",
          "name": "_defaultInterestFeeRate",
          "type": "uint256"
        }
      ],
      "name": "_setDefaultInterestFeeRate",
      "outputs": [],
      "stateMutability": "nonpayable",
      "type": "function"
    },
    {
      "inputs": [
        {
          "internalType": "address",
          "name": "oldImplementation",
          "type": "address"
        },
        {
          "internalType": "address",
          "name": "newImplementation",
          "type": "address"
        },
        {
          "internalType": "bool",
          "name": "allowResign",
          "type": "bool"
        },
        {
          "internalType": "bytes",
          "name": "becomeImplementationData",
          "type": "bytes"
        }
      ],
      "name": "_setLatestCErc20Delegate",
      "outputs": [],
      "stateMutability": "nonpayable",
      "type": "function"
    },
    {
      "inputs": [
        {
          "internalType": "address",
          "name": "oldImplementation",
          "type": "address"
        },
        {
          "internalType": "address",
          "name": "newImplementation",
          "type": "address"
        },
        {
          "internalType": "bool",
          "name": "allowResign",
          "type": "bool"
        },
        {
          "internalType": "bytes",
          "name": "becomeImplementationData",
          "type": "bytes"
        }
      ],
      "name": "_setLatestCEtherDelegate",
      "outputs": [],
      "stateMutability": "nonpayable",
      "type": "function"
    },
    {
      "inputs": [
        {
          "internalType": "address",
          "name": "oldImplementation",
          "type": "address"
        },
        {
          "internalType": "address",
          "name": "newImplementation",
          "type": "address"
        }
      ],
      "name": "_setLatestComptrollerImplementation",
      "outputs": [],
      "stateMutability": "nonpayable",
      "type": "function"
    },
    {
      "inputs": [
        {
          "internalType": "uint256",
          "name": "_minBorrowEth",
          "type": "uint256"
        },
        {
          "internalType": "uint256",
          "name": "_maxSupplyEth",
          "type": "uint256"
        },
        {
          "internalType": "uint256",
          "name": "_maxUtilizationRate",
          "type": "uint256"
        }
      ],
      "name": "_setPoolLimits",
      "outputs": [],
      "stateMutability": "nonpayable",
      "type": "function"
    },
    {
      "inputs": [
        {
          "internalType": "address",
          "name": "erc20Contract",
          "type": "address"
        }
      ],
      "name": "_withdrawAssets",
      "outputs": [],
      "stateMutability": "nonpayable",
      "type": "function"
    },
    {
      "inputs": [
        {
          "internalType": "address",
          "name": "",
          "type": "address"
        },
        {
          "internalType": "address",
          "name": "",
          "type": "address"
        },
        {
          "internalType": "bool",
          "name": "",
          "type": "bool"
        }
      ],
      "name": "cErc20DelegateWhitelist",
      "outputs": [
        {
          "internalType": "bool",
          "name": "",
          "type": "bool"
        }
      ],
      "stateMutability": "view",
      "type": "function"
    },
    {
      "inputs": [
        {
          "internalType": "address",
          "name": "",
          "type": "address"
        },
        {
          "internalType": "address",
          "name": "",
          "type": "address"
        },
        {
          "internalType": "bool",
          "name": "",
          "type": "bool"
        }
      ],
      "name": "cEtherDelegateWhitelist",
      "outputs": [
        {
          "internalType": "bool",
          "name": "",
          "type": "bool"
        }
      ],
      "stateMutability": "view",
      "type": "function"
    },
    {
      "inputs": [
        {
          "internalType": "address",
          "name": "",
          "type": "address"
        },
        {
          "internalType": "address",
          "name": "",
          "type": "address"
        }
      ],
      "name": "comptrollerImplementationWhitelist",
      "outputs": [
        {
          "internalType": "bool",
          "name": "",
          "type": "bool"
        }
      ],
      "stateMutability": "view",
      "type": "function"
    },
    {
      "inputs": [
        {
          "internalType": "address",
          "name": "",
          "type": "address"
        }
      ],
      "name": "customInterestFeeRates",
      "outputs": [
        {
          "internalType": "int256",
          "name": "",
          "type": "int256"
        }
      ],
      "stateMutability": "view",
      "type": "function"
    },
    {
      "inputs": [],
      "name": "defaultInterestFeeRate",
      "outputs": [
        {
          "internalType": "uint256",
          "name": "",
          "type": "uint256"
        }
      ],
      "stateMutability": "view",
      "type": "function"
    },
    {
      "inputs": [
        {
          "internalType": "bytes",
          "name": "constructorData",
          "type": "bytes"
        }
      ],
      "name": "deployCErc20",
      "outputs": [
        {
          "internalType": "address",
          "name": "",
          "type": "address"
        }
      ],
      "stateMutability": "nonpayable",
      "type": "function"
    },
    {
      "inputs": [
        {
          "internalType": "bytes",
          "name": "constructorData",
          "type": "bytes"
        }
      ],
      "name": "deployCEther",
      "outputs": [
        {
          "internalType": "address",
          "name": "",
          "type": "address"
        }
      ],
      "stateMutability": "nonpayable",
      "type": "function"
    },
    {
      "inputs": [
        {
          "internalType": "address",
          "name": "owner",
          "type": "address"
        },
        {
          "internalType": "uint256",
          "name": "_defaultInterestFeeRate",
          "type": "uint256"
        },
        {
          "internalType": "address",
          "name": "initialComptrollerImplementation",
          "type": "address"
        },
        {
          "internalType": "address",
          "name": "initialCEtherDelegate",
          "type": "address"
        },
        {
          "internalType": "address",
          "name": "initialCErc20Delegate",
          "type": "address"
        }
      ],
      "name": "initialize",
      "outputs": [],
      "stateMutability": "nonpayable",
      "type": "function"
    },
    {
      "inputs": [],
      "name": "interestFeeRate",
      "outputs": [
        {
          "internalType": "uint256",
          "name": "",
          "type": "uint256"
        }
      ],
      "stateMutability": "view",
      "type": "function"
    },
    {
      "inputs": [
        {
          "internalType": "address",
          "name": "",
          "type": "address"
        }
      ],
      "name": "isGuardian",
      "outputs": [
        {
          "internalType": "bool",
          "name": "",
          "type": "bool"
        }
      ],
      "stateMutability": "view",
      "type": "function"
    },
    {
      "inputs": [
        {
          "internalType": "address",
          "name": "oldImplementation",
          "type": "address"
        }
      ],
      "name": "latestCErc20Delegate",
      "outputs": [
        {
          "internalType": "address",
          "name": "",
          "type": "address"
        },
        {
          "internalType": "bool",
          "name": "",
          "type": "bool"
        },
        {
          "internalType": "bytes",
          "name": "",
          "type": "bytes"
        }
      ],
      "stateMutability": "view",
      "type": "function"
    },
    {
      "inputs": [
        {
          "internalType": "address",
          "name": "oldImplementation",
          "type": "address"
        }
      ],
      "name": "latestCEtherDelegate",
      "outputs": [
        {
          "internalType": "address",
          "name": "",
          "type": "address"
        },
        {
          "internalType": "bool",
          "name": "",
          "type": "bool"
        },
        {
          "internalType": "bytes",
          "name": "",
          "type": "bytes"
        }
      ],
      "stateMutability": "view",
      "type": "function"
    },
    {
      "inputs": [
        {
          "internalType": "address",
          "name": "oldImplementation",
          "type": "address"
        }
      ],
      "name": "latestComptrollerImplementation",
      "outputs": [
        {
          "internalType": "address",
          "name": "",
          "type": "address"
        }
      ],
      "stateMutability": "view",
      "type": "function"
    },
    {
      "inputs": [],
      "name": "maxSupplyEth",
      "outputs": [
        {
          "internalType": "uint256",
          "name": "",
          "type": "uint256"
        }
      ],
      "stateMutability": "view",
      "type": "function"
    },
    {
      "inputs": [],
      "name": "maxUtilizationRate",
      "outputs": [
        {
          "internalType": "uint256",
          "name": "",
          "type": "uint256"
        }
      ],
      "stateMutability": "view",
      "type": "function"
    },
    {
      "inputs": [],
      "name": "minBorrowEth",
      "outputs": [
        {
          "internalType": "uint256",
          "name": "",
          "type": "uint256"
        }
      ],
      "stateMutability": "view",
      "type": "function"
    },
    {
      "inputs": [],
      "name": "owner",
      "outputs": [
        {
          "internalType": "address",
          "name": "",
          "type": "address"
        }
      ],
      "stateMutability": "view",
      "type": "function"
    },
    {
      "inputs": [],
      "name": "renounceOwnership",
      "outputs": [],
      "stateMutability": "nonpayable",
      "type": "function"
    },
    {
      "inputs": [
        {
          "internalType": "address",
          "name": "newOwner",
          "type": "address"
        }
      ],
      "name": "transferOwnership",
      "outputs": [],
      "stateMutability": "nonpayable",
      "type": "function"
    },
    {
      "stateMutability": "payable",
      "type": "receive"
    }
  ],
  "transactionHash": "0xf6a5201343db199e6dae2a9a21013a6adeef549fa2c125aa86ef6cc67fdf6b03",
  "args": [],
  "numDeployments": 1,
  "solcInputHash": "4eb8ce46421ba4dff39c661f2a7e68f4",
  "bytecode": "0x608060405234801561001057600080fd5b50613f39806100206000396000f3fe6080604052600436106102085760003560e01c80638da5cb5b11610118578063c11cd440116100a0578063dd86fea11161006f578063dd86fea1146105de578063dfcb48bd146105f3578063e35a480114610608578063f2fde38b14610628578063fdb25fb1146106485761020f565b8063c11cd44014610569578063c5232b4714610589578063d31c2125146105a9578063d64517b2146105be5761020f565b80639d244f9f116100e75780639d244f9f146104c9578063a01ef25f146104e9578063a430e61714610509578063b01b86fd14610529578063bbcdd6d3146105495761020f565b80638da5cb5b1461045f578063930d2438146104745780639b86a9b5146104945780639c7be708146104b45761020f565b80633465b6e11161019b57806375365b871161016a57806375365b87146103b057806384651d73146103d05780638754e4fd146103f25780638abe0b751461041f5780638d3bb8ef1461043f5761020f565b80633465b6e11461033b57806345cc97051461035b578063715018a61461037b57806371cd40e6146103905761020f565b8063183a3f72116101d7578063183a3f72146102bb57806319c38176146102db5780632acbff39146102fb5780632f876d321461031b5761020f565b806301758fc2146102145780630284db761461023657806306bc46111461026e5780630c68ba211461028e5761020f565b3661020f57005b600080fd5b34801561022057600080fd5b5061023461022f366004612749565b61065d565b005b34801561024257600080fd5b50610256610251366004612341565b6107f0565b60405161026593929190612a50565b60405180910390f35b34801561027a57600080fd5b50610234610289366004612621565b6108ae565b34801561029a57600080fd5b506102ae6102a9366004612341565b610931565b6040516102659190612a9e565b3480156102c757600080fd5b506102566102d6366004612341565b610946565b3480156102e757600080fd5b506102346102f6366004612808565b6109cf565b34801561030757600080fd5b50610234610316366004612808565b610ac0565b34801561032757600080fd5b50610234610336366004612976565b610bc5565b34801561034757600080fd5b50610234610356366004612341565b610c12565b34801561036757600080fd5b50610256610376366004612341565b610d8d565b34801561038757600080fd5b50610234610eab565b34801561039c57600080fd5b506102ae6103ab36600461255d565b610f34565b3480156103bc57600080fd5b506102346103cb3660046125a7565b610f5a565b3480156103dc57600080fd5b506103e561105f565b6040516102659190612aa9565b3480156103fe57600080fd5b5061041261040d366004612906565b611065565b6040516102659190612a3c565b34801561042b57600080fd5b5061025661043a366004612341565b6111b9565b34801561044b57600080fd5b5061023461045a3660046126b3565b611265565b34801561046b57600080fd5b506104126113a6565b34801561048057600080fd5b5061023461048f366004612525565b6113b6565b3480156104a057600080fd5b506104126104af366004612906565b611423565b3480156104c057600080fd5b506103e5611571565b3480156104d557600080fd5b506102ae6104e4366004612525565b611577565b3480156104f557600080fd5b5061023461050436600461264c565b611597565b34801561051557600080fd5b506102346105243660046125a7565b611729565b34801561053557600080fd5b50610234610544366004612871565b611824565b34801561055557600080fd5b50610412610564366004612341565b6118dc565b34801561057557600080fd5b506102ae61058436600461255d565b611922565b34801561059557600080fd5b506103e56105a4366004612341565b611948565b3480156105b557600080fd5b5061023461195a565b3480156105ca57600080fd5b506102346105d9366004612749565b611991565b3480156105ea57600080fd5b506103e5611b10565b3480156105ff57600080fd5b506103e5611c0d565b34801561061457600080fd5b50610234610623366004612946565b611c13565b34801561063457600080fd5b50610234610643366004612341565b611c7f565b34801561065457600080fd5b506103e5611d40565b610665611d46565b6001600160a01b03166106766113a6565b6001600160a01b0316146106a55760405162461bcd60e51b815260040161069c90612d61565b60405180910390fd5b84158015906106b357508487145b80156106be57508483145b80156106c957508481145b6106e55760405162461bcd60e51b815260040161069c90612b96565b60005b858110156107e5578282828181106106fc57fe5b905060200201602081019061071191906128ce565b606a60008b8b8581811061072157fe5b90506020020160208101906107369190612341565b6001600160a01b03166001600160a01b03168152602001908152602001600020600089898581811061076457fe5b90506020020160208101906107799190612341565b6001600160a01b03166001600160a01b0316815260200190815260200160002060008787858181106107a757fe5b90506020020160208101906107bc91906128ce565b151581526020810191909152604001600020805460ff19169115159190911790556001016106e8565b505050505050505050565b606e602090815260009182526040918290208054600180830180548651600261010094831615949094026000190190911692909204601f81018690048602830186019096528582526001600160a01b03831695600160a01b90930460ff1694919290918301828280156108a45780601f10610879576101008083540402835291602001916108a4565b820191906000526020600020905b81548152906001019060200180831161088757829003601f168201915b5050505050905083565b6108b6611d46565b6001600160a01b03166108c76113a6565b6001600160a01b0316146108ed5760405162461bcd60e51b815260040161069c90612d61565b670de0b6b3a76400008113156109155760405162461bcd60e51b815260040161069c90612d96565b6001600160a01b039091166000908152606f6020526040902055565b60706020526000908152604090205460ff1681565b606d602090815260009182526040918290208054600180830180548651600261010094831615949094026000190190911692909204601f81018690048602830186019096528582526001600160a01b03831695600160a01b90930460ff1694919290918301828280156108a45780601f10610879576101008083540402835291602001916108a4565b6109d7611d46565b6001600160a01b03166109e86113a6565b6001600160a01b031614610a0e5760405162461bcd60e51b815260040161069c90612d61565b8215801590610a1c57508281145b610a385760405162461bcd60e51b815260040161069c90612c02565b60005b83811015610ab957828282818110610a4f57fe5b9050602002016020810190610a6491906128ce565b60706000878785818110610a7457fe5b9050602002016020810190610a899190612341565b6001600160a01b031681526020810191909152604001600020805460ff1916911515919091179055600101610a3b565b5050505050565b610ac8611d46565b6001600160a01b0316610ad96113a6565b6001600160a01b031614610aff5760405162461bcd60e51b815260040161069c90612d61565b8215801590610b0d57508281145b610b295760405162461bcd60e51b815260040161069c90612c02565b60005b83811015610ab957610bbc838383818110610b4357fe5b9050602002810190610b559190612ef1565b8080601f016020809104026020016040519081016040528093929190818152602001838380828437600092019190915250899250889150859050818110610b9857fe5b9050602002016020810190610bad9190612341565b6001600160a01b031690611d4a565b50600101610b2c565b610bcd611d46565b6001600160a01b0316610bde6113a6565b6001600160a01b031614610c045760405162461bcd60e51b815260040161069c90612d61565b606692909255606755606855565b6001600160a01b038116610cc8574780610c3e5760405162461bcd60e51b815260040161069c90612b74565b6000610c486113a6565b6001600160a01b031682604051610c5e906113b3565b60006040518083038185875af1925050503d8060008114610c9b576040519150601f19603f3d011682016040523d82523d6000602084013e610ca0565b606091505b5050905080610cc15760405162461bcd60e51b815260040161069c90612dbd565b5050610d8a565b6040516370a0823160e01b815281906000906001600160a01b038316906370a0823190610cf9903090600401612a3c565b60206040518083038186803b158015610d1157600080fd5b505afa158015610d25573d6000803e3d6000fd5b505050506040513d601f19601f82011682018060405250810190610d49919061295e565b905060008111610d6b5760405162461bcd60e51b815260040161069c90612b74565b610d87610d766113a6565b6001600160a01b0384169083611d93565b50505b50565b6000806060610d9a61217d565b6001600160a01b038581166000908152606d6020908152604091829020825160608101845281549485168152600160a01b90940460ff16151584830152600180820180548551600261010094831615949094026000190190911692909204601f81018590048502830185018652808352929486019391929091830182828015610e645780601f10610e3957610100808354040283529160200191610e64565b820191906000526020600020905b815481529060010190602001808311610e4757829003601f168201915b50505091909252505081519192506060916001600160a01b031615159050610e8f5785600082610e9c565b8151602083015160408401515b94509450945050509193909250565b610eb3611d46565b6001600160a01b0316610ec46113a6565b6001600160a01b031614610eea5760405162461bcd60e51b815260040161069c90612d61565b6033546040516000916001600160a01b0316907f8be0079c531659141344cd1fd0a4f28419497f9722a3daafe3b4186f6b6457e0908390a3603380546001600160a01b0319169055565b606a60209081526000938452604080852082529284528284209052825290205460ff1681565b610f62611d46565b6001600160a01b0316610f736113a6565b6001600160a01b031614610f995760405162461bcd60e51b815260040161069c90612d61565b6040518060600160405280856001600160a01b03168152602001841515815260200183838080601f01602080910402602001604051908101604052809392919081815260200183838082843760009201829052509390945250506001600160a01b038089168252606d602090815260409283902085518154878401511515600160a01b0260ff60a01b19929095166001600160a01b0319909116171692909217825591840151805191935061105592600185019291019061219c565b5050505050505050565b60655481565b600080808061107685870187612379565b5050506001600160a01b03811660009081527f6021fa82de881996a3e5fd2d032f74dfe72746b8a66c5510d4ab1a3cb7891507602090815260408083208380529091529020549598509396509294505060ff90921691506110eb90505760405162461bcd60e51b815260040161069c90612d38565b6001600160a01b03821633146111135760405162461bcd60e51b815260040161069c90612c2a565b60606040518061082001604052806107f58152602001612f8a6107f59139905080878760405160200161114893929190612a17565b60405160208183030381529060405290506000338543604051602001611170939291906129cd565b6040516020818303038152906040528051906020012090506000818351602085016000f59050803b6111ab57660214345726332360cc1b6000fd5b955050505050505b92915050565b60008060606111c661217d565b6001600160a01b038581166000908152606e6020908152604091829020825160608101845281549485168152600160a01b90940460ff16151584830152600180820180548551600261010094831615949094026000190190911692909204601f81018590048502830185018652808352929486019391929091830182828015610e645780601f10610e3957610100808354040283529160200191610e64565b61126d611d46565b6001600160a01b031661127e6113a6565b6001600160a01b0316146112a45760405162461bcd60e51b815260040161069c90612d61565b82158015906112b257508285145b80156112bd57508281145b6112d95760405162461bcd60e51b815260040161069c90612ac5565b60005b8381101561139d578282828181106112f057fe5b905060200201602081019061130591906128ce565b6069600089898581811061131557fe5b905060200201602081019061132a9190612341565b6001600160a01b03166001600160a01b03168152602001908152602001600020600087878581811061135857fe5b905060200201602081019061136d9190612341565b6001600160a01b031681526020810191909152604001600020805460ff19169115159190911790556001016112dc565b50505050505050565b6033546001600160a01b03165b90565b6113be611d46565b6001600160a01b03166113cf6113a6565b6001600160a01b0316146113f55760405162461bcd60e51b815260040161069c90612d61565b6001600160a01b039182166000908152606c6020526040902080546001600160a01b03191691909216179055565b6000808061143384860186612458565b5050506001600160a01b03811660009081527fc8cc8bda7ad4886bea3ebbdafa02e79d37c39bf4011696b26a31a0802fd9458b6020908152604080832083805290915290205494965094505060ff90921691506114a490505760405162461bcd60e51b815260040161069c90612c50565b6001600160a01b03821633146114cc5760405162461bcd60e51b815260040161069c90612c2a565b6060604051806107c00160405280610785815260200161377f6107859139905080868660405160200161150193929190612a17565b604051602081830303815290604052905060003360004360405160200161152a939291906129cd565b6040516020818303038152906040528051906020012090506000818351602085016000f59050803b611566576710a1a2ba3432b91760c11b6000fd5b979650505050505050565b60675481565b606960209081526000928352604080842090915290825290205460ff1681565b600054610100900460ff16806115b057506115b0611de9565b806115be575060005460ff16155b6115da5760405162461bcd60e51b815260040161069c90612cea565b600054610100900460ff16158015611605576000805460ff1961ff0019909116610100171660011790555b670de0b6b3a764000085111561162d5760405162461bcd60e51b815260040161069c90612d96565b611635611dfa565b61163e86611c7f565b606585905560001960678190556068556001600160a01b0384811660009081527f5843af22e99e7c98370145a5056245c244ce8ee852f4ef5e6d6a8e410a18cf41602090815260408083208054600160ff19918216811790925588861685527fc8cc8bda7ad4886bea3ebbdafa02e79d37c39bf4011696b26a31a0802fd9458b84528285208580528452828520805482168317905594871684527f6021fa82de881996a3e5fd2d032f74dfe72746b8a66c5510d4ab1a3cb7891507835281842084805290925290912080549092161790558015611721576000805461ff00191690555b505050505050565b611731611d46565b6001600160a01b03166117426113a6565b6001600160a01b0316146117685760405162461bcd60e51b815260040161069c90612d61565b6040518060600160405280856001600160a01b03168152602001841515815260200183838080601f01602080910402602001604051908101604052809392919081815260200183838082843760009201829052509390945250506001600160a01b038089168252606e602090815260409283902085518154878401511515600160a01b0260ff60a01b19929095166001600160a01b0319909116171692909217825591840151805191935061105592600185019291019061219c565b61182c611d46565b6001600160a01b031661183d6113a6565b6001600160a01b0316146118635760405162461bcd60e51b815260040161069c90612d61565b826118805760405162461bcd60e51b815260040161069c90612c79565b60005b83811015610ab9576118d383838080601f016020809104026020016040519081016040528093929190818152602001838380828437600092019190915250899250889150859050818110610b9857fe5b50600101611883565b6001600160a01b038181166000908152606c602052604081205490911661190357816111b3565b506001600160a01b039081166000908152606c60205260409020541690565b606b60209081526000938452604080852082529284528284209052825290205460ff1681565b606f6020526000908152604090205481565b3360009081526070602052604090205460ff166119895760405162461bcd60e51b815260040161069c90612e61565b600019606655565b611999611d46565b6001600160a01b03166119aa6113a6565b6001600160a01b0316146119d05760405162461bcd60e51b815260040161069c90612d61565b84158015906119de57508487145b80156119e957508483145b80156119f457508481145b611a105760405162461bcd60e51b815260040161069c90612e85565b60005b858110156107e557828282818110611a2757fe5b9050602002016020810190611a3c91906128ce565b606b60008b8b85818110611a4c57fe5b9050602002016020810190611a619190612341565b6001600160a01b03166001600160a01b031681526020019081526020016000206000898985818110611a8f57fe5b9050602002016020810190611aa49190612341565b6001600160a01b03166001600160a01b031681526020019081526020016000206000878785818110611ad257fe5b9050602002016020810190611ae791906128ce565b151581526020810191909152604001600020805460ff1916911515919091179055600101611a13565b60408051600481526024810182526020810180516001600160e01b0316635fe3b56760e01b179052905160009182916060913391611b4e91906129fb565b600060405180830381855afa9150503d8060008114611b89576040519150601f19603f3d011682016040523d82523d6000602084013e611b8e565b606091505b5091509150818015611ba1575080516020145b15611c0357600081806020019051810190611bbc919061235d565b6001600160a01b0381166000908152606f6020526040812054919250811315611bea5793506113b392505050565b6000811215611c005760009450505050506113b3565b50505b6065549250505090565b60685481565b611c1b611d46565b6001600160a01b0316611c2c6113a6565b6001600160a01b031614611c525760405162461bcd60e51b815260040161069c90612d61565b670de0b6b3a7640000811115611c7a5760405162461bcd60e51b815260040161069c90612d96565b606555565b611c87611d46565b6001600160a01b0316611c986113a6565b6001600160a01b031614611cbe5760405162461bcd60e51b815260040161069c90612d61565b6001600160a01b038116611ce45760405162461bcd60e51b815260040161069c90612b2e565b6033546040516001600160a01b038084169216907f8be0079c531659141344cd1fd0a4f28419497f9722a3daafe3b4186f6b6457e090600090a3603380546001600160a01b0319166001600160a01b0392909216919091179055565b60665481565b3390565b6060611d8c83836040518060400160405280601e81526020017f416464726573733a206c6f772d6c6576656c2063616c6c206661696c65640000815250611e8c565b9392505050565b610d878363a9059cbb60e01b8484604051602401611db2929190612a85565b60408051601f198184030181529190526020810180516001600160e01b03166001600160e01b031990931692909217909152611ea3565b6000611df430611f32565b15905090565b600054610100900460ff1680611e135750611e13611de9565b80611e21575060005460ff16155b611e3d5760405162461bcd60e51b815260040161069c90612cea565b600054610100900460ff16158015611e68576000805460ff1961ff0019909116610100171660011790555b611e70611f38565b611e78611fb9565b8015610d8a576000805461ff001916905550565b6060611e9b8484600085612093565b949350505050565b6060611ef8826040518060400160405280602081526020017f5361666545524332303a206c6f772d6c6576656c2063616c6c206661696c6564815250856001600160a01b0316611e8c9092919063ffffffff16565b805190915015610d875780806020019051810190611f1691906128ea565b610d875760405162461bcd60e51b815260040161069c90612e17565b3b151590565b600054610100900460ff1680611f515750611f51611de9565b80611f5f575060005460ff16155b611f7b5760405162461bcd60e51b815260040161069c90612cea565b600054610100900460ff16158015611e78576000805460ff1961ff0019909116610100171660011790558015610d8a576000805461ff001916905550565b600054610100900460ff1680611fd25750611fd2611de9565b80611fe0575060005460ff16155b611ffc5760405162461bcd60e51b815260040161069c90612cea565b600054610100900460ff16158015612027576000805460ff1961ff0019909116610100171660011790555b6000612031611d46565b603380546001600160a01b0319166001600160a01b038316908117909155604051919250906000907f8be0079c531659141344cd1fd0a4f28419497f9722a3daafe3b4186f6b6457e0908290a3508015610d8a576000805461ff001916905550565b6060824710156120b55760405162461bcd60e51b815260040161069c90612ca4565b6120be85611f32565b6120da5760405162461bcd60e51b815260040161069c90612de0565b60006060866001600160a01b031685876040516120f791906129fb565b60006040518083038185875af1925050503d8060008114612134576040519150601f19603f3d011682016040523d82523d6000602084013e612139565b606091505b509150915061156682828660608315612153575081611d8c565b8251156121635782518084602001fd5b8160405162461bcd60e51b815260040161069c9190612ab2565b6040805160608082018352600080835260208301529181019190915290565b828054600181600116156101000203166002900490600052602060002090601f016020900481019282601f106121dd57805160ff191683800117855561220a565b8280016001018555821561220a579182015b8281111561220a5782518255916020019190600101906121ef565b5061221692915061221a565b5090565b5b80821115612216576000815560010161221b565b80356111b381612f66565b60008083601f84011261224b578182fd5b50813567ffffffffffffffff811115612262578182fd5b602083019150836020808302850101111561227c57600080fd5b9250929050565b60008083601f840112612294578182fd5b50813567ffffffffffffffff8111156122ab578182fd5b60208301915083602082850101111561227c57600080fd5b600082601f8301126122d3578081fd5b813567ffffffffffffffff808211156122ea578283fd5b604051601f8301601f19168101602001828111828210171561230a578485fd5b60405282815292508284830160200186101561232557600080fd5b8260208601602083013760006020848301015250505092915050565b600060208284031215612352578081fd5b8135611d8c81612f66565b60006020828403121561236e578081fd5b8151611d8c81612f66565b60008060008060008060008060006101208a8c031215612397578485fd5b6123a18b8b61222f565b98506123b08b60208c0161222f565b97506123bf8b60408c0161222f565b965060608a013567ffffffffffffffff808211156123db578687fd5b6123e78d838e016122c3565b975060808c01359150808211156123fc578687fd5b6124088d838e016122c3565b96506124178d60a08e0161222f565b955060c08c013591508082111561242c578485fd5b506124398c828d016122c3565b93505060e08a013591506101008a013590509295985092959850929598565b600080600080600080600080610100898b031215612474578384fd5b61247e8a8a61222f565b975061248d8a60208b0161222f565b9650604089013567ffffffffffffffff808211156124a9578586fd5b6124b58c838d016122c3565b975060608b01359150808211156124ca578586fd5b6124d68c838d016122c3565b96506124e58c60808d0161222f565b955060a08b01359150808211156124fa578485fd5b506125078b828c016122c3565b93505060c0890135915060e089013590509295985092959890939650565b60008060408385031215612537578182fd5b823561254281612f66565b9150602083013561255281612f66565b809150509250929050565b600080600060608486031215612571578283fd5b833561257c81612f66565b9250602084013561258c81612f66565b9150604084013561259c81612f7b565b809150509250925092565b6000806000806000608086880312156125be578081fd5b85356125c981612f66565b945060208601356125d981612f66565b935060408601356125e981612f7b565b9250606086013567ffffffffffffffff811115612604578182fd5b61261088828901612283565b969995985093965092949392505050565b60008060408385031215612633578182fd5b823561263e81612f66565b946020939093013593505050565b600080600080600060a08688031215612663578283fd5b853561266e81612f66565b945060208601359350604086013561268581612f66565b9250606086013561269581612f66565b915060808601356126a581612f66565b809150509295509295909350565b600080600080600080606087890312156126cb578384fd5b863567ffffffffffffffff808211156126e2578586fd5b6126ee8a838b0161223a565b90985096506020890135915080821115612706578586fd5b6127128a838b0161223a565b9096509450604089013591508082111561272a578384fd5b5061273789828a0161223a565b979a9699509497509295939492505050565b6000806000806000806000806080898b031215612764578182fd5b883567ffffffffffffffff8082111561277b578384fd5b6127878c838d0161223a565b909a50985060208b013591508082111561279f578384fd5b6127ab8c838d0161223a565b909850965060408b01359150808211156127c3578384fd5b6127cf8c838d0161223a565b909650945060608b01359150808211156127e7578384fd5b506127f48b828c0161223a565b999c989b5096995094979396929594505050565b6000806000806040858703121561281d578182fd5b843567ffffffffffffffff80821115612834578384fd5b6128408883890161223a565b90965094506020870135915080821115612858578384fd5b506128658782880161223a565b95989497509550505050565b60008060008060408587031215612886578182fd5b843567ffffffffffffffff8082111561289d578384fd5b6128a98883890161223a565b909650945060208701359150808211156128c1578384fd5b5061286587828801612283565b6000602082840312156128df578081fd5b8135611d8c81612f7b565b6000602082840312156128fb578081fd5b8151611d8c81612f7b565b60008060208385031215612918578182fd5b823567ffffffffffffffff81111561292e578283fd5b61293a85828601612283565b90969095509350505050565b600060208284031215612957578081fd5b5035919050565b60006020828403121561296f578081fd5b5051919050565b60008060006060848603121561298a578081fd5b505081359360208301359350604090920135919050565b600081518084526129b9816020860160208601612f36565b601f01601f19169290920160200192915050565b6bffffffffffffffffffffffff19606094851b811682529290931b9091166014830152602882015260480190565b60008251612a0d818460208701612f36565b9190910192915050565b60008451612a29818460208901612f36565b8201838582379092019182525092915050565b6001600160a01b0391909116815260200190565b6001600160a01b03841681528215156020820152606060408201819052600090612a7c908301846129a1565b95945050505050565b6001600160a01b03929092168252602082015260400190565b901515815260200190565b90815260200190565b600060208252611d8c60208301846129a1565b60208082526043908201527f4e6f20436f6d7074726f6c6c657220696d706c656d656e746174696f6e73207360408201527f7570706c696564206f72206172726179206c656e67746873206e6f742065717560608201526230b61760e91b608082015260a00190565b60208082526026908201527f4f776e61626c653a206e6577206f776e657220697320746865207a65726f206160408201526564647265737360d01b606082015260800190565b6020808252600890820152672162616c616e636560c01b604082015260600190565b60208082526046908201527f4e6f2043457263323044656c656761746520696d706c656d656e746174696f6e60408201527f7320737570706c696564206f72206172726179206c656e67746873206e6f742060608201526532b8bab0b61760d11b608082015260a00190565b6020808252600e908201526d214172726179206c656e6774687360901b604082015260600190565b6020808252600c908201526b10a1b7b6b83a3937b63632b960a11b604082015260600190565b6020808252600f908201526e2143457468657244656c656761746560881b604082015260600190565b602080825260119082015270217461726765742061646472657373657360781b604082015260600190565b60208082526026908201527f416464726573733a20696e73756666696369656e742062616c616e636520666f6040820152651c8818d85b1b60d21b606082015260800190565b6020808252602e908201527f496e697469616c697a61626c653a20636f6e747261637420697320616c72656160408201526d191e481a5b9a5d1a585b1a5e995960921b606082015260800190565b6020808252600f908201526e2143457263323044656c656761746560881b604082015260600190565b6020808252818101527f4f776e61626c653a2063616c6c6572206973206e6f7420746865206f776e6572604082015260600190565b6020808252600d908201526c21496e7465726573742066656560981b604082015260600190565b60208082526009908201526810ba3930b739b332b960b91b604082015260600190565b6020808252601d908201527f416464726573733a2063616c6c20746f206e6f6e2d636f6e7472616374000000604082015260600190565b6020808252602a908201527f5361666545524332303a204552433230206f7065726174696f6e20646964206e6040820152691bdd081cdd58d8d9595960b21b606082015260800190565b6020808252600a908201526910b3bab0b93234b0b71760b11b604082015260600190565b60208082526046908201527f4e6f2043457468657244656c656761746520696d706c656d656e746174696f6e60408201527f7320737570706c696564206f72206172726179206c656e67746873206e6f742060608201526532b8bab0b61760d11b608082015260a00190565b6000808335601e19843603018112612f07578283fd5b83018035915067ffffffffffffffff821115612f21578283fd5b60200191503681900382131561227c57600080fd5b60005b83811015612f51578181015183820152602001612f39565b83811115612f60576000848401525b50505050565b6001600160a01b0381168114610d8a57600080fd5b8015158114610d8a57600080fdfe608060405234801561001057600080fd5b506040516107f53803806107f5833981810160405261012081101561003457600080fd5b81516020830151604080850151606086018051925194969395919493918201928464010000000082111561006757600080fd5b90830190602082018581111561007c57600080fd5b825164010000000081118282018810171561009657600080fd5b82525081516020918201929091019080838360005b838110156100c35781810151838201526020016100ab565b50505050905090810190601f1680156100f05780820380516001836020036101000a031916815260200191505b506040526020018051604051939291908464010000000082111561011357600080fd5b90830190602082018581111561012857600080fd5b825164010000000081118282018810171561014257600080fd5b82525081516020918201929091019080838360005b8381101561016f578181015183820152602001610157565b50505050905090810190601f16801561019c5780820380516001836020036101000a031916815260200191505b506040818152602083015192018051929491939192846401000000008211156101c457600080fd5b9083019060208201858111156101d957600080fd5b82516401000000008111828201881017156101f357600080fd5b82525081516020918201929091019080838360005b83811015610220578181015183820152602001610208565b50505050905090810190601f16801561024d5780820380516001836020036101000a031916815260200191505b50604081815260208381015193909101516001600160a01b03808e1660248501908152818e166044860152908c16606485015260c4840185905260e4840182905260e0608485019081528b516101048601528b519597509195506103b59489948f948f948f948f948f948d948d949260a4830192610124019189019080838360005b838110156102e75781810151838201526020016102cf565b50505050905090810190601f1680156103145780820380516001836020036101000a031916815260200191505b50838103825286518152865160209182019188019080838360005b8381101561034757818101518382015260200161032f565b50505050905090810190601f1680156103745780820380516001836020036101000a031916815260200191505b5060408051601f198184030181529190526020810180516001600160e01b0390811663a0b0d28960e01b17909152909a506104981698505050505050505050565b50610489848560008660405160240180846001600160a01b03166001600160a01b031681526020018315151515815260200180602001828103825283818151815260200191508051906020019080838360005b83811015610420578181015183820152602001610408565b50505050905090810190601f16801561044d5780820380516001836020036101000a031916815260200191505b5060408051601f198184030181529190526020810180516001600160e01b039081166350d85b7360e01b17909152909550610498169350505050565b5050505050505050505061055a565b606060006060846001600160a01b0316846040518082805190602001908083835b602083106104d85780518252601f1990920191602091820191016104b9565b6001836020036101000a038019825116818451168082178552505050505050905001915050600060405180830381855af49150503d8060008114610538576040519150601f19603f3d011682016040523d82523d6000602084013e61053d565b606091505b50915091506000821415610552573d60208201fd5b949350505050565b61028c806105696000396000f3fe60806040526004361061001e5760003560e01c80635c60da1b1461011e575b341561005b5760405162461bcd60e51b81526004018080602001828103825260378152602001806102216037913960400191505060405180910390fd5b6000546040805160048152602481019091526020810180516001600160e01b031663076de25160e21b17905261009a916001600160a01b03169061014f565b50600080546040516001600160a01b0390911690829036908083838082843760405192019450600093509091505080830381855af49150503d80600081146100fe576040519150601f19603f3d011682016040523d82523d6000602084013e610103565b606091505b505090506040513d6000823e81801561011a573d82f35b3d82fd5b34801561012a57600080fd5b50610133610211565b604080516001600160a01b039092168252519081900360200190f35b606060006060846001600160a01b0316846040518082805190602001908083835b6020831061018f5780518252601f199092019160209182019101610170565b6001836020036101000a038019825116818451168082178552505050505050905001915050600060405180830381855af49150503d80600081146101ef576040519150601f19603f3d011682016040523d82523d6000602084013e6101f4565b606091505b50915091506000821415610209573d60208201fd5b949350505050565b6000546001600160a01b03168156fe43457263323044656c656761746f723a66616c6c6261636b3a2063616e6e6f742073656e642076616c756520746f2066616c6c6261636ba265627a7a72315820b5993ce32c06c76405b2f598c9dc406d72f2951447dd5a698c7f75652745767064736f6c63430005110032608060405234801561001057600080fd5b50604051610785380380610785833981810160405261010081101561003457600080fd5b8151602083015160408085018051915193959294830192918464010000000082111561005f57600080fd5b90830190602082018581111561007457600080fd5b825164010000000081118282018810171561008e57600080fd5b82525081516020918201929091019080838360005b838110156100bb5781810151838201526020016100a3565b50505050905090810190601f1680156100e85780820380516001836020036101000a031916815260200191505b506040526020018051604051939291908464010000000082111561010b57600080fd5b90830190602082018581111561012057600080fd5b825164010000000081118282018810171561013a57600080fd5b82525081516020918201929091019080838360005b8381101561016757818101518382015260200161014f565b50505050905090810190601f1680156101945780820380516001836020036101000a031916815260200191505b506040818152602083015192018051929491939192846401000000008211156101bc57600080fd5b9083019060208201858111156101d157600080fd5b82516401000000008111828201881017156101eb57600080fd5b82525081516020918201929091019080838360005b83811015610218578181015183820152602001610200565b50505050905090810190601f1680156102455780820380516001836020036101000a031916815260200191505b5060405260200180519060200190929190805190602001909291905050506103ba8489898989878760405160240180876001600160a01b03166001600160a01b03168152602001866001600160a01b03166001600160a01b031681526020018060200180602001858152602001848152602001838103835287818151815260200191508051906020019080838360005b838110156102ed5781810151838201526020016102d5565b50505050905090810190601f16801561031a5780820380516001836020036101000a031916815260200191505b50838103825286518152865160209182019188019080838360005b8381101561034d578181015183820152602001610335565b50505050905090810190601f16801561037a5780820380516001836020036101000a031916815260200191505b5060408051601f198184030181529190526020810180516001600160e01b03908116631e70b25560e21b1790915290995061049c16975050505050505050565b5061048e848560008660405160240180846001600160a01b03166001600160a01b031681526020018315151515815260200180602001828103825283818151815260200191508051906020019080838360005b8381101561042557818101518382015260200161040d565b50505050905090810190601f1680156104525780820380516001836020036101000a031916815260200191505b5060408051601f198184030181529190526020810180516001600160e01b039081166350d85b7360e01b1790915290955061049c169350505050565b50505050505050505061055e565b606060006060846001600160a01b0316846040518082805190602001908083835b602083106104dc5780518252601f1990920191602091820191016104bd565b6001836020036101000a038019825116818451168082178552505050505050905001915050600060405180830381855af49150503d806000811461053c576040519150601f19603f3d011682016040523d82523d6000602084013e610541565b606091505b50915091506000821415610556573d60208201fd5b949350505050565b6102188061056d6000396000f3fe60806040526004361061001e5760003560e01c80635c60da1b146100e1575b6000546040805160048152602481019091526020810180516001600160e01b031663076de25160e21b17905261005d916001600160a01b031690610112565b50600080546040516001600160a01b0390911690829036908083838082843760405192019450600093509091505080830381855af49150503d80600081146100c1576040519150601f19603f3d011682016040523d82523d6000602084013e6100c6565b606091505b505090506040513d6000823e8180156100dd573d82f35b3d82fd5b3480156100ed57600080fd5b506100f66101d4565b604080516001600160a01b039092168252519081900360200190f35b606060006060846001600160a01b0316846040518082805190602001908083835b602083106101525780518252601f199092019160209182019101610133565b6001836020036101000a038019825116818451168082178552505050505050905001915050600060405180830381855af49150503d80600081146101b2576040519150601f19603f3d011682016040523d82523d6000602084013e6101b7565b606091505b509150915060008214156101cc573d60208201fd5b949350505050565b6000546001600160a01b03168156fea265627a7a7231582099cb628afa03dbc8f6a11f192f7b72ed7944736aab47f11754925fa6343e9c9864736f6c63430005110032a2646970667358221220c17d0f36f266ded5b778407542e2582c3e84ae15358a6cfca73fa0a9300020a164736f6c634300060c0033",
  "devdoc": {
    "author": "David Lucid <david@rari.capital> (https://github.com/davidlucid)",
    "kind": "dev",
    "methods": {
      "_callPool(address[],bytes)": {
        "details": "Sends data to a contract.",
        "params": {
          "data": "The data to be sent to each of `targets`.",
          "targets": "The contracts to which `data` will be sent."
        }
      },
      "_callPool(address[],bytes[])": {
        "details": "Sends data to a contract.",
        "params": {
          "data": "The data to be sent to each of `targets`.",
          "targets": "The contracts to which `data` will be sent."
        }
      },
      "_editCErc20DelegateWhitelist(address[],address[],bool[],bool[])": {
        "details": "Adds/removes CErc20Delegate implementations to the whitelist.",
        "params": {
          "allowResign": "Array of `allowResign` values corresponding to `newImplementations` to be whitelisted/unwhitelisted.",
          "newImplementations": "Array of `CErc20Delegate` implementations to be whitelisted/unwhitelisted.",
          "oldImplementations": "The old `CErc20Delegate` implementation addresses to upgrade from for each `newImplementations` to upgrade to.",
          "statuses": "Array of whitelist statuses corresponding to `newImplementations`."
        }
      },
      "_editCEtherDelegateWhitelist(address[],address[],bool[],bool[])": {
        "details": "Adds/removes CEtherDelegate implementations to the whitelist.",
        "params": {
          "allowResign": "Array of `allowResign` values corresponding to `newImplementations` to be whitelisted/unwhitelisted.",
          "newImplementations": "Array of `CEtherDelegate` implementations to be whitelisted/unwhitelisted.",
          "oldImplementations": "The old `CEtherDelegate` implementation addresses to upgrade from for each `newImplementations` to upgrade to.",
          "statuses": "Array of whitelist statuses corresponding to `newImplementations`."
        }
      },
      "_editComptrollerImplementationWhitelist(address[],address[],bool[])": {
        "details": "Adds/removes Comptroller implementations to the whitelist.",
        "params": {
          "newImplementations": "Array of `Comptroller` implementations to be whitelisted/unwhitelisted.",
          "oldImplementations": "The old `Comptroller` implementation addresses to upgrade from for each `newImplementations` to upgrade to.",
          "statuses": "Array of whitelist statuses corresponding to `implementations`."
        }
      },
      "_editGuardianWhitelist(address[],bool[])": {
        "details": "Changes guardian role mapping."
      },
      "_pauseAllBorrowing()": {
        "details": "Globally pauses all borrowing. Accessible by guardian role."
      },
      "_setCustomInterestFeeRate(address,int256)": {
        "details": "Sets the proportion of Fuse pool interest taken as a protocol fee.",
        "params": {
          "comptroller": "The Unitroller (Comptroller proxy) address.",
          "rate": "The proportion of Fuse pool interest taken as a protocol fee (scaled by 1e18)."
        }
      },
      "_setDefaultInterestFeeRate(uint256)": {
        "details": "Sets the default proportion of Fuse pool interest taken as a protocol fee.",
        "params": {
          "_defaultInterestFeeRate": "The default proportion of Fuse pool interest taken as a protocol fee (scaled by 1e18)."
        }
      },
      "_setLatestCErc20Delegate(address,address,bool,bytes)": {
        "details": "Sets the latest `CErc20Delegate` upgrade implementation address and data.",
        "params": {
          "allowResign": "Whether or not `resignImplementation` should be called on the old implementation before upgrade.",
          "becomeImplementationData": "Data passed to the new implementation via `becomeImplementation` after upgrade.",
          "newImplementation": "Latest `CErc20Delegate` implementation address.",
          "oldImplementation": "The old `CErc20Delegate` implementation address to upgrade from."
        }
      },
      "_setLatestCEtherDelegate(address,address,bool,bytes)": {
        "details": "Sets the latest `CEtherDelegate` upgrade implementation address and data.",
        "params": {
          "allowResign": "Whether or not `resignImplementation` should be called on the old implementation before upgrade.",
          "becomeImplementationData": "Data passed to the new implementation via `becomeImplementation` after upgrade.",
          "newImplementation": "Latest `CEtherDelegate` implementation address.",
          "oldImplementation": "The old `CEtherDelegate` implementation address to upgrade from."
        }
      },
      "_setLatestComptrollerImplementation(address,address)": {
        "details": "Sets the latest `Comptroller` upgrade implementation address.",
        "params": {
          "newImplementation": "Latest `Comptroller` implementation address.",
          "oldImplementation": "The old `Comptroller` implementation address to upgrade from."
        }
      },
      "_setPoolLimits(uint256,uint256,uint256)": {
        "details": "Sets the proportion of Fuse pool interest taken as a protocol fee.",
        "params": {
          "_maxSupplyEth": "Maximum supply balance (in ETH) per user per Fuse pool asset.",
          "_maxUtilizationRate": "Maximum utilization rate (scaled by 1e18) for Fuse pool assets (only checked on new borrows, not redemptions).",
          "_minBorrowEth": "Minimum borrow balance (in ETH) per user per Fuse pool asset (only checked on new borrows, not redemptions)."
        }
      },
      "_withdrawAssets(address)": {
        "details": "Withdraws accrued fees on interest.",
        "params": {
          "erc20Contract": "The ERC20 token address to withdraw. Set to the zero address to withdraw ETH."
        }
      },
      "deployCErc20(bytes)": {
        "details": "Deploys a `CErc20Delegator`.",
        "params": {
          "constructorData": "`CErc20Delegator` ABI-encoded constructor data."
        }
      },
      "deployCEther(bytes)": {
        "details": "Deploys a `CEtherDelegator`.",
        "params": {
          "constructorData": "`CEtherDelegator` ABI-encoded constructor data."
        }
      },
      "initialize(address,uint256,address,address,address)": {
        "details": "Initializer that sets initial values of state variables.",
        "params": {
          "_defaultInterestFeeRate": "The default proportion of Fuse pool interest taken as a protocol fee (scaled by 1e18).",
          "initialCErc20Delegate": "The initial CErc20Delegate implementation",
          "initialCEtherDelegate": "The initial CEtherDelegate implementation",
          "initialComptrollerImplementation": "The initial comptroller implementation",
          "owner": "Default owner."
        }
      },
      "latestCErc20Delegate(address)": {
        "details": "Latest CErc20Delegate implementation for each existing implementation."
      },
      "latestCEtherDelegate(address)": {
        "details": "Latest CEtherDelegate implementation for each existing implementation."
      },
      "latestComptrollerImplementation(address)": {
        "details": "Latest Comptroller implementation for each existing implementation."
      },
      "owner()": {
        "details": "Returns the address of the current owner."
      },
      "renounceOwnership()": {
        "details": "Leaves the contract without owner. It will not be possible to call `onlyOwner` functions anymore. Can only be called by the current owner. NOTE: Renouncing ownership will leave the contract without an owner, thereby removing any functionality that is only available to the owner."
      },
      "transferOwnership(address)": {
        "details": "Transfers ownership of the contract to a new account (`newOwner`). Can only be called by the current owner."
      }
    },
    "stateVariables": {
      "_latestCErc20Delegate": {
        "details": "Latest CErc20Delegate implementation for each existing implementation."
      },
      "_latestCEtherDelegate": {
        "details": "Latest CEtherDelegate implementation for each existing implementation."
      },
      "_latestComptrollerImplementation": {
        "details": "Latest Comptroller implementation for each existing implementation."
      },
      "cErc20DelegateWhitelist": {
        "details": "Whitelisted CErc20Delegate implementation contract addresses and `allowResign` values for each existing implementation."
      },
      "cEtherDelegateWhitelist": {
        "details": "Whitelisted CEtherDelegate implementation contract addresses and `allowResign` values for each existing implementation."
      },
      "comptrollerImplementationWhitelist": {
        "details": "Whitelisted Comptroller implementation contract addresses for each existing implementation."
      },
      "customInterestFeeRates": {
        "details": "A value of 0 means unset whereas a negative value means 0."
      },
      "isGuardian": {
        "details": "Maps underlying addresses to guardian role."
      },
      "maxSupplyEth": {
        "details": "Maximum supply balance (in ETH) per user per Fuse pool asset. No longer used as of `Rari-Capital/compound-protocol` version `fuse-v1.1.0`."
      },
      "maxUtilizationRate": {
        "details": "Maximum utilization rate (scaled by 1e18) for Fuse pool assets (only checked on new borrows, not redemptions). No longer used as of `Rari-Capital/compound-protocol` version `fuse-v1.1.0`."
      },
      "minBorrowEth": {
        "details": "Minimum borrow balance (in ETH) per user per Fuse pool asset (only checked on new borrows, not redemptions)."
      }
    },
    "title": "FuseFeeDistributor",
    "version": 1
  },
  "userdoc": {
    "kind": "user",
    "methods": {
      "customInterestFeeRates(address)": {
        "notice": "Maps Unitroller (Comptroller proxy) addresses to the proportion of Fuse pool interest taken as a protocol fee (scaled by 1e18)."
      },
      "defaultInterestFeeRate()": {
        "notice": "The proportion of Fuse pool interest taken as a protocol fee (scaled by 1e18)."
      },
      "interestFeeRate()": {
        "notice": "Returns the proportion of Fuse pool interest taken as a protocol fee (scaled by 1e18)."
      }
    },
    "notice": "FuseFeeDistributor controls and receives protocol fees from Fuse pools and relays admin actions to Fuse pools.",
    "version": 1
  },
  "storageLayout": {
    "storage": [
      {
        "astId": 572,
        "contract": "contracts/rari-fuse/src/FuseFeeDistributor.sol:FuseFeeDistributor",
        "label": "_initialized",
        "offset": 0,
        "slot": "0",
        "type": "t_bool"
      },
      {
        "astId": 575,
        "contract": "contracts/rari-fuse/src/FuseFeeDistributor.sol:FuseFeeDistributor",
        "label": "_initializing",
        "offset": 1,
        "slot": "0",
        "type": "t_bool"
      },
      {
        "astId": 1740,
        "contract": "contracts/rari-fuse/src/FuseFeeDistributor.sol:FuseFeeDistributor",
        "label": "__gap",
        "offset": 0,
        "slot": "1",
        "type": "t_array(t_uint256)50_storage"
      },
      {
        "astId": 10,
        "contract": "contracts/rari-fuse/src/FuseFeeDistributor.sol:FuseFeeDistributor",
        "label": "_owner",
        "offset": 0,
        "slot": "51",
        "type": "t_address"
      },
      {
        "astId": 129,
        "contract": "contracts/rari-fuse/src/FuseFeeDistributor.sol:FuseFeeDistributor",
        "label": "__gap",
        "offset": 0,
        "slot": "52",
        "type": "t_array(t_uint256)49_storage"
      },
      {
        "astId": 3673,
        "contract": "contracts/rari-fuse/src/FuseFeeDistributor.sol:FuseFeeDistributor",
        "label": "defaultInterestFeeRate",
        "offset": 0,
        "slot": "101",
        "type": "t_uint256"
      },
      {
        "astId": 3773,
        "contract": "contracts/rari-fuse/src/FuseFeeDistributor.sol:FuseFeeDistributor",
        "label": "minBorrowEth",
        "offset": 0,
        "slot": "102",
        "type": "t_uint256"
      },
      {
        "astId": 3776,
        "contract": "contracts/rari-fuse/src/FuseFeeDistributor.sol:FuseFeeDistributor",
        "label": "maxSupplyEth",
        "offset": 0,
        "slot": "103",
        "type": "t_uint256"
      },
      {
        "astId": 3779,
        "contract": "contracts/rari-fuse/src/FuseFeeDistributor.sol:FuseFeeDistributor",
        "label": "maxUtilizationRate",
        "offset": 0,
        "slot": "104",
        "type": "t_uint256"
      },
      {
        "astId": 4101,
        "contract": "contracts/rari-fuse/src/FuseFeeDistributor.sol:FuseFeeDistributor",
        "label": "comptrollerImplementationWhitelist",
        "offset": 0,
        "slot": "105",
        "type": "t_mapping(t_address,t_mapping(t_address,t_bool))"
      },
      {
        "astId": 4172,
        "contract": "contracts/rari-fuse/src/FuseFeeDistributor.sol:FuseFeeDistributor",
        "label": "cErc20DelegateWhitelist",
        "offset": 0,
        "slot": "106",
        "type": "t_mapping(t_address,t_mapping(t_address,t_mapping(t_bool,t_bool)))"
      },
      {
        "astId": 4256,
        "contract": "contracts/rari-fuse/src/FuseFeeDistributor.sol:FuseFeeDistributor",
        "label": "cEtherDelegateWhitelist",
        "offset": 0,
        "slot": "107",
        "type": "t_mapping(t_address,t_mapping(t_address,t_mapping(t_bool,t_bool)))"
      },
      {
        "astId": 4336,
        "contract": "contracts/rari-fuse/src/FuseFeeDistributor.sol:FuseFeeDistributor",
        "label": "_latestComptrollerImplementation",
        "offset": 0,
        "slot": "108",
        "type": "t_mapping(t_address,t_address)"
      },
      {
        "astId": 4388,
        "contract": "contracts/rari-fuse/src/FuseFeeDistributor.sol:FuseFeeDistributor",
        "label": "_latestCErc20Delegate",
        "offset": 0,
        "slot": "109",
        "type": "t_mapping(t_address,t_struct(CDelegateUpgradeData)4383_storage)"
      },
      {
        "astId": 4393,
        "contract": "contracts/rari-fuse/src/FuseFeeDistributor.sol:FuseFeeDistributor",
        "label": "_latestCEtherDelegate",
        "offset": 0,
        "slot": "110",
        "type": "t_mapping(t_address,t_struct(CDelegateUpgradeData)4383_storage)"
      },
      {
        "astId": 4532,
        "contract": "contracts/rari-fuse/src/FuseFeeDistributor.sol:FuseFeeDistributor",
        "label": "customInterestFeeRates",
        "offset": 0,
        "slot": "111",
        "type": "t_mapping(t_address,t_int256)"
      },
      {
        "astId": 4622,
        "contract": "contracts/rari-fuse/src/FuseFeeDistributor.sol:FuseFeeDistributor",
        "label": "isGuardian",
        "offset": 0,
        "slot": "112",
        "type": "t_mapping(t_address,t_bool)"
      }
    ],
    "types": {
      "t_address": {
        "encoding": "inplace",
        "label": "address",
        "numberOfBytes": "20"
      },
      "t_array(t_uint256)49_storage": {
        "base": "t_uint256",
        "encoding": "inplace",
        "label": "uint256[49]",
        "numberOfBytes": "1568"
      },
      "t_array(t_uint256)50_storage": {
        "base": "t_uint256",
        "encoding": "inplace",
        "label": "uint256[50]",
        "numberOfBytes": "1600"
      },
      "t_bool": {
        "encoding": "inplace",
        "label": "bool",
        "numberOfBytes": "1"
      },
      "t_bytes_storage": {
        "encoding": "bytes",
        "label": "bytes",
        "numberOfBytes": "32"
      },
      "t_int256": {
        "encoding": "inplace",
        "label": "int256",
        "numberOfBytes": "32"
      },
      "t_mapping(t_address,t_address)": {
        "encoding": "mapping",
        "key": "t_address",
        "label": "mapping(address => address)",
        "numberOfBytes": "32",
        "value": "t_address"
      },
      "t_mapping(t_address,t_bool)": {
        "encoding": "mapping",
        "key": "t_address",
        "label": "mapping(address => bool)",
        "numberOfBytes": "32",
        "value": "t_bool"
      },
      "t_mapping(t_address,t_int256)": {
        "encoding": "mapping",
        "key": "t_address",
        "label": "mapping(address => int256)",
        "numberOfBytes": "32",
        "value": "t_int256"
      },
      "t_mapping(t_address,t_mapping(t_address,t_bool))": {
        "encoding": "mapping",
        "key": "t_address",
        "label": "mapping(address => mapping(address => bool))",
        "numberOfBytes": "32",
        "value": "t_mapping(t_address,t_bool)"
      },
      "t_mapping(t_address,t_mapping(t_address,t_mapping(t_bool,t_bool)))": {
        "encoding": "mapping",
        "key": "t_address",
        "label": "mapping(address => mapping(address => mapping(bool => bool)))",
        "numberOfBytes": "32",
        "value": "t_mapping(t_address,t_mapping(t_bool,t_bool))"
      },
      "t_mapping(t_address,t_mapping(t_bool,t_bool))": {
        "encoding": "mapping",
        "key": "t_address",
        "label": "mapping(address => mapping(bool => bool))",
        "numberOfBytes": "32",
        "value": "t_mapping(t_bool,t_bool)"
      },
      "t_mapping(t_address,t_struct(CDelegateUpgradeData)4383_storage)": {
        "encoding": "mapping",
        "key": "t_address",
        "label": "mapping(address => struct FuseFeeDistributor.CDelegateUpgradeData)",
        "numberOfBytes": "32",
        "value": "t_struct(CDelegateUpgradeData)4383_storage"
      },
      "t_mapping(t_bool,t_bool)": {
        "encoding": "mapping",
        "key": "t_bool",
        "label": "mapping(bool => bool)",
        "numberOfBytes": "32",
        "value": "t_bool"
      },
      "t_struct(CDelegateUpgradeData)4383_storage": {
        "encoding": "inplace",
        "label": "struct FuseFeeDistributor.CDelegateUpgradeData",
        "members": [
          {
            "astId": 4378,
            "contract": "contracts/rari-fuse/src/FuseFeeDistributor.sol:FuseFeeDistributor",
            "label": "implementation",
            "offset": 0,
            "slot": "0",
            "type": "t_address"
          },
          {
            "astId": 4380,
            "contract": "contracts/rari-fuse/src/FuseFeeDistributor.sol:FuseFeeDistributor",
            "label": "allowResign",
            "offset": 20,
            "slot": "0",
            "type": "t_bool"
          },
          {
            "astId": 4382,
            "contract": "contracts/rari-fuse/src/FuseFeeDistributor.sol:FuseFeeDistributor",
            "label": "becomeImplementationData",
            "offset": 0,
            "slot": "1",
            "type": "t_bytes_storage"
          }
        ],
        "numberOfBytes": "64"
      },
      "t_uint256": {
        "encoding": "inplace",
        "label": "uint256",
        "numberOfBytes": "32"
      }
    }
  }
}