{
  "address": "0x9662FF43712d303EBe62b131E10A197580b03d89",
  "abi": [
    {
      "inputs": [
        {
          "internalType": "uint256",
          "name": "baseRatePerYear",
          "type": "uint256"
        },
        {
          "internalType": "uint256",
          "name": "multiplierPerYear",
          "type": "uint256"
        },
        {
          "internalType": "uint256",
          "name": "jumpMultiplierPerYear",
          "type": "uint256"
        },
        {
          "internalType": "uint256",
          "name": "kink_",
          "type": "uint256"
        },
        {
          "internalType": "address",
          "name": "owner_",
          "type": "address"
        }
      ],
      "payable": false,
      "stateMutability": "nonpayable",
      "type": "constructor"
    },
    {
      "anonymous": false,
      "inputs": [
        {
          "indexed": false,
          "internalType": "uint256",
          "name": "baseRatePerBlock",
          "type": "uint256"
        },
        {
          "indexed": false,
          "internalType": "uint256",
          "name": "multiplierPerBlock",
          "type": "uint256"
        },
        {
          "indexed": false,
          "internalType": "uint256",
          "name": "jumpMultiplierPerBlock",
          "type": "uint256"
        },
        {
          "indexed": false,
          "internalType": "uint256",
          "name": "kink",
          "type": "uint256"
        }
      ],
      "name": "NewInterestParams",
      "type": "event"
    },
    {
      "constant": true,
      "inputs": [],
      "name": "baseRatePerBlock",
      "outputs": [
        {
          "internalType": "uint256",
          "name": "",
          "type": "uint256"
        }
      ],
      "payable": false,
      "stateMutability": "view",
      "type": "function"
    },
    {
      "constant": true,
      "inputs": [],
      "name": "blocksPerYear",
      "outputs": [
        {
          "internalType": "uint256",
          "name": "",
          "type": "uint256"
        }
      ],
      "payable": false,
      "stateMutability": "view",
      "type": "function"
    },
    {
      "constant": true,
      "inputs": [
        {
          "internalType": "uint256",
          "name": "cash",
          "type": "uint256"
        },
        {
          "internalType": "uint256",
          "name": "borrows",
          "type": "uint256"
        },
        {
          "internalType": "uint256",
          "name": "reserves",
          "type": "uint256"
        }
      ],
      "name": "getBorrowRate",
      "outputs": [
        {
          "internalType": "uint256",
          "name": "",
          "type": "uint256"
        }
      ],
      "payable": false,
      "stateMutability": "view",
      "type": "function"
    },
    {
      "constant": true,
      "inputs": [
        {
          "internalType": "uint256",
          "name": "cash",
          "type": "uint256"
        },
        {
          "internalType": "uint256",
          "name": "borrows",
          "type": "uint256"
        },
        {
          "internalType": "uint256",
          "name": "reserves",
          "type": "uint256"
        },
        {
          "internalType": "uint256",
          "name": "reserveFactorMantissa",
          "type": "uint256"
        }
      ],
      "name": "getSupplyRate",
      "outputs": [
        {
          "internalType": "uint256",
          "name": "",
          "type": "uint256"
        }
      ],
      "payable": false,
      "stateMutability": "view",
      "type": "function"
    },
    {
      "constant": true,
      "inputs": [],
      "name": "isInterestRateModel",
      "outputs": [
        {
          "internalType": "bool",
          "name": "",
          "type": "bool"
        }
      ],
      "payable": false,
      "stateMutability": "view",
      "type": "function"
    },
    {
      "constant": true,
      "inputs": [],
      "name": "jumpMultiplierPerBlock",
      "outputs": [
        {
          "internalType": "uint256",
          "name": "",
          "type": "uint256"
        }
      ],
      "payable": false,
      "stateMutability": "view",
      "type": "function"
    },
    {
      "constant": true,
      "inputs": [],
      "name": "kink",
      "outputs": [
        {
          "internalType": "uint256",
          "name": "",
          "type": "uint256"
        }
      ],
      "payable": false,
      "stateMutability": "view",
      "type": "function"
    },
    {
      "constant": true,
      "inputs": [],
      "name": "multiplierPerBlock",
      "outputs": [
        {
          "internalType": "uint256",
          "name": "",
          "type": "uint256"
        }
      ],
      "payable": false,
      "stateMutability": "view",
      "type": "function"
    },
    {
      "constant": true,
      "inputs": [],
      "name": "owner",
      "outputs": [
        {
          "internalType": "address",
          "name": "",
          "type": "address"
        }
      ],
      "payable": false,
      "stateMutability": "view",
      "type": "function"
    },
    {
      "constant": false,
      "inputs": [
        {
          "internalType": "uint256",
          "name": "baseRatePerYear",
          "type": "uint256"
        },
        {
          "internalType": "uint256",
          "name": "multiplierPerYear",
          "type": "uint256"
        },
        {
          "internalType": "uint256",
          "name": "jumpMultiplierPerYear",
          "type": "uint256"
        },
        {
          "internalType": "uint256",
          "name": "kink_",
          "type": "uint256"
        }
      ],
      "name": "updateJumpRateModel",
      "outputs": [],
      "payable": false,
      "stateMutability": "nonpayable",
      "type": "function"
    },
    {
      "constant": true,
      "inputs": [
        {
          "internalType": "uint256",
          "name": "cash",
          "type": "uint256"
        },
        {
          "internalType": "uint256",
          "name": "borrows",
          "type": "uint256"
        },
        {
          "internalType": "uint256",
          "name": "reserves",
          "type": "uint256"
        }
      ],
      "name": "utilizationRate",
      "outputs": [
        {
          "internalType": "uint256",
          "name": "",
          "type": "uint256"
        }
      ],
      "payable": false,
      "stateMutability": "pure",
      "type": "function"
    }
  ],
  "transactionHash": "0x12633feac5e2ca22c60e06cebe3a6ed9d7db58bcb7a5c7528aaa0a42d9f26b20",
  "args": [
    "0",
    "140000000000000000",
    "1360000000000000000",
    "500000000000000000",
    "0x0000000000000000000000000000000000000000"
  ],
  "numDeployments": 1,
  "solcInputHash": "c04279b95a9643e46d7ebe9f6a5d8bfb",
  "bytecode": "0x608060405234801561001057600080fd5b50604051610a69380380610a69833981810160405260a081101561003357600080fd5b508051602082015160408301516060840151608090940151600080546001600160a01b0319166001600160a01b03831617905592939192909190848484848461007e8585858561008d565b505050505050505050506102bf565b6100a86301e133808561017360201b6105c01790919060201c565b6002556100f86100c76301e13380836101c4602090811b61056717901c565b6100e6670de0b6b3a7640000866101c460201b6105671790919060201c565b61017360201b6105c01790919060201c565b600155610114826301e13380610173602090811b6105c017901c565b60038190556004829055600254600154604080519283526020830191909152818101929092526060810183905290517f6960ab234c7ef4b0c9197100f5393cfcde7c453ac910a27bd2000aa1dd4c068d9181900360800190a150505050565b60006101bb83836040518060400160405280601a81526020017f536166654d6174683a206469766973696f6e206279207a65726f00000000000081525061021d60201b60201c565b90505b92915050565b6000826101d3575060006101be565b828202828482816101e057fe5b04146101bb5760405162461bcd60e51b8152600401808060200182810382526021815260200180610a486021913960400191505060405180910390fd5b600081836102a95760405162461bcd60e51b81526004018080602001828103825283818151815260200191508051906020019080838360005b8381101561026e578181015183820152602001610256565b50505050905090810190601f16801561029b5780820380516001836020036101000a031916815260200191505b509250505060405180910390fd5b5060008385816102b557fe5b0495945050505050565b61077a806102ce6000396000f3fe608060405234801561001057600080fd5b50600436106100a95760003560e01c80638da5cb5b116100715780638da5cb5b14610167578063a385fb961461018b578063b816881614610193578063b9f9850a146101c2578063f14039de146101ca578063fd2da339146101d2576100a9565b806315f24053146100ae5780632037f3e7146100e95780632191f92a1461011a5780636e71e2d8146101365780638726bb891461015f575b600080fd5b6100d7600480360360608110156100c457600080fd5b50803590602081013590604001356101da565b60408051918252519081900360200190f35b610118600480360360808110156100ff57600080fd5b50803590602081013590604081013590606001356101f1565b005b61012261024c565b604080519115158252519081900360200190f35b6100d76004803603606081101561014c57600080fd5b5080359060208101359060400135610251565b6100d76102a7565b61016f6102ad565b604080516001600160a01b039092168252519081900360200190f35b6100d76102bc565b6100d7600480360360808110156101a957600080fd5b50803590602081013590604081013590606001356102c4565b6100d7610343565b6100d7610349565b6100d761034f565b60006101e7848484610355565b90505b9392505050565b6000546001600160a01b0316331461023a5760405162461bcd60e51b81526004018080602001828103825260268152602001806107206026913960400191505060405180910390fd5b6102468484848461041e565b50505050565b600181565b600082610260575060006101ea565b6101e761028383610277878763ffffffff6104c216565b9063ffffffff61052516565b61029b85670de0b6b3a764000063ffffffff61056716565b9063ffffffff6105c016565b60015481565b6000546001600160a01b031681565b6301e1338081565b6000806102df670de0b6b3a76400008463ffffffff61052516565b905060006102ee878787610355565b9050600061030e670de0b6b3a764000061029b848663ffffffff61056716565b9050610337670de0b6b3a764000061029b8361032b8c8c8c610251565b9063ffffffff61056716565b98975050505050505050565b60035481565b60025481565b60045481565b600080610363858585610251565b905060045481116103a9576103a1600254610395670de0b6b3a764000061029b6001548661056790919063ffffffff16565b9063ffffffff6104c216565b9150506101ea565b60006103d4600254610395670de0b6b3a764000061029b60015460045461056790919063ffffffff16565b905060006103ed6004548461052590919063ffffffff16565b905061041482610395670de0b6b3a764000061029b6003548661056790919063ffffffff16565b93505050506101ea565b610432846301e1338063ffffffff6105c016565b60025561044c6102836301e133808363ffffffff61056716565b600155610463826301e1338063ffffffff6105c016565b60038190556004829055600254600154604080519283526020830191909152818101929092526060810183905290517f6960ab234c7ef4b0c9197100f5393cfcde7c453ac910a27bd2000aa1dd4c068d9181900360800190a150505050565b60008282018381101561051c576040805162461bcd60e51b815260206004820152601b60248201527f536166654d6174683a206164646974696f6e206f766572666c6f770000000000604482015290519081900360640190fd5b90505b92915050565b600061051c83836040518060400160405280601f81526020017f536166654d6174683a207375627472616374696f6e20756e646572666c6f7700815250610602565b6000826105765750600061051f565b8282028284828161058357fe5b041461051c5760405162461bcd60e51b81526004018080602001828103825260218152602001806106ff6021913960400191505060405180910390fd5b600061051c83836040518060400160405280601a81526020017f536166654d6174683a206469766973696f6e206279207a65726f000000000000815250610699565b600081848411156106915760405162461bcd60e51b81526004018080602001828103825283818151815260200191508051906020019080838360005b8381101561065657818101518382015260200161063e565b50505050905090810190601f1680156106835780820380516001836020036101000a031916815260200191505b509250505060405180910390fd5b505050900390565b600081836106e85760405162461bcd60e51b815260206004820181815283516024840152835190928392604490910191908501908083836000831561065657818101518382015260200161063e565b5060008385816106f457fe5b049594505050505056fe536166654d6174683a206d756c7469706c69636174696f6e206f766572666c6f776f6e6c7920746865206f776e6572206d61792063616c6c20746869732066756e6374696f6e2ea265627a7a72315820b2f47ff00b084e572ac1cce8234f835233b5367629c08036a564828a46425ed564736f6c63430005110032536166654d6174683a206d756c7469706c69636174696f6e206f766572666c6f77",
  "devdoc": {
    "author": "Arr00",
    "methods": {
      "getBorrowRate(uint256,uint256,uint256)": {
        "params": {
          "borrows": "The amount of borrows in the market",
          "cash": "The amount of cash in the market",
          "reserves": "The amount of reserves in the market"
        },
        "return": "The borrow rate percentage per block as a mantissa (scaled by 1e18)"
      },
      "getSupplyRate(uint256,uint256,uint256,uint256)": {
        "params": {
          "borrows": "The amount of borrows in the market",
          "cash": "The amount of cash in the market",
          "reserveFactorMantissa": "The current reserve factor for the market",
          "reserves": "The amount of reserves in the market"
        },
        "return": "The supply rate percentage per block as a mantissa (scaled by 1e18)"
      },
      "updateJumpRateModel(uint256,uint256,uint256,uint256)": {
        "params": {
          "baseRatePerYear": "The approximate target base APR, as a mantissa (scaled by 1e18)",
          "jumpMultiplierPerYear": "The multiplierPerBlock after hitting a specified utilization point",
          "kink_": "The utilization point at which the jump multiplier is applied",
          "multiplierPerYear": "The rate of increase in interest rate wrt utilization (scaled by 1e18)"
        }
      },
      "utilizationRate(uint256,uint256,uint256)": {
        "params": {
          "borrows": "The amount of borrows in the market",
          "cash": "The amount of cash in the market",
          "reserves": "The amount of reserves in the market (currently unused)"
        },
        "return": "The utilization rate as a mantissa between [0, 1e18]"
      }
    },
    "title": "Compound's JumpRateModel Contract V2 for V2 cTokens"
  },
  "userdoc": {
    "methods": {
      "getBorrowRate(uint256,uint256,uint256)": {
        "notice": "Calculates the current borrow rate per block"
      },
      "getSupplyRate(uint256,uint256,uint256,uint256)": {
        "notice": "Calculates the current supply rate per block"
      },
      "updateJumpRateModel(uint256,uint256,uint256,uint256)": {
        "notice": "Update the parameters of the interest rate model (only callable by owner, i.e. Timelock)"
      },
      "utilizationRate(uint256,uint256,uint256)": {
        "notice": "Calculates the utilization rate of the market: `borrows / (cash + borrows - reserves)`"
      }
    },
    "notice": "Supports only for V2 cTokens"
  },
  "storageLayout": {
    "storage": [
      {
        "astId": 17,
        "contract": "contracts/rari-fuse/src/core/JumpRateModelV2.sol:JumpRateModelV2",
        "label": "owner",
        "offset": 0,
        "slot": "0",
        "type": "t_address"
      },
      {
        "astId": 22,
        "contract": "contracts/rari-fuse/src/core/JumpRateModelV2.sol:JumpRateModelV2",
        "label": "multiplierPerBlock",
        "offset": 0,
        "slot": "1",
        "type": "t_uint256"
      },
      {
        "astId": 24,
        "contract": "contracts/rari-fuse/src/core/JumpRateModelV2.sol:JumpRateModelV2",
        "label": "baseRatePerBlock",
        "offset": 0,
        "slot": "2",
        "type": "t_uint256"
      },
      {
        "astId": 26,
        "contract": "contracts/rari-fuse/src/core/JumpRateModelV2.sol:JumpRateModelV2",
        "label": "jumpMultiplierPerBlock",
        "offset": 0,
        "slot": "3",
        "type": "t_uint256"
      },
      {
        "astId": 28,
        "contract": "contracts/rari-fuse/src/core/JumpRateModelV2.sol:JumpRateModelV2",
        "label": "kink",
        "offset": 0,
        "slot": "4",
        "type": "t_uint256"
      }
    ],
    "types": {
      "t_address": {
        "encoding": "inplace",
        "label": "address",
        "numberOfBytes": "20"
      },
      "t_uint256": {
        "encoding": "inplace",
        "label": "uint256",
        "numberOfBytes": "32"
      }
    }
  }
}