{
  "address": "0xd6c3c92a47Cd8f21e7c4B660951941249cBeb90C",
  "abi": [
    {
      "inputs": [
        {
          "internalType": "contract ERC20",
          "name": "asset",
          "type": "address"
        },
        {
          "internalType": "string",
          "name": "name",
          "type": "string"
        },
        {
          "internalType": "string",
          "name": "symbol",
          "type": "string"
        },
        {
          "internalType": "contract ILendingPool",
          "name": "_lendingPool",
          "type": "address"
        },
        {
          "internalType": "contract IAaveIncentivesController",
          "name": "_incentivesController",
          "type": "address"
        },
        {
          "internalType": "contract IERC4626",
          "name": "_vault",
          "type": "address"
        }
      ],
      "stateMutability": "nonpayable",
      "type": "constructor"
    },
    {
      "anonymous": false,
      "inputs": [
        {
          "indexed": true,
          "internalType": "address",
          "name": "owner",
          "type": "address"
        },
        {
          "indexed": true,
          "internalType": "address",
          "name": "spender",
          "type": "address"
        },
        {
          "indexed": false,
          "internalType": "uint256",
          "name": "amount",
          "type": "uint256"
        }
      ],
      "name": "Approval",
      "type": "event"
    },
    {
      "anonymous": false,
      "inputs": [
        {
          "indexed": true,
          "internalType": "address",
          "name": "caller",
          "type": "address"
        },
        {
          "indexed": true,
          "internalType": "address",
          "name": "owner",
          "type": "address"
        },
        {
          "indexed": false,
          "internalType": "uint256",
          "name": "assets",
          "type": "uint256"
        },
        {
          "indexed": false,
          "internalType": "uint256",
          "name": "shares",
          "type": "uint256"
        }
      ],
      "name": "Deposit",
      "type": "event"
    },
    {
      "anonymous": false,
      "inputs": [
        {
          "indexed": false,
          "internalType": "uint256",
          "name": "assetsPerShare",
          "type": "uint256"
        },
        {
          "indexed": false,
          "internalType": "uint256",
          "name": "sharesToHarvester",
          "type": "uint256"
        }
      ],
      "name": "Harvest",
      "type": "event"
    },
    {
      "anonymous": false,
      "inputs": [
        {
          "indexed": false,
          "internalType": "uint256",
          "name": "oldMaxCollateralRatio",
          "type": "uint256"
        },
        {
          "indexed": false,
          "internalType": "uint256",
          "name": "newMaxCollateralRatio",
          "type": "uint256"
        }
      ],
      "name": "MaxCollateralRatioUpdated",
      "type": "event"
    },
    {
      "anonymous": false,
      "inputs": [
        {
          "indexed": true,
          "internalType": "address",
          "name": "previousOwner",
          "type": "address"
        },
        {
          "indexed": true,
          "internalType": "address",
          "name": "newOwner",
          "type": "address"
        }
      ],
      "name": "OwnershipTransferred",
      "type": "event"
    },
    {
      "anonymous": false,
      "inputs": [
        {
          "indexed": false,
          "internalType": "uint256",
          "name": "oldTargetCollateralRatio",
          "type": "uint256"
        },
        {
          "indexed": false,
          "internalType": "uint256",
          "name": "newTargetCollateralRatio",
          "type": "uint256"
        }
      ],
      "name": "TargetCollateralRatioUpdated",
      "type": "event"
    },
    {
      "anonymous": false,
      "inputs": [
        {
          "indexed": true,
          "internalType": "address",
          "name": "from",
          "type": "address"
        },
        {
          "indexed": true,
          "internalType": "address",
          "name": "to",
          "type": "address"
        },
        {
          "indexed": false,
          "internalType": "uint256",
          "name": "amount",
          "type": "uint256"
        }
      ],
      "name": "Transfer",
      "type": "event"
    },
    {
      "anonymous": false,
      "inputs": [
        {
          "indexed": false,
          "internalType": "address",
          "name": "target",
          "type": "address"
        },
        {
          "indexed": false,
          "internalType": "bool",
          "name": "allowed",
          "type": "bool"
        }
      ],
      "name": "UpdateAllowedHarvester",
      "type": "event"
    },
    {
      "anonymous": false,
      "inputs": [
        {
          "indexed": false,
          "internalType": "address",
          "name": "user",
          "type": "address"
        },
        {
          "indexed": false,
          "internalType": "bool",
          "name": "excluded",
          "type": "bool"
        }
      ],
      "name": "UpdateFeeExclusion",
      "type": "event"
    },
    {
      "anonymous": false,
      "inputs": [
        {
          "indexed": false,
          "internalType": "uint256",
          "name": "oldFee",
          "type": "uint256"
        },
        {
          "indexed": false,
          "internalType": "uint256",
          "name": "newFee",
          "type": "uint256"
        }
      ],
      "name": "UpdateHarvestFee",
      "type": "event"
    },
    {
      "anonymous": false,
      "inputs": [
        {
          "indexed": false,
          "internalType": "uint256",
          "name": "oldFee",
          "type": "uint256"
        },
        {
          "indexed": false,
          "internalType": "uint256",
          "name": "newFee",
          "type": "uint256"
        }
      ],
      "name": "UpdateWithdrawalFee",
      "type": "event"
    },
    {
      "anonymous": false,
      "inputs": [
        {
          "indexed": true,
          "internalType": "address",
          "name": "caller",
          "type": "address"
        },
        {
          "indexed": true,
          "internalType": "address",
          "name": "receiver",
          "type": "address"
        },
        {
          "indexed": true,
          "internalType": "address",
          "name": "owner",
          "type": "address"
        },
        {
          "indexed": false,
          "internalType": "uint256",
          "name": "assets",
          "type": "uint256"
        },
        {
          "indexed": false,
          "internalType": "uint256",
          "name": "shares",
          "type": "uint256"
        }
      ],
      "name": "Withdraw",
      "type": "event"
    },
    {
      "inputs": [],
      "name": "DOMAIN_SEPARATOR",
      "outputs": [
        {
          "internalType": "bytes32",
          "name": "",
          "type": "bytes32"
        }
      ],
      "stateMutability": "view",
      "type": "function"
    },
    {
      "inputs": [],
      "name": "MAX_WITHDRAWAL_FEE",
      "outputs": [
        {
          "internalType": "uint256",
          "name": "",
          "type": "uint256"
        }
      ],
      "stateMutability": "view",
      "type": "function"
    },
    {
      "inputs": [
        {
          "internalType": "uint256",
          "name": "",
          "type": "uint256"
        }
      ],
      "name": "_allHarvesters",
      "outputs": [
        {
          "internalType": "address",
          "name": "",
          "type": "address"
        }
      ],
      "stateMutability": "view",
      "type": "function"
    },
    {
      "inputs": [],
      "name": "allHarvesters",
      "outputs": [
        {
          "internalType": "address[]",
          "name": "",
          "type": "address[]"
        }
      ],
      "stateMutability": "view",
      "type": "function"
    },
    {
      "inputs": [
        {
          "internalType": "address",
          "name": "target",
          "type": "address"
        },
        {
          "internalType": "bool",
          "name": "allowed",
          "type": "bool"
        }
      ],
      "name": "allowHarvester",
      "outputs": [],
      "stateMutability": "nonpayable",
      "type": "function"
    },
    {
      "inputs": [
        {
          "internalType": "address",
          "name": "",
          "type": "address"
        },
        {
          "internalType": "address",
          "name": "",
          "type": "address"
        }
      ],
      "name": "allowance",
      "outputs": [
        {
          "internalType": "uint256",
          "name": "",
          "type": "uint256"
        }
      ],
      "stateMutability": "view",
      "type": "function"
    },
    {
      "inputs": [
        {
          "internalType": "address",
          "name": "",
          "type": "address"
        }
      ],
      "name": "allowedHarvesters",
      "outputs": [
        {
          "internalType": "bool",
          "name": "",
          "type": "bool"
        }
      ],
      "stateMutability": "view",
      "type": "function"
    },
    {
      "inputs": [
        {
          "internalType": "address",
          "name": "spender",
          "type": "address"
        },
        {
          "internalType": "uint256",
          "name": "amount",
          "type": "uint256"
        }
      ],
      "name": "approve",
      "outputs": [
        {
          "internalType": "bool",
          "name": "",
          "type": "bool"
        }
      ],
      "stateMutability": "nonpayable",
      "type": "function"
    },
    {
      "inputs": [],
      "name": "asset",
      "outputs": [
        {
          "internalType": "contract ERC20",
          "name": "",
          "type": "address"
        }
      ],
      "stateMutability": "view",
      "type": "function"
    },
    {
      "inputs": [
        {
          "internalType": "address",
          "name": "",
          "type": "address"
        }
      ],
      "name": "balanceOf",
      "outputs": [
        {
          "internalType": "uint256",
          "name": "",
          "type": "uint256"
        }
      ],
      "stateMutability": "view",
      "type": "function"
    },
    {
      "inputs": [],
      "name": "claimOwnership",
      "outputs": [],
      "stateMutability": "nonpayable",
      "type": "function"
    },
    {
      "inputs": [
        {
          "internalType": "uint256",
          "name": "shares",
          "type": "uint256"
        }
      ],
      "name": "convertToAssets",
      "outputs": [
        {
          "internalType": "uint256",
          "name": "",
          "type": "uint256"
        }
      ],
      "stateMutability": "view",
      "type": "function"
    },
    {
      "inputs": [
        {
          "internalType": "uint256",
          "name": "assets",
          "type": "uint256"
        }
      ],
      "name": "convertToShares",
      "outputs": [
        {
          "internalType": "uint256",
          "name": "",
          "type": "uint256"
        }
      ],
      "stateMutability": "view",
      "type": "function"
    },
    {
      "inputs": [],
      "name": "decimals",
      "outputs": [
        {
          "internalType": "uint8",
          "name": "",
          "type": "uint8"
        }
      ],
      "stateMutability": "view",
      "type": "function"
    },
    {
      "inputs": [
        {
          "internalType": "uint256",
          "name": "assets",
          "type": "uint256"
        },
        {
          "internalType": "address",
          "name": "receiver",
          "type": "address"
        }
      ],
      "name": "deposit",
      "outputs": [
        {
          "internalType": "uint256",
          "name": "shares",
          "type": "uint256"
        }
      ],
      "stateMutability": "nonpayable",
      "type": "function"
    },
    {
      "inputs": [
        {
          "internalType": "address",
          "name": "user",
          "type": "address"
        },
        {
          "internalType": "bool",
          "name": "exclude",
          "type": "bool"
        }
      ],
      "name": "excludeFromFees",
      "outputs": [],
      "stateMutability": "nonpayable",
      "type": "function"
    },
    {
      "inputs": [
        {
          "internalType": "address",
          "name": "",
          "type": "address"
        }
      ],
      "name": "excludedFromFees",
      "outputs": [
        {
          "internalType": "bool",
          "name": "",
          "type": "bool"
        }
      ],
      "stateMutability": "view",
      "type": "function"
    },
    {
      "inputs": [],
      "name": "feeTaker",
      "outputs": [
        {
          "internalType": "address",
          "name": "",
          "type": "address"
        }
      ],
      "stateMutability": "view",
      "type": "function"
    },
    {
      "inputs": [],
      "name": "getBorrowedFromProtocol",
      "outputs": [
        {
          "internalType": "uint256",
          "name": "",
          "type": "uint256"
        }
      ],
      "stateMutability": "view",
      "type": "function"
    },
    {
      "inputs": [],
      "name": "getProtocolLiquidity",
      "outputs": [
        {
          "internalType": "uint256",
          "name": "",
          "type": "uint256"
        }
      ],
      "stateMutability": "view",
      "type": "function"
    },
    {
      "inputs": [],
      "name": "getRemainingProtocolBorrowCap",
      "outputs": [
        {
          "internalType": "uint256",
          "name": "",
          "type": "uint256"
        }
      ],
      "stateMutability": "pure",
      "type": "function"
    },
    {
      "inputs": [],
      "name": "getRemainingProtocolSupplyCap",
      "outputs": [
        {
          "internalType": "uint256",
          "name": "",
          "type": "uint256"
        }
      ],
      "stateMutability": "pure",
      "type": "function"
    },
    {
      "inputs": [],
      "name": "getSuppliedToProtocol",
      "outputs": [
        {
          "internalType": "uint256",
          "name": "",
          "type": "uint256"
        }
      ],
      "stateMutability": "view",
      "type": "function"
    },
    {
      "inputs": [
        {
          "components": [
            {
              "internalType": "address",
              "name": "target",
              "type": "address"
            },
            {
              "internalType": "bytes",
              "name": "callData",
              "type": "bytes"
            }
          ],
          "internalType": "struct HarvestCall[]",
          "name": "calls",
          "type": "tuple[]"
        },
        {
          "internalType": "uint256",
          "name": "amountOutMin",
          "type": "uint256"
        }
      ],
      "name": "harvest",
      "outputs": [
        {
          "internalType": "bytes[]",
          "name": "returnData",
          "type": "bytes[]"
        }
      ],
      "stateMutability": "nonpayable",
      "type": "function"
    },
    {
      "inputs": [
        {
          "internalType": "uint256",
          "name": "",
          "type": "uint256"
        }
      ],
      "name": "harvestCheckpoints",
      "outputs": [
        {
          "internalType": "uint32",
          "name": "blockTimestamp",
          "type": "uint32"
        },
        {
          "internalType": "uint224",
          "name": "assetsPerShare",
          "type": "uint224"
        }
      ],
      "stateMutability": "view",
      "type": "function"
    },
    {
      "inputs": [],
      "name": "harvestCheckpointsLength",
      "outputs": [
        {
          "internalType": "uint256",
          "name": "",
          "type": "uint256"
        }
      ],
      "stateMutability": "view",
      "type": "function"
    },
    {
      "inputs": [],
      "name": "harvestFee",
      "outputs": [
        {
          "internalType": "uint256",
          "name": "",
          "type": "uint256"
        }
      ],
      "stateMutability": "view",
      "type": "function"
    },
    {
      "inputs": [],
      "name": "harvestable",
      "outputs": [
        {
          "components": [
            {
              "internalType": "address",
              "name": "token",
              "type": "address"
            },
            {
              "internalType": "uint256",
              "name": "amount",
              "type": "uint256"
            }
          ],
          "internalType": "struct Harvestable[]",
          "name": "",
          "type": "tuple[]"
        }
      ],
      "stateMutability": "view",
      "type": "function"
    },
    {
      "inputs": [
        {
          "internalType": "uint256",
          "name": "index",
          "type": "uint256"
        }
      ],
      "name": "invertedHarvestCheckpoints",
      "outputs": [
        {
          "components": [
            {
              "internalType": "uint32",
              "name": "blockTimestamp",
              "type": "uint32"
            },
            {
              "internalType": "uint224",
              "name": "assetsPerShare",
              "type": "uint224"
            }
          ],
          "internalType": "struct HarvestCheckpoint",
          "name": "",
          "type": "tuple"
        }
      ],
      "stateMutability": "view",
      "type": "function"
    },
    {
      "inputs": [],
      "name": "manager",
      "outputs": [
        {
          "internalType": "address",
          "name": "",
          "type": "address"
        }
      ],
      "stateMutability": "view",
      "type": "function"
    },
    {
      "inputs": [],
      "name": "maxCollateralRatio",
      "outputs": [
        {
          "internalType": "uint256",
          "name": "",
          "type": "uint256"
        }
      ],
      "stateMutability": "view",
      "type": "function"
    },
    {
      "inputs": [
        {
          "internalType": "address",
          "name": "",
          "type": "address"
        }
      ],
      "name": "maxDeposit",
      "outputs": [
        {
          "internalType": "uint256",
          "name": "",
          "type": "uint256"
        }
      ],
      "stateMutability": "view",
      "type": "function"
    },
    {
      "inputs": [
        {
          "internalType": "address",
          "name": "",
          "type": "address"
        }
      ],
      "name": "maxMint",
      "outputs": [
        {
          "internalType": "uint256",
          "name": "",
          "type": "uint256"
        }
      ],
      "stateMutability": "view",
      "type": "function"
    },
    {
      "inputs": [
        {
          "internalType": "address",
          "name": "owner",
          "type": "address"
        }
      ],
      "name": "maxRedeem",
      "outputs": [
        {
          "internalType": "uint256",
          "name": "",
          "type": "uint256"
        }
      ],
      "stateMutability": "view",
      "type": "function"
    },
    {
      "inputs": [
        {
          "internalType": "address",
          "name": "owner",
          "type": "address"
        }
      ],
      "name": "maxWithdraw",
      "outputs": [
        {
          "internalType": "uint256",
          "name": "",
          "type": "uint256"
        }
      ],
      "stateMutability": "view",
      "type": "function"
    },
    {
      "inputs": [
        {
          "internalType": "uint256",
          "name": "shares",
          "type": "uint256"
        },
        {
          "internalType": "address",
          "name": "receiver",
          "type": "address"
        }
      ],
      "name": "mint",
      "outputs": [
        {
          "internalType": "uint256",
          "name": "assets",
          "type": "uint256"
        }
      ],
      "stateMutability": "nonpayable",
      "type": "function"
    },
    {
      "inputs": [],
      "name": "name",
      "outputs": [
        {
          "internalType": "string",
          "name": "",
          "type": "string"
        }
      ],
      "stateMutability": "view",
      "type": "function"
    },
    {
      "inputs": [
        {
          "internalType": "address",
          "name": "",
          "type": "address"
        }
      ],
      "name": "nonces",
      "outputs": [
        {
          "internalType": "uint256",
          "name": "",
          "type": "uint256"
        }
      ],
      "stateMutability": "view",
      "type": "function"
    },
    {
      "inputs": [],
      "name": "owner",
      "outputs": [
        {
          "internalType": "address",
          "name": "",
          "type": "address"
        }
      ],
      "stateMutability": "view",
      "type": "function"
    },
    {
      "inputs": [],
      "name": "pendingOwner",
      "outputs": [
        {
          "internalType": "address",
          "name": "",
          "type": "address"
        }
      ],
      "stateMutability": "view",
      "type": "function"
    },
    {
      "inputs": [
        {
          "internalType": "address",
          "name": "owner",
          "type": "address"
        },
        {
          "internalType": "address",
          "name": "spender",
          "type": "address"
        },
        {
          "internalType": "uint256",
          "name": "value",
          "type": "uint256"
        },
        {
          "internalType": "uint256",
          "name": "deadline",
          "type": "uint256"
        },
        {
          "internalType": "uint8",
          "name": "v",
          "type": "uint8"
        },
        {
          "internalType": "bytes32",
          "name": "r",
          "type": "bytes32"
        },
        {
          "internalType": "bytes32",
          "name": "s",
          "type": "bytes32"
        }
      ],
      "name": "permit",
      "outputs": [],
      "stateMutability": "nonpayable",
      "type": "function"
    },
    {
      "inputs": [
        {
          "internalType": "uint256",
          "name": "assets",
          "type": "uint256"
        }
      ],
      "name": "previewDeposit",
      "outputs": [
        {
          "internalType": "uint256",
          "name": "",
          "type": "uint256"
        }
      ],
      "stateMutability": "view",
      "type": "function"
    },
    {
      "inputs": [
        {
          "internalType": "uint256",
          "name": "shares",
          "type": "uint256"
        }
      ],
      "name": "previewMint",
      "outputs": [
        {
          "internalType": "uint256",
          "name": "",
          "type": "uint256"
        }
      ],
      "stateMutability": "view",
      "type": "function"
    },
    {
      "inputs": [
        {
          "internalType": "uint256",
          "name": "shares",
          "type": "uint256"
        }
      ],
      "name": "previewRedeem",
      "outputs": [
        {
          "internalType": "uint256",
          "name": "",
          "type": "uint256"
        }
      ],
      "stateMutability": "view",
      "type": "function"
    },
    {
      "inputs": [
        {
          "internalType": "uint256",
          "name": "assets",
          "type": "uint256"
        }
      ],
      "name": "previewWithdraw",
      "outputs": [
        {
          "internalType": "uint256",
          "name": "",
          "type": "uint256"
        }
      ],
      "stateMutability": "view",
      "type": "function"
    },
    {
      "inputs": [],
      "name": "rebalance",
      "outputs": [],
      "stateMutability": "nonpayable",
      "type": "function"
    },
    {
      "inputs": [
        {
          "internalType": "uint256",
          "name": "shares",
          "type": "uint256"
        },
        {
          "internalType": "address",
          "name": "receiver",
          "type": "address"
        },
        {
          "internalType": "address",
          "name": "owner",
          "type": "address"
        }
      ],
      "name": "redeem",
      "outputs": [
        {
          "internalType": "uint256",
          "name": "assets",
          "type": "uint256"
        }
      ],
      "stateMutability": "nonpayable",
      "type": "function"
    },
    {
      "inputs": [
        {
          "internalType": "uint256",
          "name": "start",
          "type": "uint256"
        },
        {
          "internalType": "uint256",
          "name": "end",
          "type": "uint256"
        }
      ],
      "name": "selectHarvestCheckpoints",
      "outputs": [
        {
          "components": [
            {
              "internalType": "uint32",
              "name": "blockTimestamp",
              "type": "uint32"
            },
            {
              "internalType": "uint224",
              "name": "assetsPerShare",
              "type": "uint224"
            }
          ],
          "internalType": "struct HarvestCheckpoint[]",
          "name": "",
          "type": "tuple[]"
        }
      ],
      "stateMutability": "view",
      "type": "function"
    },
    {
      "inputs": [
        {
          "internalType": "uint256",
          "name": "start",
          "type": "uint256"
        },
        {
          "internalType": "uint256",
          "name": "end",
          "type": "uint256"
        }
      ],
      "name": "selectInvertedHarvestCheckpoints",
      "outputs": [
        {
          "components": [
            {
              "internalType": "uint32",
              "name": "blockTimestamp",
              "type": "uint32"
            },
            {
              "internalType": "uint224",
              "name": "assetsPerShare",
              "type": "uint224"
            }
          ],
          "internalType": "struct HarvestCheckpoint[]",
          "name": "",
          "type": "tuple[]"
        }
      ],
      "stateMutability": "view",
      "type": "function"
    },
    {
      "inputs": [
        {
          "internalType": "address",
          "name": "_feeTaker",
          "type": "address"
        }
      ],
      "name": "setFeeTaker",
      "outputs": [],
      "stateMutability": "nonpayable",
      "type": "function"
    },
    {
      "inputs": [
        {
          "internalType": "uint256",
          "name": "_harvestFee",
          "type": "uint256"
        }
      ],
      "name": "setHarvestFee",
      "outputs": [],
      "stateMutability": "nonpayable",
      "type": "function"
    },
    {
      "inputs": [
        {
          "internalType": "address",
          "name": "_manager",
          "type": "address"
        }
      ],
      "name": "setManager",
      "outputs": [],
      "stateMutability": "nonpayable",
      "type": "function"
    },
    {
      "inputs": [
        {
          "internalType": "uint256",
          "name": "newMaxCollateralRatio",
          "type": "uint256"
        }
      ],
      "name": "setMaxCollateralRatio",
      "outputs": [],
      "stateMutability": "nonpayable",
      "type": "function"
    },
    {
      "inputs": [
        {
          "internalType": "uint256",
          "name": "newTargetCollateralRatio",
          "type": "uint256"
        }
      ],
      "name": "setTargetCollateralRatio",
      "outputs": [],
      "stateMutability": "nonpayable",
      "type": "function"
    },
    {
      "inputs": [
        {
          "internalType": "uint256",
          "name": "_withdrawalFee",
          "type": "uint256"
        }
      ],
      "name": "setWithdrawalFee",
      "outputs": [],
      "stateMutability": "nonpayable",
      "type": "function"
    },
    {
      "inputs": [],
      "name": "symbol",
      "outputs": [
        {
          "internalType": "string",
          "name": "",
          "type": "string"
        }
      ],
      "stateMutability": "view",
      "type": "function"
    },
    {
      "inputs": [],
      "name": "targetCollateralRatio",
      "outputs": [
        {
          "internalType": "uint256",
          "name": "",
          "type": "uint256"
        }
      ],
      "stateMutability": "view",
      "type": "function"
    },
    {
      "inputs": [],
      "name": "totalAssets",
      "outputs": [
        {
          "internalType": "uint256",
          "name": "",
          "type": "uint256"
        }
      ],
      "stateMutability": "view",
      "type": "function"
    },
    {
      "inputs": [],
      "name": "totalSupply",
      "outputs": [
        {
          "internalType": "uint256",
          "name": "",
          "type": "uint256"
        }
      ],
      "stateMutability": "view",
      "type": "function"
    },
    {
      "inputs": [
        {
          "internalType": "address",
          "name": "to",
          "type": "address"
        },
        {
          "internalType": "uint256",
          "name": "amount",
          "type": "uint256"
        }
      ],
      "name": "transfer",
      "outputs": [
        {
          "internalType": "bool",
          "name": "",
          "type": "bool"
        }
      ],
      "stateMutability": "nonpayable",
      "type": "function"
    },
    {
      "inputs": [
        {
          "internalType": "address",
          "name": "from",
          "type": "address"
        },
        {
          "internalType": "address",
          "name": "to",
          "type": "address"
        },
        {
          "internalType": "uint256",
          "name": "amount",
          "type": "uint256"
        }
      ],
      "name": "transferFrom",
      "outputs": [
        {
          "internalType": "bool",
          "name": "",
          "type": "bool"
        }
      ],
      "stateMutability": "nonpayable",
      "type": "function"
    },
    {
      "inputs": [
        {
          "internalType": "address",
          "name": "newOwner",
          "type": "address"
        },
        {
          "internalType": "bool",
          "name": "direct",
          "type": "bool"
        },
        {
          "internalType": "bool",
          "name": "renounce",
          "type": "bool"
        }
      ],
      "name": "transferOwnership",
      "outputs": [],
      "stateMutability": "nonpayable",
      "type": "function"
    },
    {
      "inputs": [
        {
          "internalType": "uint256",
          "name": "assets",
          "type": "uint256"
        },
        {
          "internalType": "address",
          "name": "receiver",
          "type": "address"
        },
        {
          "internalType": "address",
          "name": "owner",
          "type": "address"
        }
      ],
      "name": "withdraw",
      "outputs": [
        {
          "internalType": "uint256",
          "name": "shares",
          "type": "uint256"
        }
      ],
      "stateMutability": "nonpayable",
      "type": "function"
    },
    {
      "inputs": [],
      "name": "withdrawalFee",
      "outputs": [
        {
          "internalType": "uint256",
          "name": "",
          "type": "uint256"
        }
      ],
      "stateMutability": "view",
      "type": "function"
    },
    {
      "inputs": [],
      "name": "yield",
      "outputs": [
        {
          "internalType": "uint256",
          "name": "diffTimestamp",
          "type": "uint256"
        },
        {
          "internalType": "int256",
          "name": "diffAssetsPerShare",
          "type": "int256"
        }
      ],
      "stateMutability": "view",
      "type": "function"
    }
  ],
  "transactionHash": "0xccc71ac36b8b8bae781f96886c4de1c0469fc8de444ab22fdb786291f877be8e",
  "args": [
    "0xe91D153E0b41518A2Ce8Dd3D7944Fa863463a97d",
    "Citrus Leveraged WXDAI/sDai on Agave Vault",
    "clvsdaiagWXDAI",
    "0x5E15d5E33d318dCEd84Bfe3F4EACe07909bE6d9c",
    "0xfa255f5104f129B78f477e9a6D050a02f31A5D86",
    "0xaf204776c7245bF4147c2612BF6e5972Ee483701"
  ],
  "numDeployments": 1,
  "solcInputHash": "edb1b1d62dd588144199ebabb66ecb5d",
  "bytecode": "0x6101006040523480156200001257600080fd5b5060405162004d4038038062004d40833981016040819052620000359162000861565b8585858282828282828181846001600160a01b031663313ce5676040518163ffffffff1660e01b8152600401602060405180830381865afa1580156200007f573d6000803e3d6000fd5b505050506040513d601f19601f82011682018060405250810190620000a5919062000938565b6000620000b38482620009e5565b506001620000c28382620009e5565b5060ff81166080524660a052620000d86200048c565b60c0525050506001600160a01b0390921660e0525050600680546001600160a01b031916339081179091556040516000907f8be0079c531659141344cd1fd0a4f28419497f9722a3daafe3b4186f6b6457e0908290a3600c60405180604001604052804263ffffffff16815260200162000162608051600a6200015c919062000bc6565b62000528565b6001600160e01b03908116909152825460018101845560009384526020808520845191909401519092166401000000000263ffffffff90921691909117910155601280546001600160a01b03808d166001600160a01b0319928316811790935560138054918d16919092161790556040516335ea6a7560e01b815291975095506335ea6a7594506200020b93508c925060040190506001600160a01b0391909116815260200190565b61018060405180830381865afa1580156200022a573d6000803e3d6000fd5b505050506040513d601f19601f8201168201806040525081019062000250919062000c57565b6012546040516335ea6a7560e01b81526001600160a01b038581166004830152929350600092909116906335ea6a759060240161018060405180830381865afa158015620002a2573d6000803e3d6000fd5b505050506040513d601f19601f82011682018060405250810190620002c8919062000c57565b60e0830151601480546001600160a01b03199081166001600160a01b03938416179091556101208301516015805483169184169190911790556016805490911686831617905560125460405163095ea7b360e01b81529082166004820152600019602482015291925089169063095ea7b3906044016020604051808303816000875af11580156200035d573d6000803e3d6000fd5b505050506040513d601f19601f8201168201806040525081019062000383919062000d5f565b5060165460405163095ea7b360e01b81526001600160a01b03918216600482015260001960248201529089169063095ea7b3906044016020604051808303816000875af1158015620003d9573d6000803e3d6000fd5b505050506040513d601f19601f82011682018060405250810190620003ff919062000d5f565b5060165460125460405163095ea7b360e01b81526001600160a01b039182166004820152600019602482015291169063095ea7b3906044016020604051808303816000875af115801562000457573d6000803e3d6000fd5b505050506040513d601f19601f820116820180604052508101906200047d919062000d5f565b50505050505050505062000e50565b60007f8b73c3c69bb8fe3d512ecc4cf759cc79239f7b179b0ffacaa9a75d522b39400f6000604051620004c0919062000d83565b6040805191829003822060208301939093528101919091527fc89efdaa54c0f20c7adf612882df0950f5a951637e0307cdcb4c672f298b8bc660608201524660808201523060a082015260c00160405160208183030381529060405280519060200120905090565b600254600090801562000560576200055a6200054362000569565b82856200060b60201b6200282c179092919060201c565b62000562565b825b9392505050565b6000620005756200062b565b6200057f6200070c565b60e0516040516370a0823160e01b81523060048201526001600160a01b03909116906370a0823190602401602060405180830381865afa158015620005c8573d6000803e3d6000fd5b505050506040513d601f19601f82011682018060405250810190620005ee919062000e01565b620005fa919062000e1b565b62000606919062000e36565b905090565b8282028115158415858304851417166200062457600080fd5b0492915050565b6016546015546040516370a0823160e01b81523060048201526000926001600160a01b039081169263b3d7f6b9929116906370a0823190602401602060405180830381865afa15801562000683573d6000803e3d6000fd5b505050506040513d601f19601f82011682018060405250810190620006a9919062000e01565b6040518263ffffffff1660e01b8152600401620006c891815260200190565b602060405180830381865afa158015620006e6573d6000803e3d6000fd5b505050506040513d601f19601f8201168201806040525081019062000606919062000e01565b6014546040516370a0823160e01b81523060048201526000916001600160a01b0316906370a0823190602401620006c8565b6001600160a01b03811681146200075457600080fd5b50565b634e487b7160e01b600052604160045260246000fd5b60405161018081016001600160401b038111828210171562000793576200079362000757565b60405290565b604051601f8201601f191681016001600160401b0381118282101715620007c457620007c462000757565b604052919050565b600082601f830112620007de57600080fd5b81516001600160401b03811115620007fa57620007fa62000757565b602062000810601f8301601f1916820162000799565b82815285828487010111156200082557600080fd5b60005b838110156200084557858101830151828201840152820162000828565b83811115620008575760008385840101525b5095945050505050565b60008060008060008060c087890312156200087b57600080fd5b865162000888816200073e565b60208801519096506001600160401b0380821115620008a657600080fd5b620008b48a838b01620007cc565b96506040890151915080821115620008cb57600080fd5b50620008da89828a01620007cc565b9450506060870151620008ed816200073e565b608088015190935062000900816200073e565b60a088015190925062000913816200073e565b809150509295509295509295565b805160ff811681146200093357600080fd5b919050565b6000602082840312156200094b57600080fd5b620005628262000921565b600181811c908216806200096b57607f821691505b6020821081036200098c57634e487b7160e01b600052602260045260246000fd5b50919050565b601f821115620009e057600081815260208120601f850160051c81016020861015620009bb5750805b601f850160051c820191505b81811015620009dc57828155600101620009c7565b5050505b505050565b81516001600160401b0381111562000a015762000a0162000757565b62000a198162000a12845462000956565b8462000992565b602080601f83116001811462000a51576000841562000a385750858301515b600019600386901b1c1916600185901b178555620009dc565b600085815260208120601f198616915b8281101562000a825788860151825594840194600190910190840162000a61565b508582101562000aa15787850151600019600388901b60f8161c191681555b5050505050600190811b01905550565b634e487b7160e01b600052601160045260246000fd5b600181815b8085111562000b0857816000190482111562000aec5762000aec62000ab1565b8085161562000afa57918102915b93841c939080029062000acc565b509250929050565b60008262000b215750600162000bc0565b8162000b305750600062000bc0565b816001811462000b49576002811462000b545762000b74565b600191505062000bc0565b60ff84111562000b685762000b6862000ab1565b50506001821b62000bc0565b5060208310610133831016604e8410600b841016171562000b99575081810a62000bc0565b62000ba5838362000ac7565b806000190482111562000bbc5762000bbc62000ab1565b0290505b92915050565b60006200056260ff84168362000b10565b60006020828403121562000bea57600080fd5b604051602081016001600160401b038111828210171562000c0f5762000c0f62000757565b6040529151825250919050565b80516001600160801b03811681146200093357600080fd5b805164ffffffffff811681146200093357600080fd5b805162000933816200073e565b6000610180828403121562000c6b57600080fd5b62000c756200076d565b62000c81848462000bd7565b815262000c916020840162000c1c565b602082015262000ca46040840162000c1c565b604082015262000cb76060840162000c1c565b606082015262000cca6080840162000c1c565b608082015262000cdd60a0840162000c1c565b60a082015262000cf060c0840162000c34565b60c082015262000d0360e0840162000c4a565b60e082015261010062000d1881850162000c4a565b9082015261012062000d2c84820162000c4a565b9082015261014062000d4084820162000c4a565b9082015261016062000d5484820162000921565b908201529392505050565b60006020828403121562000d7257600080fd5b815180151581146200056257600080fd5b600080835462000d938162000956565b6001828116801562000dae576001811462000dc45762000df5565b60ff198416875282151583028701945062000df5565b8760005260208060002060005b8581101562000dec5781548a82015290840190820162000dd1565b50505082870194505b50929695505050505050565b60006020828403121562000e1457600080fd5b5051919050565b6000821982111562000e315762000e3162000ab1565b500190565b60008282101562000e4b5762000e4b62000ab1565b500390565b60805160a05160c05160e051613e7762000ec9600039600081816105190152818161094b0152818161145c015281816117b501528181611a6f01528181611bbb01528181612a1c01528181612dc30152612fbb01526000610eb101526000610e810152600081816104b501526127440152613e776000f3fe608060405234801561001057600080fd5b50600436106103db5760003560e01c80638bc7e8c41161020a578063c024666811610125578063d905777e116100b8578063dd62ed3e11610087578063dd62ed3e146108a5578063e30c3978146108d0578063eb6ed330146108e3578063ef8b30f7146108f1578063f8eedf4b1461090457600080fd5b8063d905777e1461083c578063dbbd47d414610865578063dbe66ca01461087a578063dbf2c98d1461089d57600080fd5b8063cdc412dd116100f4578063cdc412dd146107f0578063ce96cb7714610803578063d0ebdbe714610816578063d505accf1461082957600080fd5b8063c0246668146107b7578063c63d75b6146105aa578063c6e6f592146107ca578063c866a1e5146107dd57600080fd5b8063ac1e50251161019d578063b460af941161016c578063b460af9414610775578063b596291714610788578063ba08765214610791578063badd2526146107a457600080fd5b8063ac1e502514610747578063b0f58c611461075a578063b3d7f6b914610762578063b45bb10d1461075a57600080fd5b806394bf804d116101d957806394bf804d1461071157806395d89b4114610724578063a0807ae11461072c578063a9059cbb1461073457600080fd5b80638bc7e8c4146106cd5780638da5cb5b146106d6578063918195c5146106e957806391b5fd5f1461070957600080fd5b8063402d267d116102fa5780636e553f651161028d578063792b55b61161025c578063792b55b6146106895780637d7c2a1c1461069c5780637ecebe00146106a45780638422318f146106c457600080fd5b80636e553f651461063b57806370a082311461064e578063725fd9201461066e578063749f10441461067657600080fd5b80634e71e0c8116102c95780634e71e0c8146105f85780634ec5908d1461060057806367a4c944146106135780636dd46b4f1461062657600080fd5b8063402d267d146105aa57806348023e26146105bf578063481c6a75146105d25780634cdad506146105e557600080fd5b806323b872dd11610372578063367fc2fc11610341578063367fc2fc146104f157806338d52e0f1461051457806338dbd5651461055357806339bad3dd1461057357600080fd5b806323b872dd146104805780632859398414610493578063313ce567146104b05780633644e515146104e957600080fd5b8063095ea7b3116103ae578063095ea7b3146104385780630a28a4771461045b57806318160ddd1461046e5780631e12e7ea1461047757600080fd5b806301e1d114146103e057806306fdde03146103fb578063078dfbe71461041057806307a2d13a14610425575b600080fd5b6103e8610924565b6040519081526020015b60405180910390f35b6104036109d7565b6040516103f291906132ea565b61042361041e366004613327565b610a65565b005b6103e861043336600461336c565b610b7d565b61044b610446366004613385565b610baa565b60405190151581526020016103f2565b6103e861046936600461336c565b610c17565b6103e860025481565b6103e860105481565b61044b61048e3660046133b1565b610c88565b61049b610d68565b604080519283526020830191909152016103f2565b6104d77f000000000000000000000000000000000000000000000000000000000000000081565b60405160ff90911681526020016103f2565b6103e8610e7d565b61044b6104ff3660046133f2565b600e6020526000908152604090205460ff1681565b61053b7f000000000000000000000000000000000000000000000000000000000000000081565b6040516001600160a01b0390911681526020016103f2565b61056661056136600461340f565b610ed3565b6040516103f29190613431565b61058661058136600461336c565b610feb565b6040805163ffffffff90931683526001600160e01b039091166020830152016103f2565b6103e86105b83660046133f2565b5060001990565b6105666105cd36600461340f565b611023565b60085461053b906001600160a01b031681565b6103e86105f336600461336c565b611151565b6104236111a1565b61042361060e3660046133f2565b61125f565b61042361062136600461336c565b6112ab565b61062e6113a2565b6040516103f291906134db565b6103e86106493660046134ee565b611404565b6103e861065c3660046133f2565b60036020526000908152604090205481565b6103e86114de565b60095461053b906001600160a01b031681565b61042361069736600461336c565b61154c565b6104236115bc565b6103e86106b23660046133f2565b60056020526000908152604090205481565b6103e860115481565b6103e8600a5481565b60065461053b906001600160a01b031681565b6106fc6106f736600461336c565b6115ca565b6040516103f2919061351e565b6103e8611648565b6103e861071f3660046134ee565b61179b565b610403611837565b600c546103e8565b61044b610742366004613385565b611844565b61042361075536600461336c565b6118aa565b6000196103e8565b6103e861077036600461336c565b611969565b6103e8610783366004613544565b611988565b6103e8600b5481565b6103e861079f366004613544565b611a96565b6104236107b236600461336c565b611be2565b6104236107c5366004613586565b611cd3565b6103e86107d836600461336c565b611d59565b61053b6107eb36600461336c565b611d79565b6104236107fe366004613586565b611da3565b6103e86108113660046133f2565b611e7b565b6104236108243660046133f2565b611e9d565b6104236108373660046135bb565b611ee9565b6103e861084a3660046133f2565b6001600160a01b031660009081526003602052604090205490565b61086d61212d565b6040516103f29190613632565b61044b6108883660046133f2565b600d6020526000908152604090205460ff1681565b6103e8612322565b6103e86108b336600461367d565b600460209081526000928352604080842090915290825290205481565b60075461053b906001600160a01b031681565b6103e8662386f26fc1000081565b6103e86108ff36600461336c565b6123bb565b610917610912366004613743565b6123c6565b6040516103f29190613896565b600061092e612322565b6109366114de565b6040516370a0823160e01b81523060048201527f00000000000000000000000000000000000000000000000000000000000000006001600160a01b0316906370a0823190602401602060405180830381865afa15801561099a573d6000803e3d6000fd5b505050506040513d601f19601f820116820180604052508101906109be91906138f8565b6109c89190613927565b6109d2919061393f565b905090565b600080546109e490613956565b80601f0160208091040260200160405190810160405280929190818152602001828054610a1090613956565b8015610a5d5780601f10610a3257610100808354040283529160200191610a5d565b820191906000526020600020905b815481529060010190602001808311610a4057829003601f168201915b505050505081565b6006546001600160a01b03163314610a985760405162461bcd60e51b8152600401610a8f90613990565b60405180910390fd5b8115610b5c576001600160a01b038316151580610ab25750805b610af65760405162461bcd60e51b81526020600482015260156024820152744f776e61626c653a207a65726f206164647265737360581b6044820152606401610a8f565b6006546040516001600160a01b038086169216907f8be0079c531659141344cd1fd0a4f28419497f9722a3daafe3b4186f6b6457e090600090a3600680546001600160a01b0385166001600160a01b031991821617909155600780549091169055505050565b600780546001600160a01b0319166001600160a01b0385161790555b505050565b6002546000908015610ba157610b9c610b94610924565b84908361282c565b610ba3565b825b9392505050565b3360008181526004602090815260408083206001600160a01b038716808552925280832085905551919290917f8c5be1e5ebec7d5bd14f71427d1e84f3dd0314c0f7b2291e5b200ac8c7c3b92590610c059086815260200190565b60405180910390a35060015b92915050565b600a54336000908152600d602052604081205490919060ff1615610c39575060005b60025460008115610c5d57610c5882610c50610924565b87919061284b565b610c5f565b845b9050610c7f670de0b6b3a7640000610c77858261393f565b83919061284b565b95945050505050565b6001600160a01b03831660009081526004602090815260408083203384529091528120546000198114610ce457610cbf838261393f565b6001600160a01b03861660009081526004602090815260408083203384529091529020555b6001600160a01b03851660009081526003602052604081208054859290610d0c90849061393f565b90915550506001600160a01b0380851660008181526003602052604090819020805487019055519091871690600080516020613e2283398151915290610d559087815260200190565b60405180910390a3506001949350505050565b60008060006001600c80549050610d7f919061393f565b90506001811015610d9857506201518092600092509050565b6000600c8281548110610dad57610dad6139c5565b600091825260208083206040805180820190915292015463ffffffff81168352600160201b90046001600160e01b0316908201529150600c610df060018561393f565b81548110610e0057610e006139c5565b60009182526020918290206040805180820190915291015463ffffffff808216808452600160201b9092046001600160e01b031683850181905286519487015192909403169750909250610e559082906139db565b610e6790670de0b6b3a7640000613a2b565b610e719190613abf565b601b0b93505050509091565b60007f00000000000000000000000000000000000000000000000000000000000000004614610eae576109d2612879565b507f000000000000000000000000000000000000000000000000000000000000000090565b60606000610ee1848461393f565b610eec906001613927565b905060008167ffffffffffffffff811115610f0957610f096136ab565b604051908082528060200260200182016040528015610f4e57816020015b6040805180820190915260008082526020820152815260200190600190039081610f275790505b50905060005b82811015610fe257600c610f688288613927565b81548110610f7857610f786139c5565b60009182526020918290206040805180820190915291015463ffffffff81168252600160201b90046001600160e01b0316918101919091528251839083908110610fc457610fc46139c5565b60200260200101819052508080610fda90613b0b565b915050610f54565b50949350505050565b600c8181548110610ffb57600080fd5b60009182526020909120015463ffffffff81169150600160201b90046001600160e01b031682565b60606000611031848461393f565b61103c906001613927565b600c549091506000906110519060019061393f565b905060008267ffffffffffffffff81111561106e5761106e6136ab565b6040519080825280602002602001820160405280156110b357816020015b604080518082019091526000808252602082015281526020019060019003908161108c5790505b50905060005b8381101561114757600c6110cd828561393f565b815481106110dd576110dd6139c5565b60009182526020918290206040805180820190915291015463ffffffff81168252600160201b90046001600160e01b0316918101919091528251839083908110611129576111296139c5565b6020026020010181905250808061113f90613b0b565b9150506110b9565b5095945050505050565b600a54336000908152600d602052604081205490919060ff1615611173575060005b610ba361118882670de0b6b3a764000061393f565b670de0b6b3a764000061119a86610b7d565b919061282c565b6007546001600160a01b03163381146111fc5760405162461bcd60e51b815260206004820181905260248201527f4f776e61626c653a2063616c6c657220213d2070656e64696e67206f776e65726044820152606401610a8f565b6006546040516001600160a01b038084169216907f8be0079c531659141344cd1fd0a4f28419497f9722a3daafe3b4186f6b6457e090600090a3600680546001600160a01b039092166001600160a01b0319928316179055600780549091169055565b6006546001600160a01b031633146112895760405162461bcd60e51b8152600401610a8f90613990565b600980546001600160a01b0319166001600160a01b0392909216919091179055565b6008546001600160a01b03163314806112ce57506006546001600160a01b031633145b6112ea5760405162461bcd60e51b8152600401610a8f90613b24565b60115481106113615760405162461bcd60e51b815260206004820152603860248201527f43616e6e6f742073657420746172676574436f6c6c61746572616c526174696f60448201527f206f766572206d6178436f6c6c61746572616c526174696f00000000000000006064820152608401610a8f565b60105460408051918252602082018390527f44b56064048acd7afec122889cc6faae3494866375d78c6b4b532f024718589f910160405180910390a1601055565b6060600f8054806020026020016040519081016040528092919081815260200182805480156113fa57602002820191906000526020600020905b81546001600160a01b031681526001909101906020018083116113dc575b5050505050905090565b600061140f836123bb565b90508060000361144f5760405162461bcd60e51b815260206004820152600b60248201526a5a45524f5f53484152455360a81b6044820152606401610a8f565b6114846001600160a01b037f000000000000000000000000000000000000000000000000000000000000000016333086612913565b61148e828261299d565b60408051848152602081018390526001600160a01b0384169133917fdcbc1c05240f31ff3ad067ef1ee35ce4997762752e3a095284754544f4c709d7910160405180910390a3610c1183826129f7565b6014546040516370a0823160e01b81523060048201526000916001600160a01b0316906370a08231906024015b602060405180830381865afa158015611528573d6000803e3d6000fd5b505050506040513d601f19601f820116820180604052508101906109d291906138f8565b6006546001600160a01b031633146115765760405162461bcd60e51b8152600401610a8f90613990565b600b80549082905560408051828152602081018490527f1e7b50ac7d699f1fa19946c1c807a39bfb844cb58ea818fa06c8d7da549359c891015b60405180910390a15050565b6115c860006001612a04565b565b6040805180820190915260008082526020820152600c805483906115f09060019061393f565b6115fa919061393f565b8154811061160a5761160a6139c5565b60009182526020918290206040805180820190915291015463ffffffff81168252600160201b90046001600160e01b03169181019190915292915050565b601654601554604080516318160ddd60e01b815290516000936001600160a01b039081169363b3d7f6b9939116916318160ddd916004808201926020929091908290030181865afa1580156116a1573d6000803e3d6000fd5b505050506040513d601f19601f820116820180604052508101906116c591906138f8565b6040518263ffffffff1660e01b81526004016116e391815260200190565b602060405180830381865afa158015611700573d6000803e3d6000fd5b505050506040513d601f19601f8201168201806040525081019061172491906138f8565b601460009054906101000a90046001600160a01b03166001600160a01b03166318160ddd6040518163ffffffff1660e01b8152600401602060405180830381865afa158015611777573d6000803e3d6000fd5b505050506040513d601f19601f820116820180604052508101906109c891906138f8565b60006117a683611969565b90506117dd6001600160a01b037f000000000000000000000000000000000000000000000000000000000000000016333084612913565b6117e7828461299d565b60408051828152602081018590526001600160a01b0384169133917fdcbc1c05240f31ff3ad067ef1ee35ce4997762752e3a095284754544f4c709d7910160405180910390a3610c1181846129f7565b600180546109e490613956565b3360009081526003602052604081208054839190839061186590849061393f565b90915550506001600160a01b03831660008181526003602052604090819020805485019055513390600080516020613e2283398151915290610c059086815260200190565b6006546001600160a01b031633146118d45760405162461bcd60e51b8152600401610a8f90613990565b662386f26fc1000081111561192b5760405162461bcd60e51b815260206004820181905260248201527f746865207769746864726177616c206665652063616e206265206d61782031256044820152606401610a8f565b600a80549082905560408051828152602081018490527f9988c10f8391e84fefec36b82a3a26109ad0af79150c6c2ae60baf392b31ee9c91016115b0565b6002546000908015610ba157610b9c611980610924565b84908361284b565b600061199384610c17565b9050336001600160a01b03831614611a03576001600160a01b03821660009081526004602090815260408083203384529091529020546000198114611a01576119dc828261393f565b6001600160a01b03841660009081526004602090815260408083203384529091529020555b505b611a0d8482612c57565b611a178282612cb3565b60408051858152602081018390526001600160a01b03808516929086169133917ffbde797d201c681b91056529119e0b02407c7bb96a4a2c75c01fc9667232c8db910160405180910390a4610ba36001600160a01b037f0000000000000000000000000000000000000000000000000000000000000000168486612d15565b6000336001600160a01b03831614611b06576001600160a01b03821660009081526004602090815260408083203384529091529020546000198114611b0457611adf858261393f565b6001600160a01b03841660009081526004602090815260408083203384529091529020555b505b611b0f84611151565b905080600003611b4f5760405162461bcd60e51b815260206004820152600b60248201526a5a45524f5f41535345545360a81b6044820152606401610a8f565b611b598185612c57565b611b638285612cb3565b60408051828152602081018690526001600160a01b03808516929086169133917ffbde797d201c681b91056529119e0b02407c7bb96a4a2c75c01fc9667232c8db910160405180910390a4610ba36001600160a01b037f0000000000000000000000000000000000000000000000000000000000000000168483612d15565b6008546001600160a01b0316331480611c0557506006546001600160a01b031633145b611c215760405162461bcd60e51b8152600401610a8f90613b24565b6011546006546001600160a01b0316331480611c3c57508082105b611c985760405162461bcd60e51b815260206004820152602760248201527f4f6e6c79204f776e65722063616e207261697365206d6178436f6c6c61746572604482015266616c526174696f60c81b6064820152608401610a8f565b601182905560408051828152602081018490527faa915560e9978e01b02ffd7ed7b18b60e842c2772bb4dab6ba9b141e7441693c91016115b0565b6006546001600160a01b03163314611cfd5760405162461bcd60e51b8152600401610a8f90613990565b6001600160a01b0382166000818152600d6020908152604091829020805460ff19168515159081179091558251938452908301527f13e65f4beb0eb8b8336d270aa4ac99e9fa961d9eb25a89ff945d8f1224bbbcda91016115b0565b6002546000908015610ba157610b9c81611d71610924565b85919061282c565b600f8181548110611d8957600080fd5b6000918252602090912001546001600160a01b0316905081565b6006546001600160a01b03163314611dcd5760405162461bcd60e51b8152600401610a8f90613990565b8015611e1f57600f80546001810182556000919091527f8d1108e10bcb7c27dddfc02ed9d693a074039d026cf4ea4240b40f7d581ac8020180546001600160a01b0319166001600160a01b0384161790555b6001600160a01b0382166000818152600e6020908152604091829020805460ff19168515159081179091558251938452908301527fa85166530e095b84b707bec761a551e9f45e9f2b8d7c0afa50073171b1aaafbb91016115b0565b6001600160a01b038116600090815260036020526040812054610c1190610b7d565b6006546001600160a01b03163314611ec75760405162461bcd60e51b8152600401610a8f90613990565b600880546001600160a01b0319166001600160a01b0392909216919091179055565b42841015611f395760405162461bcd60e51b815260206004820152601760248201527f5045524d49545f444541444c494e455f455850495245440000000000000000006044820152606401610a8f565b60006001611f45610e7d565b6001600160a01b038a811660008181526005602090815260409182902080546001810190915582517f6e71edae12b1b97f4d1f60370fef10105fa2faae0126114a169c64845d6126c98184015280840194909452938d166060840152608083018c905260a083019390935260c08083018b90528151808403909101815260e08301909152805192019190912061190160f01b6101008301526101028201929092526101228101919091526101420160408051601f198184030181528282528051602091820120600084529083018083525260ff871690820152606081018590526080810184905260a0016020604051602081039080840390855afa158015612051573d6000803e3d6000fd5b5050604051601f1901519150506001600160a01b038116158015906120875750876001600160a01b0316816001600160a01b0316145b6120c45760405162461bcd60e51b815260206004820152600e60248201526d24a72b20a624a22fa9a4a3a722a960911b6044820152606401610a8f565b6001600160a01b0390811660009081526004602090815260408083208a8516808552908352928190208990555188815291928a16917f8c5be1e5ebec7d5bd14f71427d1e84f3dd0314c0f7b2291e5b200ac8c7c3b925910160405180910390a350505050505050565b60408051600280825260608083018452926000929190602083019080368337505060145482519293506001600160a01b031691839150600090612172576121726139c5565b6001600160a01b0392831660209182029290920101526015548251911690829060019081106121a3576121a36139c5565b6001600160a01b03928316602091820292909201810191909152601354604080516399248ea760e01b8152905160009492909216926399248ea7926004808401938290030181865afa1580156121fd573d6000803e3d6000fd5b505050506040513d601f19601f820116820180604052508101906122219190613b6c565b6013546040516345accf9360e11b81529192506000916001600160a01b0390911690638b599f26906122599086903090600401613b89565b602060405180830381865afa158015612276573d6000803e3d6000fd5b505050506040513d601f19601f8201168201806040525081019061229a91906138f8565b60408051600180825281830190925291925060009190816020015b60408051808201909152600080825260208201528152602001906001900390816122b55790505090506040518060400160405280846001600160a01b03168152602001838152508160008151811061230f5761230f6139c5565b6020908102919091010152949350505050565b6016546015546040516370a0823160e01b81523060048201526000926001600160a01b039081169263b3d7f6b9929116906370a0823190602401602060405180830381865afa158015612379573d6000803e3d6000fd5b505050506040513d601f19601f8201168201806040525081019061239d91906138f8565b6040518263ffffffff1660e01b815260040161150b91815260200190565b6000610c1182611d59565b6008546060906001600160a01b031633146124235760405162461bcd60e51b815260206004820152601f60248201527f4f6e6c79206d616e6167657220697320616c6c6f77656420746f2063616c6c006044820152606401610a8f565b600061242d610924565b9050612437612d93565b835167ffffffffffffffff811115612451576124516136ab565b60405190808252806020026020018201604052801561248457816020015b606081526020019060019003908161246f5790505b50915060005b845181101561262b57600e60008683815181106124a9576124a96139c5565b602090810291909101810151516001600160a01b031682528101919091526040016000205460ff166125155760405162461bcd60e51b81526020600482015260156024820152741a185c9d995cdd1bdc881b9bdd08185b1b1bddd959605a1b6044820152606401610a8f565b6000606086838151811061252b5761252b6139c5565b6020026020010151600001516001600160a01b0316878481518110612552576125526139c5565b60200260200101516020015160405161256b9190613bb3565b600060405180830381855af49150503d80600081146125a6576040519150601f19603f3d011682016040523d82523d6000602084013e6125ab565b606091505b509092509050816125f8576044815110156125c557600080fd5b600481019050808060200190518101906125df9190613bcf565b60405162461bcd60e51b8152600401610a8f91906132ea565b8085848151811061260b5761260b6139c5565b60200260200101819052505050808061262390613b0b565b91505061248a565b506000612636610924565b90508181101561267b5760405162461bcd60e51b815260206004820152601060248201526f1b9959d85d1a5d99481a185c9d995cdd60821b6044820152606401610a8f565b818103848110156126ce5760405162461bcd60e51b815260206004820152601a60248201527f696e73756666696369656e74206f757470757420616d6f756e740000000000006044820152606401610a8f565b60006126f9600b54670de0b6b3a76400006126e9919061393f565b8390670de0b6b3a764000061284b565b6127039085613927565b60025490915060009061271781868561282c565b612721919061393f565b60095490915061273a906001600160a01b03168261299d565b600061276a6104337f0000000000000000000000000000000000000000000000000000000000000000600a613d21565b60408051808201825263ffffffff42811682526001600160e01b0380851660208401908152600c805460018101825560009190915293519051909116600160201b029116177fdf6966c971051c3d54ec59162606531493a51404a002842f56009d7e5cf4a8c790910155519091507f6c8433a8e155f0af04dba058d4e4695f7da554578963d876bdf4a6d8d6399d9c906128109083908590918252602082015260400190565b60405180910390a16128206115bc565b50505050505092915050565b82820281151584158583048514171661284457600080fd5b0492915050565b82820281151584158583048514171661286357600080fd5b6001826001830304018115150290509392505050565b60007f8b73c3c69bb8fe3d512ecc4cf759cc79239f7b179b0ffacaa9a75d522b39400f60006040516128ab9190613d30565b6040805191829003822060208301939093528101919091527fc89efdaa54c0f20c7adf612882df0950f5a951637e0307cdcb4c672f298b8bc660608201524660808201523060a082015260c00160405160208183030381529060405280519060200120905090565b60006040516323b872dd60e01b81528460048201528360248201528260448201526020600060648360008a5af13d15601f3d11600160005114161716915050806129965760405162461bcd60e51b81526020600482015260146024820152731514905394d1915497d19493d357d1905253115160621b6044820152606401610a8f565b5050505050565b80600260008282546129af9190613927565b90915550506001600160a01b038216600081815260036020908152604080832080548601905551848152600080516020613e2283398151915291015b60405180910390a35050565b612a0082612d9b565b5050565b6040516370a0823160e01b81523060048201526000907f00000000000000000000000000000000000000000000000000000000000000006001600160a01b0316906370a0823190602401602060405180830381865afa158015612a6b573d6000803e3d6000fd5b505050506040513d601f19601f82011682018060405250810190612a8f91906138f8565b90508015612aa057612aa081612da9565b6000612aaa612322565b90506000612ab66114de565b90506000612af1601054878585612acd919061393f565b612ad7919061393f565b601054612aec90670de0b6b3a764000061393f565b61282c565b905080831015612ba2575b612b0e81670dcef33a6f838000613dcf565b612b2084670de0b6b3a7640000613dcf565b1015612b9d576000612b32848361393f565b9050600084612b4c85601154670de0b6b3a764000061282c565b612b56919061393f565b905080821115612b64578091505b612b6d82612e38565b612b7682612da9565b86612b82575050612c40565b612b8a612322565b9450612b946114de565b93505050612afc565b612c40565b80831115612c40575b612bbd81670df27a2cdf448000613dcf565b612bcf84670de0b6b3a7640000613dcf565b1115612c40576000612be1828561393f565b9050600084612bfb85601154670de0b6b3a764000061282c565b612c05919061393f565b905080821115612c13578091505b612c1c82612fa1565b612c258261303f565b612c2d612322565b9450612c376114de565b93505050612bab565b8515612c4f57612c4f86612fa1565b505050505050565b600a5415801590612c785750336000908152600d602052604090205460ff16155b15612caa57600954600a54612caa916001600160a01b031690612ca5908490670de0b6b3a764000061284b565b61299d565b612a008261316c565b6001600160a01b03821660009081526003602052604081208054839290612cdb90849061393f565b90915550506002805482900390556040518181526000906001600160a01b03841690600080516020613e22833981519152906020016129eb565b600060405163a9059cbb60e01b8152836004820152826024820152602060006044836000895af13d15601f3d1160016000511416171691505080612d8d5760405162461bcd60e51b815260206004820152600f60248201526e1514905394d1915497d19052531151608a1b6044820152606401610a8f565b50505050565b6115c8613177565b612da6600080612a04565b50565b60125460405163e8eda9df60e01b81526001600160a01b037f00000000000000000000000000000000000000000000000000000000000000008116600483015260248201849052306044830152600060648301529091169063e8eda9df90608401600060405180830381600087803b158015612e2457600080fd5b505af1158015612996573d6000803e3d6000fd5b601654604051630a28a47760e01b8152600481018390526000916001600160a01b031690630a28a47790602401602060405180830381865afa158015612e82573d6000803e3d6000fd5b505050506040513d601f19601f82011682018060405250810190612ea691906138f8565b60125460165460405163a415bcad60e01b81526001600160a01b039182166004820152602481018490526002604482015260006064820152306084820152929350169063a415bcad9060a401600060405180830381600087803b158015612f0c57600080fd5b505af1158015612f20573d6000803e3d6000fd5b5050601654604051635d043b2960e11b815260048101859052306024820181905260448201526001600160a01b03909116925063ba08765291506064015b6020604051808303816000875af1158015612f7d573d6000803e3d6000fd5b505050506040513d601f19601f82011682018060405250810190610b7891906138f8565b601254604051631a4ca37b60e21b81526001600160a01b037f00000000000000000000000000000000000000000000000000000000000000008116600483015260248201849052306044830152909116906369328dec906064015b6020604051808303816000875af115801561301b573d6000803e3d6000fd5b505050506040513d601f19601f82011682018060405250810190612a0091906138f8565b60165460405163ef8b30f760e01b8152600481018390526000916001600160a01b03169063ef8b30f790602401602060405180830381865afa158015613089573d6000803e3d6000fd5b505050506040513d601f19601f820116820180604052508101906130ad91906138f8565b6016546040516394bf804d60e01b8152600481018390523060248201529192506001600160a01b0316906394bf804d906044016020604051808303816000875af11580156130ff573d6000803e3d6000fd5b505050506040513d601f19601f8201168201806040525081019061312391906138f8565b5060125460165460405163573ade8160e01b81526001600160a01b039182166004820152602481018490526002604482015230606482015291169063573ade8190608401612f5e565b612da6816000612a04565b604080516002808252606082018352600092602083019080368337505060145482519293506001600160a01b0316918391506000906131b8576131b86139c5565b6001600160a01b0392831660209182029290920101526015548251911690829060019081106131e9576131e96139c5565b6001600160a01b0392831660209182029290920101526013546040516345accf9360e11b8152911690633111e7b39083908390638b599f26906132329084903090600401613b89565b602060405180830381865afa15801561324f573d6000803e3d6000fd5b505050506040513d601f19601f8201168201806040525081019061327391906138f8565b306040518463ffffffff1660e01b8152600401612ffc93929190613dee565b60005b838110156132ad578181015183820152602001613295565b83811115612d8d5750506000910152565b600081518084526132d6816020860160208601613292565b601f01601f19169290920160200192915050565b602081526000610ba360208301846132be565b6001600160a01b0381168114612da657600080fd5b8035801515811461332257600080fd5b919050565b60008060006060848603121561333c57600080fd5b8335613347816132fd565b925061335560208501613312565b915061336360408501613312565b90509250925092565b60006020828403121561337e57600080fd5b5035919050565b6000806040838503121561339857600080fd5b82356133a3816132fd565b946020939093013593505050565b6000806000606084860312156133c657600080fd5b83356133d1816132fd565b925060208401356133e1816132fd565b929592945050506040919091013590565b60006020828403121561340457600080fd5b8135610ba3816132fd565b6000806040838503121561342257600080fd5b50508035926020909101359150565b602080825282518282018190526000919060409081850190868401855b8281101561348a5761347a848351805163ffffffff1682526020908101516001600160e01b0316910152565b928401929085019060010161344e565b5091979650505050505050565b600081518084526020808501945080840160005b838110156134d05781516001600160a01b0316875295820195908201906001016134ab565b509495945050505050565b602081526000610ba36020830184613497565b6000806040838503121561350157600080fd5b823591506020830135613513816132fd565b809150509250929050565b815163ffffffff1681526020808301516001600160e01b03169082015260408101610c11565b60008060006060848603121561355957600080fd5b83359250602084013561356b816132fd565b9150604084013561357b816132fd565b809150509250925092565b6000806040838503121561359957600080fd5b82356135a4816132fd565b91506135b260208401613312565b90509250929050565b600080600080600080600060e0888a0312156135d657600080fd5b87356135e1816132fd565b965060208801356135f1816132fd565b95506040880135945060608801359350608088013560ff8116811461361557600080fd5b9699959850939692959460a0840135945060c09093013592915050565b602080825282518282018190526000919060409081850190868401855b8281101561348a57815180516001600160a01b0316855286015186850152928401929085019060010161364f565b6000806040838503121561369057600080fd5b823561369b816132fd565b91506020830135613513816132fd565b634e487b7160e01b600052604160045260246000fd5b6040805190810167ffffffffffffffff811182821017156136e4576136e46136ab565b60405290565b604051601f8201601f1916810167ffffffffffffffff81118282101715613713576137136136ab565b604052919050565b600067ffffffffffffffff821115613735576137356136ab565b50601f01601f191660200190565b600080604080848603121561375757600080fd5b833567ffffffffffffffff8082111561376f57600080fd5b818601915086601f83011261378357600080fd5b8135602082821115613797576137976136ab565b8160051b6137a68282016136ea565b928352848101820192828101908b8511156137c057600080fd5b83870192505b84831015613884578235868111156137de5760008081fd5b8701808d03601f19018913156137f45760008081fd5b6137fc6136c1565b85820135613809816132fd565b8152818a01358881111561381d5760008081fd5b8083019250508d603f8301126138335760008081fd5b858201356138486138438261371b565b6136ea565b8181528f8c83860101111561385d5760008081fd5b818c85018983013760009181018801919091528187015283525091830191908301906137c6565b9b999092013599505050505050505050565b6000602080830181845280855180835260408601915060408160051b870101925083870160005b828110156138eb57603f198886030184526138d98583516132be565b945092850192908501906001016138bd565b5092979650505050505050565b60006020828403121561390a57600080fd5b5051919050565b634e487b7160e01b600052601160045260246000fd5b6000821982111561393a5761393a613911565b500190565b60008282101561395157613951613911565b500390565b600181811c9082168061396a57607f821691505b60208210810361398a57634e487b7160e01b600052602260045260246000fd5b50919050565b6020808252818101527f4f776e61626c653a2063616c6c6572206973206e6f7420746865206f776e6572604082015260600190565b634e487b7160e01b600052603260045260246000fd5b600081601b0b83601b0b60008112816401ffffffff60df1b01831281151615613a0657613a06613911565b6001600160df1b0382018313811615613a2157613a21613911565b5090039392505050565b6000601b82810b9084900b6001600160df1b0383821384841380821684840486111615613a5a57613a5a613911565b6001600160df1b03196000851282811687830587121615613a7d57613a7d613911565b60008712925085820587128484161615613a9957613a99613911565b85850587128184161615613aaf57613aaf613911565b5050509290910295945050505050565b600081601b0b83601b0b80613ae457634e487b7160e01b600052601260045260246000fd5b6001600160df1b0319821460001982141615613b0257613b02613911565b90059392505050565b600060018201613b1d57613b1d613911565b5060010190565b60208082526028908201527f4f6e6c79206d616e61676572206f72204f776e657220697320616c6c6f776564604082015267081d1bc818d85b1b60c21b606082015260800190565b600060208284031215613b7e57600080fd5b8151610ba3816132fd565b604081526000613b9c6040830185613497565b905060018060a01b03831660208301529392505050565b60008251613bc5818460208701613292565b9190910192915050565b600060208284031215613be157600080fd5b815167ffffffffffffffff811115613bf857600080fd5b8201601f81018413613c0957600080fd5b8051613c176138438261371b565b818152856020838501011115613c2c57600080fd5b610c7f826020830160208601613292565b600181815b80851115613c78578160001904821115613c5e57613c5e613911565b80851615613c6b57918102915b93841c9390800290613c42565b509250929050565b600082613c8f57506001610c11565b81613c9c57506000610c11565b8160018114613cb25760028114613cbc57613cd8565b6001915050610c11565b60ff841115613ccd57613ccd613911565b50506001821b610c11565b5060208310610133831016604e8410600b8410161715613cfb575081810a610c11565b613d058383613c3d565b8060001904821115613d1957613d19613911565b029392505050565b6000610ba360ff841683613c80565b600080835481600182811c915080831680613d4c57607f831692505b60208084108203613d6b57634e487b7160e01b86526022600452602486fd5b818015613d7f5760018114613d9457613dc1565b60ff1986168952841515850289019650613dc1565b60008a81526020902060005b86811015613db95781548b820152908501908301613da0565b505084890196505b509498975050505050505050565b6000816000190483118215151615613de957613de9613911565b500290565b606081526000613e016060830186613497565b6020830194909452506001600160a01b039190911660409091015291905056feddf252ad1be2c89b69c2b068fc378daa952ba7f163c4a11628f55a4df523b3efa264697066735822122093191d3fe316616a69cd8be592ff7985f44a21902c8561922978f0af550c039c64736f6c634300080f0033",
  "devdoc": {
    "kind": "dev",
    "methods": {
      "getBorrowedFromProtocol()": {
        "returns": {
          "_0": "Assets borrowed"
        }
      },
      "getProtocolLiquidity()": {
        "details": "ignored on this version",
        "returns": {
          "_0": "liquidity The diff"
        }
      },
      "getRemainingProtocolBorrowCap()": {
        "details": "ignored on this versionshould return 0 if the borrow cap is exhausted",
        "returns": {
          "_0": "remainingBorrowCap"
        }
      },
      "getRemainingProtocolSupplyCap()": {
        "details": "ignored on this versionshould return 0 if the supply cap is exhausted",
        "returns": {
          "_0": "remainingSupplyCap"
        }
      },
      "getSuppliedToProtocol()": {
        "returns": {
          "_0": "Assets supplied"
        }
      },
      "transferOwnership(address,bool,bool)": {
        "params": {
          "direct": "True if `newOwner` should be set immediately. False if `newOwner` needs to use `claimOwnership`.",
          "newOwner": "Address of the new owner.",
          "renounce": "Allows the `newOwner` to be `address(0)` if `direct` and `renounce` is True. Has no effect otherwise."
        }
      }
    },
    "version": 1
  },
  "userdoc": {
    "kind": "user",
    "methods": {
      "claimOwnership()": {
        "notice": "Needs to be called by `pendingOwner` to claim ownership."
      },
      "getBorrowedFromProtocol()": {
        "notice": "Get amount of assets borrowed from the protocol by the vault"
      },
      "getProtocolLiquidity()": {
        "notice": "Get liquidity availailable in the protocol"
      },
      "getRemainingProtocolBorrowCap()": {
        "notice": "Get remaining borrow cap in the protocol"
      },
      "getRemainingProtocolSupplyCap()": {
        "notice": "Get remaining supply cap in the protocol"
      },
      "getSuppliedToProtocol()": {
        "notice": "Get amount of assets supplied to the protocol by the vault"
      },
      "transferOwnership(address,bool,bool)": {
        "notice": "Transfers ownership to `newOwner`. Either directly or claimable by the new pending owner. Can only be invoked by the current `owner`."
      }
    },
    "version": 1
  },
  "storageLayout": {
    "storage": [
      {
        "astId": 838,
        "contract": "contracts/citrus-vaults/src/Aave2ERC4626LeveragedVault.sol:Aave2ERC4626LeveragedVault",
        "label": "name",
        "offset": 0,
        "slot": "0",
        "type": "t_string_storage"
      },
      {
        "astId": 840,
        "contract": "contracts/citrus-vaults/src/Aave2ERC4626LeveragedVault.sol:Aave2ERC4626LeveragedVault",
        "label": "symbol",
        "offset": 0,
        "slot": "1",
        "type": "t_string_storage"
      },
      {
        "astId": 844,
        "contract": "contracts/citrus-vaults/src/Aave2ERC4626LeveragedVault.sol:Aave2ERC4626LeveragedVault",
        "label": "totalSupply",
        "offset": 0,
        "slot": "2",
        "type": "t_uint256"
      },
      {
        "astId": 848,
        "contract": "contracts/citrus-vaults/src/Aave2ERC4626LeveragedVault.sol:Aave2ERC4626LeveragedVault",
        "label": "balanceOf",
        "offset": 0,
        "slot": "3",
        "type": "t_mapping(t_address,t_uint256)"
      },
      {
        "astId": 854,
        "contract": "contracts/citrus-vaults/src/Aave2ERC4626LeveragedVault.sol:Aave2ERC4626LeveragedVault",
        "label": "allowance",
        "offset": 0,
        "slot": "4",
        "type": "t_mapping(t_address,t_mapping(t_address,t_uint256))"
      },
      {
        "astId": 862,
        "contract": "contracts/citrus-vaults/src/Aave2ERC4626LeveragedVault.sol:Aave2ERC4626LeveragedVault",
        "label": "nonces",
        "offset": 0,
        "slot": "5",
        "type": "t_mapping(t_address,t_uint256)"
      },
      {
        "astId": 3,
        "contract": "contracts/citrus-vaults/src/Aave2ERC4626LeveragedVault.sol:Aave2ERC4626LeveragedVault",
        "label": "owner",
        "offset": 0,
        "slot": "6",
        "type": "t_address"
      },
      {
        "astId": 5,
        "contract": "contracts/citrus-vaults/src/Aave2ERC4626LeveragedVault.sol:Aave2ERC4626LeveragedVault",
        "label": "pendingOwner",
        "offset": 0,
        "slot": "7",
        "type": "t_address"
      },
      {
        "astId": 4775,
        "contract": "contracts/citrus-vaults/src/Aave2ERC4626LeveragedVault.sol:Aave2ERC4626LeveragedVault",
        "label": "manager",
        "offset": 0,
        "slot": "8",
        "type": "t_address"
      },
      {
        "astId": 4777,
        "contract": "contracts/citrus-vaults/src/Aave2ERC4626LeveragedVault.sol:Aave2ERC4626LeveragedVault",
        "label": "feeTaker",
        "offset": 0,
        "slot": "9",
        "type": "t_address"
      },
      {
        "astId": 4779,
        "contract": "contracts/citrus-vaults/src/Aave2ERC4626LeveragedVault.sol:Aave2ERC4626LeveragedVault",
        "label": "withdrawalFee",
        "offset": 0,
        "slot": "10",
        "type": "t_uint256"
      },
      {
        "astId": 4781,
        "contract": "contracts/citrus-vaults/src/Aave2ERC4626LeveragedVault.sol:Aave2ERC4626LeveragedVault",
        "label": "harvestFee",
        "offset": 0,
        "slot": "11",
        "type": "t_uint256"
      },
      {
        "astId": 4785,
        "contract": "contracts/citrus-vaults/src/Aave2ERC4626LeveragedVault.sol:Aave2ERC4626LeveragedVault",
        "label": "harvestCheckpoints",
        "offset": 0,
        "slot": "12",
        "type": "t_array(t_struct(HarvestCheckpoint)4733_storage)dyn_storage"
      },
      {
        "astId": 4789,
        "contract": "contracts/citrus-vaults/src/Aave2ERC4626LeveragedVault.sol:Aave2ERC4626LeveragedVault",
        "label": "excludedFromFees",
        "offset": 0,
        "slot": "13",
        "type": "t_mapping(t_address,t_bool)"
      },
      {
        "astId": 4793,
        "contract": "contracts/citrus-vaults/src/Aave2ERC4626LeveragedVault.sol:Aave2ERC4626LeveragedVault",
        "label": "allowedHarvesters",
        "offset": 0,
        "slot": "14",
        "type": "t_mapping(t_address,t_bool)"
      },
      {
        "astId": 4796,
        "contract": "contracts/citrus-vaults/src/Aave2ERC4626LeveragedVault.sol:Aave2ERC4626LeveragedVault",
        "label": "_allHarvesters",
        "offset": 0,
        "slot": "15",
        "type": "t_array(t_address)dyn_storage"
      },
      {
        "astId": 4188,
        "contract": "contracts/citrus-vaults/src/Aave2ERC4626LeveragedVault.sol:Aave2ERC4626LeveragedVault",
        "label": "targetCollateralRatio",
        "offset": 0,
        "slot": "16",
        "type": "t_uint256"
      },
      {
        "astId": 4190,
        "contract": "contracts/citrus-vaults/src/Aave2ERC4626LeveragedVault.sol:Aave2ERC4626LeveragedVault",
        "label": "maxCollateralRatio",
        "offset": 0,
        "slot": "17",
        "type": "t_uint256"
      },
      {
        "astId": 1421,
        "contract": "contracts/citrus-vaults/src/Aave2ERC4626LeveragedVault.sol:Aave2ERC4626LeveragedVault",
        "label": "lendingPool",
        "offset": 0,
        "slot": "18",
        "type": "t_contract(ILendingPool)3686"
      },
      {
        "astId": 1424,
        "contract": "contracts/citrus-vaults/src/Aave2ERC4626LeveragedVault.sol:Aave2ERC4626LeveragedVault",
        "label": "incentivesController",
        "offset": 0,
        "slot": "19",
        "type": "t_contract(IAaveIncentivesController)3308"
      },
      {
        "astId": 1427,
        "contract": "contracts/citrus-vaults/src/Aave2ERC4626LeveragedVault.sol:Aave2ERC4626LeveragedVault",
        "label": "aToken",
        "offset": 0,
        "slot": "20",
        "type": "t_contract(IERC20)196"
      },
      {
        "astId": 1430,
        "contract": "contracts/citrus-vaults/src/Aave2ERC4626LeveragedVault.sol:Aave2ERC4626LeveragedVault",
        "label": "debtToken",
        "offset": 0,
        "slot": "21",
        "type": "t_contract(IERC20)196"
      },
      {
        "astId": 1433,
        "contract": "contracts/citrus-vaults/src/Aave2ERC4626LeveragedVault.sol:Aave2ERC4626LeveragedVault",
        "label": "vault",
        "offset": 0,
        "slot": "22",
        "type": "t_contract(IERC4626)4003"
      }
    ],
    "types": {
      "t_address": {
        "encoding": "inplace",
        "label": "address",
        "numberOfBytes": "20"
      },
      "t_array(t_address)dyn_storage": {
        "base": "t_address",
        "encoding": "dynamic_array",
        "label": "address[]",
        "numberOfBytes": "32"
      },
      "t_array(t_struct(HarvestCheckpoint)4733_storage)dyn_storage": {
        "base": "t_struct(HarvestCheckpoint)4733_storage",
        "encoding": "dynamic_array",
        "label": "struct HarvestCheckpoint[]",
        "numberOfBytes": "32"
      },
      "t_bool": {
        "encoding": "inplace",
        "label": "bool",
        "numberOfBytes": "1"
      },
      "t_contract(IAaveIncentivesController)3308": {
        "encoding": "inplace",
        "label": "contract IAaveIncentivesController",
        "numberOfBytes": "20"
      },
      "t_contract(IERC20)196": {
        "encoding": "inplace",
        "label": "contract IERC20",
        "numberOfBytes": "20"
      },
      "t_contract(IERC4626)4003": {
        "encoding": "inplace",
        "label": "contract IERC4626",
        "numberOfBytes": "20"
      },
      "t_contract(ILendingPool)3686": {
        "encoding": "inplace",
        "label": "contract ILendingPool",
        "numberOfBytes": "20"
      },
      "t_mapping(t_address,t_bool)": {
        "encoding": "mapping",
        "key": "t_address",
        "label": "mapping(address => bool)",
        "numberOfBytes": "32",
        "value": "t_bool"
      },
      "t_mapping(t_address,t_mapping(t_address,t_uint256))": {
        "encoding": "mapping",
        "key": "t_address",
        "label": "mapping(address => mapping(address => uint256))",
        "numberOfBytes": "32",
        "value": "t_mapping(t_address,t_uint256)"
      },
      "t_mapping(t_address,t_uint256)": {
        "encoding": "mapping",
        "key": "t_address",
        "label": "mapping(address => uint256)",
        "numberOfBytes": "32",
        "value": "t_uint256"
      },
      "t_string_storage": {
        "encoding": "bytes",
        "label": "string",
        "numberOfBytes": "32"
      },
      "t_struct(HarvestCheckpoint)4733_storage": {
        "encoding": "inplace",
        "label": "struct HarvestCheckpoint",
        "members": [
          {
            "astId": 4730,
            "contract": "contracts/citrus-vaults/src/Aave2ERC4626LeveragedVault.sol:Aave2ERC4626LeveragedVault",
            "label": "blockTimestamp",
            "offset": 0,
            "slot": "0",
            "type": "t_uint32"
          },
          {
            "astId": 4732,
            "contract": "contracts/citrus-vaults/src/Aave2ERC4626LeveragedVault.sol:Aave2ERC4626LeveragedVault",
            "label": "assetsPerShare",
            "offset": 4,
            "slot": "0",
            "type": "t_uint224"
          }
        ],
        "numberOfBytes": "32"
      },
      "t_uint224": {
        "encoding": "inplace",
        "label": "uint224",
        "numberOfBytes": "28"
      },
      "t_uint256": {
        "encoding": "inplace",
        "label": "uint256",
        "numberOfBytes": "32"
      },
      "t_uint32": {
        "encoding": "inplace",
        "label": "uint32",
        "numberOfBytes": "4"
      }
    }
  }
}