{
  "address": "0x1c251F25ACE0D2f3Fe4E877fbDEA1Ee9b7A40315",
  "abi": [
    {
      "inputs": [
        {
          "internalType": "address",
          "name": "router",
          "type": "address"
        },
        {
          "internalType": "address[]",
          "name": "path",
          "type": "address[]"
        }
      ],
      "name": "uniswapSwap",
      "outputs": [],
      "stateMutability": "nonpayable",
      "type": "function"
    }
  ],
  "transactionHash": "0x33e6f4da66eac596e541dff7a0c9076ecb9edfdd2d6198bf35eca7206a5f82e4",
  "args": [],
  "numDeployments": 1,
  "solcInputHash": "5beb06b613e968a99d04f390bf3d5756",
  "bytecode": "0x608060405234801561001057600080fd5b5061040c806100206000396000f3fe608060405234801561001057600080fd5b506004361061002b5760003560e01c8063a0f7f46b14610030575b600080fd5b61004361003e366004610210565b610045565b005b600060018260008151811061005c5761005c6102e8565b60209081029190910101516040516370a0823160e01b81523060048201526001600160a01b03909116906370a0823190602401602060405180830381865afa1580156100ac573d6000803e3d6000fd5b505050506040513d601f19601f820116820180604052508101906100d091906102fe565b6100da9190610317565b9050816000815181106100ef576100ef6102e8565b602090810291909101015160405163095ea7b360e01b81526001600160a01b038581166004830152602482018490529091169063095ea7b3906044016020604051808303816000875af115801561014a573d6000803e3d6000fd5b505050506040513d601f19601f8201168201806040525081019061016e919061033c565b506040516338ed173960e01b815283906001600160a01b038216906338ed1739906101a6908590600090889030904290600401610365565b600060405180830381600087803b1580156101c057600080fd5b505af11580156101d4573d6000803e3d6000fd5b5050505050505050565b80356001600160a01b03811681146101f557600080fd5b919050565b634e487b7160e01b600052604160045260246000fd5b6000806040838503121561022357600080fd5b61022c836101de565b915060208084013567ffffffffffffffff8082111561024a57600080fd5b818601915086601f83011261025e57600080fd5b813581811115610270576102706101fa565b8060051b604051601f19603f83011681018181108582111715610295576102956101fa565b6040529182528482019250838101850191898311156102b357600080fd5b938501935b828510156102d8576102c9856101de565b845293850193928501926102b8565b8096505050505050509250929050565b634e487b7160e01b600052603260045260246000fd5b60006020828403121561031057600080fd5b5051919050565b60008282101561033757634e487b7160e01b600052601160045260246000fd5b500390565b60006020828403121561034e57600080fd5b8151801515811461035e57600080fd5b9392505050565b600060a082018783526020878185015260a0604085015281875180845260c086019150828901935060005b818110156103b55784516001600160a01b031683529383019391830191600101610390565b50506001600160a01b0396909616606085015250505060800152939250505056fea2646970667358221220275c47bfd8d3aa214cb0e44e76665fbea8b98f955061f8dec7cc32cb698c0d3064736f6c634300080f0033",
  "devdoc": {
    "kind": "dev",
    "methods": {},
    "version": 1
  },
  "userdoc": {
    "kind": "user",
    "methods": {},
    "version": 1
  },
  "storageLayout": {
    "storage": [],
    "types": null
  }
}