{
  "address": "0xC877F9751d9Ef15c5784E22dAcfBC64F59d164cf",
  "abi": [
    {
      "inputs": [
        {
          "internalType": "address",
          "name": "router",
          "type": "address"
        },
        {
          "internalType": "address[]",
          "name": "path",
          "type": "address[]"
        },
        {
          "internalType": "uint256",
          "name": "minAmountOut",
          "type": "uint256"
        }
      ],
      "name": "uniswapSwap",
      "outputs": [],
      "stateMutability": "nonpayable",
      "type": "function"
    }
  ],
  "transactionHash": "0x38210039f185ff8d1cb1ed92ffe4d058920af2c6eadfd1c9708fc6f3e1daa4af",
  "args": [],
  "numDeployments": 3,
  "solcInputHash": "35b9eb676158b94ffdcd48958ce56f5e",
  "bytecode": "0x608060405234801561001057600080fd5b50610413806100206000396000f3fe608060405234801561001057600080fd5b506004361061002a5760003560e01c806204a85b1461002f575b600080fd5b61004261003d36600461020f565b610044565b005b600060018360008151811061005b5761005b6102ef565b60209081029190910101516040516370a0823160e01b81523060048201526001600160a01b03909116906370a0823190602401602060405180830381865afa1580156100ab573d6000803e3d6000fd5b505050506040513d601f19601f820116820180604052508101906100cf9190610305565b6100d9919061031e565b9050826000815181106100ee576100ee6102ef565b602090810291909101015160405163095ea7b360e01b81526001600160a01b038681166004830152602482018490529091169063095ea7b3906044016020604051808303816000875af1158015610149573d6000803e3d6000fd5b505050506040513d601f19601f8201168201806040525081019061016d9190610343565b506040516338ed173960e01b815284906001600160a01b038216906338ed1739906101a4908590879089903090429060040161036c565b600060405180830381600087803b1580156101be57600080fd5b505af11580156101d2573d6000803e3d6000fd5b505050505050505050565b80356001600160a01b03811681146101f457600080fd5b919050565b634e487b7160e01b600052604160045260246000fd5b60008060006060848603121561022457600080fd5b61022d846101dd565b925060208085013567ffffffffffffffff8082111561024b57600080fd5b818701915087601f83011261025f57600080fd5b813581811115610271576102716101f9565b8060051b604051601f19603f83011681018181108582111715610296576102966101f9565b60405291825284820192508381018501918a8311156102b457600080fd5b938501935b828510156102d9576102ca856101dd565b845293850193928501926102b9565b979a979950505050604095909501359450505050565b634e487b7160e01b600052603260045260246000fd5b60006020828403121561031757600080fd5b5051919050565b60008282101561033e57634e487b7160e01b600052601160045260246000fd5b500390565b60006020828403121561035557600080fd5b8151801515811461036557600080fd5b9392505050565b600060a082018783526020878185015260a0604085015281875180845260c086019150828901935060005b818110156103bc5784516001600160a01b031683529383019391830191600101610397565b50506001600160a01b0396909616606085015250505060800152939250505056fea2646970667358221220593c15f5e4c82e60dfdfacd664636fec140a83b8a8dfe59fa4f21fae85958c7b64736f6c634300080f0033",
  "devdoc": {
    "kind": "dev",
    "methods": {},
    "version": 1
  },
  "userdoc": {
    "kind": "user",
    "methods": {},
    "version": 1
  },
  "storageLayout": {
    "storage": [],
    "types": null
  }
}