{
  "address": "0x386bc484112dC99668FbE2728E8f0c4A1647b465",
  "abi": [
    {
      "inputs": [
        {
          "internalType": "address",
          "name": "router",
          "type": "address"
        },
        {
          "internalType": "address[]",
          "name": "path",
          "type": "address[]"
        },
        {
          "internalType": "uint256",
          "name": "minAmountOut",
          "type": "uint256"
        }
      ],
      "name": "uniswapSwap",
      "outputs": [],
      "stateMutability": "nonpayable",
      "type": "function"
    }
  ],
  "transactionHash": "0xfafd41de189a01ef6057cbf94638ee29a332efc6889fd63c1a0bfd0a509f3240",
  "args": [],
  "numDeployments": 1,
  "solcInputHash": "b4f250c0906b156e615edae771e04e96",
  "bytecode": "0x608060405234801561001057600080fd5b50610323806100206000396000f3fe608060405234801561001057600080fd5b506004361061002a5760003560e01c806204a85b1461002f575b600080fd5b61004261003d36600461016d565b610044565b005b6000839050806001600160a01b03166338ed17398460008151811061006b5761006b61024d565b60209081029190910101516040516370a0823160e01b81523060048201526001600160a01b03909116906370a0823190602401602060405180830381865afa1580156100bb573d6000803e3d6000fd5b505050506040513d601f19601f820116820180604052508101906100df9190610263565b848630426040518663ffffffff1660e01b815260040161010395949392919061027c565b600060405180830381600087803b15801561011d57600080fd5b505af1158015610131573d6000803e3d6000fd5b5050505050505050565b80356001600160a01b038116811461015257600080fd5b919050565b634e487b7160e01b600052604160045260246000fd5b60008060006060848603121561018257600080fd5b61018b8461013b565b925060208085013567ffffffffffffffff808211156101a957600080fd5b818701915087601f8301126101bd57600080fd5b8135818111156101cf576101cf610157565b8060051b604051601f19603f830116810181811085821117156101f4576101f4610157565b60405291825284820192508381018501918a83111561021257600080fd5b938501935b82851015610237576102288561013b565b84529385019392850192610217565b979a979950505050604095909501359450505050565b634e487b7160e01b600052603260045260246000fd5b60006020828403121561027557600080fd5b5051919050565b600060a082018783526020878185015260a0604085015281875180845260c086019150828901935060005b818110156102cc5784516001600160a01b0316835293830193918301916001016102a7565b50506001600160a01b0396909616606085015250505060800152939250505056fea264697066735822122082577222fafaca4d4a0719cefc019e40278345e7a1666b042dadff5b29bb7fe564736f6c634300080f0033",
  "devdoc": {
    "kind": "dev",
    "methods": {},
    "version": 1
  },
  "userdoc": {
    "kind": "user",
    "methods": {},
    "version": 1
  },
  "storageLayout": {
    "storage": [],
    "types": null
  }
}