{
  "address": "0xE43dA332138F0f5d2738aA4B353923CE29c629Af",
  "abi": [
    {
      "inputs": [
        {
          "internalType": "address",
          "name": "user",
          "type": "address"
        },
        {
          "internalType": "contract Vault",
          "name": "vault",
          "type": "address"
        }
      ],
      "name": "getUserVaultMetadata",
      "outputs": [
        {
          "components": [
            {
              "internalType": "address",
              "name": "vault",
              "type": "address"
            },
            {
              "internalType": "address",
              "name": "asset",
              "type": "address"
            },
            {
              "internalType": "int256",
              "name": "apy",
              "type": "int256"
            },
            {
              "internalType": "uint8",
              "name": "decimals",
              "type": "uint8"
            },
            {
              "internalType": "uint256",
              "name": "withdrawalFee",
              "type": "uint256"
            },
            {
              "internalType": "uint256",
              "name": "harvestFee",
              "type": "uint256"
            },
            {
              "internalType": "uint256",
              "name": "balance",
              "type": "uint256"
            },
            {
              "internalType": "uint256",
              "name": "assetBalance",
              "type": "uint256"
            }
          ],
          "internalType": "struct VaultLens.UserVaultMetadata",
          "name": "",
          "type": "tuple"
        }
      ],
      "stateMutability": "view",
      "type": "function"
    },
    {
      "inputs": [
        {
          "internalType": "address",
          "name": "user",
          "type": "address"
        },
        {
          "internalType": "contract Vault[]",
          "name": "vaults",
          "type": "address[]"
        }
      ],
      "name": "getUserVaultsMetadata",
      "outputs": [
        {
          "components": [
            {
              "internalType": "address",
              "name": "vault",
              "type": "address"
            },
            {
              "internalType": "address",
              "name": "asset",
              "type": "address"
            },
            {
              "internalType": "int256",
              "name": "apy",
              "type": "int256"
            },
            {
              "internalType": "uint8",
              "name": "decimals",
              "type": "uint8"
            },
            {
              "internalType": "uint256",
              "name": "withdrawalFee",
              "type": "uint256"
            },
            {
              "internalType": "uint256",
              "name": "harvestFee",
              "type": "uint256"
            },
            {
              "internalType": "uint256",
              "name": "balance",
              "type": "uint256"
            },
            {
              "internalType": "uint256",
              "name": "assetBalance",
              "type": "uint256"
            }
          ],
          "internalType": "struct VaultLens.UserVaultMetadata[]",
          "name": "",
          "type": "tuple[]"
        }
      ],
      "stateMutability": "view",
      "type": "function"
    },
    {
      "inputs": [
        {
          "internalType": "contract Vault",
          "name": "vault",
          "type": "address"
        }
      ],
      "name": "getVaultMetadata",
      "outputs": [
        {
          "components": [
            {
              "internalType": "address",
              "name": "vault",
              "type": "address"
            },
            {
              "internalType": "address",
              "name": "asset",
              "type": "address"
            },
            {
              "internalType": "int256",
              "name": "apy",
              "type": "int256"
            },
            {
              "internalType": "uint8",
              "name": "decimals",
              "type": "uint8"
            },
            {
              "internalType": "uint256",
              "name": "withdrawalFee",
              "type": "uint256"
            },
            {
              "internalType": "uint256",
              "name": "harvestFee",
              "type": "uint256"
            },
            {
              "internalType": "uint256",
              "name": "totalAssets",
              "type": "uint256"
            },
            {
              "components": [
                {
                  "internalType": "address",
                  "name": "token",
                  "type": "address"
                },
                {
                  "internalType": "uint256",
                  "name": "amount",
                  "type": "uint256"
                }
              ],
              "internalType": "struct Harvestable[]",
              "name": "harvestable",
              "type": "tuple[]"
            }
          ],
          "internalType": "struct VaultLens.VaultMetadata",
          "name": "",
          "type": "tuple"
        }
      ],
      "stateMutability": "view",
      "type": "function"
    },
    {
      "inputs": [
        {
          "internalType": "contract Vault",
          "name": "vault",
          "type": "address"
        }
      ],
      "name": "getVaultMetadataV1",
      "outputs": [
        {
          "components": [
            {
              "internalType": "address",
              "name": "vault",
              "type": "address"
            },
            {
              "internalType": "address",
              "name": "asset",
              "type": "address"
            },
            {
              "internalType": "int256",
              "name": "apy",
              "type": "int256"
            },
            {
              "internalType": "uint256",
              "name": "totalAssets",
              "type": "uint256"
            }
          ],
          "internalType": "struct VaultLens.StableVaultMetadataV1",
          "name": "",
          "type": "tuple"
        }
      ],
      "stateMutability": "view",
      "type": "function"
    },
    {
      "inputs": [
        {
          "internalType": "contract Vault[]",
          "name": "vaults",
          "type": "address[]"
        }
      ],
      "name": "getVaultsMetadata",
      "outputs": [
        {
          "components": [
            {
              "internalType": "address",
              "name": "vault",
              "type": "address"
            },
            {
              "internalType": "address",
              "name": "asset",
              "type": "address"
            },
            {
              "internalType": "int256",
              "name": "apy",
              "type": "int256"
            },
            {
              "internalType": "uint8",
              "name": "decimals",
              "type": "uint8"
            },
            {
              "internalType": "uint256",
              "name": "withdrawalFee",
              "type": "uint256"
            },
            {
              "internalType": "uint256",
              "name": "harvestFee",
              "type": "uint256"
            },
            {
              "internalType": "uint256",
              "name": "totalAssets",
              "type": "uint256"
            },
            {
              "components": [
                {
                  "internalType": "address",
                  "name": "token",
                  "type": "address"
                },
                {
                  "internalType": "uint256",
                  "name": "amount",
                  "type": "uint256"
                }
              ],
              "internalType": "struct Harvestable[]",
              "name": "harvestable",
              "type": "tuple[]"
            }
          ],
          "internalType": "struct VaultLens.VaultMetadata[]",
          "name": "",
          "type": "tuple[]"
        }
      ],
      "stateMutability": "view",
      "type": "function"
    }
  ],
  "transactionHash": "0x82ccde55609f8be6ac39904eb3bcfed7373f9b51899fa096e5fd9c9dfe5c5cfc",
  "args": [],
  "numDeployments": 1,
  "solcInputHash": "203ab578cce1914344217bb9123f7d1f",
  "bytecode": "0x608060405234801561001057600080fd5b506124ca806100206000396000f3fe608060405234801561001057600080fd5b50600436106100575760003560e01c806314153efa1461005c5780636f0d85bc1461008557806397b9fbac146100a5578063a3269846146100f9578063dc4f1e4914610119575b600080fd5b61006f61006a366004611dc8565b610139565b60405161007c9190611e5e565b60405180910390f35b610098610093366004611eb9565b61058e565b60405161007c9190611f0e565b6100b86100b3366004611f5d565b610656565b60405161007c919081516001600160a01b03908116825260208084015190911690820152604080830151908201526060918201519181019190915260800190565b61010c610107366004611f81565b61080f565b60405161007c9190612076565b61012c610127366004611f5d565b6108d5565b60405161007c91906120d8565b610141611cfc565b6000826001600160a01b031663313ce5676040518163ffffffff1660e01b8152600401602060405180830381865afa158015610181573d6000803e3d6000fd5b505050506040513d601f19601f820116820180604052508101906101a591906120eb565b6040516370a0823160e01b81526001600160a01b0386811660048301529192506000918516906307a2d13a9082906370a0823190602401602060405180830381865afa1580156101f9573d6000803e3d6000fd5b505050506040513d601f19601f8201168201806040525081019061021d919061210e565b6040518263ffffffff1660e01b815260040161023b91815260200190565b602060405180830381865afa158015610258573d6000803e3d6000fd5b505050506040513d601f19601f8201168201806040525081019061027c919061210e565b90506000846001600160a01b03166338d52e0f6040518163ffffffff1660e01b8152600401602060405180830381865afa1580156102be573d6000803e3d6000fd5b505050506040513d601f19601f820116820180604052508101906102e29190612127565b6040516370a0823160e01b81526001600160a01b03888116600483015291909116906370a0823190602401602060405180830381865afa15801561032a573d6000803e3d6000fd5b505050506040513d601f19601f8201168201806040525081019061034e919061210e565b9050600080866001600160a01b031663285939846040518163ffffffff1660e01b81526004016040805180830381865afa158015610390573d6000803e3d6000fd5b505050506040513d601f19601f820116820180604052508101906103b49190612144565b90925090506000670de0b6b3a76400006103f66103d1848361217e565b6103df866301e133806121d5565b6103f190670de0b6b3a76400006121e9565b610c1c565b6104009190612208565b61040b906064612247565b9050604051806101000160405280896001600160a01b03168152602001896001600160a01b03166338d52e0f6040518163ffffffff1660e01b8152600401602060405180830381865afa158015610466573d6000803e3d6000fd5b505050506040513d601f19601f8201168201806040525081019061048a9190612127565b6001600160a01b031681526020018281526020018760ff168152602001896001600160a01b0316638bc7e8c46040518163ffffffff1660e01b8152600401602060405180830381865afa1580156104e5573d6000803e3d6000fd5b505050506040513d601f19601f82011682018060405250810190610509919061210e565b8152602001896001600160a01b031663b59629176040518163ffffffff1660e01b8152600401602060405180830381865afa15801561054c573d6000803e3d6000fd5b505050506040513d601f19601f82011682018060405250810190610570919061210e565b81526020018681526020018581525096505050505050505b92915050565b606060008267ffffffffffffffff8111156105ab576105ab6122cc565b6040519080825280602002602001820160405280156105e457816020015b6105d1611cfc565b8152602001906001900390816105c95790505b50905060005b8381101561064d5761061d86868684818110610608576106086122e2565b905060200201602081019061006a9190611f5d565b82828151811061062f5761062f6122e2565b60200260200101819052508080610645906122f8565b9150506105ea565b50949350505050565b604080516080810182526000808252602082018190529181018290526060810191909152600080836001600160a01b031663285939846040518163ffffffff1660e01b81526004016040805180830381865afa1580156106ba573d6000803e3d6000fd5b505050506040513d601f19601f820116820180604052508101906106de9190612144565b90925090506000670de0b6b3a76400006106fb6103d1848361217e565b6107059190612208565b610710906064612247565b90506040518060800160405280866001600160a01b03168152602001866001600160a01b03166338d52e0f6040518163ffffffff1660e01b8152600401602060405180830381865afa15801561076a573d6000803e3d6000fd5b505050506040513d601f19601f8201168201806040525081019061078e9190612127565b6001600160a01b03168152602001828152602001866001600160a01b03166301e1d1146040518163ffffffff1660e01b8152600401602060405180830381865afa1580156107e0573d6000803e3d6000fd5b505050506040513d601f19601f82011682018060405250810190610804919061210e565b905295945050505050565b606060008267ffffffffffffffff81111561082c5761082c6122cc565b60405190808252806020026020018201604052801561086557816020015b610852611d56565b81526020019060019003908161084a5790505b50905060005b838110156108cd5761089d858583818110610888576108886122e2565b90506020020160208101906101279190611f5d565b8282815181106108af576108af6122e2565b602002602001018190525080806108c5906122f8565b91505061086b565b509392505050565b6108dd611d56565b6000826001600160a01b031663313ce5676040518163ffffffff1660e01b8152600401602060405180830381865afa15801561091d573d6000803e3d6000fd5b505050506040513d601f19601f8201168201806040525081019061094191906120eb565b9050600080846001600160a01b031663285939846040518163ffffffff1660e01b81526004016040805180830381865afa158015610983573d6000803e3d6000fd5b505050506040513d601f19601f820116820180604052508101906109a79190612144565b90925090506000670de0b6b3a76400006109c46103d1848361217e565b6109ce9190612208565b6109d9906064612247565b9050604051806101000160405280876001600160a01b03168152602001876001600160a01b03166338d52e0f6040518163ffffffff1660e01b8152600401602060405180830381865afa158015610a34573d6000803e3d6000fd5b505050506040513d601f19601f82011682018060405250810190610a589190612127565b6001600160a01b031681526020018281526020018560ff168152602001876001600160a01b0316638bc7e8c46040518163ffffffff1660e01b8152600401602060405180830381865afa158015610ab3573d6000803e3d6000fd5b505050506040513d601f19601f82011682018060405250810190610ad7919061210e565b8152602001876001600160a01b031663b59629176040518163ffffffff1660e01b8152600401602060405180830381865afa158015610b1a573d6000803e3d6000fd5b505050506040513d601f19601f82011682018060405250810190610b3e919061210e565b8152602001876001600160a01b03166301e1d1146040518163ffffffff1660e01b8152600401602060405180830381865afa158015610b81573d6000803e3d6000fd5b505050506040513d601f19601f82011682018060405250810190610ba5919061210e565b8152602001876001600160a01b031663dbbd47d46040518163ffffffff1660e01b8152600401600060405180830381865afa158015610be8573d6000803e3d6000fd5b505050506040513d6000823e601f3d908101601f19168201604052610c10919081019061236b565b90529695505050505050565b600081600003610c355750670de0b6b3a7640000610588565b82600003610c4557506000610588565b600160ff1b8310610c9d5760405162461bcd60e51b815260206004820152601b60248201527f4c6f674578704d6174683a20585f4f55545f4f465f424f554e4453000000000060448201526064015b60405180910390fd5b82610cb568056bc75e2d63100000600160fe1b6121d5565b8310610d035760405162461bcd60e51b815260206004820152601b60248201527f4c6f674578704d6174683a20595f4f55545f4f465f424f554e445300000000006044820152606401610c94565b82600082610d2167016345785d8a0000670de0b6b3a7640000612208565b128015610d465750610d43670de0b6b3a764000067016345785d8a000061217e565b83125b15610daf576000610d5684610e66565b9050670de0b6b3a764000083610d6c8284612436565b610d769190612247565b610d80919061244a565b83610d93670de0b6b3a76400008461244a565b610d9d9190612247565b610da7919061217e565b915050610dc6565b81610db98461109d565b610dc39190612247565b90505b610dd8670de0b6b3a76400008261244a565b905080680238fd42c5cf03ffff1913158015610dfd575068070c1cc73b00c800008113155b610e535760405162461bcd60e51b815260206004820152602160248201527f4c6f674578704d6174683a2050524f445543545f4f55545f4f465f424f554e446044820152605360f81b6064820152608401610c94565b610e5c81611683565b9695505050505050565b6000610e7a670de0b6b3a764000083612247565b91506000610e966a0c097ce7bc90715b34b9f160241b8461217e565b6a0c097ce7bc90715b34b9f160241b610eaf8186612208565b610eb99190612247565b610ec3919061244a565b905060006a0c097ce7bc90715b34b9f160241b610ee08380612247565b610eea919061244a565b905081806a0c097ce7bc90715b34b9f160241b610f078483612247565b610f11919061244a565b9150610f1e60038361244a565b610f28908261217e565b90506a0c097ce7bc90715b34b9f160241b610f438484612247565b610f4d919061244a565b9150610f5a60058361244a565b610f64908261217e565b90506a0c097ce7bc90715b34b9f160241b610f7f8484612247565b610f89919061244a565b9150610f9660078361244a565b610fa0908261217e565b90506a0c097ce7bc90715b34b9f160241b610fbb8484612247565b610fc5919061244a565b9150610fd260098361244a565b610fdc908261217e565b90506a0c097ce7bc90715b34b9f160241b610ff78484612247565b611001919061244a565b915061100e600b8361244a565b611018908261217e565b90506a0c097ce7bc90715b34b9f160241b6110338484612247565b61103d919061244a565b915061104a600d8361244a565b611054908261217e565b90506a0c097ce7bc90715b34b9f160241b61106f8484612247565b611079919061244a565b9150611086600f8361244a565b611090908261217e565b9050610e5c816002612247565b6000670de0b6b3a76400008212156110dd576110d4826110c5670de0b6b3a764000080612247565b6110cf919061244a565b61109d565b61058890612478565b6000611109670de0b6b3a7640000770195e54c5dd42177f53a27172fa9ec630262827000000000612247565b831261114957611131770195e54c5dd42177f53a27172fa9ec6302628270000000008461244a565b92506111466806f05b59d3b20000008261217e565b90505b611167670de0b6b3a76400006b1425982cf597cd205cef7380612247565b831261119b576111836b1425982cf597cd205cef73808461244a565b92506111986803782dace9d90000008261217e565b90505b6111a6606482612247565b90506111b3606484612247565b92506e01855144814a7ff805980ff00840008312611210576e01855144814a7ff805980ff00840006111ee68056bc75e2d6310000085612247565b6111f8919061244a565b925061120d68ad78ebc5ac620000008261217e565b90505b6b02df0ab5a80a22c61ab5a7008312611265576b02df0ab5a80a22c61ab5a70061124368056bc75e2d6310000085612247565b61124d919061244a565b92506112626856bc75e2d6310000008261217e565b90505b693f1fce3da636ea5cf85083126112b657693f1fce3da636ea5cf85061129468056bc75e2d6310000085612247565b61129e919061244a565b92506112b3682b5e3af16b188000008261217e565b90505b690127fa27722cc06cc5e2831261130757690127fa27722cc06cc5e26112e568056bc75e2d6310000085612247565b6112ef919061244a565b92506113046815af1d78b58c4000008261217e565b90505b68280e60114edb805d0383126113565768280e60114edb805d0361133468056bc75e2d6310000085612247565b61133e919061244a565b9250611353680ad78ebc5ac62000008261217e565b90505b680ebc5fb4174612111083126113a557680ebc5fb4174612111061138368056bc75e2d6310000085612247565b61138d919061244a565b92506113a268056bc75e2d631000008261217e565b90505b6808f00f760a4b2db55d83126113f4576808f00f760a4b2db55d6113d268056bc75e2d6310000085612247565b6113dc919061244a565b92506113f16802b5e3af16b18800008261217e565b90505b6806f5f17757889379378312611443576806f5f177578893793761142168056bc75e2d6310000085612247565b61142b919061244a565b925061144068015af1d78b58c400008261217e565b90505b6806248f33704b2866038312611491576806248f33704b28660361147068056bc75e2d6310000085612247565b61147a919061244a565b925061148e67ad78ebc5ac6200008261217e565b90505b6805c548670b9510e7ac83126114df576805c548670b9510e7ac6114be68056bc75e2d6310000085612247565b6114c8919061244a565b92506114dc6756bc75e2d63100008261217e565b90505b60006114f468056bc75e2d631000008561217e565b68056bc75e2d631000006115088187612208565b6115129190612247565b61151c919061244a565b9050600068056bc75e2d631000006115348380612247565b61153e919061244a565b9050818068056bc75e2d631000006115568483612247565b611560919061244a565b915061156d60038361244a565b611577908261217e565b905068056bc75e2d6310000061158d8484612247565b611597919061244a565b91506115a460058361244a565b6115ae908261217e565b905068056bc75e2d631000006115c48484612247565b6115ce919061244a565b91506115db60078361244a565b6115e5908261217e565b905068056bc75e2d631000006115fb8484612247565b611605919061244a565b915061161260098361244a565b61161c908261217e565b905068056bc75e2d631000006116328484612247565b61163c919061244a565b9150611649600b8361244a565b611653908261217e565b9050611660600282612247565b9050606461166e828761217e565b611678919061244a565b979650505050505050565b6000680238fd42c5cf03ffff1982121580156116a8575068070c1cc73b00c800008213155b6116f45760405162461bcd60e51b815260206004820152601c60248201527f4c6f674578704d6174683a20494e56414c49445f4558504f4e454e54000000006044820152606401610c94565b600082121561172a5761170e61170983612478565b611683565b611720670de0b6b3a764000080612247565b610588919061244a565b60006806f05b59d3b200000083126117715761174f6806f05b59d3b200000084612208565b9250770195e54c5dd42177f53a27172fa9ec63026282700000000090506117ae565b6803782dace9d900000083126117aa576117946803782dace9d900000084612208565b92506b1425982cf597cd205cef738090506117ae565b5060015b6117b9606484612247565b925068056bc75e2d6310000068ad78ebc5ac62000000841261181a576117e868ad78ebc5ac6200000085612208565b935068056bc75e2d6310000061180d6e01855144814a7ff805980ff008400083612247565b611817919061244a565b90505b6856bc75e2d631000000841261186c5761183d6856bc75e2d63100000085612208565b935068056bc75e2d6310000061185f6b02df0ab5a80a22c61ab5a70083612247565b611869919061244a565b90505b682b5e3af16b1880000084126118bc5761188f682b5e3af16b1880000085612208565b935068056bc75e2d631000006118af693f1fce3da636ea5cf85083612247565b6118b9919061244a565b90505b6815af1d78b58c400000841261190c576118df6815af1d78b58c40000085612208565b935068056bc75e2d631000006118ff690127fa27722cc06cc5e283612247565b611909919061244a565b90505b680ad78ebc5ac6200000841261195b5761192f680ad78ebc5ac620000085612208565b935068056bc75e2d6310000061194e68280e60114edb805d0383612247565b611958919061244a565b90505b68056bc75e2d6310000084126119aa5761197e68056bc75e2d6310000085612208565b935068056bc75e2d6310000061199d680ebc5fb4174612111083612247565b6119a7919061244a565b90505b6802b5e3af16b188000084126119f9576119cd6802b5e3af16b188000085612208565b935068056bc75e2d631000006119ec6808f00f760a4b2db55d83612247565b6119f6919061244a565b90505b68015af1d78b58c400008412611a4857611a1c68015af1d78b58c4000085612208565b935068056bc75e2d63100000611a3b6806f5f177578893793783612247565b611a45919061244a565b90505b68056bc75e2d6310000084611a5d818361217e565b9150600268056bc75e2d63100000611a758884612247565b611a7f919061244a565b611a89919061244a565b9050611a95818361217e565b9150600368056bc75e2d63100000611aad8884612247565b611ab7919061244a565b611ac1919061244a565b9050611acd818361217e565b9150600468056bc75e2d63100000611ae58884612247565b611aef919061244a565b611af9919061244a565b9050611b05818361217e565b9150600568056bc75e2d63100000611b1d8884612247565b611b27919061244a565b611b31919061244a565b9050611b3d818361217e565b9150600668056bc75e2d63100000611b558884612247565b611b5f919061244a565b611b69919061244a565b9050611b75818361217e565b9150600768056bc75e2d63100000611b8d8884612247565b611b97919061244a565b611ba1919061244a565b9050611bad818361217e565b9150600868056bc75e2d63100000611bc58884612247565b611bcf919061244a565b611bd9919061244a565b9050611be5818361217e565b9150600968056bc75e2d63100000611bfd8884612247565b611c07919061244a565b611c11919061244a565b9050611c1d818361217e565b9150600a68056bc75e2d63100000611c358884612247565b611c3f919061244a565b611c49919061244a565b9050611c55818361217e565b9150600b68056bc75e2d63100000611c6d8884612247565b611c77919061244a565b611c81919061244a565b9050611c8d818361217e565b9150600c68056bc75e2d63100000611ca58884612247565b611caf919061244a565b611cb9919061244a565b9050611cc5818361217e565b915060648468056bc75e2d63100000611cde8587612247565b611ce8919061244a565b611cf29190612247565b610e5c919061244a565b60405180610100016040528060006001600160a01b0316815260200160006001600160a01b0316815260200160008152602001600060ff168152602001600081526020016000815260200160008152602001600081525090565b60405180610100016040528060006001600160a01b0316815260200160006001600160a01b0316815260200160008152602001600060ff168152602001600081526020016000815260200160008152602001606081525090565b6001600160a01b0381168114611dc557600080fd5b50565b60008060408385031215611ddb57600080fd5b8235611de681611db0565b91506020830135611df681611db0565b809150509250929050565b60018060a01b03808251168352806020830151166020840152506040810151604083015260ff60608201511660608301526080810151608083015260a081015160a083015260c081015160c083015260e081015160e08301525050565b61010081016105888284611e01565b60008083601f840112611e7f57600080fd5b50813567ffffffffffffffff811115611e9757600080fd5b6020830191508360208260051b8501011115611eb257600080fd5b9250929050565b600080600060408486031215611ece57600080fd5b8335611ed981611db0565b9250602084013567ffffffffffffffff811115611ef557600080fd5b611f0186828701611e6d565b9497909650939450505050565b6020808252825182820181905260009190848201906040850190845b81811015611f5157611f3d838551611e01565b928401926101009290920191600101611f2a565b50909695505050505050565b600060208284031215611f6f57600080fd5b8135611f7a81611db0565b9392505050565b60008060208385031215611f9457600080fd5b823567ffffffffffffffff811115611fab57600080fd5b611fb785828601611e6d565b90969095509350505050565b600061010080840160018060a01b038085511686526020818187015116818801526040808701518189015260ff60608801511660608901526080870151608089015260a087015160a089015260c087015160c089015260e08701518560e08a015284955080518086526101208a0196508382019550600091505b808210156120685785518051861688528401518488015295820195948301946001919091019061203d565b509498975050505050505050565b6000602080830181845280855180835260408601915060408160051b870101925083870160005b828110156120cb57603f198886030184526120b9858351611fc3565b9450928501929085019060010161209d565b5092979650505050505050565b602081526000611f7a6020830184611fc3565b6000602082840312156120fd57600080fd5b815160ff81168114611f7a57600080fd5b60006020828403121561212057600080fd5b5051919050565b60006020828403121561213957600080fd5b8151611f7a81611db0565b6000806040838503121561215757600080fd5b505080516020909101519092909150565b634e487b7160e01b600052601160045260246000fd5b600080821280156001600160ff1b03849003851316156121a0576121a0612168565b600160ff1b83900384128116156121b9576121b9612168565b50500190565b634e487b7160e01b600052601260045260246000fd5b6000826121e4576121e46121bf565b500490565b600081600019048311821515161561220357612203612168565b500290565b60008083128015600160ff1b85018412161561222657612226612168565b6001600160ff1b038401831381161561224157612241612168565b50500390565b60006001600160ff1b038184138284138082168684048611161561226d5761226d612168565b600160ff1b600087128281168783058912161561228c5761228c612168565b600087129250878205871284841616156122a8576122a8612168565b878505871281841616156122be576122be612168565b505050929093029392505050565b634e487b7160e01b600052604160045260246000fd5b634e487b7160e01b600052603260045260246000fd5b60006001820161230a5761230a612168565b5060010190565b6040805190810167ffffffffffffffff81118282101715612334576123346122cc565b60405290565b604051601f8201601f1916810167ffffffffffffffff81118282101715612363576123636122cc565b604052919050565b6000602080838503121561237e57600080fd5b825167ffffffffffffffff8082111561239657600080fd5b818501915085601f8301126123aa57600080fd5b8151818111156123bc576123bc6122cc565b6123ca848260051b0161233a565b818152848101925060069190911b8301840190878211156123ea57600080fd5b928401925b8184101561167857604084890312156124085760008081fd5b612410612311565b845161241b81611db0565b815284860151868201528352604090930192918401916123ef565b600082612445576124456121bf565b500790565b600082612459576124596121bf565b600160ff1b82146000198414161561247357612473612168565b500590565b6000600160ff1b820161248d5761248d612168565b506000039056fea26469706673582212205f3db3d0ffde085fa4b21cdcb1462fd28f5755938d55dcc90648c4bcd0abd59864736f6c634300080f0033",
  "devdoc": {
    "kind": "dev",
    "methods": {},
    "version": 1
  },
  "userdoc": {
    "kind": "user",
    "methods": {},
    "version": 1
  },
  "storageLayout": {
    "storage": [],
    "types": null
  }
}