{
  "address": "0xd363b4057ead54Fd89796E178C944e5634E87686",
  "abi": [
    {
      "inputs": [
        {
          "internalType": "address",
          "name": "user",
          "type": "address"
        },
        {
          "internalType": "contract Vault",
          "name": "vault",
          "type": "address"
        }
      ],
      "name": "getUserVaultMetadata",
      "outputs": [
        {
          "components": [
            {
              "internalType": "address",
              "name": "vault",
              "type": "address"
            },
            {
              "internalType": "address",
              "name": "asset",
              "type": "address"
            },
            {
              "internalType": "int256",
              "name": "apy",
              "type": "int256"
            },
            {
              "internalType": "uint8",
              "name": "decimals",
              "type": "uint8"
            },
            {
              "internalType": "uint256",
              "name": "balance",
              "type": "uint256"
            },
            {
              "internalType": "uint256",
              "name": "assetBalance",
              "type": "uint256"
            }
          ],
          "internalType": "struct VaultLens.UserVaultMetadata",
          "name": "",
          "type": "tuple"
        }
      ],
      "stateMutability": "view",
      "type": "function"
    },
    {
      "inputs": [
        {
          "internalType": "address",
          "name": "user",
          "type": "address"
        },
        {
          "internalType": "contract Vault[]",
          "name": "vaults",
          "type": "address[]"
        }
      ],
      "name": "getUserVaultsMetadata",
      "outputs": [
        {
          "components": [
            {
              "internalType": "address",
              "name": "vault",
              "type": "address"
            },
            {
              "internalType": "address",
              "name": "asset",
              "type": "address"
            },
            {
              "internalType": "int256",
              "name": "apy",
              "type": "int256"
            },
            {
              "internalType": "uint8",
              "name": "decimals",
              "type": "uint8"
            },
            {
              "internalType": "uint256",
              "name": "balance",
              "type": "uint256"
            },
            {
              "internalType": "uint256",
              "name": "assetBalance",
              "type": "uint256"
            }
          ],
          "internalType": "struct VaultLens.UserVaultMetadata[]",
          "name": "",
          "type": "tuple[]"
        }
      ],
      "stateMutability": "view",
      "type": "function"
    },
    {
      "inputs": [
        {
          "internalType": "contract Vault",
          "name": "vault",
          "type": "address"
        }
      ],
      "name": "getVaultMetadata",
      "outputs": [
        {
          "components": [
            {
              "internalType": "address",
              "name": "vault",
              "type": "address"
            },
            {
              "internalType": "address",
              "name": "asset",
              "type": "address"
            },
            {
              "internalType": "int256",
              "name": "apy",
              "type": "int256"
            },
            {
              "internalType": "uint8",
              "name": "decimals",
              "type": "uint8"
            },
            {
              "internalType": "uint256",
              "name": "totalAssets",
              "type": "uint256"
            },
            {
              "components": [
                {
                  "internalType": "address",
                  "name": "token",
                  "type": "address"
                },
                {
                  "internalType": "uint256",
                  "name": "amount",
                  "type": "uint256"
                }
              ],
              "internalType": "struct Harvestable[]",
              "name": "harvestable",
              "type": "tuple[]"
            }
          ],
          "internalType": "struct VaultLens.VaultMetadata",
          "name": "",
          "type": "tuple"
        }
      ],
      "stateMutability": "view",
      "type": "function"
    },
    {
      "inputs": [
        {
          "internalType": "contract Vault[]",
          "name": "vaults",
          "type": "address[]"
        }
      ],
      "name": "getVaultsMetadata",
      "outputs": [
        {
          "components": [
            {
              "internalType": "address",
              "name": "vault",
              "type": "address"
            },
            {
              "internalType": "address",
              "name": "asset",
              "type": "address"
            },
            {
              "internalType": "int256",
              "name": "apy",
              "type": "int256"
            },
            {
              "internalType": "uint8",
              "name": "decimals",
              "type": "uint8"
            },
            {
              "internalType": "uint256",
              "name": "totalAssets",
              "type": "uint256"
            },
            {
              "components": [
                {
                  "internalType": "address",
                  "name": "token",
                  "type": "address"
                },
                {
                  "internalType": "uint256",
                  "name": "amount",
                  "type": "uint256"
                }
              ],
              "internalType": "struct Harvestable[]",
              "name": "harvestable",
              "type": "tuple[]"
            }
          ],
          "internalType": "struct VaultLens.VaultMetadata[]",
          "name": "",
          "type": "tuple[]"
        }
      ],
      "stateMutability": "view",
      "type": "function"
    }
  ],
  "transactionHash": "0xc58d44a11f22fe9e1f6dc5a3c6571efd24bb8a7ba54ffb371e78aa5ec3febdb5",
  "args": [],
  "numDeployments": 5,
  "solcInputHash": "5d9d4c0d63e0913c26d2e523b5efd805",
  "bytecode": "0x608060405234801561001057600080fd5b506120c6806100206000396000f3fe608060405234801561001057600080fd5b506004361061004c5760003560e01c806314153efa146100515780636f0d85bc1461007a578063a32698461461009a578063dc4f1e49146100ba575b600080fd5b61006461005f3660046119f4565b6100da565b6040516100719190611a75565b60405180910390f35b61008d610088366004611acf565b610460565b6040516100719190611b24565b6100ad6100a8366004611b72565b610528565b6040516100719190611c4e565b6100cd6100c8366004611cb0565b6105ee565b6040516100719190611cd4565b6100e2611946565b6000826001600160a01b031663313ce5676040518163ffffffff1660e01b8152600401602060405180830381865afa158015610122573d6000803e3d6000fd5b505050506040513d601f19601f820116820180604052508101906101469190611ce7565b6040516370a0823160e01b81526001600160a01b0386811660048301529192506000918516906307a2d13a9082906370a0823190602401602060405180830381865afa15801561019a573d6000803e3d6000fd5b505050506040513d601f19601f820116820180604052508101906101be9190611d0a565b6040518263ffffffff1660e01b81526004016101dc91815260200190565b602060405180830381865afa1580156101f9573d6000803e3d6000fd5b505050506040513d601f19601f8201168201806040525081019061021d9190611d0a565b90506000846001600160a01b03166338d52e0f6040518163ffffffff1660e01b8152600401602060405180830381865afa15801561025f573d6000803e3d6000fd5b505050506040513d601f19601f820116820180604052508101906102839190611d23565b6040516370a0823160e01b81526001600160a01b03888116600483015291909116906370a0823190602401602060405180830381865afa1580156102cb573d6000803e3d6000fd5b505050506040513d601f19601f820116820180604052508101906102ef9190611d0a565b9050600080866001600160a01b031663285939846040518163ffffffff1660e01b81526004016040805180830381865afa158015610331573d6000803e3d6000fd5b505050506040513d601f19601f820116820180604052508101906103559190611d40565b90925090506000670de0b6b3a76400006103976103728483611d7a565b610380866301e13380611dd1565b61039290670de0b6b3a7640000611de5565b610866565b6103a19190611e04565b6103ac906064611e43565b90506040518060c00160405280896001600160a01b03168152602001896001600160a01b03166338d52e0f6040518163ffffffff1660e01b8152600401602060405180830381865afa158015610406573d6000803e3d6000fd5b505050506040513d601f19601f8201168201806040525081019061042a9190611d23565b6001600160a01b031681526020018281526020018760ff1681526020018681526020018581525096505050505050505b92915050565b606060008267ffffffffffffffff81111561047d5761047d611ec8565b6040519080825280602002602001820160405280156104b657816020015b6104a3611946565b81526020019060019003908161049b5790505b50905060005b8381101561051f576104ef868686848181106104da576104da611ede565b905060200201602081019061005f9190611cb0565b82828151811061050157610501611ede565b6020026020010181905250808061051790611ef4565b9150506104bc565b50949350505050565b606060008267ffffffffffffffff81111561054557610545611ec8565b60405190808252806020026020018201604052801561057e57816020015b61056b611991565b8152602001906001900390816105635790505b50905060005b838110156105e6576105b68585838181106105a1576105a1611ede565b90506020020160208101906100c89190611cb0565b8282815181106105c8576105c8611ede565b602002602001018190525080806105de90611ef4565b915050610584565b509392505050565b6105f6611991565b6000826001600160a01b031663313ce5676040518163ffffffff1660e01b8152600401602060405180830381865afa158015610636573d6000803e3d6000fd5b505050506040513d601f19601f8201168201806040525081019061065a9190611ce7565b9050600080846001600160a01b031663285939846040518163ffffffff1660e01b81526004016040805180830381865afa15801561069c573d6000803e3d6000fd5b505050506040513d601f19601f820116820180604052508101906106c09190611d40565b90925090506000670de0b6b3a76400006106dd6103728483611d7a565b6106e79190611e04565b6106f2906064611e43565b90506040518060c00160405280876001600160a01b03168152602001876001600160a01b03166338d52e0f6040518163ffffffff1660e01b8152600401602060405180830381865afa15801561074c573d6000803e3d6000fd5b505050506040513d601f19601f820116820180604052508101906107709190611d23565b6001600160a01b031681526020018281526020018560ff168152602001876001600160a01b03166301e1d1146040518163ffffffff1660e01b8152600401602060405180830381865afa1580156107cb573d6000803e3d6000fd5b505050506040513d601f19601f820116820180604052508101906107ef9190611d0a565b8152602001876001600160a01b031663dbbd47d46040518163ffffffff1660e01b8152600401600060405180830381865afa158015610832573d6000803e3d6000fd5b505050506040513d6000823e601f3d908101601f1916820160405261085a9190810190611f67565b90529695505050505050565b60008160000361087f5750670de0b6b3a764000061045a565b8260000361088f5750600061045a565b600160ff1b83106108e75760405162461bcd60e51b815260206004820152601b60248201527f4c6f674578704d6174683a20585f4f55545f4f465f424f554e4453000000000060448201526064015b60405180910390fd5b826108ff68056bc75e2d63100000600160fe1b611dd1565b831061094d5760405162461bcd60e51b815260206004820152601b60248201527f4c6f674578704d6174683a20595f4f55545f4f465f424f554e4453000000000060448201526064016108de565b8260008261096b67016345785d8a0000670de0b6b3a7640000611e04565b128015610990575061098d670de0b6b3a764000067016345785d8a0000611d7a565b83125b156109f95760006109a084610ab0565b9050670de0b6b3a7640000836109b68284612032565b6109c09190611e43565b6109ca9190612046565b836109dd670de0b6b3a764000084612046565b6109e79190611e43565b6109f19190611d7a565b915050610a10565b81610a0384610ce7565b610a0d9190611e43565b90505b610a22670de0b6b3a764000082612046565b905080680238fd42c5cf03ffff1913158015610a47575068070c1cc73b00c800008113155b610a9d5760405162461bcd60e51b815260206004820152602160248201527f4c6f674578704d6174683a2050524f445543545f4f55545f4f465f424f554e446044820152605360f81b60648201526084016108de565b610aa6816112cd565b9695505050505050565b6000610ac4670de0b6b3a764000083611e43565b91506000610ae06a0c097ce7bc90715b34b9f160241b84611d7a565b6a0c097ce7bc90715b34b9f160241b610af98186611e04565b610b039190611e43565b610b0d9190612046565b905060006a0c097ce7bc90715b34b9f160241b610b2a8380611e43565b610b349190612046565b905081806a0c097ce7bc90715b34b9f160241b610b518483611e43565b610b5b9190612046565b9150610b68600383612046565b610b729082611d7a565b90506a0c097ce7bc90715b34b9f160241b610b8d8484611e43565b610b979190612046565b9150610ba4600583612046565b610bae9082611d7a565b90506a0c097ce7bc90715b34b9f160241b610bc98484611e43565b610bd39190612046565b9150610be0600783612046565b610bea9082611d7a565b90506a0c097ce7bc90715b34b9f160241b610c058484611e43565b610c0f9190612046565b9150610c1c600983612046565b610c269082611d7a565b90506a0c097ce7bc90715b34b9f160241b610c418484611e43565b610c4b9190612046565b9150610c58600b83612046565b610c629082611d7a565b90506a0c097ce7bc90715b34b9f160241b610c7d8484611e43565b610c879190612046565b9150610c94600d83612046565b610c9e9082611d7a565b90506a0c097ce7bc90715b34b9f160241b610cb98484611e43565b610cc39190612046565b9150610cd0600f83612046565b610cda9082611d7a565b9050610aa6816002611e43565b6000670de0b6b3a7640000821215610d2757610d1e82610d0f670de0b6b3a764000080611e43565b610d199190612046565b610ce7565b61045a90612074565b6000610d53670de0b6b3a7640000770195e54c5dd42177f53a27172fa9ec630262827000000000611e43565b8312610d9357610d7b770195e54c5dd42177f53a27172fa9ec63026282700000000084612046565b9250610d906806f05b59d3b200000082611d7a565b90505b610db1670de0b6b3a76400006b1425982cf597cd205cef7380611e43565b8312610de557610dcd6b1425982cf597cd205cef738084612046565b9250610de26803782dace9d900000082611d7a565b90505b610df0606482611e43565b9050610dfd606484611e43565b92506e01855144814a7ff805980ff00840008312610e5a576e01855144814a7ff805980ff0084000610e3868056bc75e2d6310000085611e43565b610e429190612046565b9250610e5768ad78ebc5ac6200000082611d7a565b90505b6b02df0ab5a80a22c61ab5a7008312610eaf576b02df0ab5a80a22c61ab5a700610e8d68056bc75e2d6310000085611e43565b610e979190612046565b9250610eac6856bc75e2d63100000082611d7a565b90505b693f1fce3da636ea5cf8508312610f0057693f1fce3da636ea5cf850610ede68056bc75e2d6310000085611e43565b610ee89190612046565b9250610efd682b5e3af16b1880000082611d7a565b90505b690127fa27722cc06cc5e28312610f5157690127fa27722cc06cc5e2610f2f68056bc75e2d6310000085611e43565b610f399190612046565b9250610f4e6815af1d78b58c40000082611d7a565b90505b68280e60114edb805d038312610fa05768280e60114edb805d03610f7e68056bc75e2d6310000085611e43565b610f889190612046565b9250610f9d680ad78ebc5ac620000082611d7a565b90505b680ebc5fb417461211108312610fef57680ebc5fb41746121110610fcd68056bc75e2d6310000085611e43565b610fd79190612046565b9250610fec68056bc75e2d6310000082611d7a565b90505b6808f00f760a4b2db55d831261103e576808f00f760a4b2db55d61101c68056bc75e2d6310000085611e43565b6110269190612046565b925061103b6802b5e3af16b188000082611d7a565b90505b6806f5f1775788937937831261108d576806f5f177578893793761106b68056bc75e2d6310000085611e43565b6110759190612046565b925061108a68015af1d78b58c4000082611d7a565b90505b6806248f33704b28660383126110db576806248f33704b2866036110ba68056bc75e2d6310000085611e43565b6110c49190612046565b92506110d867ad78ebc5ac62000082611d7a565b90505b6805c548670b9510e7ac8312611129576805c548670b9510e7ac61110868056bc75e2d6310000085611e43565b6111129190612046565b92506111266756bc75e2d631000082611d7a565b90505b600061113e68056bc75e2d6310000085611d7a565b68056bc75e2d631000006111528187611e04565b61115c9190611e43565b6111669190612046565b9050600068056bc75e2d6310000061117e8380611e43565b6111889190612046565b9050818068056bc75e2d631000006111a08483611e43565b6111aa9190612046565b91506111b7600383612046565b6111c19082611d7a565b905068056bc75e2d631000006111d78484611e43565b6111e19190612046565b91506111ee600583612046565b6111f89082611d7a565b905068056bc75e2d6310000061120e8484611e43565b6112189190612046565b9150611225600783612046565b61122f9082611d7a565b905068056bc75e2d631000006112458484611e43565b61124f9190612046565b915061125c600983612046565b6112669082611d7a565b905068056bc75e2d6310000061127c8484611e43565b6112869190612046565b9150611293600b83612046565b61129d9082611d7a565b90506112aa600282611e43565b905060646112b88287611d7a565b6112c29190612046565b979650505050505050565b6000680238fd42c5cf03ffff1982121580156112f2575068070c1cc73b00c800008213155b61133e5760405162461bcd60e51b815260206004820152601c60248201527f4c6f674578704d6174683a20494e56414c49445f4558504f4e454e540000000060448201526064016108de565b60008212156113745761135861135383612074565b6112cd565b61136a670de0b6b3a764000080611e43565b61045a9190612046565b60006806f05b59d3b200000083126113bb576113996806f05b59d3b200000084611e04565b9250770195e54c5dd42177f53a27172fa9ec63026282700000000090506113f8565b6803782dace9d900000083126113f4576113de6803782dace9d900000084611e04565b92506b1425982cf597cd205cef738090506113f8565b5060015b611403606484611e43565b925068056bc75e2d6310000068ad78ebc5ac6200000084126114645761143268ad78ebc5ac6200000085611e04565b935068056bc75e2d631000006114576e01855144814a7ff805980ff008400083611e43565b6114619190612046565b90505b6856bc75e2d63100000084126114b6576114876856bc75e2d63100000085611e04565b935068056bc75e2d631000006114a96b02df0ab5a80a22c61ab5a70083611e43565b6114b39190612046565b90505b682b5e3af16b188000008412611506576114d9682b5e3af16b1880000085611e04565b935068056bc75e2d631000006114f9693f1fce3da636ea5cf85083611e43565b6115039190612046565b90505b6815af1d78b58c4000008412611556576115296815af1d78b58c40000085611e04565b935068056bc75e2d63100000611549690127fa27722cc06cc5e283611e43565b6115539190612046565b90505b680ad78ebc5ac620000084126115a557611579680ad78ebc5ac620000085611e04565b935068056bc75e2d6310000061159868280e60114edb805d0383611e43565b6115a29190612046565b90505b68056bc75e2d6310000084126115f4576115c868056bc75e2d6310000085611e04565b935068056bc75e2d631000006115e7680ebc5fb4174612111083611e43565b6115f19190612046565b90505b6802b5e3af16b18800008412611643576116176802b5e3af16b188000085611e04565b935068056bc75e2d631000006116366808f00f760a4b2db55d83611e43565b6116409190612046565b90505b68015af1d78b58c4000084126116925761166668015af1d78b58c4000085611e04565b935068056bc75e2d631000006116856806f5f177578893793783611e43565b61168f9190612046565b90505b68056bc75e2d63100000846116a78183611d7a565b9150600268056bc75e2d631000006116bf8884611e43565b6116c99190612046565b6116d39190612046565b90506116df8183611d7a565b9150600368056bc75e2d631000006116f78884611e43565b6117019190612046565b61170b9190612046565b90506117178183611d7a565b9150600468056bc75e2d6310000061172f8884611e43565b6117399190612046565b6117439190612046565b905061174f8183611d7a565b9150600568056bc75e2d631000006117678884611e43565b6117719190612046565b61177b9190612046565b90506117878183611d7a565b9150600668056bc75e2d6310000061179f8884611e43565b6117a99190612046565b6117b39190612046565b90506117bf8183611d7a565b9150600768056bc75e2d631000006117d78884611e43565b6117e19190612046565b6117eb9190612046565b90506117f78183611d7a565b9150600868056bc75e2d6310000061180f8884611e43565b6118199190612046565b6118239190612046565b905061182f8183611d7a565b9150600968056bc75e2d631000006118478884611e43565b6118519190612046565b61185b9190612046565b90506118678183611d7a565b9150600a68056bc75e2d6310000061187f8884611e43565b6118899190612046565b6118939190612046565b905061189f8183611d7a565b9150600b68056bc75e2d631000006118b78884611e43565b6118c19190612046565b6118cb9190612046565b90506118d78183611d7a565b9150600c68056bc75e2d631000006118ef8884611e43565b6118f99190612046565b6119039190612046565b905061190f8183611d7a565b915060648468056bc75e2d631000006119288587611e43565b6119329190612046565b61193c9190611e43565b610aa69190612046565b6040518060c0016040528060006001600160a01b0316815260200160006001600160a01b0316815260200160008152602001600060ff16815260200160008152602001600081525090565b6040518060c0016040528060006001600160a01b0316815260200160006001600160a01b0316815260200160008152602001600060ff16815260200160008152602001606081525090565b6001600160a01b03811681146119f157600080fd5b50565b60008060408385031215611a0757600080fd5b8235611a12816119dc565b91506020830135611a22816119dc565b809150509250929050565b80516001600160a01b039081168352602080830151909116908301526040808201519083015260608082015160ff16908301526080808201519083015260a090810151910152565b60c0810161045a8284611a2d565b60008083601f840112611a9557600080fd5b50813567ffffffffffffffff811115611aad57600080fd5b6020830191508360208260051b8501011115611ac857600080fd5b9250929050565b600080600060408486031215611ae457600080fd5b8335611aef816119dc565b9250602084013567ffffffffffffffff811115611b0b57600080fd5b611b1786828701611a83565b9497909650939450505050565b6020808252825182820181905260009190848201906040850190845b81811015611b6657611b53838551611a2d565b9284019260c09290920191600101611b40565b50909695505050505050565b60008060208385031215611b8557600080fd5b823567ffffffffffffffff811115611b9c57600080fd5b611ba885828601611a83565b90969095509350505050565b600060c0830160018060a01b038084511685526020818186015116818701526040808601518188015260ff60608701511660608801526080860151608088015260a086015160c060a089015284815180875260e08a0191508483019650600092505b80831015611c4157865180518716835285015185830152958401956001929092019190830190611c16565b5098975050505050505050565b6000602080830181845280855180835260408601915060408160051b870101925083870160005b82811015611ca357603f19888603018452611c91858351611bb4565b94509285019290850190600101611c75565b5092979650505050505050565b600060208284031215611cc257600080fd5b8135611ccd816119dc565b9392505050565b602081526000611ccd6020830184611bb4565b600060208284031215611cf957600080fd5b815160ff81168114611ccd57600080fd5b600060208284031215611d1c57600080fd5b5051919050565b600060208284031215611d3557600080fd5b8151611ccd816119dc565b60008060408385031215611d5357600080fd5b505080516020909101519092909150565b634e487b7160e01b600052601160045260246000fd5b600080821280156001600160ff1b0384900385131615611d9c57611d9c611d64565b600160ff1b8390038412811615611db557611db5611d64565b50500190565b634e487b7160e01b600052601260045260246000fd5b600082611de057611de0611dbb565b500490565b6000816000190483118215151615611dff57611dff611d64565b500290565b60008083128015600160ff1b850184121615611e2257611e22611d64565b6001600160ff1b0384018313811615611e3d57611e3d611d64565b50500390565b60006001600160ff1b0381841382841380821686840486111615611e6957611e69611d64565b600160ff1b6000871282811687830589121615611e8857611e88611d64565b60008712925087820587128484161615611ea457611ea4611d64565b87850587128184161615611eba57611eba611d64565b505050929093029392505050565b634e487b7160e01b600052604160045260246000fd5b634e487b7160e01b600052603260045260246000fd5b600060018201611f0657611f06611d64565b5060010190565b6040805190810167ffffffffffffffff81118282101715611f3057611f30611ec8565b60405290565b604051601f8201601f1916810167ffffffffffffffff81118282101715611f5f57611f5f611ec8565b604052919050565b60006020808385031215611f7a57600080fd5b825167ffffffffffffffff80821115611f9257600080fd5b818501915085601f830112611fa657600080fd5b815181811115611fb857611fb8611ec8565b611fc6848260051b01611f36565b818152848101925060069190911b830184019087821115611fe657600080fd5b928401925b818410156112c257604084890312156120045760008081fd5b61200c611f0d565b8451612017816119dc565b81528486015186820152835260409093019291840191611feb565b60008261204157612041611dbb565b500790565b60008261205557612055611dbb565b600160ff1b82146000198414161561206f5761206f611d64565b500590565b6000600160ff1b820161208957612089611d64565b506000039056fea2646970667358221220385cc4009ad76dad3d6c8458c89ecaac63e3320dcc3c2ceb5ddfc24c4ffad6d464736f6c634300080f0033",
  "devdoc": {
    "kind": "dev",
    "methods": {},
    "version": 1
  },
  "userdoc": {
    "kind": "user",
    "methods": {},
    "version": 1
  },
  "storageLayout": {
    "storage": [],
    "types": null
  }
}