{
  "address": "0x3eAFac473B80f6B209e5281843E9519423dF6773",
  "abi": [
    {
      "inputs": [
        {
          "internalType": "address",
          "name": "user",
          "type": "address"
        },
        {
          "internalType": "contract Vault",
          "name": "vault",
          "type": "address"
        }
      ],
      "name": "getUserVaultMetadata",
      "outputs": [
        {
          "components": [
            {
              "internalType": "address",
              "name": "vault",
              "type": "address"
            },
            {
              "internalType": "address",
              "name": "asset",
              "type": "address"
            },
            {
              "internalType": "int256",
              "name": "apy",
              "type": "int256"
            },
            {
              "internalType": "uint8",
              "name": "decimals",
              "type": "uint8"
            },
            {
              "internalType": "uint256",
              "name": "balance",
              "type": "uint256"
            }
          ],
          "internalType": "struct VaultLens.UserVaultMetadata",
          "name": "",
          "type": "tuple"
        }
      ],
      "stateMutability": "view",
      "type": "function"
    },
    {
      "inputs": [
        {
          "internalType": "address",
          "name": "user",
          "type": "address"
        },
        {
          "internalType": "contract Vault[]",
          "name": "vaults",
          "type": "address[]"
        }
      ],
      "name": "getUserVaultsMetadata",
      "outputs": [
        {
          "components": [
            {
              "internalType": "address",
              "name": "vault",
              "type": "address"
            },
            {
              "internalType": "address",
              "name": "asset",
              "type": "address"
            },
            {
              "internalType": "int256",
              "name": "apy",
              "type": "int256"
            },
            {
              "internalType": "uint8",
              "name": "decimals",
              "type": "uint8"
            },
            {
              "internalType": "uint256",
              "name": "balance",
              "type": "uint256"
            }
          ],
          "internalType": "struct VaultLens.UserVaultMetadata[]",
          "name": "",
          "type": "tuple[]"
        }
      ],
      "stateMutability": "view",
      "type": "function"
    },
    {
      "inputs": [
        {
          "internalType": "contract Vault",
          "name": "vault",
          "type": "address"
        }
      ],
      "name": "getVaultMetadata",
      "outputs": [
        {
          "components": [
            {
              "internalType": "address",
              "name": "vault",
              "type": "address"
            },
            {
              "internalType": "address",
              "name": "asset",
              "type": "address"
            },
            {
              "internalType": "int256",
              "name": "apy",
              "type": "int256"
            },
            {
              "components": [
                {
                  "internalType": "address",
                  "name": "token",
                  "type": "address"
                },
                {
                  "internalType": "uint256",
                  "name": "amount",
                  "type": "uint256"
                }
              ],
              "internalType": "struct Harvestable[]",
              "name": "harvestable",
              "type": "tuple[]"
            }
          ],
          "internalType": "struct VaultLens.VaultMetadata",
          "name": "",
          "type": "tuple"
        }
      ],
      "stateMutability": "view",
      "type": "function"
    },
    {
      "inputs": [
        {
          "internalType": "contract Vault[]",
          "name": "vaults",
          "type": "address[]"
        }
      ],
      "name": "getVaultsMetadata",
      "outputs": [
        {
          "components": [
            {
              "internalType": "address",
              "name": "vault",
              "type": "address"
            },
            {
              "internalType": "address",
              "name": "asset",
              "type": "address"
            },
            {
              "internalType": "int256",
              "name": "apy",
              "type": "int256"
            },
            {
              "components": [
                {
                  "internalType": "address",
                  "name": "token",
                  "type": "address"
                },
                {
                  "internalType": "uint256",
                  "name": "amount",
                  "type": "uint256"
                }
              ],
              "internalType": "struct Harvestable[]",
              "name": "harvestable",
              "type": "tuple[]"
            }
          ],
          "internalType": "struct VaultLens.VaultMetadata[]",
          "name": "",
          "type": "tuple[]"
        }
      ],
      "stateMutability": "view",
      "type": "function"
    }
  ],
  "transactionHash": "0x06b851577a93ca8099fa13de012be18cd87c20bec58ce69848c49961b5de6e63",
  "args": [],
  "numDeployments": 1,
  "solcInputHash": "8aa1983969fb180561f2fd14e015a0cd",
  "bytecode": "0x608060405234801561001057600080fd5b50611ed5806100206000396000f3fe608060405234801561001057600080fd5b506004361061004c5760003560e01c806314153efa146100515780636f0d85bc1461007a578063a32698461461009a578063dc4f1e49146100ba575b600080fd5b61006461005f366004611824565b6100da565b604051610071919061189b565b60405180910390f35b61008d6100883660046118f5565b6103aa565b604051610071919061194a565b6100ad6100a8366004611998565b610492565b6040516100719190611a5d565b6100cd6100c8366004611abf565b610570565b6040516100719190611ae3565b6040805160a0810182526000808252602082018190529181018290526060810182905260808101919091526040516370a0823160e01b81526001600160a01b038481166004830152600091908416906307a2d13a9082906370a0823190602401602060405180830381865afa158015610157573d6000803e3d6000fd5b505050506040513d601f19601f8201168201806040525081019061017b9190611af6565b6040518263ffffffff1660e01b815260040161019991815260200190565b602060405180830381865afa1580156101b6573d6000803e3d6000fd5b505050506040513d601f19601f820116820180604052508101906101da9190611af6565b90506000836001600160a01b031663313ce5676040518163ffffffff1660e01b8152600401602060405180830381865afa15801561021c573d6000803e3d6000fd5b505050506040513d601f19601f820116820180604052508101906102409190611b0f565b9050600080856001600160a01b031663285939846040518163ffffffff1660e01b81526004016040805180830381865afa158015610282573d6000803e3d6000fd5b505050506040513d601f19601f820116820180604052508101906102a69190611b32565b90925090506000670de0b6b3a76400006102e86102c38483611b6c565b6102d1866301e187e0611bc3565b6102e390670de0b6b3a7640000611bd7565b61072c565b6102f29190611bf6565b6102fd906064611c35565b90506040518060a00160405280886001600160a01b03168152602001886001600160a01b03166338d52e0f6040518163ffffffff1660e01b8152600401602060405180830381865afa158015610357573d6000803e3d6000fd5b505050506040513d601f19601f8201168201806040525081019061037b9190611cba565b6001600160a01b031681526020018281526020018560ff16815260200186815250955050505050505b92915050565b606060008267ffffffffffffffff8111156103c7576103c7611cd7565b60405190808252806020026020018201604052801561042057816020015b6040805160a0810182526000808252602080830182905292820181905260608201819052608082015282526000199092019101816103e55790505b50905060005b83811015610489576104598686868481811061044457610444611ced565b905060200201602081019061005f9190611abf565b82828151811061046b5761046b611ced565b6020026020010181905250808061048190611d03565b915050610426565b50949350505050565b606060008267ffffffffffffffff8111156104af576104af611cd7565b60405190808252806020026020018201604052801561050057816020015b60408051608081018252600080825260208083018290529282015260608082015282526000199092019101816104cd5790505b50905060005b838110156105685761053885858381811061052357610523611ced565b90506020020160208101906100c89190611abf565b82828151811061054a5761054a611ced565b6020026020010181905250808061056090611d03565b915050610506565b509392505050565b6040805160808101825260008082526020820181905291810191909152606080820152600080836001600160a01b031663285939846040518163ffffffff1660e01b81526004016040805180830381865afa1580156105d3573d6000803e3d6000fd5b505050506040513d601f19601f820116820180604052508101906105f79190611b32565b90925090506000670de0b6b3a76400006106146102c38483611b6c565b61061e9190611bf6565b610629906064611c35565b90506040518060800160405280866001600160a01b03168152602001866001600160a01b03166338d52e0f6040518163ffffffff1660e01b8152600401602060405180830381865afa158015610683573d6000803e3d6000fd5b505050506040513d601f19601f820116820180604052508101906106a79190611cba565b6001600160a01b03168152602001828152602001866001600160a01b031663dbbd47d46040518163ffffffff1660e01b8152600401600060405180830381865afa1580156106f9573d6000803e3d6000fd5b505050506040513d6000823e601f3d908101601f191682016040526107219190810190611d76565b905295945050505050565b6000816000036107455750670de0b6b3a76400006103a4565b82600003610755575060006103a4565b600160ff1b83106107ad5760405162461bcd60e51b815260206004820152601b60248201527f4c6f674578704d6174683a20585f4f55545f4f465f424f554e4453000000000060448201526064015b60405180910390fd5b826107c568056bc75e2d63100000600160fe1b611bc3565b83106108135760405162461bcd60e51b815260206004820152601b60248201527f4c6f674578704d6174683a20595f4f55545f4f465f424f554e4453000000000060448201526064016107a4565b8260008261083167016345785d8a0000670de0b6b3a7640000611bf6565b1280156108565750610853670de0b6b3a764000067016345785d8a0000611b6c565b83125b156108bf57600061086684610976565b9050670de0b6b3a76400008361087c8284611e41565b6108869190611c35565b6108909190611e55565b836108a3670de0b6b3a764000084611e55565b6108ad9190611c35565b6108b79190611b6c565b9150506108d6565b816108c984610bad565b6108d39190611c35565b90505b6108e8670de0b6b3a764000082611e55565b905080680238fd42c5cf03ffff191315801561090d575068070c1cc73b00c800008113155b6109635760405162461bcd60e51b815260206004820152602160248201527f4c6f674578704d6174683a2050524f445543545f4f55545f4f465f424f554e446044820152605360f81b60648201526084016107a4565b61096c81611193565b9695505050505050565b600061098a670de0b6b3a764000083611c35565b915060006109a66a0c097ce7bc90715b34b9f160241b84611b6c565b6a0c097ce7bc90715b34b9f160241b6109bf8186611bf6565b6109c99190611c35565b6109d39190611e55565b905060006a0c097ce7bc90715b34b9f160241b6109f08380611c35565b6109fa9190611e55565b905081806a0c097ce7bc90715b34b9f160241b610a178483611c35565b610a219190611e55565b9150610a2e600383611e55565b610a389082611b6c565b90506a0c097ce7bc90715b34b9f160241b610a538484611c35565b610a5d9190611e55565b9150610a6a600583611e55565b610a749082611b6c565b90506a0c097ce7bc90715b34b9f160241b610a8f8484611c35565b610a999190611e55565b9150610aa6600783611e55565b610ab09082611b6c565b90506a0c097ce7bc90715b34b9f160241b610acb8484611c35565b610ad59190611e55565b9150610ae2600983611e55565b610aec9082611b6c565b90506a0c097ce7bc90715b34b9f160241b610b078484611c35565b610b119190611e55565b9150610b1e600b83611e55565b610b289082611b6c565b90506a0c097ce7bc90715b34b9f160241b610b438484611c35565b610b4d9190611e55565b9150610b5a600d83611e55565b610b649082611b6c565b90506a0c097ce7bc90715b34b9f160241b610b7f8484611c35565b610b899190611e55565b9150610b96600f83611e55565b610ba09082611b6c565b905061096c816002611c35565b6000670de0b6b3a7640000821215610bed57610be482610bd5670de0b6b3a764000080611c35565b610bdf9190611e55565b610bad565b6103a490611e83565b6000610c19670de0b6b3a7640000770195e54c5dd42177f53a27172fa9ec630262827000000000611c35565b8312610c5957610c41770195e54c5dd42177f53a27172fa9ec63026282700000000084611e55565b9250610c566806f05b59d3b200000082611b6c565b90505b610c77670de0b6b3a76400006b1425982cf597cd205cef7380611c35565b8312610cab57610c936b1425982cf597cd205cef738084611e55565b9250610ca86803782dace9d900000082611b6c565b90505b610cb6606482611c35565b9050610cc3606484611c35565b92506e01855144814a7ff805980ff00840008312610d20576e01855144814a7ff805980ff0084000610cfe68056bc75e2d6310000085611c35565b610d089190611e55565b9250610d1d68ad78ebc5ac6200000082611b6c565b90505b6b02df0ab5a80a22c61ab5a7008312610d75576b02df0ab5a80a22c61ab5a700610d5368056bc75e2d6310000085611c35565b610d5d9190611e55565b9250610d726856bc75e2d63100000082611b6c565b90505b693f1fce3da636ea5cf8508312610dc657693f1fce3da636ea5cf850610da468056bc75e2d6310000085611c35565b610dae9190611e55565b9250610dc3682b5e3af16b1880000082611b6c565b90505b690127fa27722cc06cc5e28312610e1757690127fa27722cc06cc5e2610df568056bc75e2d6310000085611c35565b610dff9190611e55565b9250610e146815af1d78b58c40000082611b6c565b90505b68280e60114edb805d038312610e665768280e60114edb805d03610e4468056bc75e2d6310000085611c35565b610e4e9190611e55565b9250610e63680ad78ebc5ac620000082611b6c565b90505b680ebc5fb417461211108312610eb557680ebc5fb41746121110610e9368056bc75e2d6310000085611c35565b610e9d9190611e55565b9250610eb268056bc75e2d6310000082611b6c565b90505b6808f00f760a4b2db55d8312610f04576808f00f760a4b2db55d610ee268056bc75e2d6310000085611c35565b610eec9190611e55565b9250610f016802b5e3af16b188000082611b6c565b90505b6806f5f17757889379378312610f53576806f5f1775788937937610f3168056bc75e2d6310000085611c35565b610f3b9190611e55565b9250610f5068015af1d78b58c4000082611b6c565b90505b6806248f33704b2866038312610fa1576806248f33704b286603610f8068056bc75e2d6310000085611c35565b610f8a9190611e55565b9250610f9e67ad78ebc5ac62000082611b6c565b90505b6805c548670b9510e7ac8312610fef576805c548670b9510e7ac610fce68056bc75e2d6310000085611c35565b610fd89190611e55565b9250610fec6756bc75e2d631000082611b6c565b90505b600061100468056bc75e2d6310000085611b6c565b68056bc75e2d631000006110188187611bf6565b6110229190611c35565b61102c9190611e55565b9050600068056bc75e2d631000006110448380611c35565b61104e9190611e55565b9050818068056bc75e2d631000006110668483611c35565b6110709190611e55565b915061107d600383611e55565b6110879082611b6c565b905068056bc75e2d6310000061109d8484611c35565b6110a79190611e55565b91506110b4600583611e55565b6110be9082611b6c565b905068056bc75e2d631000006110d48484611c35565b6110de9190611e55565b91506110eb600783611e55565b6110f59082611b6c565b905068056bc75e2d6310000061110b8484611c35565b6111159190611e55565b9150611122600983611e55565b61112c9082611b6c565b905068056bc75e2d631000006111428484611c35565b61114c9190611e55565b9150611159600b83611e55565b6111639082611b6c565b9050611170600282611c35565b9050606461117e8287611b6c565b6111889190611e55565b979650505050505050565b6000680238fd42c5cf03ffff1982121580156111b8575068070c1cc73b00c800008213155b6112045760405162461bcd60e51b815260206004820152601c60248201527f4c6f674578704d6174683a20494e56414c49445f4558504f4e454e540000000060448201526064016107a4565b600082121561123a5761121e61121983611e83565b611193565b611230670de0b6b3a764000080611c35565b6103a49190611e55565b60006806f05b59d3b200000083126112815761125f6806f05b59d3b200000084611bf6565b9250770195e54c5dd42177f53a27172fa9ec63026282700000000090506112be565b6803782dace9d900000083126112ba576112a46803782dace9d900000084611bf6565b92506b1425982cf597cd205cef738090506112be565b5060015b6112c9606484611c35565b925068056bc75e2d6310000068ad78ebc5ac62000000841261132a576112f868ad78ebc5ac6200000085611bf6565b935068056bc75e2d6310000061131d6e01855144814a7ff805980ff008400083611c35565b6113279190611e55565b90505b6856bc75e2d631000000841261137c5761134d6856bc75e2d63100000085611bf6565b935068056bc75e2d6310000061136f6b02df0ab5a80a22c61ab5a70083611c35565b6113799190611e55565b90505b682b5e3af16b1880000084126113cc5761139f682b5e3af16b1880000085611bf6565b935068056bc75e2d631000006113bf693f1fce3da636ea5cf85083611c35565b6113c99190611e55565b90505b6815af1d78b58c400000841261141c576113ef6815af1d78b58c40000085611bf6565b935068056bc75e2d6310000061140f690127fa27722cc06cc5e283611c35565b6114199190611e55565b90505b680ad78ebc5ac6200000841261146b5761143f680ad78ebc5ac620000085611bf6565b935068056bc75e2d6310000061145e68280e60114edb805d0383611c35565b6114689190611e55565b90505b68056bc75e2d6310000084126114ba5761148e68056bc75e2d6310000085611bf6565b935068056bc75e2d631000006114ad680ebc5fb4174612111083611c35565b6114b79190611e55565b90505b6802b5e3af16b18800008412611509576114dd6802b5e3af16b188000085611bf6565b935068056bc75e2d631000006114fc6808f00f760a4b2db55d83611c35565b6115069190611e55565b90505b68015af1d78b58c4000084126115585761152c68015af1d78b58c4000085611bf6565b935068056bc75e2d6310000061154b6806f5f177578893793783611c35565b6115559190611e55565b90505b68056bc75e2d631000008461156d8183611b6c565b9150600268056bc75e2d631000006115858884611c35565b61158f9190611e55565b6115999190611e55565b90506115a58183611b6c565b9150600368056bc75e2d631000006115bd8884611c35565b6115c79190611e55565b6115d19190611e55565b90506115dd8183611b6c565b9150600468056bc75e2d631000006115f58884611c35565b6115ff9190611e55565b6116099190611e55565b90506116158183611b6c565b9150600568056bc75e2d6310000061162d8884611c35565b6116379190611e55565b6116419190611e55565b905061164d8183611b6c565b9150600668056bc75e2d631000006116658884611c35565b61166f9190611e55565b6116799190611e55565b90506116858183611b6c565b9150600768056bc75e2d6310000061169d8884611c35565b6116a79190611e55565b6116b19190611e55565b90506116bd8183611b6c565b9150600868056bc75e2d631000006116d58884611c35565b6116df9190611e55565b6116e99190611e55565b90506116f58183611b6c565b9150600968056bc75e2d6310000061170d8884611c35565b6117179190611e55565b6117219190611e55565b905061172d8183611b6c565b9150600a68056bc75e2d631000006117458884611c35565b61174f9190611e55565b6117599190611e55565b90506117658183611b6c565b9150600b68056bc75e2d6310000061177d8884611c35565b6117879190611e55565b6117919190611e55565b905061179d8183611b6c565b9150600c68056bc75e2d631000006117b58884611c35565b6117bf9190611e55565b6117c99190611e55565b90506117d58183611b6c565b915060648468056bc75e2d631000006117ee8587611c35565b6117f89190611e55565b6118029190611c35565b61096c9190611e55565b6001600160a01b038116811461182157600080fd5b50565b6000806040838503121561183757600080fd5b82356118428161180c565b915060208301356118528161180c565b809150509250929050565b80516001600160a01b039081168352602080830151909116908301526040808201519083015260608082015160ff1690830152608090810151910152565b60a081016103a4828461185d565b60008083601f8401126118bb57600080fd5b50813567ffffffffffffffff8111156118d357600080fd5b6020830191508360208260051b85010111156118ee57600080fd5b9250929050565b60008060006040848603121561190a57600080fd5b83356119158161180c565b9250602084013567ffffffffffffffff81111561193157600080fd5b61193d868287016118a9565b9497909650939450505050565b6020808252825182820181905260009190848201906040850190845b8181101561198c5761197983855161185d565b9284019260a09290920191600101611966565b50909695505050505050565b600080602083850312156119ab57600080fd5b823567ffffffffffffffff8111156119c257600080fd5b6119ce858286016118a9565b90969095509350505050565b60006080830160018060a01b038084511685526020818186015116818701526040808601518188015260608601516080606089015284815180875260a08a0191508483019650600092505b80831015611a5057865180518716835285015185830152958401956001929092019190830190611a25565b5098975050505050505050565b6000602080830181845280855180835260408601915060408160051b870101925083870160005b82811015611ab257603f19888603018452611aa08583516119da565b94509285019290850190600101611a84565b5092979650505050505050565b600060208284031215611ad157600080fd5b8135611adc8161180c565b9392505050565b602081526000611adc60208301846119da565b600060208284031215611b0857600080fd5b5051919050565b600060208284031215611b2157600080fd5b815160ff81168114611adc57600080fd5b60008060408385031215611b4557600080fd5b505080516020909101519092909150565b634e487b7160e01b600052601160045260246000fd5b600080821280156001600160ff1b0384900385131615611b8e57611b8e611b56565b600160ff1b8390038412811615611ba757611ba7611b56565b50500190565b634e487b7160e01b600052601260045260246000fd5b600082611bd257611bd2611bad565b500490565b6000816000190483118215151615611bf157611bf1611b56565b500290565b60008083128015600160ff1b850184121615611c1457611c14611b56565b6001600160ff1b0384018313811615611c2f57611c2f611b56565b50500390565b60006001600160ff1b0381841382841380821686840486111615611c5b57611c5b611b56565b600160ff1b6000871282811687830589121615611c7a57611c7a611b56565b60008712925087820587128484161615611c9657611c96611b56565b87850587128184161615611cac57611cac611b56565b505050929093029392505050565b600060208284031215611ccc57600080fd5b8151611adc8161180c565b634e487b7160e01b600052604160045260246000fd5b634e487b7160e01b600052603260045260246000fd5b600060018201611d1557611d15611b56565b5060010190565b6040805190810167ffffffffffffffff81118282101715611d3f57611d3f611cd7565b60405290565b604051601f8201601f1916810167ffffffffffffffff81118282101715611d6e57611d6e611cd7565b604052919050565b60006020808385031215611d8957600080fd5b825167ffffffffffffffff80821115611da157600080fd5b818501915085601f830112611db557600080fd5b815181811115611dc757611dc7611cd7565b611dd5848260051b01611d45565b818152848101925060069190911b830184019087821115611df557600080fd5b928401925b818410156111885760408489031215611e135760008081fd5b611e1b611d1c565b8451611e268161180c565b81528486015186820152835260409093019291840191611dfa565b600082611e5057611e50611bad565b500790565b600082611e6457611e64611bad565b600160ff1b821460001984141615611e7e57611e7e611b56565b500590565b6000600160ff1b8201611e9857611e98611b56565b506000039056fea26469706673582212207e4b599546a22c152633b15af19afcaf1819946cbf629eea63644fd5e94ef4e964736f6c634300080f0033",
  "devdoc": {
    "kind": "dev",
    "methods": {},
    "version": 1
  },
  "userdoc": {
    "kind": "user",
    "methods": {},
    "version": 1
  },
  "storageLayout": {
    "storage": [],
    "types": null
  }
}