{
  "address": "0xed538CC614208F66ac1c087fB4FA37532D47a5b6",
  "abi": [
    {
      "inputs": [
        {
          "internalType": "contract ERC20",
          "name": "asset",
          "type": "address"
        },
        {
          "internalType": "string",
          "name": "name",
          "type": "string"
        },
        {
          "internalType": "string",
          "name": "symbol",
          "type": "string"
        },
        {
          "internalType": "contract ILendingPool",
          "name": "_lendingPool",
          "type": "address"
        },
        {
          "internalType": "contract IAaveIncentivesController",
          "name": "_incentivesController",
          "type": "address"
        }
      ],
      "stateMutability": "nonpayable",
      "type": "constructor"
    },
    {
      "anonymous": false,
      "inputs": [
        {
          "indexed": true,
          "internalType": "address",
          "name": "owner",
          "type": "address"
        },
        {
          "indexed": true,
          "internalType": "address",
          "name": "spender",
          "type": "address"
        },
        {
          "indexed": false,
          "internalType": "uint256",
          "name": "amount",
          "type": "uint256"
        }
      ],
      "name": "Approval",
      "type": "event"
    },
    {
      "anonymous": false,
      "inputs": [
        {
          "indexed": true,
          "internalType": "address",
          "name": "caller",
          "type": "address"
        },
        {
          "indexed": true,
          "internalType": "address",
          "name": "owner",
          "type": "address"
        },
        {
          "indexed": false,
          "internalType": "uint256",
          "name": "assets",
          "type": "uint256"
        },
        {
          "indexed": false,
          "internalType": "uint256",
          "name": "shares",
          "type": "uint256"
        }
      ],
      "name": "Deposit",
      "type": "event"
    },
    {
      "anonymous": false,
      "inputs": [
        {
          "indexed": false,
          "internalType": "uint256",
          "name": "assetsPerShare",
          "type": "uint256"
        },
        {
          "indexed": false,
          "internalType": "uint256",
          "name": "sharesToHarvester",
          "type": "uint256"
        }
      ],
      "name": "Harvest",
      "type": "event"
    },
    {
      "anonymous": false,
      "inputs": [
        {
          "indexed": true,
          "internalType": "address",
          "name": "previousOwner",
          "type": "address"
        },
        {
          "indexed": true,
          "internalType": "address",
          "name": "newOwner",
          "type": "address"
        }
      ],
      "name": "OwnershipTransferred",
      "type": "event"
    },
    {
      "anonymous": false,
      "inputs": [
        {
          "indexed": true,
          "internalType": "address",
          "name": "from",
          "type": "address"
        },
        {
          "indexed": true,
          "internalType": "address",
          "name": "to",
          "type": "address"
        },
        {
          "indexed": false,
          "internalType": "uint256",
          "name": "amount",
          "type": "uint256"
        }
      ],
      "name": "Transfer",
      "type": "event"
    },
    {
      "anonymous": false,
      "inputs": [
        {
          "indexed": false,
          "internalType": "address",
          "name": "target",
          "type": "address"
        },
        {
          "indexed": false,
          "internalType": "bool",
          "name": "allowed",
          "type": "bool"
        }
      ],
      "name": "UpdateAllowedHarvester",
      "type": "event"
    },
    {
      "anonymous": false,
      "inputs": [
        {
          "indexed": false,
          "internalType": "address",
          "name": "user",
          "type": "address"
        },
        {
          "indexed": false,
          "internalType": "bool",
          "name": "excluded",
          "type": "bool"
        }
      ],
      "name": "UpdateFeeExclusion",
      "type": "event"
    },
    {
      "anonymous": false,
      "inputs": [
        {
          "indexed": false,
          "internalType": "uint256",
          "name": "oldFee",
          "type": "uint256"
        },
        {
          "indexed": false,
          "internalType": "uint256",
          "name": "newFee",
          "type": "uint256"
        }
      ],
      "name": "UpdateHarvestFee",
      "type": "event"
    },
    {
      "anonymous": false,
      "inputs": [
        {
          "indexed": false,
          "internalType": "uint256",
          "name": "oldFee",
          "type": "uint256"
        },
        {
          "indexed": false,
          "internalType": "uint256",
          "name": "newFee",
          "type": "uint256"
        }
      ],
      "name": "UpdateWithdrawalFee",
      "type": "event"
    },
    {
      "anonymous": false,
      "inputs": [
        {
          "indexed": true,
          "internalType": "address",
          "name": "caller",
          "type": "address"
        },
        {
          "indexed": true,
          "internalType": "address",
          "name": "receiver",
          "type": "address"
        },
        {
          "indexed": true,
          "internalType": "address",
          "name": "owner",
          "type": "address"
        },
        {
          "indexed": false,
          "internalType": "uint256",
          "name": "assets",
          "type": "uint256"
        },
        {
          "indexed": false,
          "internalType": "uint256",
          "name": "shares",
          "type": "uint256"
        }
      ],
      "name": "Withdraw",
      "type": "event"
    },
    {
      "inputs": [],
      "name": "DOMAIN_SEPARATOR",
      "outputs": [
        {
          "internalType": "bytes32",
          "name": "",
          "type": "bytes32"
        }
      ],
      "stateMutability": "view",
      "type": "function"
    },
    {
      "inputs": [],
      "name": "MAX_WITHDRAWAL_FEE",
      "outputs": [
        {
          "internalType": "uint256",
          "name": "",
          "type": "uint256"
        }
      ],
      "stateMutability": "view",
      "type": "function"
    },
    {
      "inputs": [
        {
          "internalType": "uint256",
          "name": "",
          "type": "uint256"
        }
      ],
      "name": "_allHarvesters",
      "outputs": [
        {
          "internalType": "address",
          "name": "",
          "type": "address"
        }
      ],
      "stateMutability": "view",
      "type": "function"
    },
    {
      "inputs": [],
      "name": "allHarvesters",
      "outputs": [
        {
          "internalType": "address[]",
          "name": "",
          "type": "address[]"
        }
      ],
      "stateMutability": "view",
      "type": "function"
    },
    {
      "inputs": [
        {
          "internalType": "address",
          "name": "target",
          "type": "address"
        },
        {
          "internalType": "bool",
          "name": "allowed",
          "type": "bool"
        }
      ],
      "name": "allowHarvester",
      "outputs": [],
      "stateMutability": "nonpayable",
      "type": "function"
    },
    {
      "inputs": [
        {
          "internalType": "address",
          "name": "",
          "type": "address"
        },
        {
          "internalType": "address",
          "name": "",
          "type": "address"
        }
      ],
      "name": "allowance",
      "outputs": [
        {
          "internalType": "uint256",
          "name": "",
          "type": "uint256"
        }
      ],
      "stateMutability": "view",
      "type": "function"
    },
    {
      "inputs": [
        {
          "internalType": "address",
          "name": "",
          "type": "address"
        }
      ],
      "name": "allowedHarvesters",
      "outputs": [
        {
          "internalType": "bool",
          "name": "",
          "type": "bool"
        }
      ],
      "stateMutability": "view",
      "type": "function"
    },
    {
      "inputs": [
        {
          "internalType": "address",
          "name": "spender",
          "type": "address"
        },
        {
          "internalType": "uint256",
          "name": "amount",
          "type": "uint256"
        }
      ],
      "name": "approve",
      "outputs": [
        {
          "internalType": "bool",
          "name": "",
          "type": "bool"
        }
      ],
      "stateMutability": "nonpayable",
      "type": "function"
    },
    {
      "inputs": [],
      "name": "asset",
      "outputs": [
        {
          "internalType": "contract ERC20",
          "name": "",
          "type": "address"
        }
      ],
      "stateMutability": "view",
      "type": "function"
    },
    {
      "inputs": [
        {
          "internalType": "address",
          "name": "",
          "type": "address"
        }
      ],
      "name": "balanceOf",
      "outputs": [
        {
          "internalType": "uint256",
          "name": "",
          "type": "uint256"
        }
      ],
      "stateMutability": "view",
      "type": "function"
    },
    {
      "inputs": [],
      "name": "claimOwnership",
      "outputs": [],
      "stateMutability": "nonpayable",
      "type": "function"
    },
    {
      "inputs": [
        {
          "internalType": "uint256",
          "name": "shares",
          "type": "uint256"
        }
      ],
      "name": "convertToAssets",
      "outputs": [
        {
          "internalType": "uint256",
          "name": "",
          "type": "uint256"
        }
      ],
      "stateMutability": "view",
      "type": "function"
    },
    {
      "inputs": [
        {
          "internalType": "uint256",
          "name": "assets",
          "type": "uint256"
        }
      ],
      "name": "convertToShares",
      "outputs": [
        {
          "internalType": "uint256",
          "name": "",
          "type": "uint256"
        }
      ],
      "stateMutability": "view",
      "type": "function"
    },
    {
      "inputs": [],
      "name": "decimals",
      "outputs": [
        {
          "internalType": "uint8",
          "name": "",
          "type": "uint8"
        }
      ],
      "stateMutability": "view",
      "type": "function"
    },
    {
      "inputs": [
        {
          "internalType": "uint256",
          "name": "assets",
          "type": "uint256"
        },
        {
          "internalType": "address",
          "name": "receiver",
          "type": "address"
        }
      ],
      "name": "deposit",
      "outputs": [
        {
          "internalType": "uint256",
          "name": "shares",
          "type": "uint256"
        }
      ],
      "stateMutability": "nonpayable",
      "type": "function"
    },
    {
      "inputs": [
        {
          "internalType": "address",
          "name": "user",
          "type": "address"
        },
        {
          "internalType": "bool",
          "name": "exclude",
          "type": "bool"
        }
      ],
      "name": "excludeFromFees",
      "outputs": [],
      "stateMutability": "nonpayable",
      "type": "function"
    },
    {
      "inputs": [
        {
          "internalType": "address",
          "name": "",
          "type": "address"
        }
      ],
      "name": "excludedFromFees",
      "outputs": [
        {
          "internalType": "bool",
          "name": "",
          "type": "bool"
        }
      ],
      "stateMutability": "view",
      "type": "function"
    },
    {
      "inputs": [],
      "name": "feeTaker",
      "outputs": [
        {
          "internalType": "address",
          "name": "",
          "type": "address"
        }
      ],
      "stateMutability": "view",
      "type": "function"
    },
    {
      "inputs": [],
      "name": "getRemainingProtocolSupplyCap",
      "outputs": [
        {
          "internalType": "uint256",
          "name": "",
          "type": "uint256"
        }
      ],
      "stateMutability": "pure",
      "type": "function"
    },
    {
      "inputs": [],
      "name": "getSuppliedToProtocol",
      "outputs": [
        {
          "internalType": "uint256",
          "name": "",
          "type": "uint256"
        }
      ],
      "stateMutability": "view",
      "type": "function"
    },
    {
      "inputs": [
        {
          "components": [
            {
              "internalType": "address",
              "name": "target",
              "type": "address"
            },
            {
              "internalType": "bytes",
              "name": "callData",
              "type": "bytes"
            }
          ],
          "internalType": "struct HarvestCall[]",
          "name": "calls",
          "type": "tuple[]"
        },
        {
          "internalType": "uint256",
          "name": "amountOutMin",
          "type": "uint256"
        }
      ],
      "name": "harvest",
      "outputs": [
        {
          "internalType": "bytes[]",
          "name": "returnData",
          "type": "bytes[]"
        }
      ],
      "stateMutability": "nonpayable",
      "type": "function"
    },
    {
      "inputs": [
        {
          "internalType": "uint256",
          "name": "",
          "type": "uint256"
        }
      ],
      "name": "harvestCheckpoints",
      "outputs": [
        {
          "internalType": "uint32",
          "name": "blockTimestamp",
          "type": "uint32"
        },
        {
          "internalType": "uint224",
          "name": "assetsPerShare",
          "type": "uint224"
        }
      ],
      "stateMutability": "view",
      "type": "function"
    },
    {
      "inputs": [],
      "name": "harvestCheckpointsLength",
      "outputs": [
        {
          "internalType": "uint256",
          "name": "",
          "type": "uint256"
        }
      ],
      "stateMutability": "view",
      "type": "function"
    },
    {
      "inputs": [],
      "name": "harvestFee",
      "outputs": [
        {
          "internalType": "uint256",
          "name": "",
          "type": "uint256"
        }
      ],
      "stateMutability": "view",
      "type": "function"
    },
    {
      "inputs": [],
      "name": "harvestable",
      "outputs": [
        {
          "components": [
            {
              "internalType": "address",
              "name": "token",
              "type": "address"
            },
            {
              "internalType": "uint256",
              "name": "amount",
              "type": "uint256"
            }
          ],
          "internalType": "struct Harvestable[]",
          "name": "",
          "type": "tuple[]"
        }
      ],
      "stateMutability": "view",
      "type": "function"
    },
    {
      "inputs": [
        {
          "internalType": "uint256",
          "name": "index",
          "type": "uint256"
        }
      ],
      "name": "invertedHarvestCheckpoints",
      "outputs": [
        {
          "components": [
            {
              "internalType": "uint32",
              "name": "blockTimestamp",
              "type": "uint32"
            },
            {
              "internalType": "uint224",
              "name": "assetsPerShare",
              "type": "uint224"
            }
          ],
          "internalType": "struct HarvestCheckpoint",
          "name": "",
          "type": "tuple"
        }
      ],
      "stateMutability": "view",
      "type": "function"
    },
    {
      "inputs": [],
      "name": "manager",
      "outputs": [
        {
          "internalType": "address",
          "name": "",
          "type": "address"
        }
      ],
      "stateMutability": "view",
      "type": "function"
    },
    {
      "inputs": [
        {
          "internalType": "address",
          "name": "",
          "type": "address"
        }
      ],
      "name": "maxDeposit",
      "outputs": [
        {
          "internalType": "uint256",
          "name": "",
          "type": "uint256"
        }
      ],
      "stateMutability": "view",
      "type": "function"
    },
    {
      "inputs": [
        {
          "internalType": "address",
          "name": "",
          "type": "address"
        }
      ],
      "name": "maxMint",
      "outputs": [
        {
          "internalType": "uint256",
          "name": "",
          "type": "uint256"
        }
      ],
      "stateMutability": "view",
      "type": "function"
    },
    {
      "inputs": [
        {
          "internalType": "address",
          "name": "owner",
          "type": "address"
        }
      ],
      "name": "maxRedeem",
      "outputs": [
        {
          "internalType": "uint256",
          "name": "",
          "type": "uint256"
        }
      ],
      "stateMutability": "view",
      "type": "function"
    },
    {
      "inputs": [
        {
          "internalType": "address",
          "name": "owner",
          "type": "address"
        }
      ],
      "name": "maxWithdraw",
      "outputs": [
        {
          "internalType": "uint256",
          "name": "",
          "type": "uint256"
        }
      ],
      "stateMutability": "view",
      "type": "function"
    },
    {
      "inputs": [
        {
          "internalType": "uint256",
          "name": "shares",
          "type": "uint256"
        },
        {
          "internalType": "address",
          "name": "receiver",
          "type": "address"
        }
      ],
      "name": "mint",
      "outputs": [
        {
          "internalType": "uint256",
          "name": "assets",
          "type": "uint256"
        }
      ],
      "stateMutability": "nonpayable",
      "type": "function"
    },
    {
      "inputs": [],
      "name": "name",
      "outputs": [
        {
          "internalType": "string",
          "name": "",
          "type": "string"
        }
      ],
      "stateMutability": "view",
      "type": "function"
    },
    {
      "inputs": [
        {
          "internalType": "address",
          "name": "",
          "type": "address"
        }
      ],
      "name": "nonces",
      "outputs": [
        {
          "internalType": "uint256",
          "name": "",
          "type": "uint256"
        }
      ],
      "stateMutability": "view",
      "type": "function"
    },
    {
      "inputs": [],
      "name": "owner",
      "outputs": [
        {
          "internalType": "address",
          "name": "",
          "type": "address"
        }
      ],
      "stateMutability": "view",
      "type": "function"
    },
    {
      "inputs": [],
      "name": "pendingOwner",
      "outputs": [
        {
          "internalType": "address",
          "name": "",
          "type": "address"
        }
      ],
      "stateMutability": "view",
      "type": "function"
    },
    {
      "inputs": [
        {
          "internalType": "address",
          "name": "owner",
          "type": "address"
        },
        {
          "internalType": "address",
          "name": "spender",
          "type": "address"
        },
        {
          "internalType": "uint256",
          "name": "value",
          "type": "uint256"
        },
        {
          "internalType": "uint256",
          "name": "deadline",
          "type": "uint256"
        },
        {
          "internalType": "uint8",
          "name": "v",
          "type": "uint8"
        },
        {
          "internalType": "bytes32",
          "name": "r",
          "type": "bytes32"
        },
        {
          "internalType": "bytes32",
          "name": "s",
          "type": "bytes32"
        }
      ],
      "name": "permit",
      "outputs": [],
      "stateMutability": "nonpayable",
      "type": "function"
    },
    {
      "inputs": [
        {
          "internalType": "uint256",
          "name": "assets",
          "type": "uint256"
        }
      ],
      "name": "previewDeposit",
      "outputs": [
        {
          "internalType": "uint256",
          "name": "",
          "type": "uint256"
        }
      ],
      "stateMutability": "view",
      "type": "function"
    },
    {
      "inputs": [
        {
          "internalType": "uint256",
          "name": "shares",
          "type": "uint256"
        }
      ],
      "name": "previewMint",
      "outputs": [
        {
          "internalType": "uint256",
          "name": "",
          "type": "uint256"
        }
      ],
      "stateMutability": "view",
      "type": "function"
    },
    {
      "inputs": [
        {
          "internalType": "uint256",
          "name": "shares",
          "type": "uint256"
        }
      ],
      "name": "previewRedeem",
      "outputs": [
        {
          "internalType": "uint256",
          "name": "",
          "type": "uint256"
        }
      ],
      "stateMutability": "view",
      "type": "function"
    },
    {
      "inputs": [
        {
          "internalType": "uint256",
          "name": "assets",
          "type": "uint256"
        }
      ],
      "name": "previewWithdraw",
      "outputs": [
        {
          "internalType": "uint256",
          "name": "",
          "type": "uint256"
        }
      ],
      "stateMutability": "view",
      "type": "function"
    },
    {
      "inputs": [
        {
          "internalType": "uint256",
          "name": "shares",
          "type": "uint256"
        },
        {
          "internalType": "address",
          "name": "receiver",
          "type": "address"
        },
        {
          "internalType": "address",
          "name": "owner",
          "type": "address"
        }
      ],
      "name": "redeem",
      "outputs": [
        {
          "internalType": "uint256",
          "name": "assets",
          "type": "uint256"
        }
      ],
      "stateMutability": "nonpayable",
      "type": "function"
    },
    {
      "inputs": [
        {
          "internalType": "uint256",
          "name": "start",
          "type": "uint256"
        },
        {
          "internalType": "uint256",
          "name": "end",
          "type": "uint256"
        }
      ],
      "name": "selectHarvestCheckpoints",
      "outputs": [
        {
          "components": [
            {
              "internalType": "uint32",
              "name": "blockTimestamp",
              "type": "uint32"
            },
            {
              "internalType": "uint224",
              "name": "assetsPerShare",
              "type": "uint224"
            }
          ],
          "internalType": "struct HarvestCheckpoint[]",
          "name": "",
          "type": "tuple[]"
        }
      ],
      "stateMutability": "view",
      "type": "function"
    },
    {
      "inputs": [
        {
          "internalType": "uint256",
          "name": "start",
          "type": "uint256"
        },
        {
          "internalType": "uint256",
          "name": "end",
          "type": "uint256"
        }
      ],
      "name": "selectInvertedHarvestCheckpoints",
      "outputs": [
        {
          "components": [
            {
              "internalType": "uint32",
              "name": "blockTimestamp",
              "type": "uint32"
            },
            {
              "internalType": "uint224",
              "name": "assetsPerShare",
              "type": "uint224"
            }
          ],
          "internalType": "struct HarvestCheckpoint[]",
          "name": "",
          "type": "tuple[]"
        }
      ],
      "stateMutability": "view",
      "type": "function"
    },
    {
      "inputs": [
        {
          "internalType": "address",
          "name": "_feeTaker",
          "type": "address"
        }
      ],
      "name": "setFeeTaker",
      "outputs": [],
      "stateMutability": "nonpayable",
      "type": "function"
    },
    {
      "inputs": [
        {
          "internalType": "uint256",
          "name": "_harvestFee",
          "type": "uint256"
        }
      ],
      "name": "setHarvestFee",
      "outputs": [],
      "stateMutability": "nonpayable",
      "type": "function"
    },
    {
      "inputs": [
        {
          "internalType": "address",
          "name": "_manager",
          "type": "address"
        }
      ],
      "name": "setManager",
      "outputs": [],
      "stateMutability": "nonpayable",
      "type": "function"
    },
    {
      "inputs": [
        {
          "internalType": "uint256",
          "name": "_withdrawalFee",
          "type": "uint256"
        }
      ],
      "name": "setWithdrawalFee",
      "outputs": [],
      "stateMutability": "nonpayable",
      "type": "function"
    },
    {
      "inputs": [],
      "name": "symbol",
      "outputs": [
        {
          "internalType": "string",
          "name": "",
          "type": "string"
        }
      ],
      "stateMutability": "view",
      "type": "function"
    },
    {
      "inputs": [],
      "name": "totalAssets",
      "outputs": [
        {
          "internalType": "uint256",
          "name": "",
          "type": "uint256"
        }
      ],
      "stateMutability": "view",
      "type": "function"
    },
    {
      "inputs": [],
      "name": "totalSupply",
      "outputs": [
        {
          "internalType": "uint256",
          "name": "",
          "type": "uint256"
        }
      ],
      "stateMutability": "view",
      "type": "function"
    },
    {
      "inputs": [
        {
          "internalType": "address",
          "name": "to",
          "type": "address"
        },
        {
          "internalType": "uint256",
          "name": "amount",
          "type": "uint256"
        }
      ],
      "name": "transfer",
      "outputs": [
        {
          "internalType": "bool",
          "name": "",
          "type": "bool"
        }
      ],
      "stateMutability": "nonpayable",
      "type": "function"
    },
    {
      "inputs": [
        {
          "internalType": "address",
          "name": "from",
          "type": "address"
        },
        {
          "internalType": "address",
          "name": "to",
          "type": "address"
        },
        {
          "internalType": "uint256",
          "name": "amount",
          "type": "uint256"
        }
      ],
      "name": "transferFrom",
      "outputs": [
        {
          "internalType": "bool",
          "name": "",
          "type": "bool"
        }
      ],
      "stateMutability": "nonpayable",
      "type": "function"
    },
    {
      "inputs": [
        {
          "internalType": "address",
          "name": "newOwner",
          "type": "address"
        },
        {
          "internalType": "bool",
          "name": "direct",
          "type": "bool"
        },
        {
          "internalType": "bool",
          "name": "renounce",
          "type": "bool"
        }
      ],
      "name": "transferOwnership",
      "outputs": [],
      "stateMutability": "nonpayable",
      "type": "function"
    },
    {
      "inputs": [
        {
          "internalType": "uint256",
          "name": "assets",
          "type": "uint256"
        },
        {
          "internalType": "address",
          "name": "receiver",
          "type": "address"
        },
        {
          "internalType": "address",
          "name": "owner",
          "type": "address"
        }
      ],
      "name": "withdraw",
      "outputs": [
        {
          "internalType": "uint256",
          "name": "shares",
          "type": "uint256"
        }
      ],
      "stateMutability": "nonpayable",
      "type": "function"
    },
    {
      "inputs": [],
      "name": "withdrawalFee",
      "outputs": [
        {
          "internalType": "uint256",
          "name": "",
          "type": "uint256"
        }
      ],
      "stateMutability": "view",
      "type": "function"
    },
    {
      "inputs": [],
      "name": "yield",
      "outputs": [
        {
          "internalType": "uint256",
          "name": "diffTimestamp",
          "type": "uint256"
        },
        {
          "internalType": "int256",
          "name": "diffAssetsPerShare",
          "type": "int256"
        }
      ],
      "stateMutability": "view",
      "type": "function"
    }
  ],
  "transactionHash": "0x18da50b8a50024fc65edf71e0d0356659302e7a80a7ed5d61f7a76c622ffd655",
  "args": [
    "0xe91D153E0b41518A2Ce8Dd3D7944Fa863463a97d",
    "Citrus WXDAI on RMM Vault",
    "crmmWXDAI",
    "0x5B8D36De471880Ee21936f328AAB2383a280CB2A",
    "0x0000000000000000000000000000000000000000"
  ],
  "numDeployments": 1,
  "solcInputHash": "1fec3603f8748d3d431f453445977753",
  "bytecode": "0x6101006040523480156200001257600080fd5b50604051620041763803806200417683398101604081905262000035916200060f565b8484848282828282828181846001600160a01b031663313ce5676040518163ffffffff1660e01b8152600401602060405180830381865afa1580156200007f573d6000803e3d6000fd5b505050506040513d601f19601f82011682018060405250810190620000a59190620006d2565b6000620000b384826200077f565b506001620000c283826200077f565b5060ff81166080524660a052620000d8620002f3565b60c0525050506001600160a01b0390921660e0525050600680546001600160a01b031916339081179091556040516000907f8be0079c531659141344cd1fd0a4f28419497f9722a3daafe3b4186f6b6457e0908290a3600c60405180604001604052804263ffffffff16815260200162000162608051600a6200015c919062000960565b6200038f565b6001600160e01b03908116909152825460018101845560009384526020808520845191909401519092166401000000000263ffffffff90921691909117910155601080546001600160a01b03808c166001600160a01b0319928316811790935560118054918c16919092161790556040516335ea6a7560e01b815291975095506335ea6a7594506200020b93508b925060040190506001600160a01b0391909116815260200190565b61018060405180830381865afa1580156200022a573d6000803e3d6000fd5b505050506040513d601f19601f82011682018060405250810190620002509190620009f1565b60e0810151601280546001600160a01b0319166001600160a01b0392831617905560105460405163095ea7b360e01b81529082166004820152600019602482015291925087169063095ea7b3906044016020604051808303816000875af1158015620002c0573d6000803e3d6000fd5b505050506040513d601f19601f82011682018060405250810190620002e6919062000af9565b5050505050505062000bd0565b60007f8b73c3c69bb8fe3d512ecc4cf759cc79239f7b179b0ffacaa9a75d522b39400f600060405162000327919062000b1d565b6040805191829003822060208301939093528101919091527fc89efdaa54c0f20c7adf612882df0950f5a951637e0307cdcb4c672f298b8bc660608201524660808201523060a082015260c00160405160208183030381529060405280519060200120905090565b6002546000908015620003c757620003c1620003aa620003d0565b82856200045c60201b620023b2179092919060201c565b620003c9565b825b9392505050565b6000620003dc6200047c565b60e0516040516370a0823160e01b81523060048201526001600160a01b03909116906370a0823190602401602060405180830381865afa15801562000425573d6000803e3d6000fd5b505050506040513d601f19601f820116820180604052508101906200044b919062000b9b565b62000457919062000bb5565b905090565b8282028115158415858304851417166200047557600080fd5b0492915050565b6012546040516370a0823160e01b81523060048201526000916001600160a01b0316906370a0823190602401602060405180830381865afa158015620004c6573d6000803e3d6000fd5b505050506040513d601f19601f8201168201806040525081019062000457919062000b9b565b6001600160a01b03811681146200050257600080fd5b50565b634e487b7160e01b600052604160045260246000fd5b60405161018081016001600160401b038111828210171562000541576200054162000505565b60405290565b604051601f8201601f191681016001600160401b038111828210171562000572576200057262000505565b604052919050565b600082601f8301126200058c57600080fd5b81516001600160401b03811115620005a857620005a862000505565b6020620005be601f8301601f1916820162000547565b8281528582848701011115620005d357600080fd5b60005b83811015620005f3578581018301518282018401528201620005d6565b83811115620006055760008385840101525b5095945050505050565b600080600080600060a086880312156200062857600080fd5b85516200063581620004ec565b60208701519095506001600160401b03808211156200065357600080fd5b6200066189838a016200057a565b955060408801519150808211156200067857600080fd5b5062000687888289016200057a565b93505060608601516200069a81620004ec565b6080870151909250620006ad81620004ec565b809150509295509295909350565b805160ff81168114620006cd57600080fd5b919050565b600060208284031215620006e557600080fd5b620003c982620006bb565b600181811c908216806200070557607f821691505b6020821081036200072657634e487b7160e01b600052602260045260246000fd5b50919050565b601f8211156200077a57600081815260208120601f850160051c81016020861015620007555750805b601f850160051c820191505b81811015620007765782815560010162000761565b5050505b505050565b81516001600160401b038111156200079b576200079b62000505565b620007b381620007ac8454620006f0565b846200072c565b602080601f831160018114620007eb5760008415620007d25750858301515b600019600386901b1c1916600185901b17855562000776565b600085815260208120601f198616915b828110156200081c57888601518255948401946001909101908401620007fb565b50858210156200083b5787850151600019600388901b60f8161c191681555b5050505050600190811b01905550565b634e487b7160e01b600052601160045260246000fd5b600181815b80851115620008a25781600019048211156200088657620008866200084b565b808516156200089457918102915b93841c939080029062000866565b509250929050565b600082620008bb575060016200095a565b81620008ca575060006200095a565b8160018114620008e35760028114620008ee576200090e565b60019150506200095a565b60ff8411156200090257620009026200084b565b50506001821b6200095a565b5060208310610133831016604e8410600b841016171562000933575081810a6200095a565b6200093f838362000861565b80600019048211156200095657620009566200084b565b0290505b92915050565b6000620003c960ff841683620008aa565b6000602082840312156200098457600080fd5b604051602081016001600160401b0381118282101715620009a957620009a962000505565b6040529151825250919050565b80516001600160801b0381168114620006cd57600080fd5b805164ffffffffff81168114620006cd57600080fd5b8051620006cd81620004ec565b6000610180828403121562000a0557600080fd5b62000a0f6200051b565b62000a1b848462000971565b815262000a2b60208401620009b6565b602082015262000a3e60408401620009b6565b604082015262000a5160608401620009b6565b606082015262000a6460808401620009b6565b608082015262000a7760a08401620009b6565b60a082015262000a8a60c08401620009ce565b60c082015262000a9d60e08401620009e4565b60e082015261010062000ab2818501620009e4565b9082015261012062000ac6848201620009e4565b9082015261014062000ada848201620009e4565b9082015261016062000aee848201620006bb565b908201529392505050565b60006020828403121562000b0c57600080fd5b81518015158114620003c957600080fd5b600080835462000b2d81620006f0565b6001828116801562000b48576001811462000b5e5762000b8f565b60ff198416875282151583028701945062000b8f565b8760005260208060002060005b8581101562000b865781548a82015290840190820162000b6b565b50505082870194505b50929695505050505050565b60006020828403121562000bae57600080fd5b5051919050565b6000821982111562000bcb5762000bcb6200084b565b500190565b60805160a05160c05160e05161352d62000c49600039600081816104b80152818161089b015281816112ac015281816114a30152818161175d015281816118a9015281816126e8015281816128db015261296a01526000610df801526000610dc801526000818161045401526122ca015261352d6000f3fe608060405234801561001057600080fd5b50600436106103835760003560e01c80638bc7e8c4116101de578063c63d75b61161010f578063d905777e116100ad578063e30c39781161007c578063e30c397814610828578063eb6ed3301461083b578063ef8b30f714610849578063f8eedf4b1461085c57600080fd5b8063d905777e1461079c578063dbbd47d4146107c5578063dbe66ca0146107da578063dd62ed3e146107fd57600080fd5b8063cdc412dd116100e9578063cdc412dd14610750578063ce96cb7714610763578063d0ebdbe714610776578063d505accf1461078957600080fd5b8063c63d75b614610549578063c6e6f5921461072a578063c866a1e51461073d57600080fd5b8063ac1e50251161017c578063b460af9411610156578063b460af94146106e8578063b5962917146106fb578063ba08765214610704578063c02466681461071757600080fd5b8063ac1e5025146106ba578063b3d7f6b9146106cd578063b45bb10d146106e057600080fd5b806394bf804d116101b857806394bf804d1461068457806395d89b4114610697578063a0807ae11461069f578063a9059cbb146106a757600080fd5b80638bc7e8c4146106485780638da5cb5b14610651578063918195c51461066457600080fd5b806339bad3dd116102b85780636dd46b4f11610256578063725fd92011610230578063725fd920146105fa578063749f104414610602578063792b55b6146106155780637ecebe001461062857600080fd5b80636dd46b4f146105b25780636e553f65146105c757806370a08231146105da57600080fd5b8063481c6a7511610292578063481c6a75146105715780634cdad506146105845780634e71e0c8146105975780634ec5908d1461059f57600080fd5b806339bad3dd14610512578063402d267d1461054957806348023e261461055e57600080fd5b806323b872dd116103255780633644e515116102ff5780633644e51514610488578063367fc2fc1461049057806338d52e0f146104b357806338dbd565146104f257600080fd5b806323b872dd1461041f5780632859398414610432578063313ce5671461044f57600080fd5b806307a2d13a1161036157806307a2d13a146103cd578063095ea7b3146103e05780630a28a4771461040357806318160ddd1461041657600080fd5b806301e1d1141461038857806306fdde03146103a3578063078dfbe7146103b8575b600080fd5b61039061087c565b6040519081526020015b60405180910390f35b6103ab61091d565b60405161039a9190612a07565b6103cb6103c6366004612a44565b6109ab565b005b6103906103db366004612a89565b610ac4565b6103f36103ee366004612aa2565b610af1565b604051901515815260200161039a565b610390610411366004612a89565b610b5e565b61039060025481565b6103f361042d366004612ace565b610bcf565b61043a610caf565b6040805192835260208301919091520161039a565b6104767f000000000000000000000000000000000000000000000000000000000000000081565b60405160ff909116815260200161039a565b610390610dc4565b6103f361049e366004612b0f565b600e6020526000908152604090205460ff1681565b6104da7f000000000000000000000000000000000000000000000000000000000000000081565b6040516001600160a01b03909116815260200161039a565b610505610500366004612b2c565b610e1a565b60405161039a9190612b4e565b610525610520366004612a89565b610f32565b6040805163ffffffff90931683526001600160e01b0390911660208301520161039a565b610390610557366004612b0f565b5060001990565b61050561056c366004612b2c565b610f6a565b6008546104da906001600160a01b031681565b610390610592366004612a89565b611098565b6103cb6110e8565b6103cb6105ad366004612b0f565b6111a6565b6105ba6111f2565b60405161039a9190612bf8565b6103906105d5366004612c0b565b611254565b6103906105e8366004612b0f565b60036020526000908152604090205481565b61039061132e565b6009546104da906001600160a01b031681565b6103cb610623366004612a89565b61139b565b610390610636366004612b0f565b60056020526000908152604090205481565b610390600a5481565b6006546104da906001600160a01b031681565b610677610672366004612a89565b61140b565b60405161039a9190612c3b565b610390610692366004612c0b565b611489565b6103ab611525565b600c54610390565b6103f36106b5366004612aa2565b611532565b6103cb6106c8366004612a89565b611598565b6103906106db366004612a89565b611657565b600019610390565b6103906106f6366004612c61565b611676565b610390600b5481565b610390610712366004612c61565b611784565b6103cb610725366004612ca3565b6118d0565b610390610738366004612a89565b611956565b6104da61074b366004612a89565b611976565b6103cb61075e366004612ca3565b6119a0565b610390610771366004612b0f565b611a78565b6103cb610784366004612b0f565b611a9a565b6103cb610797366004612cd8565b611ae6565b6103906107aa366004612b0f565b6001600160a01b031660009081526003602052604090205490565b6107cd611d2a565b60405161039a9190612d4f565b6103f36107e8366004612b0f565b600d6020526000908152604090205460ff1681565b61039061080b366004612d9a565b600460209081526000928352604080842090915290825290205481565b6007546104da906001600160a01b031681565b610390662386f26fc1000081565b610390610857366004612a89565b611f41565b61086f61086a366004612e60565b611f4c565b60405161039a9190612fb3565b600061088661132e565b6040516370a0823160e01b81523060048201527f00000000000000000000000000000000000000000000000000000000000000006001600160a01b0316906370a0823190602401602060405180830381865afa1580156108ea573d6000803e3d6000fd5b505050506040513d601f19601f8201168201806040525081019061090e9190613015565b6109189190613044565b905090565b6000805461092a9061305c565b80601f01602080910402602001604051908101604052809291908181526020018280546109569061305c565b80156109a35780601f10610978576101008083540402835291602001916109a3565b820191906000526020600020905b81548152906001019060200180831161098657829003601f168201915b505050505081565b6006546001600160a01b031633146109de5760405162461bcd60e51b81526004016109d590613096565b60405180910390fd5b8115610aa2576001600160a01b0383161515806109f85750805b610a3c5760405162461bcd60e51b81526020600482015260156024820152744f776e61626c653a207a65726f206164647265737360581b60448201526064016109d5565b6006546040516001600160a01b038086169216907f8be0079c531659141344cd1fd0a4f28419497f9722a3daafe3b4186f6b6457e090600090a3600680546001600160a01b0385166001600160a01b031991821617909155600780549091169055505050565b600780546001600160a01b0385166001600160a01b0319909116179055505050565b6002546000908015610ae857610ae3610adb61087c565b8490836123b2565b610aea565b825b9392505050565b3360008181526004602090815260408083206001600160a01b038716808552925280832085905551919290917f8c5be1e5ebec7d5bd14f71427d1e84f3dd0314c0f7b2291e5b200ac8c7c3b92590610b4c9086815260200190565b60405180910390a35060015b92915050565b600a54336000908152600d602052604081205490919060ff1615610b80575060005b60025460008115610ba457610b9f82610b9761087c565b8791906123d1565b610ba6565b845b9050610bc6670de0b6b3a7640000610bbe85826130cb565b8391906123d1565b95945050505050565b6001600160a01b03831660009081526004602090815260408083203384529091528120546000198114610c2b57610c0683826130cb565b6001600160a01b03861660009081526004602090815260408083203384529091529020555b6001600160a01b03851660009081526003602052604081208054859290610c539084906130cb565b90915550506001600160a01b03808516600081815260036020526040908190208054870190555190918716906000805160206134d883398151915290610c9c9087815260200190565b60405180910390a3506001949350505050565b60008060006001600c80549050610cc691906130cb565b90506001811015610cdf57506201518092600092509050565b6000600c8281548110610cf457610cf46130e2565b600091825260208083206040805180820190915292015463ffffffff81168352600160201b90046001600160e01b0316908201529150600c610d376001856130cb565b81548110610d4757610d476130e2565b60009182526020918290206040805180820190915291015463ffffffff808216808452600160201b9092046001600160e01b031683850181905286519487015192909403169750909250610d9c9082906130f8565b610dae90670de0b6b3a7640000613148565b610db891906131dc565b601b0b93505050509091565b60007f00000000000000000000000000000000000000000000000000000000000000004614610df5576109186123ff565b507f000000000000000000000000000000000000000000000000000000000000000090565b60606000610e2884846130cb565b610e33906001613044565b905060008167ffffffffffffffff811115610e5057610e50612dc8565b604051908082528060200260200182016040528015610e9557816020015b6040805180820190915260008082526020820152815260200190600190039081610e6e5790505b50905060005b82811015610f2957600c610eaf8288613044565b81548110610ebf57610ebf6130e2565b60009182526020918290206040805180820190915291015463ffffffff81168252600160201b90046001600160e01b0316918101919091528251839083908110610f0b57610f0b6130e2565b60200260200101819052508080610f2190613228565b915050610e9b565b50949350505050565b600c8181548110610f4257600080fd5b60009182526020909120015463ffffffff81169150600160201b90046001600160e01b031682565b60606000610f7884846130cb565b610f83906001613044565b600c54909150600090610f98906001906130cb565b905060008267ffffffffffffffff811115610fb557610fb5612dc8565b604051908082528060200260200182016040528015610ffa57816020015b6040805180820190915260008082526020820152815260200190600190039081610fd35790505b50905060005b8381101561108e57600c61101482856130cb565b81548110611024576110246130e2565b60009182526020918290206040805180820190915291015463ffffffff81168252600160201b90046001600160e01b0316918101919091528251839083908110611070576110706130e2565b6020026020010181905250808061108690613228565b915050611000565b5095945050505050565b600a54336000908152600d602052604081205490919060ff16156110ba575060005b610aea6110cf82670de0b6b3a76400006130cb565b670de0b6b3a76400006110e186610ac4565b91906123b2565b6007546001600160a01b03163381146111435760405162461bcd60e51b815260206004820181905260248201527f4f776e61626c653a2063616c6c657220213d2070656e64696e67206f776e657260448201526064016109d5565b6006546040516001600160a01b038084169216907f8be0079c531659141344cd1fd0a4f28419497f9722a3daafe3b4186f6b6457e090600090a3600680546001600160a01b039092166001600160a01b0319928316179055600780549091169055565b6006546001600160a01b031633146111d05760405162461bcd60e51b81526004016109d590613096565b600980546001600160a01b0319166001600160a01b0392909216919091179055565b6060600f80548060200260200160405190810160405280929190818152602001828054801561124a57602002820191906000526020600020905b81546001600160a01b0316815260019091019060200180831161122c575b5050505050905090565b600061125f83611f41565b90508060000361129f5760405162461bcd60e51b815260206004820152600b60248201526a5a45524f5f53484152455360a81b60448201526064016109d5565b6112d46001600160a01b037f000000000000000000000000000000000000000000000000000000000000000016333086612499565b6112de8282612523565b60408051848152602081018390526001600160a01b0384169133917fdcbc1c05240f31ff3ad067ef1ee35ce4997762752e3a095284754544f4c709d7910160405180910390a3610b58838261257d565b6012546040516370a0823160e01b81523060048201526000916001600160a01b0316906370a0823190602401602060405180830381865afa158015611377573d6000803e3d6000fd5b505050506040513d601f19601f820116820180604052508101906109189190613015565b6006546001600160a01b031633146113c55760405162461bcd60e51b81526004016109d590613096565b600b80549082905560408051828152602081018490527f1e7b50ac7d699f1fa19946c1c807a39bfb844cb58ea818fa06c8d7da549359c891015b60405180910390a15050565b6040805180820190915260008082526020820152600c80548390611431906001906130cb565b61143b91906130cb565b8154811061144b5761144b6130e2565b60009182526020918290206040805180820190915291015463ffffffff81168252600160201b90046001600160e01b03169181019190915292915050565b600061149483611657565b90506114cb6001600160a01b037f000000000000000000000000000000000000000000000000000000000000000016333084612499565b6114d58284612523565b60408051828152602081018590526001600160a01b0384169133917fdcbc1c05240f31ff3ad067ef1ee35ce4997762752e3a095284754544f4c709d7910160405180910390a3610b58818461257d565b6001805461092a9061305c565b336000908152600360205260408120805483919083906115539084906130cb565b90915550506001600160a01b038316600081815260036020526040908190208054850190555133906000805160206134d883398151915290610b4c9086815260200190565b6006546001600160a01b031633146115c25760405162461bcd60e51b81526004016109d590613096565b662386f26fc100008111156116195760405162461bcd60e51b815260206004820181905260248201527f746865207769746864726177616c206665652063616e206265206d617820312560448201526064016109d5565b600a80549082905560408051828152602081018490527f9988c10f8391e84fefec36b82a3a26109ad0af79150c6c2ae60baf392b31ee9c91016113ff565b6002546000908015610ae857610ae361166e61087c565b8490836123d1565b600061168184610b5e565b9050336001600160a01b038316146116f1576001600160a01b038216600090815260046020908152604080832033845290915290205460001981146116ef576116ca82826130cb565b6001600160a01b03841660009081526004602090815260408083203384529091529020555b505b6116fb848261258a565b61170582826125e6565b60408051858152602081018390526001600160a01b03808516929086169133917ffbde797d201c681b91056529119e0b02407c7bb96a4a2c75c01fc9667232c8db910160405180910390a4610aea6001600160a01b037f0000000000000000000000000000000000000000000000000000000000000000168486612648565b6000336001600160a01b038316146117f4576001600160a01b038216600090815260046020908152604080832033845290915290205460001981146117f2576117cd85826130cb565b6001600160a01b03841660009081526004602090815260408083203384529091529020555b505b6117fd84611098565b90508060000361183d5760405162461bcd60e51b815260206004820152600b60248201526a5a45524f5f41535345545360a81b60448201526064016109d5565b611847818561258a565b61185182856125e6565b60408051828152602081018690526001600160a01b03808516929086169133917ffbde797d201c681b91056529119e0b02407c7bb96a4a2c75c01fc9667232c8db910160405180910390a4610aea6001600160a01b037f0000000000000000000000000000000000000000000000000000000000000000168483612648565b6006546001600160a01b031633146118fa5760405162461bcd60e51b81526004016109d590613096565b6001600160a01b0382166000818152600d6020908152604091829020805460ff19168515159081179091558251938452908301527f13e65f4beb0eb8b8336d270aa4ac99e9fa961d9eb25a89ff945d8f1224bbbcda91016113ff565b6002546000908015610ae857610ae38161196e61087c565b8591906123b2565b600f818154811061198657600080fd5b6000918252602090912001546001600160a01b0316905081565b6006546001600160a01b031633146119ca5760405162461bcd60e51b81526004016109d590613096565b8015611a1c57600f80546001810182556000919091527f8d1108e10bcb7c27dddfc02ed9d693a074039d026cf4ea4240b40f7d581ac8020180546001600160a01b0319166001600160a01b0384161790555b6001600160a01b0382166000818152600e6020908152604091829020805460ff19168515159081179091558251938452908301527fa85166530e095b84b707bec761a551e9f45e9f2b8d7c0afa50073171b1aaafbb91016113ff565b6001600160a01b038116600090815260036020526040812054610b5890610ac4565b6006546001600160a01b03163314611ac45760405162461bcd60e51b81526004016109d590613096565b600880546001600160a01b0319166001600160a01b0392909216919091179055565b42841015611b365760405162461bcd60e51b815260206004820152601760248201527f5045524d49545f444541444c494e455f4558504952454400000000000000000060448201526064016109d5565b60006001611b42610dc4565b6001600160a01b038a811660008181526005602090815260409182902080546001810190915582517f6e71edae12b1b97f4d1f60370fef10105fa2faae0126114a169c64845d6126c98184015280840194909452938d166060840152608083018c905260a083019390935260c08083018b90528151808403909101815260e08301909152805192019190912061190160f01b6101008301526101028201929092526101228101919091526101420160408051601f198184030181528282528051602091820120600084529083018083525260ff871690820152606081018590526080810184905260a0016020604051602081039080840390855afa158015611c4e573d6000803e3d6000fd5b5050604051601f1901519150506001600160a01b03811615801590611c845750876001600160a01b0316816001600160a01b0316145b611cc15760405162461bcd60e51b815260206004820152600e60248201526d24a72b20a624a22fa9a4a3a722a960911b60448201526064016109d5565b6001600160a01b0390811660009081526004602090815260408083208a8516808552908352928190208990555188815291928a16917f8c5be1e5ebec7d5bd14f71427d1e84f3dd0314c0f7b2291e5b200ac8c7c3b925910160405180910390a350505050505050565b6011546060906001600160a01b0316611d80576040805160008082526020820190925290611d7a565b6040805180820190915260008082526020820152815260200190600190039081611d535790505b50905090565b60408051600180825281830190925260009160208083019080368337505060125482519293506001600160a01b031691839150600090611dc257611dc26130e2565b6001600160a01b03928316602091820292909201810191909152601154604080516399248ea760e01b8152905160009492909216926399248ea7926004808401938290030181865afa158015611e1c573d6000803e3d6000fd5b505050506040513d601f19601f82011682018060405250810190611e409190613241565b6011546040516345accf9360e11b81529192506000916001600160a01b0390911690638b599f2690611e78908690309060040161325e565b602060405180830381865afa158015611e95573d6000803e3d6000fd5b505050506040513d601f19601f82011682018060405250810190611eb99190613015565b60408051600180825281830190925291925060009190816020015b6040805180820190915260008082526020820152815260200190600190039081611ed45790505090506040518060400160405280846001600160a01b031681526020018381525081600081518110611f2e57611f2e6130e2565b6020908102919091010152949350505050565b6000610b5882611956565b6008546060906001600160a01b03163314611fa95760405162461bcd60e51b815260206004820152601f60248201527f4f6e6c79206d616e6167657220697320616c6c6f77656420746f2063616c6c0060448201526064016109d5565b6000611fb361087c565b9050611fbd6126c6565b835167ffffffffffffffff811115611fd757611fd7612dc8565b60405190808252806020026020018201604052801561200a57816020015b6060815260200190600190039081611ff55790505b50915060005b84518110156121b157600e600086838151811061202f5761202f6130e2565b602090810291909101810151516001600160a01b031682528101919091526040016000205460ff1661209b5760405162461bcd60e51b81526020600482015260156024820152741a185c9d995cdd1bdc881b9bdd08185b1b1bddd959605a1b60448201526064016109d5565b600060608683815181106120b1576120b16130e2565b6020026020010151600001516001600160a01b03168784815181106120d8576120d86130e2565b6020026020010151602001516040516120f19190613288565b600060405180830381855af49150503d806000811461212c576040519150601f19603f3d011682016040523d82523d6000602084013e612131565b606091505b5090925090508161217e5760448151101561214b57600080fd5b6004810190508080602001905181019061216591906132a4565b60405162461bcd60e51b81526004016109d59190612a07565b80858481518110612191576121916130e2565b6020026020010181905250505080806121a990613228565b915050612010565b5060006121bc61087c565b9050818110156122015760405162461bcd60e51b815260206004820152601060248201526f1b9959d85d1a5d99481a185c9d995cdd60821b60448201526064016109d5565b818103848110156122545760405162461bcd60e51b815260206004820152601a60248201527f696e73756666696369656e74206f757470757420616d6f756e7400000000000060448201526064016109d5565b600061227f600b54670de0b6b3a764000061226f91906130cb565b8390670de0b6b3a76400006123d1565b6122899085613044565b60025490915060009061229d8186856123b2565b6122a791906130cb565b6009549091506122c0906001600160a01b031682612523565b60006122f06103db7f0000000000000000000000000000000000000000000000000000000000000000600a6133f6565b60408051808201825263ffffffff42811682526001600160e01b0380851660208401908152600c805460018101825560009190915293519051909116600160201b029116177fdf6966c971051c3d54ec59162606531493a51404a002842f56009d7e5cf4a8c790910155519091507f6c8433a8e155f0af04dba058d4e4695f7da554578963d876bdf4a6d8d6399d9c906123969083908590918252602082015260400190565b60405180910390a16123a66126d0565b50505050505092915050565b8282028115158415858304851417166123ca57600080fd5b0492915050565b8282028115158415858304851417166123e957600080fd5b6001826001830304018115150290509392505050565b60007f8b73c3c69bb8fe3d512ecc4cf759cc79239f7b179b0ffacaa9a75d522b39400f60006040516124319190613405565b6040805191829003822060208301939093528101919091527fc89efdaa54c0f20c7adf612882df0950f5a951637e0307cdcb4c672f298b8bc660608201524660808201523060a082015260c00160405160208183030381529060405280519060200120905090565b60006040516323b872dd60e01b81528460048201528360248201528260448201526020600060648360008a5af13d15601f3d116001600051141617169150508061251c5760405162461bcd60e51b81526020600482015260146024820152731514905394d1915497d19493d357d1905253115160621b60448201526064016109d5565b5050505050565b80600260008282546125359190613044565b90915550506001600160a01b0382166000818152600360209081526040808320805486019055518481526000805160206134d883398151915291015b60405180910390a35050565b6125868261276f565b5050565b600a54158015906125ab5750336000908152600d602052604090205460ff16155b156125dd57600954600a546125dd916001600160a01b0316906125d8908490670de0b6b3a76400006123d1565b612523565b61258682612778565b6001600160a01b0382166000908152600360205260408120805483929061260e9084906130cb565b90915550506002805482900390556040518181526000906001600160a01b038416906000805160206134d883398151915290602001612571565b600060405163a9059cbb60e01b8152836004820152826024820152602060006044836000895af13d15601f3d11600160005114161716915050806126c05760405162461bcd60e51b815260206004820152600f60248201526e1514905394d1915497d19052531151608a1b60448201526064016109d5565b50505050565b6126ce612781565b565b6040516370a0823160e01b81523060048201526000907f00000000000000000000000000000000000000000000000000000000000000006001600160a01b0316906370a0823190602401602060405180830381865afa158015612737573d6000803e3d6000fd5b505050506040513d601f19601f8201168201806040525081019061275b9190613015565b9050801561276c5761276c816128c1565b50565b61276c816128c1565b61276c81612950565b6011546001600160a01b031661279357565b60408051600180825281830190925260009160208083019080368337505060125482519293506001600160a01b0316918391506000906127d5576127d56130e2565b6001600160a01b0392831660209182029290920101526011546040516345accf9360e11b8152911690633111e7b39083908390638b599f269061281e908490309060040161325e565b602060405180830381865afa15801561283b573d6000803e3d6000fd5b505050506040513d601f19601f8201168201806040525081019061285f9190613015565b306040518463ffffffff1660e01b815260040161287e939291906134a4565b6020604051808303816000875af115801561289d573d6000803e3d6000fd5b505050506040513d601f19601f820116820180604052508101906125869190613015565b60105460405163e8eda9df60e01b81526001600160a01b037f00000000000000000000000000000000000000000000000000000000000000008116600483015260248201849052306044830152600060648301529091169063e8eda9df90608401600060405180830381600087803b15801561293c57600080fd5b505af115801561251c573d6000803e3d6000fd5b601054604051631a4ca37b60e21b81526001600160a01b037f00000000000000000000000000000000000000000000000000000000000000008116600483015260248201849052306044830152909116906369328dec9060640161287e565b60005b838110156129ca5781810151838201526020016129b2565b838111156126c05750506000910152565b600081518084526129f38160208601602086016129af565b601f01601f19169290920160200192915050565b602081526000610aea60208301846129db565b6001600160a01b038116811461276c57600080fd5b80358015158114612a3f57600080fd5b919050565b600080600060608486031215612a5957600080fd5b8335612a6481612a1a565b9250612a7260208501612a2f565b9150612a8060408501612a2f565b90509250925092565b600060208284031215612a9b57600080fd5b5035919050565b60008060408385031215612ab557600080fd5b8235612ac081612a1a565b946020939093013593505050565b600080600060608486031215612ae357600080fd5b8335612aee81612a1a565b92506020840135612afe81612a1a565b929592945050506040919091013590565b600060208284031215612b2157600080fd5b8135610aea81612a1a565b60008060408385031215612b3f57600080fd5b50508035926020909101359150565b602080825282518282018190526000919060409081850190868401855b82811015612ba757612b97848351805163ffffffff1682526020908101516001600160e01b0316910152565b9284019290850190600101612b6b565b5091979650505050505050565b600081518084526020808501945080840160005b83811015612bed5781516001600160a01b031687529582019590820190600101612bc8565b509495945050505050565b602081526000610aea6020830184612bb4565b60008060408385031215612c1e57600080fd5b823591506020830135612c3081612a1a565b809150509250929050565b815163ffffffff1681526020808301516001600160e01b03169082015260408101610b58565b600080600060608486031215612c7657600080fd5b833592506020840135612c8881612a1a565b91506040840135612c9881612a1a565b809150509250925092565b60008060408385031215612cb657600080fd5b8235612cc181612a1a565b9150612ccf60208401612a2f565b90509250929050565b600080600080600080600060e0888a031215612cf357600080fd5b8735612cfe81612a1a565b96506020880135612d0e81612a1a565b95506040880135945060608801359350608088013560ff81168114612d3257600080fd5b9699959850939692959460a0840135945060c09093013592915050565b602080825282518282018190526000919060409081850190868401855b82811015612ba757815180516001600160a01b03168552860151868501529284019290850190600101612d6c565b60008060408385031215612dad57600080fd5b8235612db881612a1a565b91506020830135612c3081612a1a565b634e487b7160e01b600052604160045260246000fd5b6040805190810167ffffffffffffffff81118282101715612e0157612e01612dc8565b60405290565b604051601f8201601f1916810167ffffffffffffffff81118282101715612e3057612e30612dc8565b604052919050565b600067ffffffffffffffff821115612e5257612e52612dc8565b50601f01601f191660200190565b6000806040808486031215612e7457600080fd5b833567ffffffffffffffff80821115612e8c57600080fd5b818601915086601f830112612ea057600080fd5b8135602082821115612eb457612eb4612dc8565b8160051b612ec3828201612e07565b928352848101820192828101908b851115612edd57600080fd5b83870192505b84831015612fa157823586811115612efb5760008081fd5b8701808d03601f1901891315612f115760008081fd5b612f19612dde565b85820135612f2681612a1a565b8152818a013588811115612f3a5760008081fd5b8083019250508d603f830112612f505760008081fd5b85820135612f65612f6082612e38565b612e07565b8181528f8c838601011115612f7a5760008081fd5b818c8501898301376000918101880191909152818701528352509183019190830190612ee3565b9b999092013599505050505050505050565b6000602080830181845280855180835260408601915060408160051b870101925083870160005b8281101561300857603f19888603018452612ff68583516129db565b94509285019290850190600101612fda565b5092979650505050505050565b60006020828403121561302757600080fd5b5051919050565b634e487b7160e01b600052601160045260246000fd5b600082198211156130575761305761302e565b500190565b600181811c9082168061307057607f821691505b60208210810361309057634e487b7160e01b600052602260045260246000fd5b50919050565b6020808252818101527f4f776e61626c653a2063616c6c6572206973206e6f7420746865206f776e6572604082015260600190565b6000828210156130dd576130dd61302e565b500390565b634e487b7160e01b600052603260045260246000fd5b600081601b0b83601b0b60008112816401ffffffff60df1b018312811516156131235761312361302e565b6001600160df1b038201831381161561313e5761313e61302e565b5090039392505050565b6000601b82810b9084900b6001600160df1b03838213848413808216848404861116156131775761317761302e565b6001600160df1b0319600085128281168783058712161561319a5761319a61302e565b600087129250858205871284841616156131b6576131b661302e565b858505871281841616156131cc576131cc61302e565b5050509290910295945050505050565b600081601b0b83601b0b8061320157634e487b7160e01b600052601260045260246000fd5b6001600160df1b031982146000198214161561321f5761321f61302e565b90059392505050565b60006001820161323a5761323a61302e565b5060010190565b60006020828403121561325357600080fd5b8151610aea81612a1a565b6040815260006132716040830185612bb4565b905060018060a01b03831660208301529392505050565b6000825161329a8184602087016129af565b9190910192915050565b6000602082840312156132b657600080fd5b815167ffffffffffffffff8111156132cd57600080fd5b8201601f810184136132de57600080fd5b80516132ec612f6082612e38565b81815285602083850101111561330157600080fd5b610bc68260208301602086016129af565b600181815b8085111561334d5781600019048211156133335761333361302e565b8085161561334057918102915b93841c9390800290613317565b509250929050565b60008261336457506001610b58565b8161337157506000610b58565b81600181146133875760028114613391576133ad565b6001915050610b58565b60ff8411156133a2576133a261302e565b50506001821b610b58565b5060208310610133831016604e8410600b84101617156133d0575081810a610b58565b6133da8383613312565b80600019048211156133ee576133ee61302e565b029392505050565b6000610aea60ff841683613355565b600080835481600182811c91508083168061342157607f831692505b6020808410820361344057634e487b7160e01b86526022600452602486fd5b818015613454576001811461346957613496565b60ff1986168952841515850289019650613496565b60008a81526020902060005b8681101561348e5781548b820152908501908301613475565b505084890196505b509498975050505050505050565b6060815260006134b76060830186612bb4565b6020830194909452506001600160a01b039190911660409091015291905056feddf252ad1be2c89b69c2b068fc378daa952ba7f163c4a11628f55a4df523b3efa2646970667358221220a0326d46e99d539f7e7bd88c176771e0a808fedad4b1803c7063e6db302c1beb64736f6c634300080f0033",
  "devdoc": {
    "kind": "dev",
    "methods": {
      "getRemainingProtocolSupplyCap()": {
        "details": "ignored on this versionshould return 0 if the supply cap is exhausted",
        "returns": {
          "_0": "remainingSupplyCap"
        }
      },
      "getSuppliedToProtocol()": {
        "returns": {
          "_0": "Assets supplied"
        }
      },
      "transferOwnership(address,bool,bool)": {
        "params": {
          "direct": "True if `newOwner` should be set immediately. False if `newOwner` needs to use `claimOwnership`.",
          "newOwner": "Address of the new owner.",
          "renounce": "Allows the `newOwner` to be `address(0)` if `direct` and `renounce` is True. Has no effect otherwise."
        }
      }
    },
    "version": 1
  },
  "userdoc": {
    "kind": "user",
    "methods": {
      "claimOwnership()": {
        "notice": "Needs to be called by `pendingOwner` to claim ownership."
      },
      "getRemainingProtocolSupplyCap()": {
        "notice": "Get remaining supply cap in the protocol"
      },
      "getSuppliedToProtocol()": {
        "notice": "Get amount of assets supplied to the protocol by the vault"
      },
      "transferOwnership(address,bool,bool)": {
        "notice": "Transfers ownership to `newOwner`. Either directly or claimable by the new pending owner. Can only be invoked by the current `owner`."
      }
    },
    "version": 1
  },
  "storageLayout": {
    "storage": [
      {
        "astId": 838,
        "contract": "contracts/citrus-vaults/src/Aave2Vault.sol:Aave2Vault",
        "label": "name",
        "offset": 0,
        "slot": "0",
        "type": "t_string_storage"
      },
      {
        "astId": 840,
        "contract": "contracts/citrus-vaults/src/Aave2Vault.sol:Aave2Vault",
        "label": "symbol",
        "offset": 0,
        "slot": "1",
        "type": "t_string_storage"
      },
      {
        "astId": 844,
        "contract": "contracts/citrus-vaults/src/Aave2Vault.sol:Aave2Vault",
        "label": "totalSupply",
        "offset": 0,
        "slot": "2",
        "type": "t_uint256"
      },
      {
        "astId": 848,
        "contract": "contracts/citrus-vaults/src/Aave2Vault.sol:Aave2Vault",
        "label": "balanceOf",
        "offset": 0,
        "slot": "3",
        "type": "t_mapping(t_address,t_uint256)"
      },
      {
        "astId": 854,
        "contract": "contracts/citrus-vaults/src/Aave2Vault.sol:Aave2Vault",
        "label": "allowance",
        "offset": 0,
        "slot": "4",
        "type": "t_mapping(t_address,t_mapping(t_address,t_uint256))"
      },
      {
        "astId": 862,
        "contract": "contracts/citrus-vaults/src/Aave2Vault.sol:Aave2Vault",
        "label": "nonces",
        "offset": 0,
        "slot": "5",
        "type": "t_mapping(t_address,t_uint256)"
      },
      {
        "astId": 3,
        "contract": "contracts/citrus-vaults/src/Aave2Vault.sol:Aave2Vault",
        "label": "owner",
        "offset": 0,
        "slot": "6",
        "type": "t_address"
      },
      {
        "astId": 5,
        "contract": "contracts/citrus-vaults/src/Aave2Vault.sol:Aave2Vault",
        "label": "pendingOwner",
        "offset": 0,
        "slot": "7",
        "type": "t_address"
      },
      {
        "astId": 2815,
        "contract": "contracts/citrus-vaults/src/Aave2Vault.sol:Aave2Vault",
        "label": "manager",
        "offset": 0,
        "slot": "8",
        "type": "t_address"
      },
      {
        "astId": 2817,
        "contract": "contracts/citrus-vaults/src/Aave2Vault.sol:Aave2Vault",
        "label": "feeTaker",
        "offset": 0,
        "slot": "9",
        "type": "t_address"
      },
      {
        "astId": 2819,
        "contract": "contracts/citrus-vaults/src/Aave2Vault.sol:Aave2Vault",
        "label": "withdrawalFee",
        "offset": 0,
        "slot": "10",
        "type": "t_uint256"
      },
      {
        "astId": 2821,
        "contract": "contracts/citrus-vaults/src/Aave2Vault.sol:Aave2Vault",
        "label": "harvestFee",
        "offset": 0,
        "slot": "11",
        "type": "t_uint256"
      },
      {
        "astId": 2825,
        "contract": "contracts/citrus-vaults/src/Aave2Vault.sol:Aave2Vault",
        "label": "harvestCheckpoints",
        "offset": 0,
        "slot": "12",
        "type": "t_array(t_struct(HarvestCheckpoint)2773_storage)dyn_storage"
      },
      {
        "astId": 2829,
        "contract": "contracts/citrus-vaults/src/Aave2Vault.sol:Aave2Vault",
        "label": "excludedFromFees",
        "offset": 0,
        "slot": "13",
        "type": "t_mapping(t_address,t_bool)"
      },
      {
        "astId": 2833,
        "contract": "contracts/citrus-vaults/src/Aave2Vault.sol:Aave2Vault",
        "label": "allowedHarvesters",
        "offset": 0,
        "slot": "14",
        "type": "t_mapping(t_address,t_bool)"
      },
      {
        "astId": 2836,
        "contract": "contracts/citrus-vaults/src/Aave2Vault.sol:Aave2Vault",
        "label": "_allHarvesters",
        "offset": 0,
        "slot": "15",
        "type": "t_array(t_address)dyn_storage"
      },
      {
        "astId": 1420,
        "contract": "contracts/citrus-vaults/src/Aave2Vault.sol:Aave2Vault",
        "label": "lendingPool",
        "offset": 0,
        "slot": "16",
        "type": "t_contract(ILendingPool)2443"
      },
      {
        "astId": 1423,
        "contract": "contracts/citrus-vaults/src/Aave2Vault.sol:Aave2Vault",
        "label": "incentivesController",
        "offset": 0,
        "slot": "17",
        "type": "t_contract(IAaveIncentivesController)2065"
      },
      {
        "astId": 1426,
        "contract": "contracts/citrus-vaults/src/Aave2Vault.sol:Aave2Vault",
        "label": "aToken",
        "offset": 0,
        "slot": "18",
        "type": "t_contract(IERC20)196"
      }
    ],
    "types": {
      "t_address": {
        "encoding": "inplace",
        "label": "address",
        "numberOfBytes": "20"
      },
      "t_array(t_address)dyn_storage": {
        "base": "t_address",
        "encoding": "dynamic_array",
        "label": "address[]",
        "numberOfBytes": "32"
      },
      "t_array(t_struct(HarvestCheckpoint)2773_storage)dyn_storage": {
        "base": "t_struct(HarvestCheckpoint)2773_storage",
        "encoding": "dynamic_array",
        "label": "struct HarvestCheckpoint[]",
        "numberOfBytes": "32"
      },
      "t_bool": {
        "encoding": "inplace",
        "label": "bool",
        "numberOfBytes": "1"
      },
      "t_contract(IAaveIncentivesController)2065": {
        "encoding": "inplace",
        "label": "contract IAaveIncentivesController",
        "numberOfBytes": "20"
      },
      "t_contract(IERC20)196": {
        "encoding": "inplace",
        "label": "contract IERC20",
        "numberOfBytes": "20"
      },
      "t_contract(ILendingPool)2443": {
        "encoding": "inplace",
        "label": "contract ILendingPool",
        "numberOfBytes": "20"
      },
      "t_mapping(t_address,t_bool)": {
        "encoding": "mapping",
        "key": "t_address",
        "label": "mapping(address => bool)",
        "numberOfBytes": "32",
        "value": "t_bool"
      },
      "t_mapping(t_address,t_mapping(t_address,t_uint256))": {
        "encoding": "mapping",
        "key": "t_address",
        "label": "mapping(address => mapping(address => uint256))",
        "numberOfBytes": "32",
        "value": "t_mapping(t_address,t_uint256)"
      },
      "t_mapping(t_address,t_uint256)": {
        "encoding": "mapping",
        "key": "t_address",
        "label": "mapping(address => uint256)",
        "numberOfBytes": "32",
        "value": "t_uint256"
      },
      "t_string_storage": {
        "encoding": "bytes",
        "label": "string",
        "numberOfBytes": "32"
      },
      "t_struct(HarvestCheckpoint)2773_storage": {
        "encoding": "inplace",
        "label": "struct HarvestCheckpoint",
        "members": [
          {
            "astId": 2770,
            "contract": "contracts/citrus-vaults/src/Aave2Vault.sol:Aave2Vault",
            "label": "blockTimestamp",
            "offset": 0,
            "slot": "0",
            "type": "t_uint32"
          },
          {
            "astId": 2772,
            "contract": "contracts/citrus-vaults/src/Aave2Vault.sol:Aave2Vault",
            "label": "assetsPerShare",
            "offset": 4,
            "slot": "0",
            "type": "t_uint224"
          }
        ],
        "numberOfBytes": "32"
      },
      "t_uint224": {
        "encoding": "inplace",
        "label": "uint224",
        "numberOfBytes": "28"
      },
      "t_uint256": {
        "encoding": "inplace",
        "label": "uint256",
        "numberOfBytes": "32"
      },
      "t_uint32": {
        "encoding": "inplace",
        "label": "uint32",
        "numberOfBytes": "4"
      }
    }
  }
}